
BLE_HealthThermometer.elf:     file format elf32-littlearm

Sections:
Idx Name          Size      VMA       LMA       File off  Algn
  0 .isr_vector   0000013c  08000000  08000000  00010000  2**0
                  CONTENTS, ALLOC, LOAD, READONLY, DATA
  1 .text         000066e0  08000140  08000140  00010140  2**4
                  CONTENTS, ALLOC, LOAD, READONLY, CODE
  2 .rodata       00000ff0  08006820  08006820  00016820  2**2
                  CONTENTS, ALLOC, LOAD, READONLY, DATA
  3 .ARM          00000008  08007810  08007810  00017810  2**2
                  CONTENTS, ALLOC, LOAD, READONLY, DATA
  4 .init_array   00000004  08007818  08007818  00017818  2**2
                  CONTENTS, ALLOC, LOAD, DATA
  5 .fini_array   00000004  0800781c  0800781c  0001781c  2**2
                  CONTENTS, ALLOC, LOAD, DATA
  6 .data         00000094  20000004  08007820  00020004  2**2
                  CONTENTS, ALLOC, LOAD, DATA
  7 BLE_APP_CONTEXT 00000151  20000098  080078b4  00020098  2**2
                  CONTENTS, ALLOC, LOAD, DATA
  8 TIMERSERVER_CONTEXT 00000099  200001ec  08007a05  000201ec  2**2
                  CONTENTS, ALLOC, LOAD, DATA
  9 BLE_DRIVER_CONTEXT 0000004d  20000288  08007a9e  00020288  2**2
                  CONTENTS, ALLOC, LOAD, DATA
 10 SYSTEM_DRIVER_CONTEXT 00000011  200002d8  08007aeb  000202d8  2**2
                  CONTENTS, ALLOC, LOAD, DATA
 11 .bss          00001380  200002ec  08007afc  000202ec  2**2
                  ALLOC
 12 ._user_heap_stack 00001404  2000166c  08007afc  0002166c  2**0
                  ALLOC
 13 .ARM.attributes 00000030  00000000  00000000  000202e9  2**0
                  CONTENTS, READONLY
 14 MAPPING_TABLE 00000028  20030000  20030000  00030000  2**2
                  ALLOC
 15 MB_MEM1       000001b8  20030028  20030028  00030000  2**2
                  ALLOC
 16 MB_MEM2       00000877  200301e0  200301e0  00030000  2**2
                  ALLOC
 17 .comment      0000007b  00000000  00000000  00020319  2**0
                  CONTENTS, READONLY
 18 .debug_frame  000007f8  00000000  00000000  00020394  2**2
                  CONTENTS, READONLY, DEBUGGING

Disassembly of section .text:

08000140 <__do_global_dtors_aux>:
 8000140:	b510      	push	{r4, lr}
 8000142:	4c05      	ldr	r4, [pc, #20]	; (8000158 <__do_global_dtors_aux+0x18>)
 8000144:	7823      	ldrb	r3, [r4, #0]
 8000146:	b933      	cbnz	r3, 8000156 <__do_global_dtors_aux+0x16>
 8000148:	4b04      	ldr	r3, [pc, #16]	; (800015c <__do_global_dtors_aux+0x1c>)
 800014a:	b113      	cbz	r3, 8000152 <__do_global_dtors_aux+0x12>
 800014c:	4804      	ldr	r0, [pc, #16]	; (8000160 <__do_global_dtors_aux+0x20>)
 800014e:	f3af 8000 	nop.w
 8000152:	2301      	movs	r3, #1
 8000154:	7023      	strb	r3, [r4, #0]
 8000156:	bd10      	pop	{r4, pc}
 8000158:	200002ec 	.word	0x200002ec
 800015c:	00000000 	.word	0x00000000
 8000160:	08006808 	.word	0x08006808

08000164 <frame_dummy>:
 8000164:	b508      	push	{r3, lr}
 8000166:	4b03      	ldr	r3, [pc, #12]	; (8000174 <frame_dummy+0x10>)
 8000168:	b11b      	cbz	r3, 8000172 <frame_dummy+0xe>
 800016a:	4903      	ldr	r1, [pc, #12]	; (8000178 <frame_dummy+0x14>)
 800016c:	4803      	ldr	r0, [pc, #12]	; (800017c <frame_dummy+0x18>)
 800016e:	f3af 8000 	nop.w
 8000172:	bd08      	pop	{r3, pc}
 8000174:	00000000 	.word	0x00000000
 8000178:	200002f0 	.word	0x200002f0
 800017c:	08006808 	.word	0x08006808

08000180 <memchr>:
 8000180:	f001 01ff 	and.w	r1, r1, #255	; 0xff
 8000184:	2a10      	cmp	r2, #16
 8000186:	db2b      	blt.n	80001e0 <memchr+0x60>
 8000188:	f010 0f07 	tst.w	r0, #7
 800018c:	d008      	beq.n	80001a0 <memchr+0x20>
 800018e:	f810 3b01 	ldrb.w	r3, [r0], #1
 8000192:	3a01      	subs	r2, #1
 8000194:	428b      	cmp	r3, r1
 8000196:	d02d      	beq.n	80001f4 <memchr+0x74>
 8000198:	f010 0f07 	tst.w	r0, #7
 800019c:	b342      	cbz	r2, 80001f0 <memchr+0x70>
 800019e:	d1f6      	bne.n	800018e <memchr+0xe>
 80001a0:	b4f0      	push	{r4, r5, r6, r7}
 80001a2:	ea41 2101 	orr.w	r1, r1, r1, lsl #8
 80001a6:	ea41 4101 	orr.w	r1, r1, r1, lsl #16
 80001aa:	f022 0407 	bic.w	r4, r2, #7
 80001ae:	f07f 0700 	mvns.w	r7, #0
 80001b2:	2300      	movs	r3, #0
 80001b4:	e8f0 5602 	ldrd	r5, r6, [r0], #8
 80001b8:	3c08      	subs	r4, #8
 80001ba:	ea85 0501 	eor.w	r5, r5, r1
 80001be:	ea86 0601 	eor.w	r6, r6, r1
 80001c2:	fa85 f547 	uadd8	r5, r5, r7
 80001c6:	faa3 f587 	sel	r5, r3, r7
 80001ca:	fa86 f647 	uadd8	r6, r6, r7
 80001ce:	faa5 f687 	sel	r6, r5, r7
 80001d2:	b98e      	cbnz	r6, 80001f8 <memchr+0x78>
 80001d4:	d1ee      	bne.n	80001b4 <memchr+0x34>
 80001d6:	bcf0      	pop	{r4, r5, r6, r7}
 80001d8:	f001 01ff 	and.w	r1, r1, #255	; 0xff
 80001dc:	f002 0207 	and.w	r2, r2, #7
 80001e0:	b132      	cbz	r2, 80001f0 <memchr+0x70>
 80001e2:	f810 3b01 	ldrb.w	r3, [r0], #1
 80001e6:	3a01      	subs	r2, #1
 80001e8:	ea83 0301 	eor.w	r3, r3, r1
 80001ec:	b113      	cbz	r3, 80001f4 <memchr+0x74>
 80001ee:	d1f8      	bne.n	80001e2 <memchr+0x62>
 80001f0:	2000      	movs	r0, #0
 80001f2:	4770      	bx	lr
 80001f4:	3801      	subs	r0, #1
 80001f6:	4770      	bx	lr
 80001f8:	2d00      	cmp	r5, #0
 80001fa:	bf06      	itte	eq
 80001fc:	4635      	moveq	r5, r6
 80001fe:	3803      	subeq	r0, #3
 8000200:	3807      	subne	r0, #7
 8000202:	f015 0f01 	tst.w	r5, #1
 8000206:	d107      	bne.n	8000218 <memchr+0x98>
 8000208:	3001      	adds	r0, #1
 800020a:	f415 7f80 	tst.w	r5, #256	; 0x100
 800020e:	bf02      	ittt	eq
 8000210:	3001      	addeq	r0, #1
 8000212:	f415 3fc0 	tsteq.w	r5, #98304	; 0x18000
 8000216:	3001      	addeq	r0, #1
 8000218:	bcf0      	pop	{r4, r5, r6, r7}
 800021a:	3801      	subs	r0, #1
 800021c:	4770      	bx	lr
 800021e:	bf00      	nop

08000220 <__aeabi_uldivmod>:
 8000220:	b953      	cbnz	r3, 8000238 <__aeabi_uldivmod+0x18>
 8000222:	b94a      	cbnz	r2, 8000238 <__aeabi_uldivmod+0x18>
 8000224:	2900      	cmp	r1, #0
 8000226:	bf08      	it	eq
 8000228:	2800      	cmpeq	r0, #0
 800022a:	bf1c      	itt	ne
 800022c:	f04f 31ff 	movne.w	r1, #4294967295
 8000230:	f04f 30ff 	movne.w	r0, #4294967295
 8000234:	f000 b972 	b.w	800051c <__aeabi_idiv0>
 8000238:	f1ad 0c08 	sub.w	ip, sp, #8
 800023c:	e96d ce04 	strd	ip, lr, [sp, #-16]!
 8000240:	f000 f806 	bl	8000250 <__udivmoddi4>
 8000244:	f8dd e004 	ldr.w	lr, [sp, #4]
 8000248:	e9dd 2302 	ldrd	r2, r3, [sp, #8]
 800024c:	b004      	add	sp, #16
 800024e:	4770      	bx	lr

08000250 <__udivmoddi4>:
 8000250:	e92d 47f0 	stmdb	sp!, {r4, r5, r6, r7, r8, r9, sl, lr}
 8000254:	9e08      	ldr	r6, [sp, #32]
 8000256:	4604      	mov	r4, r0
 8000258:	4688      	mov	r8, r1
 800025a:	2b00      	cmp	r3, #0
 800025c:	d14b      	bne.n	80002f6 <__udivmoddi4+0xa6>
 800025e:	428a      	cmp	r2, r1
 8000260:	4615      	mov	r5, r2
 8000262:	d967      	bls.n	8000334 <__udivmoddi4+0xe4>
 8000264:	fab2 f282 	clz	r2, r2
 8000268:	b14a      	cbz	r2, 800027e <__udivmoddi4+0x2e>
 800026a:	f1c2 0720 	rsb	r7, r2, #32
 800026e:	fa01 f302 	lsl.w	r3, r1, r2
 8000272:	fa20 f707 	lsr.w	r7, r0, r7
 8000276:	4095      	lsls	r5, r2
 8000278:	ea47 0803 	orr.w	r8, r7, r3
 800027c:	4094      	lsls	r4, r2
 800027e:	ea4f 4e15 	mov.w	lr, r5, lsr #16
 8000282:	0c23      	lsrs	r3, r4, #16
 8000284:	fbb8 f7fe 	udiv	r7, r8, lr
 8000288:	fa1f fc85 	uxth.w	ip, r5
 800028c:	fb0e 8817 	mls	r8, lr, r7, r8
 8000290:	ea43 4308 	orr.w	r3, r3, r8, lsl #16
 8000294:	fb07 f10c 	mul.w	r1, r7, ip
 8000298:	4299      	cmp	r1, r3
 800029a:	d909      	bls.n	80002b0 <__udivmoddi4+0x60>
 800029c:	18eb      	adds	r3, r5, r3
 800029e:	f107 30ff 	add.w	r0, r7, #4294967295
 80002a2:	f080 811b 	bcs.w	80004dc <__udivmoddi4+0x28c>
 80002a6:	4299      	cmp	r1, r3
 80002a8:	f240 8118 	bls.w	80004dc <__udivmoddi4+0x28c>
 80002ac:	3f02      	subs	r7, #2
 80002ae:	442b      	add	r3, r5
 80002b0:	1a5b      	subs	r3, r3, r1
 80002b2:	b2a4      	uxth	r4, r4
 80002b4:	fbb3 f0fe 	udiv	r0, r3, lr
 80002b8:	fb0e 3310 	mls	r3, lr, r0, r3
 80002bc:	ea44 4403 	orr.w	r4, r4, r3, lsl #16
 80002c0:	fb00 fc0c 	mul.w	ip, r0, ip
 80002c4:	45a4      	cmp	ip, r4
 80002c6:	d909      	bls.n	80002dc <__udivmoddi4+0x8c>
 80002c8:	192c      	adds	r4, r5, r4
 80002ca:	f100 33ff 	add.w	r3, r0, #4294967295
 80002ce:	f080 8107 	bcs.w	80004e0 <__udivmoddi4+0x290>
 80002d2:	45a4      	cmp	ip, r4
 80002d4:	f240 8104 	bls.w	80004e0 <__udivmoddi4+0x290>
 80002d8:	3802      	subs	r0, #2
 80002da:	442c      	add	r4, r5
 80002dc:	ea40 4007 	orr.w	r0, r0, r7, lsl #16
 80002e0:	eba4 040c 	sub.w	r4, r4, ip
 80002e4:	2700      	movs	r7, #0
 80002e6:	b11e      	cbz	r6, 80002f0 <__udivmoddi4+0xa0>
 80002e8:	40d4      	lsrs	r4, r2
 80002ea:	2300      	movs	r3, #0
 80002ec:	e9c6 4300 	strd	r4, r3, [r6]
 80002f0:	4639      	mov	r1, r7
 80002f2:	e8bd 87f0 	ldmia.w	sp!, {r4, r5, r6, r7, r8, r9, sl, pc}
 80002f6:	428b      	cmp	r3, r1
 80002f8:	d909      	bls.n	800030e <__udivmoddi4+0xbe>
 80002fa:	2e00      	cmp	r6, #0
 80002fc:	f000 80eb 	beq.w	80004d6 <__udivmoddi4+0x286>
 8000300:	2700      	movs	r7, #0
 8000302:	e9c6 0100 	strd	r0, r1, [r6]
 8000306:	4638      	mov	r0, r7
 8000308:	4639      	mov	r1, r7
 800030a:	e8bd 87f0 	ldmia.w	sp!, {r4, r5, r6, r7, r8, r9, sl, pc}
 800030e:	fab3 f783 	clz	r7, r3
 8000312:	2f00      	cmp	r7, #0
 8000314:	d147      	bne.n	80003a6 <__udivmoddi4+0x156>
 8000316:	428b      	cmp	r3, r1
 8000318:	d302      	bcc.n	8000320 <__udivmoddi4+0xd0>
 800031a:	4282      	cmp	r2, r0
 800031c:	f200 80fa 	bhi.w	8000514 <__udivmoddi4+0x2c4>
 8000320:	1a84      	subs	r4, r0, r2
 8000322:	eb61 0303 	sbc.w	r3, r1, r3
 8000326:	2001      	movs	r0, #1
 8000328:	4698      	mov	r8, r3
 800032a:	2e00      	cmp	r6, #0
 800032c:	d0e0      	beq.n	80002f0 <__udivmoddi4+0xa0>
 800032e:	e9c6 4800 	strd	r4, r8, [r6]
 8000332:	e7dd      	b.n	80002f0 <__udivmoddi4+0xa0>
 8000334:	b902      	cbnz	r2, 8000338 <__udivmoddi4+0xe8>
 8000336:	deff      	udf	#255	; 0xff
 8000338:	fab2 f282 	clz	r2, r2
 800033c:	2a00      	cmp	r2, #0
 800033e:	f040 808f 	bne.w	8000460 <__udivmoddi4+0x210>
 8000342:	1b49      	subs	r1, r1, r5
 8000344:	ea4f 4e15 	mov.w	lr, r5, lsr #16
 8000348:	fa1f f885 	uxth.w	r8, r5
 800034c:	2701      	movs	r7, #1
 800034e:	fbb1 fcfe 	udiv	ip, r1, lr
 8000352:	0c23      	lsrs	r3, r4, #16
 8000354:	fb0e 111c 	mls	r1, lr, ip, r1
 8000358:	ea43 4301 	orr.w	r3, r3, r1, lsl #16
 800035c:	fb08 f10c 	mul.w	r1, r8, ip
 8000360:	4299      	cmp	r1, r3
 8000362:	d907      	bls.n	8000374 <__udivmoddi4+0x124>
 8000364:	18eb      	adds	r3, r5, r3
 8000366:	f10c 30ff 	add.w	r0, ip, #4294967295
 800036a:	d202      	bcs.n	8000372 <__udivmoddi4+0x122>
 800036c:	4299      	cmp	r1, r3
 800036e:	f200 80cd 	bhi.w	800050c <__udivmoddi4+0x2bc>
 8000372:	4684      	mov	ip, r0
 8000374:	1a59      	subs	r1, r3, r1
 8000376:	b2a3      	uxth	r3, r4
 8000378:	fbb1 f0fe 	udiv	r0, r1, lr
 800037c:	fb0e 1410 	mls	r4, lr, r0, r1
 8000380:	ea43 4404 	orr.w	r4, r3, r4, lsl #16
 8000384:	fb08 f800 	mul.w	r8, r8, r0
 8000388:	45a0      	cmp	r8, r4
 800038a:	d907      	bls.n	800039c <__udivmoddi4+0x14c>
 800038c:	192c      	adds	r4, r5, r4
 800038e:	f100 33ff 	add.w	r3, r0, #4294967295
 8000392:	d202      	bcs.n	800039a <__udivmoddi4+0x14a>
 8000394:	45a0      	cmp	r8, r4
 8000396:	f200 80b6 	bhi.w	8000506 <__udivmoddi4+0x2b6>
 800039a:	4618      	mov	r0, r3
 800039c:	eba4 0408 	sub.w	r4, r4, r8
 80003a0:	ea40 400c 	orr.w	r0, r0, ip, lsl #16
 80003a4:	e79f      	b.n	80002e6 <__udivmoddi4+0x96>
 80003a6:	f1c7 0c20 	rsb	ip, r7, #32
 80003aa:	40bb      	lsls	r3, r7
 80003ac:	fa22 fe0c 	lsr.w	lr, r2, ip
 80003b0:	ea4e 0e03 	orr.w	lr, lr, r3
 80003b4:	fa01 f407 	lsl.w	r4, r1, r7
 80003b8:	fa20 f50c 	lsr.w	r5, r0, ip
 80003bc:	fa21 f30c 	lsr.w	r3, r1, ip
 80003c0:	ea4f 481e 	mov.w	r8, lr, lsr #16
 80003c4:	4325      	orrs	r5, r4
 80003c6:	fbb3 f9f8 	udiv	r9, r3, r8
 80003ca:	0c2c      	lsrs	r4, r5, #16
 80003cc:	fb08 3319 	mls	r3, r8, r9, r3
 80003d0:	fa1f fa8e 	uxth.w	sl, lr
 80003d4:	ea44 4303 	orr.w	r3, r4, r3, lsl #16
 80003d8:	fb09 f40a 	mul.w	r4, r9, sl
 80003dc:	429c      	cmp	r4, r3
 80003de:	fa02 f207 	lsl.w	r2, r2, r7
 80003e2:	fa00 f107 	lsl.w	r1, r0, r7
 80003e6:	d90b      	bls.n	8000400 <__udivmoddi4+0x1b0>
 80003e8:	eb1e 0303 	adds.w	r3, lr, r3
 80003ec:	f109 30ff 	add.w	r0, r9, #4294967295
 80003f0:	f080 8087 	bcs.w	8000502 <__udivmoddi4+0x2b2>
 80003f4:	429c      	cmp	r4, r3
 80003f6:	f240 8084 	bls.w	8000502 <__udivmoddi4+0x2b2>
 80003fa:	f1a9 0902 	sub.w	r9, r9, #2
 80003fe:	4473      	add	r3, lr
 8000400:	1b1b      	subs	r3, r3, r4
 8000402:	b2ad      	uxth	r5, r5
 8000404:	fbb3 f0f8 	udiv	r0, r3, r8
 8000408:	fb08 3310 	mls	r3, r8, r0, r3
 800040c:	ea45 4403 	orr.w	r4, r5, r3, lsl #16
 8000410:	fb00 fa0a 	mul.w	sl, r0, sl
 8000414:	45a2      	cmp	sl, r4
 8000416:	d908      	bls.n	800042a <__udivmoddi4+0x1da>
 8000418:	eb1e 0404 	adds.w	r4, lr, r4
 800041c:	f100 33ff 	add.w	r3, r0, #4294967295
 8000420:	d26b      	bcs.n	80004fa <__udivmoddi4+0x2aa>
 8000422:	45a2      	cmp	sl, r4
 8000424:	d969      	bls.n	80004fa <__udivmoddi4+0x2aa>
 8000426:	3802      	subs	r0, #2
 8000428:	4474      	add	r4, lr
 800042a:	ea40 4009 	orr.w	r0, r0, r9, lsl #16
 800042e:	fba0 8902 	umull	r8, r9, r0, r2
 8000432:	eba4 040a 	sub.w	r4, r4, sl
 8000436:	454c      	cmp	r4, r9
 8000438:	46c2      	mov	sl, r8
 800043a:	464b      	mov	r3, r9
 800043c:	d354      	bcc.n	80004e8 <__udivmoddi4+0x298>
 800043e:	d051      	beq.n	80004e4 <__udivmoddi4+0x294>
 8000440:	2e00      	cmp	r6, #0
 8000442:	d069      	beq.n	8000518 <__udivmoddi4+0x2c8>
 8000444:	ebb1 050a 	subs.w	r5, r1, sl
 8000448:	eb64 0403 	sbc.w	r4, r4, r3
 800044c:	fa04 fc0c 	lsl.w	ip, r4, ip
 8000450:	40fd      	lsrs	r5, r7
 8000452:	40fc      	lsrs	r4, r7
 8000454:	ea4c 0505 	orr.w	r5, ip, r5
 8000458:	e9c6 5400 	strd	r5, r4, [r6]
 800045c:	2700      	movs	r7, #0
 800045e:	e747      	b.n	80002f0 <__udivmoddi4+0xa0>
 8000460:	f1c2 0320 	rsb	r3, r2, #32
 8000464:	fa20 f703 	lsr.w	r7, r0, r3
 8000468:	4095      	lsls	r5, r2
 800046a:	fa01 f002 	lsl.w	r0, r1, r2
 800046e:	fa21 f303 	lsr.w	r3, r1, r3
 8000472:	ea4f 4e15 	mov.w	lr, r5, lsr #16
 8000476:	4338      	orrs	r0, r7
 8000478:	0c01      	lsrs	r1, r0, #16
 800047a:	fbb3 f7fe 	udiv	r7, r3, lr
 800047e:	fa1f f885 	uxth.w	r8, r5
 8000482:	fb0e 3317 	mls	r3, lr, r7, r3
 8000486:	ea41 4103 	orr.w	r1, r1, r3, lsl #16
 800048a:	fb07 f308 	mul.w	r3, r7, r8
 800048e:	428b      	cmp	r3, r1
 8000490:	fa04 f402 	lsl.w	r4, r4, r2
 8000494:	d907      	bls.n	80004a6 <__udivmoddi4+0x256>
 8000496:	1869      	adds	r1, r5, r1
 8000498:	f107 3cff 	add.w	ip, r7, #4294967295
 800049c:	d22f      	bcs.n	80004fe <__udivmoddi4+0x2ae>
 800049e:	428b      	cmp	r3, r1
 80004a0:	d92d      	bls.n	80004fe <__udivmoddi4+0x2ae>
 80004a2:	3f02      	subs	r7, #2
 80004a4:	4429      	add	r1, r5
 80004a6:	1acb      	subs	r3, r1, r3
 80004a8:	b281      	uxth	r1, r0
 80004aa:	fbb3 f0fe 	udiv	r0, r3, lr
 80004ae:	fb0e 3310 	mls	r3, lr, r0, r3
 80004b2:	ea41 4103 	orr.w	r1, r1, r3, lsl #16
 80004b6:	fb00 f308 	mul.w	r3, r0, r8
 80004ba:	428b      	cmp	r3, r1
 80004bc:	d907      	bls.n	80004ce <__udivmoddi4+0x27e>
 80004be:	1869      	adds	r1, r5, r1
 80004c0:	f100 3cff 	add.w	ip, r0, #4294967295
 80004c4:	d217      	bcs.n	80004f6 <__udivmoddi4+0x2a6>
 80004c6:	428b      	cmp	r3, r1
 80004c8:	d915      	bls.n	80004f6 <__udivmoddi4+0x2a6>
 80004ca:	3802      	subs	r0, #2
 80004cc:	4429      	add	r1, r5
 80004ce:	1ac9      	subs	r1, r1, r3
 80004d0:	ea40 4707 	orr.w	r7, r0, r7, lsl #16
 80004d4:	e73b      	b.n	800034e <__udivmoddi4+0xfe>
 80004d6:	4637      	mov	r7, r6
 80004d8:	4630      	mov	r0, r6
 80004da:	e709      	b.n	80002f0 <__udivmoddi4+0xa0>
 80004dc:	4607      	mov	r7, r0
 80004de:	e6e7      	b.n	80002b0 <__udivmoddi4+0x60>
 80004e0:	4618      	mov	r0, r3
 80004e2:	e6fb      	b.n	80002dc <__udivmoddi4+0x8c>
 80004e4:	4541      	cmp	r1, r8
 80004e6:	d2ab      	bcs.n	8000440 <__udivmoddi4+0x1f0>
 80004e8:	ebb8 0a02 	subs.w	sl, r8, r2
 80004ec:	eb69 020e 	sbc.w	r2, r9, lr
 80004f0:	3801      	subs	r0, #1
 80004f2:	4613      	mov	r3, r2
 80004f4:	e7a4      	b.n	8000440 <__udivmoddi4+0x1f0>
 80004f6:	4660      	mov	r0, ip
 80004f8:	e7e9      	b.n	80004ce <__udivmoddi4+0x27e>
 80004fa:	4618      	mov	r0, r3
 80004fc:	e795      	b.n	800042a <__udivmoddi4+0x1da>
 80004fe:	4667      	mov	r7, ip
 8000500:	e7d1      	b.n	80004a6 <__udivmoddi4+0x256>
 8000502:	4681      	mov	r9, r0
 8000504:	e77c      	b.n	8000400 <__udivmoddi4+0x1b0>
 8000506:	3802      	subs	r0, #2
 8000508:	442c      	add	r4, r5
 800050a:	e747      	b.n	800039c <__udivmoddi4+0x14c>
 800050c:	f1ac 0c02 	sub.w	ip, ip, #2
 8000510:	442b      	add	r3, r5
 8000512:	e72f      	b.n	8000374 <__udivmoddi4+0x124>
 8000514:	4638      	mov	r0, r7
 8000516:	e708      	b.n	800032a <__udivmoddi4+0xda>
 8000518:	4637      	mov	r7, r6
 800051a:	e6e9      	b.n	80002f0 <__udivmoddi4+0xa0>

0800051c <__aeabi_idiv0>:
 800051c:	4770      	bx	lr
 800051e:	bf00      	nop

08000520 <CopyDataInit>:
 8000520:	58d4      	ldr	r4, [r2, r3]
 8000522:	50c4      	str	r4, [r0, r3]
 8000524:	3304      	adds	r3, #4

08000526 <LoopCopyDataInit>:
 8000526:	18c4      	adds	r4, r0, r3
 8000528:	428c      	cmp	r4, r1
 800052a:	d3f9      	bcc.n	8000520 <CopyDataInit>
 800052c:	4770      	bx	lr

0800052e <FillZerobss>:
 800052e:	6003      	str	r3, [r0, #0]
 8000530:	3004      	adds	r0, #4

08000532 <LoopFillZerobss>:
 8000532:	4288      	cmp	r0, r1
 8000534:	d3fb      	bcc.n	800052e <FillZerobss>
 8000536:	4770      	bx	lr

08000538 <Reset_Handler>:
 8000538:	480c      	ldr	r0, [pc, #48]	; (800056c <LoopForever+0x4>)
 800053a:	4685      	mov	sp, r0
 800053c:	f001 fd42 	bl	8001fc4 <SystemInit>
 8000540:	480b      	ldr	r0, [pc, #44]	; (8000570 <LoopForever+0x8>)
 8000542:	490c      	ldr	r1, [pc, #48]	; (8000574 <LoopForever+0xc>)
 8000544:	4a0c      	ldr	r2, [pc, #48]	; (8000578 <LoopForever+0x10>)
 8000546:	2300      	movs	r3, #0
 8000548:	f7ff ffed 	bl	8000526 <LoopCopyDataInit>
 800054c:	480b      	ldr	r0, [pc, #44]	; (800057c <LoopForever+0x14>)
 800054e:	490c      	ldr	r1, [pc, #48]	; (8000580 <LoopForever+0x18>)
 8000550:	2300      	movs	r3, #0
 8000552:	f7ff ffee 	bl	8000532 <LoopFillZerobss>
 8000556:	480b      	ldr	r0, [pc, #44]	; (8000584 <LoopForever+0x1c>)
 8000558:	490b      	ldr	r1, [pc, #44]	; (8000588 <LoopForever+0x20>)
 800055a:	2300      	movs	r3, #0
 800055c:	f7ff ffe9 	bl	8000532 <LoopFillZerobss>
 8000560:	f005 f9d2 	bl	8005908 <__libc_init_array>
 8000564:	f001 fa44 	bl	80019f0 <main>

08000568 <LoopForever>:
 8000568:	e7fe      	b.n	8000568 <LoopForever>
 800056a:	0000      	.short	0x0000
 800056c:	20030000 	.word	0x20030000
 8000570:	20000004 	.word	0x20000004
 8000574:	20000098 	.word	0x20000098
 8000578:	08007820 	.word	0x08007820
 800057c:	200002ec 	.word	0x200002ec
 8000580:	2000166c 	.word	0x2000166c
 8000584:	200301e0 	.word	0x200301e0
 8000588:	20030a57 	.word	0x20030a57

0800058c <ADC1_IRQHandler>:
 800058c:	e7fe      	b.n	800058c <ADC1_IRQHandler>

0800058e <Adv_Mgr>:
 800058e:	2100      	movs	r1, #0
 8000590:	2001      	movs	r0, #1
 8000592:	f004 be97 	b.w	80052c4 <UTIL_SEQ_SetTask>

08000596 <BLE_UserEvtRx>:
 8000596:	b510      	push	{r4, lr}
 8000598:	4604      	mov	r4, r0
 800059a:	6840      	ldr	r0, [r0, #4]
 800059c:	3008      	adds	r0, #8
 800059e:	f004 fca9 	bl	8004ef4 <SVCCTL_UserEvtRx>
 80005a2:	b110      	cbz	r0, 80005aa <BLE_UserEvtRx+0x14>
 80005a4:	2301      	movs	r3, #1
 80005a6:	7023      	strb	r3, [r4, #0]
 80005a8:	bd10      	pop	{r4, pc}
 80005aa:	7020      	strb	r0, [r4, #0]
 80005ac:	e7fc      	b.n	80005a8 <BLE_UserEvtRx+0x12>

080005ae <BLE_StatusNot>:
 80005ae:	b110      	cbz	r0, 80005b6 <BLE_StatusNot+0x8>
 80005b0:	2801      	cmp	r0, #1
 80005b2:	d003      	beq.n	80005bc <BLE_StatusNot+0xe>
 80005b4:	4770      	bx	lr
 80005b6:	203f      	movs	r0, #63	; 0x3f
 80005b8:	f004 be9a 	b.w	80052f0 <UTIL_SEQ_PauseTask>
 80005bc:	203f      	movs	r0, #63	; 0x3f
 80005be:	f004 bea5 	b.w	800530c <UTIL_SEQ_ResumeTask>
	...

080005c4 <Adv_Request>:
 80005c4:	b5f0      	push	{r4, r5, r6, r7, lr}
 80005c6:	4c2b      	ldr	r4, [pc, #172]	; (8000674 <Adv_Request+0xb0>)
 80005c8:	2801      	cmp	r0, #1
 80005ca:	b089      	sub	sp, #36	; 0x24
 80005cc:	4605      	mov	r5, r0
 80005ce:	f894 0085 	ldrb.w	r0, [r4, #133]	; 0x85
 80005d2:	bf07      	ittee	eq
 80005d4:	8826      	ldrheq	r6, [r4, #0]
 80005d6:	8867      	ldrheq	r7, [r4, #2]
 80005d8:	f44f 677a 	movne.w	r7, #4000	; 0xfa0
 80005dc:	f44f 66c8 	movne.w	r6, #1600	; 0x640
 80005e0:	f001 f81a 	bl	8001618 <HW_TS_Stop>
 80005e4:	f894 1084 	ldrb.w	r1, [r4, #132]	; 0x84
 80005e8:	4823      	ldr	r0, [pc, #140]	; (8000678 <Adv_Request+0xb4>)
 80005ea:	f005 f9c5 	bl	8005978 <iprintf>
 80005ee:	2d02      	cmp	r5, #2
 80005f0:	d10b      	bne.n	800060a <Adv_Request+0x46>
 80005f2:	f894 3084 	ldrb.w	r3, [r4, #132]	; 0x84
 80005f6:	3b01      	subs	r3, #1
 80005f8:	2b01      	cmp	r3, #1
 80005fa:	d806      	bhi.n	800060a <Adv_Request+0x46>
 80005fc:	f003 fc30 	bl	8003e60 <aci_gap_set_non_discoverable>
 8000600:	4601      	mov	r1, r0
 8000602:	bb20      	cbnz	r0, 800064e <Adv_Request+0x8a>
 8000604:	481d      	ldr	r0, [pc, #116]	; (800067c <Adv_Request+0xb8>)
 8000606:	f005 fa2b 	bl	8005a60 <puts>
 800060a:	4a1d      	ldr	r2, [pc, #116]	; (8000680 <Adv_Request+0xbc>)
 800060c:	9204      	str	r2, [sp, #16]
 800060e:	7f22      	ldrb	r2, [r4, #28]
 8000610:	9203      	str	r2, [sp, #12]
 8000612:	4a1c      	ldr	r2, [pc, #112]	; (8000684 <Adv_Request+0xc0>)
 8000614:	9202      	str	r2, [sp, #8]
 8000616:	2300      	movs	r3, #0
 8000618:	2206      	movs	r2, #6
 800061a:	e9cd 3200 	strd	r3, r2, [sp]
 800061e:	4631      	mov	r1, r6
 8000620:	e9cd 3305 	strd	r3, r3, [sp, #20]
 8000624:	463a      	mov	r2, r7
 8000626:	4618      	mov	r0, r3
 8000628:	f884 5084 	strb.w	r5, [r4, #132]	; 0x84
 800062c:	f003 fc36 	bl	8003e9c <aci_gap_set_discoverable>
 8000630:	4601      	mov	r1, r0
 8000632:	b9b0      	cbnz	r0, 8000662 <Adv_Request+0x9e>
 8000634:	2d01      	cmp	r5, #1
 8000636:	d10e      	bne.n	8000656 <Adv_Request+0x92>
 8000638:	4813      	ldr	r0, [pc, #76]	; (8000688 <Adv_Request+0xc4>)
 800063a:	f005 fa11 	bl	8005a60 <puts>
 800063e:	4913      	ldr	r1, [pc, #76]	; (800068c <Adv_Request+0xc8>)
 8000640:	f894 0085 	ldrb.w	r0, [r4, #133]	; 0x85
 8000644:	b009      	add	sp, #36	; 0x24
 8000646:	e8bd 40f0 	ldmia.w	sp!, {r4, r5, r6, r7, lr}
 800064a:	f001 b83b 	b.w	80016c4 <HW_TS_Start>
 800064e:	4810      	ldr	r0, [pc, #64]	; (8000690 <Adv_Request+0xcc>)
 8000650:	f005 f992 	bl	8005978 <iprintf>
 8000654:	e7d9      	b.n	800060a <Adv_Request+0x46>
 8000656:	480f      	ldr	r0, [pc, #60]	; (8000694 <Adv_Request+0xd0>)
 8000658:	b009      	add	sp, #36	; 0x24
 800065a:	e8bd 40f0 	ldmia.w	sp!, {r4, r5, r6, r7, lr}
 800065e:	f005 b9ff 	b.w	8005a60 <puts>
 8000662:	2d01      	cmp	r5, #1
 8000664:	bf0c      	ite	eq
 8000666:	480c      	ldreq	r0, [pc, #48]	; (8000698 <Adv_Request+0xd4>)
 8000668:	480c      	ldrne	r0, [pc, #48]	; (800069c <Adv_Request+0xd8>)
 800066a:	b009      	add	sp, #36	; 0x24
 800066c:	e8bd 40f0 	ldmia.w	sp!, {r4, r5, r6, r7, lr}
 8000670:	f005 b982 	b.w	8005978 <iprintf>
 8000674:	20000098 	.word	0x20000098
 8000678:	080068eb 	.word	0x080068eb
 800067c:	08006905 	.word	0x08006905
 8000680:	200000b5 	.word	0x200000b5
 8000684:	08006d94 	.word	0x08006d94
 8000688:	0800694e 	.word	0x0800694e
 800068c:	0001e046 	.word	0x0001e046
 8000690:	08006927 	.word	0x08006927
 8000694:	08006973 	.word	0x08006973
 8000698:	0800699d 	.word	0x0800699d
 800069c:	080069ca 	.word	0x080069ca

080006a0 <Adv_Update>:
 80006a0:	2002      	movs	r0, #2
 80006a2:	f7ff bf8f 	b.w	80005c4 <Adv_Request>
	...

080006a8 <APP_BLE_Init>:
 80006a8:	b570      	push	{r4, r5, r6, lr}
 80006aa:	4b67      	ldr	r3, [pc, #412]	; (8000848 <APP_BLE_Init+0x1a0>)
 80006ac:	b096      	sub	sp, #88	; 0x58
 80006ae:	aa0a      	add	r2, sp, #40	; 0x28
 80006b0:	f103 0628 	add.w	r6, r3, #40	; 0x28
 80006b4:	4615      	mov	r5, r2
 80006b6:	6818      	ldr	r0, [r3, #0]
 80006b8:	6859      	ldr	r1, [r3, #4]
 80006ba:	4614      	mov	r4, r2
 80006bc:	c403      	stmia	r4!, {r0, r1}
 80006be:	3308      	adds	r3, #8
 80006c0:	42b3      	cmp	r3, r6
 80006c2:	4622      	mov	r2, r4
 80006c4:	d1f7      	bne.n	80006b6 <APP_BLE_Init+0xe>
 80006c6:	6818      	ldr	r0, [r3, #0]
 80006c8:	791b      	ldrb	r3, [r3, #4]
 80006ca:	7123      	strb	r3, [r4, #4]
 80006cc:	4b5f      	ldr	r3, [pc, #380]	; (800084c <APP_BLE_Init+0x1a4>)
 80006ce:	6020      	str	r0, [r4, #0]
 80006d0:	a908      	add	r1, sp, #32
 80006d2:	9308      	str	r3, [sp, #32]
 80006d4:	485e      	ldr	r0, [pc, #376]	; (8000850 <APP_BLE_Init+0x1a8>)
 80006d6:	4b5f      	ldr	r3, [pc, #380]	; (8000854 <APP_BLE_Init+0x1ac>)
 80006d8:	9309      	str	r3, [sp, #36]	; 0x24
 80006da:	f004 f90f 	bl	80048fc <hci_init>
 80006de:	2101      	movs	r1, #1
 80006e0:	2002      	movs	r0, #2
 80006e2:	f004 fdd9 	bl	8005298 <UTIL_LPM_SetOffMode>
 80006e6:	2020      	movs	r0, #32
 80006e8:	4a5b      	ldr	r2, [pc, #364]	; (8000858 <APP_BLE_Init+0x1b0>)
 80006ea:	2100      	movs	r1, #0
 80006ec:	f004 fefc 	bl	80054e8 <UTIL_SEQ_RegTask>
 80006f0:	4628      	mov	r0, r5
 80006f2:	f004 fae5 	bl	8004cc0 <SHCI_C2_BLE_Init>
 80006f6:	b108      	cbz	r0, 80006fc <APP_BLE_Init+0x54>
 80006f8:	f001 fa68 	bl	8001bcc <Error_Handler>
 80006fc:	4c57      	ldr	r4, [pc, #348]	; (800085c <APP_BLE_Init+0x1b4>)
 80006fe:	2500      	movs	r5, #0
 8000700:	f8ad 5018 	strh.w	r5, [sp, #24]
 8000704:	f003 fe9c 	bl	8004440 <hci_reset>
 8000708:	6823      	ldr	r3, [r4, #0]
 800070a:	1c5a      	adds	r2, r3, #1
 800070c:	f000 8093 	beq.w	8000836 <APP_BLE_Init+0x18e>
 8000710:	4a53      	ldr	r2, [pc, #332]	; (8000860 <APP_BLE_Init+0x1b8>)
 8000712:	6811      	ldr	r1, [r2, #0]
 8000714:	4a53      	ldr	r2, [pc, #332]	; (8000864 <APP_BLE_Init+0x1bc>)
 8000716:	0a18      	lsrs	r0, r3, #8
 8000718:	7013      	strb	r3, [r2, #0]
 800071a:	0c1b      	lsrs	r3, r3, #16
 800071c:	7093      	strb	r3, [r2, #2]
 800071e:	70d1      	strb	r1, [r2, #3]
 8000720:	0a0b      	lsrs	r3, r1, #8
 8000722:	0c09      	lsrs	r1, r1, #16
 8000724:	7050      	strb	r0, [r2, #1]
 8000726:	7113      	strb	r3, [r2, #4]
 8000728:	7151      	strb	r1, [r2, #5]
 800072a:	2106      	movs	r1, #6
 800072c:	2000      	movs	r0, #0
 800072e:	f003 fe35 	bl	800439c <aci_hal_write_config_data>
 8000732:	f64e 536e 	movw	r3, #60782	; 0xed6e
 8000736:	9309      	str	r3, [sp, #36]	; 0x24
 8000738:	6823      	ldr	r3, [r4, #0]
 800073a:	9308      	str	r3, [sp, #32]
 800073c:	aa08      	add	r2, sp, #32
 800073e:	2106      	movs	r1, #6
 8000740:	202e      	movs	r0, #46	; 0x2e
 8000742:	f003 fe2b 	bl	800439c <aci_hal_write_config_data>
 8000746:	4a48      	ldr	r2, [pc, #288]	; (8000868 <APP_BLE_Init+0x1c0>)
 8000748:	2110      	movs	r1, #16
 800074a:	2018      	movs	r0, #24
 800074c:	f003 fe26 	bl	800439c <aci_hal_write_config_data>
 8000750:	4a46      	ldr	r2, [pc, #280]	; (800086c <APP_BLE_Init+0x1c4>)
 8000752:	2110      	movs	r1, #16
 8000754:	2008      	movs	r0, #8
 8000756:	f003 fe21 	bl	800439c <aci_hal_write_config_data>
 800075a:	2118      	movs	r1, #24
 800075c:	2001      	movs	r0, #1
 800075e:	f003 fe49 	bl	80043f4 <aci_hal_set_tx_power_level>
 8000762:	f003 fd25 	bl	80041b0 <aci_gatt_init>
 8000766:	f10d 031e 	add.w	r3, sp, #30
 800076a:	9301      	str	r3, [sp, #4]
 800076c:	ab07      	add	r3, sp, #28
 800076e:	9300      	str	r3, [sp, #0]
 8000770:	2207      	movs	r2, #7
 8000772:	f10d 031a 	add.w	r3, sp, #26
 8000776:	2100      	movs	r1, #0
 8000778:	2001      	movs	r0, #1
 800077a:	f003 fc6f 	bl	800405c <aci_gap_init>
 800077e:	4b3c      	ldr	r3, [pc, #240]	; (8000870 <APP_BLE_Init+0x1c8>)
 8000780:	9300      	str	r3, [sp, #0]
 8000782:	f8bd 101c 	ldrh.w	r1, [sp, #28]
 8000786:	f8bd 001a 	ldrh.w	r0, [sp, #26]
 800078a:	2305      	movs	r3, #5
 800078c:	2200      	movs	r2, #0
 800078e:	f003 fdd5 	bl	800433c <aci_gatt_update_char_value>
 8000792:	b110      	cbz	r0, 800079a <APP_BLE_Init+0xf2>
 8000794:	4837      	ldr	r0, [pc, #220]	; (8000874 <APP_BLE_Init+0x1cc>)
 8000796:	f005 f963 	bl	8005a60 <puts>
 800079a:	ab06      	add	r3, sp, #24
 800079c:	9300      	str	r3, [sp, #0]
 800079e:	f8bd 101e 	ldrh.w	r1, [sp, #30]
 80007a2:	f8bd 001a 	ldrh.w	r0, [sp, #26]
 80007a6:	2302      	movs	r3, #2
 80007a8:	2200      	movs	r2, #0
 80007aa:	f003 fdc7 	bl	800433c <aci_gatt_update_char_value>
 80007ae:	b110      	cbz	r0, 80007b6 <APP_BLE_Init+0x10e>
 80007b0:	4831      	ldr	r0, [pc, #196]	; (8000878 <APP_BLE_Init+0x1d0>)
 80007b2:	f005 f955 	bl	8005a60 <puts>
 80007b6:	4c31      	ldr	r4, [pc, #196]	; (800087c <APP_BLE_Init+0x1d4>)
 80007b8:	2601      	movs	r6, #1
 80007ba:	4630      	mov	r0, r6
 80007bc:	7126      	strb	r6, [r4, #4]
 80007be:	f003 fbc9 	bl	8003f54 <aci_gap_set_io_capability>
 80007c2:	492f      	ldr	r1, [pc, #188]	; (8000880 <APP_BLE_Init+0x1d8>)
 80007c4:	60e1      	str	r1, [r4, #12]
 80007c6:	2500      	movs	r5, #0
 80007c8:	2308      	movs	r3, #8
 80007ca:	2210      	movs	r2, #16
 80007cc:	7223      	strb	r3, [r4, #8]
 80007ce:	7262      	strb	r2, [r4, #9]
 80007d0:	7166      	strb	r6, [r4, #5]
 80007d2:	71e5      	strb	r5, [r4, #7]
 80007d4:	71a5      	strb	r5, [r4, #6]
 80007d6:	4628      	mov	r0, r5
 80007d8:	e9cd 1503 	strd	r1, r5, [sp, #12]
 80007dc:	e9cd 2501 	strd	r2, r5, [sp, #4]
 80007e0:	9300      	str	r3, [sp, #0]
 80007e2:	4632      	mov	r2, r6
 80007e4:	462b      	mov	r3, r5
 80007e6:	4631      	mov	r1, r6
 80007e8:	f003 fbd6 	bl	8003f98 <aci_gap_set_authentication_requirement>
 80007ec:	79a3      	ldrb	r3, [r4, #6]
 80007ee:	b10b      	cbz	r3, 80007f4 <APP_BLE_Init+0x14c>
 80007f0:	f003 fc76 	bl	80040e0 <aci_gap_configure_whitelist>
 80007f4:	f004 fb68 	bl	8004ec8 <SVCCTL_Init>
 80007f8:	f64f 73ff 	movw	r3, #65535	; 0xffff
 80007fc:	4a21      	ldr	r2, [pc, #132]	; (8000884 <APP_BLE_Init+0x1dc>)
 80007fe:	8363      	strh	r3, [r4, #26]
 8000800:	2100      	movs	r1, #0
 8000802:	2001      	movs	r0, #1
 8000804:	f884 5084 	strb.w	r5, [r4, #132]	; 0x84
 8000808:	f004 fe6e 	bl	80054e8 <UTIL_SEQ_RegTask>
 800080c:	f000 f936 	bl	8000a7c <DISAPP_Init>
 8000810:	f000 faf2 	bl	8000df8 <HTSAPP_Init>
 8000814:	2200      	movs	r2, #0
 8000816:	491c      	ldr	r1, [pc, #112]	; (8000888 <APP_BLE_Init+0x1e0>)
 8000818:	4b1c      	ldr	r3, [pc, #112]	; (800088c <APP_BLE_Init+0x1e4>)
 800081a:	4610      	mov	r0, r2
 800081c:	f000 fed2 	bl	80015c4 <HW_TS_Create>
 8000820:	4b1b      	ldr	r3, [pc, #108]	; (8000890 <APP_BLE_Init+0x1e8>)
 8000822:	61e3      	str	r3, [r4, #28]
 8000824:	2380      	movs	r3, #128	; 0x80
 8000826:	8023      	strh	r3, [r4, #0]
 8000828:	2001      	movs	r0, #1
 800082a:	23a0      	movs	r3, #160	; 0xa0
 800082c:	8063      	strh	r3, [r4, #2]
 800082e:	f7ff fec9 	bl	80005c4 <Adv_Request>
 8000832:	b016      	add	sp, #88	; 0x58
 8000834:	bd70      	pop	{r4, r5, r6, pc}
 8000836:	4628      	mov	r0, r5
 8000838:	f004 fd14 	bl	8005264 <OTP_Read>
 800083c:	4a15      	ldr	r2, [pc, #84]	; (8000894 <APP_BLE_Init+0x1ec>)
 800083e:	2800      	cmp	r0, #0
 8000840:	bf18      	it	ne
 8000842:	4602      	movne	r2, r0
 8000844:	e771      	b.n	800072a <APP_BLE_Init+0x82>
 8000846:	bf00      	nop
 8000848:	08006820 	.word	0x08006820
 800084c:	20030028 	.word	0x20030028
 8000850:	08000597 	.word	0x08000597
 8000854:	080005af 	.word	0x080005af
 8000858:	08004951 	.word	0x08004951
 800085c:	1fff7580 	.word	0x1fff7580
 8000860:	1fff7584 	.word	0x1fff7584
 8000864:	20000308 	.word	0x20000308
 8000868:	08006a0c 	.word	0x08006a0c
 800086c:	080069fc 	.word	0x080069fc
 8000870:	08006888 	.word	0x08006888
 8000874:	0800688e 	.word	0x0800688e
 8000878:	080068bd 	.word	0x080068bd
 800087c:	20000098 	.word	0x20000098
 8000880:	0001b207 	.word	0x0001b207
 8000884:	080006a1 	.word	0x080006a1
 8000888:	2000011d 	.word	0x2000011d
 800088c:	0800058f 	.word	0x0800058f
 8000890:	18090203 	.word	0x18090203
 8000894:	08006a1c 	.word	0x08006a1c

08000898 <SVCCTL_App_Notification>:
 8000898:	b537      	push	{r0, r1, r2, r4, r5, lr}
 800089a:	7843      	ldrb	r3, [r0, #1]
 800089c:	2b3e      	cmp	r3, #62	; 0x3e
 800089e:	4604      	mov	r4, r0
 80008a0:	d015      	beq.n	80008ce <SVCCTL_App_Notification+0x36>
 80008a2:	2bff      	cmp	r3, #255	; 0xff
 80008a4:	d05b      	beq.n	800095e <SVCCTL_App_Notification+0xc6>
 80008a6:	2b05      	cmp	r3, #5
 80008a8:	d10e      	bne.n	80008c8 <SVCCTL_App_Notification+0x30>
 80008aa:	4b51      	ldr	r3, [pc, #324]	; (80009f0 <SVCCTL_App_Notification+0x158>)
 80008ac:	8881      	ldrh	r1, [r0, #4]
 80008ae:	8b5a      	ldrh	r2, [r3, #26]
 80008b0:	4291      	cmp	r1, r2
 80008b2:	d106      	bne.n	80008c2 <SVCCTL_App_Notification+0x2a>
 80008b4:	2200      	movs	r2, #0
 80008b6:	484f      	ldr	r0, [pc, #316]	; (80009f4 <SVCCTL_App_Notification+0x15c>)
 80008b8:	835a      	strh	r2, [r3, #26]
 80008ba:	f883 2084 	strb.w	r2, [r3, #132]	; 0x84
 80008be:	f005 f8cf 	bl	8005a60 <puts>
 80008c2:	2001      	movs	r0, #1
 80008c4:	f7ff fe7e 	bl	80005c4 <Adv_Request>
 80008c8:	2001      	movs	r0, #1
 80008ca:	b003      	add	sp, #12
 80008cc:	bd30      	pop	{r4, r5, pc}
 80008ce:	78c3      	ldrb	r3, [r0, #3]
 80008d0:	2b03      	cmp	r3, #3
 80008d2:	d01b      	beq.n	800090c <SVCCTL_App_Notification+0x74>
 80008d4:	2b0c      	cmp	r3, #12
 80008d6:	d01d      	beq.n	8000914 <SVCCTL_App_Notification+0x7c>
 80008d8:	2b01      	cmp	r3, #1
 80008da:	d1f5      	bne.n	80008c8 <SVCCTL_App_Notification+0x30>
 80008dc:	4d44      	ldr	r5, [pc, #272]	; (80009f0 <SVCCTL_App_Notification+0x158>)
 80008de:	f895 0085 	ldrb.w	r0, [r5, #133]	; 0x85
 80008e2:	f000 fe99 	bl	8001618 <HW_TS_Stop>
 80008e6:	f8b4 1005 	ldrh.w	r1, [r4, #5]
 80008ea:	4843      	ldr	r0, [pc, #268]	; (80009f8 <SVCCTL_App_Notification+0x160>)
 80008ec:	f005 f844 	bl	8005978 <iprintf>
 80008f0:	f895 3084 	ldrb.w	r3, [r5, #132]	; 0x84
 80008f4:	2b04      	cmp	r3, #4
 80008f6:	bf0c      	ite	eq
 80008f8:	2306      	moveq	r3, #6
 80008fa:	2305      	movne	r3, #5
 80008fc:	f885 3084 	strb.w	r3, [r5, #132]	; 0x84
 8000900:	79a2      	ldrb	r2, [r4, #6]
 8000902:	7963      	ldrb	r3, [r4, #5]
 8000904:	ea43 2302 	orr.w	r3, r3, r2, lsl #8
 8000908:	836b      	strh	r3, [r5, #26]
 800090a:	e7dd      	b.n	80008c8 <SVCCTL_App_Notification+0x30>
 800090c:	483b      	ldr	r0, [pc, #236]	; (80009fc <SVCCTL_App_Notification+0x164>)
 800090e:	f005 f8a7 	bl	8005a60 <puts>
 8000912:	e7d9      	b.n	80008c8 <SVCCTL_App_Notification+0x30>
 8000914:	483a      	ldr	r0, [pc, #232]	; (8000a00 <SVCCTL_App_Notification+0x168>)
 8000916:	f005 f8a3 	bl	8005a60 <puts>
 800091a:	7923      	ldrb	r3, [r4, #4]
 800091c:	b9db      	cbnz	r3, 8000956 <SVCCTL_App_Notification+0xbe>
 800091e:	4839      	ldr	r0, [pc, #228]	; (8000a04 <SVCCTL_App_Notification+0x16c>)
 8000920:	f005 f89e 	bl	8005a60 <puts>
 8000924:	4b32      	ldr	r3, [pc, #200]	; (80009f0 <SVCCTL_App_Notification+0x158>)
 8000926:	f10d 0207 	add.w	r2, sp, #7
 800092a:	f10d 0106 	add.w	r1, sp, #6
 800092e:	8b58      	ldrh	r0, [r3, #26]
 8000930:	f003 fda4 	bl	800447c <hci_le_read_phy>
 8000934:	b988      	cbnz	r0, 800095a <SVCCTL_App_Notification+0xc2>
 8000936:	4834      	ldr	r0, [pc, #208]	; (8000a08 <SVCCTL_App_Notification+0x170>)
 8000938:	f005 f892 	bl	8005a60 <puts>
 800093c:	f89d 1006 	ldrb.w	r1, [sp, #6]
 8000940:	f89d 2007 	ldrb.w	r2, [sp, #7]
 8000944:	2902      	cmp	r1, #2
 8000946:	d102      	bne.n	800094e <SVCCTL_App_Notification+0xb6>
 8000948:	2a02      	cmp	r2, #2
 800094a:	bf08      	it	eq
 800094c:	4611      	moveq	r1, r2
 800094e:	482f      	ldr	r0, [pc, #188]	; (8000a0c <SVCCTL_App_Notification+0x174>)
 8000950:	f005 f812 	bl	8005978 <iprintf>
 8000954:	e7b8      	b.n	80008c8 <SVCCTL_App_Notification+0x30>
 8000956:	482e      	ldr	r0, [pc, #184]	; (8000a10 <SVCCTL_App_Notification+0x178>)
 8000958:	e7e2      	b.n	8000920 <SVCCTL_App_Notification+0x88>
 800095a:	482e      	ldr	r0, [pc, #184]	; (8000a14 <SVCCTL_App_Notification+0x17c>)
 800095c:	e7d7      	b.n	800090e <SVCCTL_App_Notification+0x76>
 800095e:	f8b0 3003 	ldrh.w	r3, [r0, #3]
 8000962:	f5a3 6380 	sub.w	r3, r3, #1024	; 0x400
 8000966:	2b0a      	cmp	r3, #10
 8000968:	d8ae      	bhi.n	80008c8 <SVCCTL_App_Notification+0x30>
 800096a:	e8df f003 	tbb	[pc, r3]
 800096e:	3406      	.short	0x3406
 8000970:	16141208 	.word	0x16141208
 8000974:	231f3e1f 	.word	0x231f3e1f
 8000978:	21          	.byte	0x21
 8000979:	00          	.byte	0x00
 800097a:	4827      	ldr	r0, [pc, #156]	; (8000a18 <SVCCTL_App_Notification+0x180>)
 800097c:	e7c7      	b.n	800090e <SVCCTL_App_Notification+0x76>
 800097e:	4827      	ldr	r0, [pc, #156]	; (8000a1c <SVCCTL_App_Notification+0x184>)
 8000980:	f005 f86e 	bl	8005a60 <puts>
 8000984:	4b1a      	ldr	r3, [pc, #104]	; (80009f0 <SVCCTL_App_Notification+0x158>)
 8000986:	4926      	ldr	r1, [pc, #152]	; (8000a20 <SVCCTL_App_Notification+0x188>)
 8000988:	8b58      	ldrh	r0, [r3, #26]
 800098a:	f003 fb41 	bl	8004010 <aci_gap_pass_key_resp>
 800098e:	4825      	ldr	r0, [pc, #148]	; (8000a24 <SVCCTL_App_Notification+0x18c>)
 8000990:	e7bd      	b.n	800090e <SVCCTL_App_Notification+0x76>
 8000992:	4825      	ldr	r0, [pc, #148]	; (8000a28 <SVCCTL_App_Notification+0x190>)
 8000994:	e7bb      	b.n	800090e <SVCCTL_App_Notification+0x76>
 8000996:	4825      	ldr	r0, [pc, #148]	; (8000a2c <SVCCTL_App_Notification+0x194>)
 8000998:	e7b9      	b.n	800090e <SVCCTL_App_Notification+0x76>
 800099a:	4825      	ldr	r0, [pc, #148]	; (8000a30 <SVCCTL_App_Notification+0x198>)
 800099c:	f005 f860 	bl	8005a60 <puts>
 80009a0:	4b13      	ldr	r3, [pc, #76]	; (80009f0 <SVCCTL_App_Notification+0x158>)
 80009a2:	8b58      	ldrh	r0, [r3, #26]
 80009a4:	f003 fbba 	bl	800411c <aci_gap_allow_rebond>
 80009a8:	4822      	ldr	r0, [pc, #136]	; (8000a34 <SVCCTL_App_Notification+0x19c>)
 80009aa:	e7b0      	b.n	800090e <SVCCTL_App_Notification+0x76>
 80009ac:	4822      	ldr	r0, [pc, #136]	; (8000a38 <SVCCTL_App_Notification+0x1a0>)
 80009ae:	e7ae      	b.n	800090e <SVCCTL_App_Notification+0x76>
 80009b0:	4822      	ldr	r0, [pc, #136]	; (8000a3c <SVCCTL_App_Notification+0x1a4>)
 80009b2:	e7ac      	b.n	800090e <SVCCTL_App_Notification+0x76>
 80009b4:	f8d0 1007 	ldr.w	r1, [r0, #7]
 80009b8:	4821      	ldr	r0, [pc, #132]	; (8000a40 <SVCCTL_App_Notification+0x1a8>)
 80009ba:	f004 ffdd 	bl	8005978 <iprintf>
 80009be:	f8d4 1007 	ldr.w	r1, [r4, #7]
 80009c2:	4820      	ldr	r0, [pc, #128]	; (8000a44 <SVCCTL_App_Notification+0x1ac>)
 80009c4:	f004 ffd8 	bl	8005978 <iprintf>
 80009c8:	4b09      	ldr	r3, [pc, #36]	; (80009f0 <SVCCTL_App_Notification+0x158>)
 80009ca:	2101      	movs	r1, #1
 80009cc:	8b58      	ldrh	r0, [r3, #26]
 80009ce:	f003 fbc9 	bl	8004164 <aci_gap_numeric_comparison_value_confirm_yesno>
 80009d2:	481d      	ldr	r0, [pc, #116]	; (8000a48 <SVCCTL_App_Notification+0x1b0>)
 80009d4:	e79b      	b.n	800090e <SVCCTL_App_Notification+0x76>
 80009d6:	79c1      	ldrb	r1, [r0, #7]
 80009d8:	481c      	ldr	r0, [pc, #112]	; (8000a4c <SVCCTL_App_Notification+0x1b4>)
 80009da:	f004 ffcd 	bl	8005978 <iprintf>
 80009de:	79e3      	ldrb	r3, [r4, #7]
 80009e0:	b90b      	cbnz	r3, 80009e6 <SVCCTL_App_Notification+0x14e>
 80009e2:	481b      	ldr	r0, [pc, #108]	; (8000a50 <SVCCTL_App_Notification+0x1b8>)
 80009e4:	e793      	b.n	800090e <SVCCTL_App_Notification+0x76>
 80009e6:	481b      	ldr	r0, [pc, #108]	; (8000a54 <SVCCTL_App_Notification+0x1bc>)
 80009e8:	e791      	b.n	800090e <SVCCTL_App_Notification+0x76>
 80009ea:	481b      	ldr	r0, [pc, #108]	; (8000a58 <SVCCTL_App_Notification+0x1c0>)
 80009ec:	e78f      	b.n	800090e <SVCCTL_App_Notification+0x76>
 80009ee:	bf00      	nop
 80009f0:	20000098 	.word	0x20000098
 80009f4:	08006a22 	.word	0x08006a22
 80009f8:	08006b1c 	.word	0x08006b1c
 80009fc:	08006a49 	.word	0x08006a49
 8000a00:	08006a74 	.word	0x08006a74
 8000a04:	08006a8d 	.word	0x08006a8d
 8000a08:	08006ad6 	.word	0x08006ad6
 8000a0c:	08006ae8 	.word	0x08006ae8
 8000a10:	08006ab1 	.word	0x08006ab1
 8000a14:	08006b04 	.word	0x08006b04
 8000a18:	08006b4d 	.word	0x08006b4d
 8000a1c:	08006b76 	.word	0x08006b76
 8000a20:	0001e240 	.word	0x0001e240
 8000a24:	08006b9b 	.word	0x08006b9b
 8000a28:	08006bb8 	.word	0x08006bb8
 8000a2c:	08006be2 	.word	0x08006be2
 8000a30:	08006c0f 	.word	0x08006c0f
 8000a34:	08006c2d 	.word	0x08006c2d
 8000a38:	08006c46 	.word	0x08006c46
 8000a3c:	08006c67 	.word	0x08006c67
 8000a40:	08006c91 	.word	0x08006c91
 8000a44:	08006ca6 	.word	0x08006ca6
 8000a48:	08006cb7 	.word	0x08006cb7
 8000a4c:	08006cf3 	.word	0x08006cf3
 8000a50:	08006d49 	.word	0x08006d49
 8000a54:	08006d5b 	.word	0x08006d5b
 8000a58:	08006d6d 	.word	0x08006d6d

08000a5c <APP_BLE_Get_Server_Connection_Status>:
 8000a5c:	4b01      	ldr	r3, [pc, #4]	; (8000a64 <APP_BLE_Get_Server_Connection_Status+0x8>)
 8000a5e:	f893 0084 	ldrb.w	r0, [r3, #132]	; 0x84
 8000a62:	4770      	bx	lr
 8000a64:	20000098 	.word	0x20000098

08000a68 <hci_notify_asynch_evt>:
 8000a68:	2100      	movs	r1, #0
 8000a6a:	2020      	movs	r0, #32
 8000a6c:	f004 bc2a 	b.w	80052c4 <UTIL_SEQ_SetTask>

08000a70 <hci_cmd_resp_release>:
 8000a70:	2001      	movs	r0, #1
 8000a72:	f004 bc57 	b.w	8005324 <UTIL_SEQ_SetEvt>

08000a76 <hci_cmd_resp_wait>:
 8000a76:	2001      	movs	r0, #1
 8000a78:	f004 bd0e 	b.w	8005498 <UTIL_SEQ_WaitEvt>

08000a7c <DISAPP_Init>:
 8000a7c:	b537      	push	{r0, r1, r2, r4, r5, lr}
 8000a7e:	4b2f      	ldr	r3, [pc, #188]	; (8000b3c <DISAPP_Init+0xc0>)
 8000a80:	9300      	str	r3, [sp, #0]
 8000a82:	2404      	movs	r4, #4
 8000a84:	4669      	mov	r1, sp
 8000a86:	f642 2029 	movw	r0, #10793	; 0x2a29
 8000a8a:	f88d 4004 	strb.w	r4, [sp, #4]
 8000a8e:	f003 fed3 	bl	8004838 <DIS_UpdateChar>
 8000a92:	4b2b      	ldr	r3, [pc, #172]	; (8000b40 <DISAPP_Init+0xc4>)
 8000a94:	9300      	str	r3, [sp, #0]
 8000a96:	4669      	mov	r1, sp
 8000a98:	2309      	movs	r3, #9
 8000a9a:	f642 2024 	movw	r0, #10788	; 0x2a24
 8000a9e:	f88d 3004 	strb.w	r3, [sp, #4]
 8000aa2:	f003 fec9 	bl	8004838 <DIS_UpdateChar>
 8000aa6:	4b27      	ldr	r3, [pc, #156]	; (8000b44 <DISAPP_Init+0xc8>)
 8000aa8:	9300      	str	r3, [sp, #0]
 8000aaa:	4669      	mov	r1, sp
 8000aac:	230f      	movs	r3, #15
 8000aae:	f642 2099 	movw	r0, #10905	; 0x2a99
 8000ab2:	f88d 3004 	strb.w	r3, [sp, #4]
 8000ab6:	4d24      	ldr	r5, [pc, #144]	; (8000b48 <DISAPP_Init+0xcc>)
 8000ab8:	f003 febe 	bl	8004838 <DIS_UpdateChar>
 8000abc:	4669      	mov	r1, sp
 8000abe:	f642 2025 	movw	r0, #10789	; 0x2a25
 8000ac2:	9500      	str	r5, [sp, #0]
 8000ac4:	f88d 4004 	strb.w	r4, [sp, #4]
 8000ac8:	f003 feb6 	bl	8004838 <DIS_UpdateChar>
 8000acc:	4669      	mov	r1, sp
 8000ace:	f642 2027 	movw	r0, #10791	; 0x2a27
 8000ad2:	9500      	str	r5, [sp, #0]
 8000ad4:	f88d 4004 	strb.w	r4, [sp, #4]
 8000ad8:	f003 feae 	bl	8004838 <DIS_UpdateChar>
 8000adc:	4669      	mov	r1, sp
 8000ade:	f642 2026 	movw	r0, #10790	; 0x2a26
 8000ae2:	9500      	str	r5, [sp, #0]
 8000ae4:	f88d 4004 	strb.w	r4, [sp, #4]
 8000ae8:	f003 fea6 	bl	8004838 <DIS_UpdateChar>
 8000aec:	4669      	mov	r1, sp
 8000aee:	f642 2028 	movw	r0, #10792	; 0x2a28
 8000af2:	9500      	str	r5, [sp, #0]
 8000af4:	f88d 4004 	strb.w	r4, [sp, #4]
 8000af8:	f003 fe9e 	bl	8004838 <DIS_UpdateChar>
 8000afc:	4b13      	ldr	r3, [pc, #76]	; (8000b4c <DISAPP_Init+0xd0>)
 8000afe:	9300      	str	r3, [sp, #0]
 8000b00:	4669      	mov	r1, sp
 8000b02:	2308      	movs	r3, #8
 8000b04:	f642 2023 	movw	r0, #10787	; 0x2a23
 8000b08:	f88d 3004 	strb.w	r3, [sp, #4]
 8000b0c:	f003 fe94 	bl	8004838 <DIS_UpdateChar>
 8000b10:	4b0f      	ldr	r3, [pc, #60]	; (8000b50 <DISAPP_Init+0xd4>)
 8000b12:	9300      	str	r3, [sp, #0]
 8000b14:	4669      	mov	r1, sp
 8000b16:	2320      	movs	r3, #32
 8000b18:	f642 202a 	movw	r0, #10794	; 0x2a2a
 8000b1c:	f88d 3004 	strb.w	r3, [sp, #4]
 8000b20:	f003 fe8a 	bl	8004838 <DIS_UpdateChar>
 8000b24:	4b0b      	ldr	r3, [pc, #44]	; (8000b54 <DISAPP_Init+0xd8>)
 8000b26:	9300      	str	r3, [sp, #0]
 8000b28:	4669      	mov	r1, sp
 8000b2a:	2307      	movs	r3, #7
 8000b2c:	f642 2050 	movw	r0, #10832	; 0x2a50
 8000b30:	f88d 3004 	strb.w	r3, [sp, #4]
 8000b34:	f003 fe80 	bl	8004838 <DIS_UpdateChar>
 8000b38:	b003      	add	sp, #12
 8000b3a:	bd30      	pop	{r4, r5, pc}
 8000b3c:	0800688a 	.word	0x0800688a
 8000b40:	08006d9a 	.word	0x08006d9a
 8000b44:	08006da3 	.word	0x08006da3
 8000b48:	08006d9f 	.word	0x08006d9f
 8000b4c:	08006dd9 	.word	0x08006dd9
 8000b50:	08006db2 	.word	0x08006db2
 8000b54:	08006dd2 	.word	0x08006dd2

08000b58 <HTSAPP_UpdateIntermediateTemperature>:
 8000b58:	2100      	movs	r1, #0
 8000b5a:	2004      	movs	r0, #4
 8000b5c:	f004 bbb2 	b.w	80052c4 <UTIL_SEQ_SetTask>

08000b60 <HTSAPP_UpdateMeasurement>:
 8000b60:	2100      	movs	r1, #0
 8000b62:	2002      	movs	r0, #2
 8000b64:	f004 bbae 	b.w	80052c4 <UTIL_SEQ_SetTask>

08000b68 <HTSAPP_IntermediateTemperature>:
 8000b68:	4b0b      	ldr	r3, [pc, #44]	; (8000b98 <HTSAPP_IntermediateTemperature+0x30>)
 8000b6a:	b510      	push	{r4, lr}
 8000b6c:	4c0b      	ldr	r4, [pc, #44]	; (8000b9c <HTSAPP_IntermediateTemperature+0x34>)
 8000b6e:	6a99      	ldr	r1, [r3, #40]	; 0x28
 8000b70:	f894 3021 	ldrb.w	r3, [r4, #33]	; 0x21
 8000b74:	f001 0103 	and.w	r1, r1, #3
 8000b78:	3125      	adds	r1, #37	; 0x25
 8000b7a:	2b01      	cmp	r3, #1
 8000b7c:	6121      	str	r1, [r4, #16]
 8000b7e:	d10a      	bne.n	8000b96 <HTSAPP_IntermediateTemperature+0x2e>
 8000b80:	4807      	ldr	r0, [pc, #28]	; (8000ba0 <HTSAPP_IntermediateTemperature+0x38>)
 8000b82:	f004 fef9 	bl	8005978 <iprintf>
 8000b86:	f104 0110 	add.w	r1, r4, #16
 8000b8a:	f642 201e 	movw	r0, #10782	; 0x2a1e
 8000b8e:	e8bd 4010 	ldmia.w	sp!, {r4, lr}
 8000b92:	f004 b87d 	b.w	8004c90 <HTS_Update_Char>
 8000b96:	bd10      	pop	{r4, pc}
 8000b98:	40002800 	.word	0x40002800
 8000b9c:	20000120 	.word	0x20000120
 8000ba0:	08006de1 	.word	0x08006de1

08000ba4 <HTSAPP_Measurement>:
 8000ba4:	b538      	push	{r3, r4, r5, lr}
 8000ba6:	4c66      	ldr	r4, [pc, #408]	; (8000d40 <HTSAPP_Measurement+0x19c>)
 8000ba8:	4866      	ldr	r0, [pc, #408]	; (8000d44 <HTSAPP_Measurement+0x1a0>)
 8000baa:	f894 3021 	ldrb.w	r3, [r4, #33]	; 0x21
 8000bae:	2b01      	cmp	r3, #1
 8000bb0:	bf17      	itett	ne
 8000bb2:	4b65      	ldrne	r3, [pc, #404]	; (8000d48 <HTSAPP_Measurement+0x1a4>)
 8000bb4:	6921      	ldreq	r1, [r4, #16]
 8000bb6:	6a99      	ldrne	r1, [r3, #40]	; 0x28
 8000bb8:	f001 0103 	andne.w	r1, r1, #3
 8000bbc:	bf18      	it	ne
 8000bbe:	3125      	addne	r1, #37	; 0x25
 8000bc0:	6021      	str	r1, [r4, #0]
 8000bc2:	f004 fed9 	bl	8005978 <iprintf>
 8000bc6:	7aa3      	ldrb	r3, [r4, #10]
 8000bc8:	7a62      	ldrb	r2, [r4, #9]
 8000bca:	330a      	adds	r3, #10
 8000bcc:	b2db      	uxtb	r3, r3
 8000bce:	72a3      	strb	r3, [r4, #10]
 8000bd0:	2000      	movs	r0, #0
 8000bd2:	1c51      	adds	r1, r2, #1
 8000bd4:	2b3b      	cmp	r3, #59	; 0x3b
 8000bd6:	b2c9      	uxtb	r1, r1
 8000bd8:	d85f      	bhi.n	8000c9a <HTSAPP_Measurement+0xf6>
 8000bda:	b108      	cbz	r0, 8000be0 <HTSAPP_Measurement+0x3c>
 8000bdc:	7262      	strb	r2, [r4, #9]
 8000bde:	72a3      	strb	r3, [r4, #10]
 8000be0:	7a63      	ldrb	r3, [r4, #9]
 8000be2:	7a22      	ldrb	r2, [r4, #8]
 8000be4:	2000      	movs	r0, #0
 8000be6:	1c51      	adds	r1, r2, #1
 8000be8:	2b3b      	cmp	r3, #59	; 0x3b
 8000bea:	b2c9      	uxtb	r1, r1
 8000bec:	d85a      	bhi.n	8000ca4 <HTSAPP_Measurement+0x100>
 8000bee:	b108      	cbz	r0, 8000bf4 <HTSAPP_Measurement+0x50>
 8000bf0:	7222      	strb	r2, [r4, #8]
 8000bf2:	7263      	strb	r3, [r4, #9]
 8000bf4:	7a23      	ldrb	r3, [r4, #8]
 8000bf6:	79e2      	ldrb	r2, [r4, #7]
 8000bf8:	2000      	movs	r0, #0
 8000bfa:	1c51      	adds	r1, r2, #1
 8000bfc:	2b17      	cmp	r3, #23
 8000bfe:	b2c9      	uxtb	r1, r1
 8000c00:	d855      	bhi.n	8000cae <HTSAPP_Measurement+0x10a>
 8000c02:	b108      	cbz	r0, 8000c08 <HTSAPP_Measurement+0x64>
 8000c04:	71e2      	strb	r2, [r4, #7]
 8000c06:	7223      	strb	r3, [r4, #8]
 8000c08:	79e3      	ldrb	r3, [r4, #7]
 8000c0a:	79a2      	ldrb	r2, [r4, #6]
 8000c0c:	2000      	movs	r0, #0
 8000c0e:	1c51      	adds	r1, r2, #1
 8000c10:	2b1e      	cmp	r3, #30
 8000c12:	b2c9      	uxtb	r1, r1
 8000c14:	d850      	bhi.n	8000cb8 <HTSAPP_Measurement+0x114>
 8000c16:	b108      	cbz	r0, 8000c1c <HTSAPP_Measurement+0x78>
 8000c18:	71a2      	strb	r2, [r4, #6]
 8000c1a:	71e3      	strb	r3, [r4, #7]
 8000c1c:	79a3      	ldrb	r3, [r4, #6]
 8000c1e:	88a2      	ldrh	r2, [r4, #4]
 8000c20:	2000      	movs	r0, #0
 8000c22:	1c51      	adds	r1, r2, #1
 8000c24:	2b0b      	cmp	r3, #11
 8000c26:	b289      	uxth	r1, r1
 8000c28:	d84b      	bhi.n	8000cc2 <HTSAPP_Measurement+0x11e>
 8000c2a:	b108      	cbz	r0, 8000c30 <HTSAPP_Measurement+0x8c>
 8000c2c:	71a3      	strb	r3, [r4, #6]
 8000c2e:	80a2      	strh	r2, [r4, #4]
 8000c30:	f7ff ff14 	bl	8000a5c <APP_BLE_Get_Server_Connection_Status>
 8000c34:	2805      	cmp	r0, #5
 8000c36:	d15a      	bne.n	8000cee <HTSAPP_Measurement+0x14a>
 8000c38:	f894 3023 	ldrb.w	r3, [r4, #35]	; 0x23
 8000c3c:	2b01      	cmp	r3, #1
 8000c3e:	d156      	bne.n	8000cee <HTSAPP_Measurement+0x14a>
 8000c40:	f994 1024 	ldrsb.w	r1, [r4, #36]	; 0x24
 8000c44:	eb04 1301 	add.w	r3, r4, r1, lsl #4
 8000c48:	6a9b      	ldr	r3, [r3, #40]	; 0x28
 8000c4a:	2b00      	cmp	r3, #0
 8000c4c:	d03e      	beq.n	8000ccc <HTSAPP_Measurement+0x128>
 8000c4e:	483f      	ldr	r0, [pc, #252]	; (8000d4c <HTSAPP_Measurement+0x1a8>)
 8000c50:	f004 fe92 	bl	8005978 <iprintf>
 8000c54:	f994 1024 	ldrsb.w	r1, [r4, #36]	; 0x24
 8000c58:	4b3d      	ldr	r3, [pc, #244]	; (8000d50 <HTSAPP_Measurement+0x1ac>)
 8000c5a:	f642 201c 	movw	r0, #10780	; 0x2a1c
 8000c5e:	eb03 1101 	add.w	r1, r3, r1, lsl #4
 8000c62:	f004 f815 	bl	8004c90 <HTS_Update_Char>
 8000c66:	f994 3024 	ldrsb.w	r3, [r4, #36]	; 0x24
 8000c6a:	f894 0022 	ldrb.w	r0, [r4, #34]	; 0x22
 8000c6e:	eb04 1103 	add.w	r1, r4, r3, lsl #4
 8000c72:	3301      	adds	r3, #1
 8000c74:	b25b      	sxtb	r3, r3
 8000c76:	2200      	movs	r2, #0
 8000c78:	2b0a      	cmp	r3, #10
 8000c7a:	628a      	str	r2, [r1, #40]	; 0x28
 8000c7c:	bf14      	ite	ne
 8000c7e:	f884 3024 	strbne.w	r3, [r4, #36]	; 0x24
 8000c82:	f884 2024 	strbeq.w	r2, [r4, #36]	; 0x24
 8000c86:	f000 fcc7 	bl	8001618 <HW_TS_Stop>
 8000c8a:	f894 0022 	ldrb.w	r0, [r4, #34]	; 0x22
 8000c8e:	f640 0101 	movw	r1, #2049	; 0x801
 8000c92:	e8bd 4038 	ldmia.w	sp!, {r3, r4, r5, lr}
 8000c96:	f000 bd15 	b.w	80016c4 <HW_TS_Start>
 8000c9a:	3b3c      	subs	r3, #60	; 0x3c
 8000c9c:	b2db      	uxtb	r3, r3
 8000c9e:	2001      	movs	r0, #1
 8000ca0:	460a      	mov	r2, r1
 8000ca2:	e796      	b.n	8000bd2 <HTSAPP_Measurement+0x2e>
 8000ca4:	3b3c      	subs	r3, #60	; 0x3c
 8000ca6:	b2db      	uxtb	r3, r3
 8000ca8:	2001      	movs	r0, #1
 8000caa:	460a      	mov	r2, r1
 8000cac:	e79b      	b.n	8000be6 <HTSAPP_Measurement+0x42>
 8000cae:	3b18      	subs	r3, #24
 8000cb0:	b2db      	uxtb	r3, r3
 8000cb2:	2001      	movs	r0, #1
 8000cb4:	460a      	mov	r2, r1
 8000cb6:	e7a0      	b.n	8000bfa <HTSAPP_Measurement+0x56>
 8000cb8:	3b1f      	subs	r3, #31
 8000cba:	b2db      	uxtb	r3, r3
 8000cbc:	2001      	movs	r0, #1
 8000cbe:	460a      	mov	r2, r1
 8000cc0:	e7a5      	b.n	8000c0e <HTSAPP_Measurement+0x6a>
 8000cc2:	3b0b      	subs	r3, #11
 8000cc4:	b2db      	uxtb	r3, r3
 8000cc6:	2001      	movs	r0, #1
 8000cc8:	460a      	mov	r2, r1
 8000cca:	e7aa      	b.n	8000c22 <HTSAPP_Measurement+0x7e>
 8000ccc:	f894 0022 	ldrb.w	r0, [r4, #34]	; 0x22
 8000cd0:	f000 fca2 	bl	8001618 <HW_TS_Stop>
 8000cd4:	f894 0022 	ldrb.w	r0, [r4, #34]	; 0x22
 8000cd8:	f245 010a 	movw	r1, #20490	; 0x500a
 8000cdc:	f000 fcf2 	bl	80016c4 <HW_TS_Start>
 8000ce0:	4917      	ldr	r1, [pc, #92]	; (8000d40 <HTSAPP_Measurement+0x19c>)
 8000ce2:	f642 201c 	movw	r0, #10780	; 0x2a1c
 8000ce6:	e8bd 4038 	ldmia.w	sp!, {r3, r4, r5, lr}
 8000cea:	f003 bfd1 	b.w	8004c90 <HTS_Update_Char>
 8000cee:	f894 30c8 	ldrb.w	r3, [r4, #200]	; 0xc8
 8000cf2:	3301      	adds	r3, #1
 8000cf4:	b25b      	sxtb	r3, r3
 8000cf6:	2b0a      	cmp	r3, #10
 8000cf8:	bf08      	it	eq
 8000cfa:	2300      	moveq	r3, #0
 8000cfc:	f884 30c8 	strb.w	r3, [r4, #200]	; 0xc8
 8000d00:	f994 10c8 	ldrsb.w	r1, [r4, #200]	; 0xc8
 8000d04:	f994 3024 	ldrsb.w	r3, [r4, #36]	; 0x24
 8000d08:	428b      	cmp	r3, r1
 8000d0a:	d10a      	bne.n	8000d22 <HTSAPP_Measurement+0x17e>
 8000d0c:	eb04 1301 	add.w	r3, r4, r1, lsl #4
 8000d10:	6a9b      	ldr	r3, [r3, #40]	; 0x28
 8000d12:	b133      	cbz	r3, 8000d22 <HTSAPP_Measurement+0x17e>
 8000d14:	1c4b      	adds	r3, r1, #1
 8000d16:	b25b      	sxtb	r3, r3
 8000d18:	2b0a      	cmp	r3, #10
 8000d1a:	bf08      	it	eq
 8000d1c:	2300      	moveq	r3, #0
 8000d1e:	f884 3024 	strb.w	r3, [r4, #36]	; 0x24
 8000d22:	f994 2024 	ldrsb.w	r2, [r4, #36]	; 0x24
 8000d26:	480b      	ldr	r0, [pc, #44]	; (8000d54 <HTSAPP_Measurement+0x1b0>)
 8000d28:	f004 fe26 	bl	8005978 <iprintf>
 8000d2c:	e894 000f 	ldmia.w	r4, {r0, r1, r2, r3}
 8000d30:	f994 50c8 	ldrsb.w	r5, [r4, #200]	; 0xc8
 8000d34:	eb04 1505 	add.w	r5, r4, r5, lsl #4
 8000d38:	3528      	adds	r5, #40	; 0x28
 8000d3a:	e885 000f 	stmia.w	r5, {r0, r1, r2, r3}
 8000d3e:	bd38      	pop	{r3, r4, r5, pc}
 8000d40:	20000120 	.word	0x20000120
 8000d44:	08006e06 	.word	0x08006e06
 8000d48:	40002800 	.word	0x40002800
 8000d4c:	08006e1f 	.word	0x08006e1f
 8000d50:	20000148 	.word	0x20000148
 8000d54:	08006e3b 	.word	0x08006e3b

08000d58 <HTS_App_Notification>:
 8000d58:	7803      	ldrb	r3, [r0, #0]
 8000d5a:	3b01      	subs	r3, #1
 8000d5c:	b510      	push	{r4, lr}
 8000d5e:	2b05      	cmp	r3, #5
 8000d60:	d815      	bhi.n	8000d8e <HTS_App_Notification+0x36>
 8000d62:	e8df f003 	tbb	[pc, r3]
 8000d66:	1503      	.short	0x1503
 8000d68:	321f1414 	.word	0x321f1414
 8000d6c:	4c1d      	ldr	r4, [pc, #116]	; (8000de4 <HTS_App_Notification+0x8c>)
 8000d6e:	481e      	ldr	r0, [pc, #120]	; (8000de8 <HTS_App_Notification+0x90>)
 8000d70:	f004 fe76 	bl	8005a60 <puts>
 8000d74:	f894 0022 	ldrb.w	r0, [r4, #34]	; 0x22
 8000d78:	f000 fc4e 	bl	8001618 <HW_TS_Stop>
 8000d7c:	f241 0102 	movw	r1, #4098	; 0x1002
 8000d80:	f894 0022 	ldrb.w	r0, [r4, #34]	; 0x22
 8000d84:	f000 fc9e 	bl	80016c4 <HW_TS_Start>
 8000d88:	2301      	movs	r3, #1
 8000d8a:	f884 3023 	strb.w	r3, [r4, #35]	; 0x23
 8000d8e:	bd10      	pop	{r4, pc}
 8000d90:	4c14      	ldr	r4, [pc, #80]	; (8000de4 <HTS_App_Notification+0x8c>)
 8000d92:	4816      	ldr	r0, [pc, #88]	; (8000dec <HTS_App_Notification+0x94>)
 8000d94:	f004 fe64 	bl	8005a60 <puts>
 8000d98:	f894 0022 	ldrb.w	r0, [r4, #34]	; 0x22
 8000d9c:	f000 fc3c 	bl	8001618 <HW_TS_Stop>
 8000da0:	2300      	movs	r3, #0
 8000da2:	e7f2      	b.n	8000d8a <HTS_App_Notification+0x32>
 8000da4:	4c0f      	ldr	r4, [pc, #60]	; (8000de4 <HTS_App_Notification+0x8c>)
 8000da6:	4812      	ldr	r0, [pc, #72]	; (8000df0 <HTS_App_Notification+0x98>)
 8000da8:	f004 fe5a 	bl	8005a60 <puts>
 8000dac:	f894 0020 	ldrb.w	r0, [r4, #32]
 8000db0:	2301      	movs	r3, #1
 8000db2:	f884 3021 	strb.w	r3, [r4, #33]	; 0x21
 8000db6:	f000 fc2f 	bl	8001618 <HW_TS_Stop>
 8000dba:	f894 0020 	ldrb.w	r0, [r4, #32]
 8000dbe:	f640 0101 	movw	r1, #2049	; 0x801
 8000dc2:	e8bd 4010 	ldmia.w	sp!, {r4, lr}
 8000dc6:	f000 bc7d 	b.w	80016c4 <HW_TS_Start>
 8000dca:	480a      	ldr	r0, [pc, #40]	; (8000df4 <HTS_App_Notification+0x9c>)
 8000dcc:	f004 fe48 	bl	8005a60 <puts>
 8000dd0:	4b04      	ldr	r3, [pc, #16]	; (8000de4 <HTS_App_Notification+0x8c>)
 8000dd2:	2200      	movs	r2, #0
 8000dd4:	f883 2021 	strb.w	r2, [r3, #33]	; 0x21
 8000dd8:	f893 0020 	ldrb.w	r0, [r3, #32]
 8000ddc:	e8bd 4010 	ldmia.w	sp!, {r4, lr}
 8000de0:	f000 bc1a 	b.w	8001618 <HW_TS_Stop>
 8000de4:	20000120 	.word	0x20000120
 8000de8:	08006e74 	.word	0x08006e74
 8000dec:	08006e94 	.word	0x08006e94
 8000df0:	08006eb5 	.word	0x08006eb5
 8000df4:	08006ee2 	.word	0x08006ee2

08000df8 <HTSAPP_Init>:
 8000df8:	b570      	push	{r4, r5, r6, lr}
 8000dfa:	4a16      	ldr	r2, [pc, #88]	; (8000e54 <HTSAPP_Init+0x5c>)
 8000dfc:	4c16      	ldr	r4, [pc, #88]	; (8000e58 <HTSAPP_Init+0x60>)
 8000dfe:	2100      	movs	r1, #0
 8000e00:	2002      	movs	r0, #2
 8000e02:	f004 fb71 	bl	80054e8 <UTIL_SEQ_RegTask>
 8000e06:	4a15      	ldr	r2, [pc, #84]	; (8000e5c <HTSAPP_Init+0x64>)
 8000e08:	2100      	movs	r1, #0
 8000e0a:	2004      	movs	r0, #4
 8000e0c:	f004 fb6c 	bl	80054e8 <UTIL_SEQ_RegTask>
 8000e10:	4b13      	ldr	r3, [pc, #76]	; (8000e60 <HTSAPP_Init+0x68>)
 8000e12:	6063      	str	r3, [r4, #4]
 8000e14:	2500      	movs	r5, #0
 8000e16:	2601      	movs	r6, #1
 8000e18:	2306      	movs	r3, #6
 8000e1a:	7363      	strb	r3, [r4, #13]
 8000e1c:	7763      	strb	r3, [r4, #29]
 8000e1e:	4632      	mov	r2, r6
 8000e20:	4b10      	ldr	r3, [pc, #64]	; (8000e64 <HTSAPP_Init+0x6c>)
 8000e22:	8125      	strh	r5, [r4, #8]
 8000e24:	f104 0122 	add.w	r1, r4, #34	; 0x22
 8000e28:	4628      	mov	r0, r5
 8000e2a:	72a5      	strb	r5, [r4, #10]
 8000e2c:	7326      	strb	r6, [r4, #12]
 8000e2e:	f884 5021 	strb.w	r5, [r4, #33]	; 0x21
 8000e32:	f000 fbc7 	bl	80015c4 <HW_TS_Create>
 8000e36:	4b0c      	ldr	r3, [pc, #48]	; (8000e68 <HTSAPP_Init+0x70>)
 8000e38:	f884 5023 	strb.w	r5, [r4, #35]	; 0x23
 8000e3c:	4632      	mov	r2, r6
 8000e3e:	f104 0120 	add.w	r1, r4, #32
 8000e42:	4628      	mov	r0, r5
 8000e44:	f000 fbbe 	bl	80015c4 <HW_TS_Create>
 8000e48:	23ff      	movs	r3, #255	; 0xff
 8000e4a:	f884 30c8 	strb.w	r3, [r4, #200]	; 0xc8
 8000e4e:	f884 5024 	strb.w	r5, [r4, #36]	; 0x24
 8000e52:	bd70      	pop	{r4, r5, r6, pc}
 8000e54:	08000ba5 	.word	0x08000ba5
 8000e58:	20000120 	.word	0x20000120
 8000e5c:	08000b69 	.word	0x08000b69
 8000e60:	010407e1 	.word	0x010407e1
 8000e64:	08000b61 	.word	0x08000b61
 8000e68:	08000b59 	.word	0x08000b59

08000e6c <HW_IPCC_Enable>:
 8000e6c:	f04f 43b0 	mov.w	r3, #1476395008	; 0x58000000
 8000e70:	b082      	sub	sp, #8
 8000e72:	f8d3 2150 	ldr.w	r2, [r3, #336]	; 0x150
 8000e76:	f442 1280 	orr.w	r2, r2, #1048576	; 0x100000
 8000e7a:	f8c3 2150 	str.w	r2, [r3, #336]	; 0x150
 8000e7e:	f8d3 3150 	ldr.w	r3, [r3, #336]	; 0x150
 8000e82:	f403 1380 	and.w	r3, r3, #1048576	; 0x100000
 8000e86:	9301      	str	r3, [sp, #4]
 8000e88:	9b01      	ldr	r3, [sp, #4]
 8000e8a:	4b0a      	ldr	r3, [pc, #40]	; (8000eb4 <HW_IPCC_Enable+0x48>)
 8000e8c:	f8d3 20d4 	ldr.w	r2, [r3, #212]	; 0xd4
 8000e90:	f442 7200 	orr.w	r2, r2, #512	; 0x200
 8000e94:	f8c3 20d4 	str.w	r2, [r3, #212]	; 0xd4
 8000e98:	6a1a      	ldr	r2, [r3, #32]
 8000e9a:	f442 7200 	orr.w	r2, r2, #512	; 0x200
 8000e9e:	621a      	str	r2, [r3, #32]
 8000ea0:	bf40      	sev
 8000ea2:	bf20      	wfe
 8000ea4:	4a04      	ldr	r2, [pc, #16]	; (8000eb8 <HW_IPCC_Enable+0x4c>)
 8000ea6:	68d3      	ldr	r3, [r2, #12]
 8000ea8:	f443 4300 	orr.w	r3, r3, #32768	; 0x8000
 8000eac:	60d3      	str	r3, [r2, #12]
 8000eae:	b002      	add	sp, #8
 8000eb0:	4770      	bx	lr
 8000eb2:	bf00      	nop
 8000eb4:	58000800 	.word	0x58000800
 8000eb8:	58000400 	.word	0x58000400

08000ebc <HW_IPCC_Init>:
 8000ebc:	f04f 43b0 	mov.w	r3, #1476395008	; 0x58000000
 8000ec0:	b507      	push	{r0, r1, r2, lr}
 8000ec2:	6d1a      	ldr	r2, [r3, #80]	; 0x50
 8000ec4:	f442 1280 	orr.w	r2, r2, #1048576	; 0x100000
 8000ec8:	651a      	str	r2, [r3, #80]	; 0x50
 8000eca:	6d1b      	ldr	r3, [r3, #80]	; 0x50
 8000ecc:	f403 1380 	and.w	r3, r3, #1048576	; 0x100000
 8000ed0:	9301      	str	r3, [sp, #4]
 8000ed2:	9b01      	ldr	r3, [sp, #4]
 8000ed4:	4b08      	ldr	r3, [pc, #32]	; (8000ef8 <HW_IPCC_Init+0x3c>)
 8000ed6:	681a      	ldr	r2, [r3, #0]
 8000ed8:	f042 0201 	orr.w	r2, r2, #1
 8000edc:	601a      	str	r2, [r3, #0]
 8000ede:	681a      	ldr	r2, [r3, #0]
 8000ee0:	f442 3280 	orr.w	r2, r2, #65536	; 0x10000
 8000ee4:	601a      	str	r2, [r3, #0]
 8000ee6:	202c      	movs	r0, #44	; 0x2c
 8000ee8:	f001 f950 	bl	800218c <HAL_NVIC_EnableIRQ>
 8000eec:	202d      	movs	r0, #45	; 0x2d
 8000eee:	b003      	add	sp, #12
 8000ef0:	f85d eb04 	ldr.w	lr, [sp], #4
 8000ef4:	f001 b94a 	b.w	800218c <HAL_NVIC_EnableIRQ>
 8000ef8:	58000c00 	.word	0x58000c00

08000efc <HW_IPCC_BLE_Init>:
 8000efc:	4a02      	ldr	r2, [pc, #8]	; (8000f08 <HW_IPCC_BLE_Init+0xc>)
 8000efe:	6853      	ldr	r3, [r2, #4]
 8000f00:	f023 0301 	bic.w	r3, r3, #1
 8000f04:	6053      	str	r3, [r2, #4]
 8000f06:	4770      	bx	lr
 8000f08:	58000c00 	.word	0x58000c00

08000f0c <HW_IPCC_BLE_SendCmd>:
 8000f0c:	4b02      	ldr	r3, [pc, #8]	; (8000f18 <HW_IPCC_BLE_SendCmd+0xc>)
 8000f0e:	f44f 3280 	mov.w	r2, #65536	; 0x10000
 8000f12:	609a      	str	r2, [r3, #8]
 8000f14:	4770      	bx	lr
 8000f16:	bf00      	nop
 8000f18:	58000c00 	.word	0x58000c00

08000f1c <HW_IPCC_SYS_Init>:
 8000f1c:	4a02      	ldr	r2, [pc, #8]	; (8000f28 <HW_IPCC_SYS_Init+0xc>)
 8000f1e:	6853      	ldr	r3, [r2, #4]
 8000f20:	f023 0302 	bic.w	r3, r3, #2
 8000f24:	6053      	str	r3, [r2, #4]
 8000f26:	4770      	bx	lr
 8000f28:	58000c00 	.word	0x58000c00

08000f2c <HW_IPCC_SYS_SendCmd>:
 8000f2c:	4b04      	ldr	r3, [pc, #16]	; (8000f40 <HW_IPCC_SYS_SendCmd+0x14>)
 8000f2e:	f44f 3200 	mov.w	r2, #131072	; 0x20000
 8000f32:	609a      	str	r2, [r3, #8]
 8000f34:	685a      	ldr	r2, [r3, #4]
 8000f36:	f422 3200 	bic.w	r2, r2, #131072	; 0x20000
 8000f3a:	605a      	str	r2, [r3, #4]
 8000f3c:	4770      	bx	lr
 8000f3e:	bf00      	nop
 8000f40:	58000c00 	.word	0x58000c00

08000f44 <HW_IPCC_Tx_Handler>:
 8000f44:	4b1e      	ldr	r3, [pc, #120]	; (8000fc0 <HW_IPCC_Tx_Handler+0x7c>)
 8000f46:	68da      	ldr	r2, [r3, #12]
 8000f48:	f012 0f02 	tst.w	r2, #2
 8000f4c:	b510      	push	{r4, lr}
 8000f4e:	461a      	mov	r2, r3
 8000f50:	d109      	bne.n	8000f66 <HW_IPCC_Tx_Handler+0x22>
 8000f52:	6859      	ldr	r1, [r3, #4]
 8000f54:	0389      	lsls	r1, r1, #14
 8000f56:	d406      	bmi.n	8000f66 <HW_IPCC_Tx_Handler+0x22>
 8000f58:	685a      	ldr	r2, [r3, #4]
 8000f5a:	f442 3200 	orr.w	r2, r2, #131072	; 0x20000
 8000f5e:	605a      	str	r2, [r3, #4]
 8000f60:	f004 f8a4 	bl	80050ac <HW_IPCC_SYS_CmdEvtNot>
 8000f64:	bd10      	pop	{r4, pc}
 8000f66:	68d3      	ldr	r3, [r2, #12]
 8000f68:	079b      	lsls	r3, r3, #30
 8000f6a:	d407      	bmi.n	8000f7c <HW_IPCC_Tx_Handler+0x38>
 8000f6c:	6853      	ldr	r3, [r2, #4]
 8000f6e:	039c      	lsls	r4, r3, #14
 8000f70:	d404      	bmi.n	8000f7c <HW_IPCC_Tx_Handler+0x38>
 8000f72:	6853      	ldr	r3, [r2, #4]
 8000f74:	f443 3300 	orr.w	r3, r3, #131072	; 0x20000
 8000f78:	6053      	str	r3, [r2, #4]
 8000f7a:	e7f1      	b.n	8000f60 <HW_IPCC_Tx_Handler+0x1c>
 8000f7c:	4c10      	ldr	r4, [pc, #64]	; (8000fc0 <HW_IPCC_Tx_Handler+0x7c>)
 8000f7e:	68e3      	ldr	r3, [r4, #12]
 8000f80:	f013 0f08 	tst.w	r3, #8
 8000f84:	4623      	mov	r3, r4
 8000f86:	d10d      	bne.n	8000fa4 <HW_IPCC_Tx_Handler+0x60>
 8000f88:	6862      	ldr	r2, [r4, #4]
 8000f8a:	0310      	lsls	r0, r2, #12
 8000f8c:	d40a      	bmi.n	8000fa4 <HW_IPCC_Tx_Handler+0x60>
 8000f8e:	6863      	ldr	r3, [r4, #4]
 8000f90:	f443 2300 	orr.w	r3, r3, #524288	; 0x80000
 8000f94:	6063      	str	r3, [r4, #4]
 8000f96:	4b0b      	ldr	r3, [pc, #44]	; (8000fc4 <HW_IPCC_Tx_Handler+0x80>)
 8000f98:	681b      	ldr	r3, [r3, #0]
 8000f9a:	4798      	blx	r3
 8000f9c:	f44f 2300 	mov.w	r3, #524288	; 0x80000
 8000fa0:	60a3      	str	r3, [r4, #8]
 8000fa2:	e7df      	b.n	8000f64 <HW_IPCC_Tx_Handler+0x20>
 8000fa4:	68da      	ldr	r2, [r3, #12]
 8000fa6:	0691      	lsls	r1, r2, #26
 8000fa8:	d4dc      	bmi.n	8000f64 <HW_IPCC_Tx_Handler+0x20>
 8000faa:	685a      	ldr	r2, [r3, #4]
 8000fac:	0292      	lsls	r2, r2, #10
 8000fae:	d4d9      	bmi.n	8000f64 <HW_IPCC_Tx_Handler+0x20>
 8000fb0:	685a      	ldr	r2, [r3, #4]
 8000fb2:	f442 1200 	orr.w	r2, r2, #2097152	; 0x200000
 8000fb6:	605a      	str	r2, [r3, #4]
 8000fb8:	f004 f846 	bl	8005048 <HW_IPCC_BLE_AclDataAckNot>
 8000fbc:	e7d2      	b.n	8000f64 <HW_IPCC_Tx_Handler+0x20>
 8000fbe:	bf00      	nop
 8000fc0:	58000c00 	.word	0x58000c00
 8000fc4:	20000310 	.word	0x20000310

08000fc8 <HW_IPCC_MM_SendFreeBuf>:
 8000fc8:	b510      	push	{r4, lr}
 8000fca:	4c08      	ldr	r4, [pc, #32]	; (8000fec <HW_IPCC_MM_SendFreeBuf+0x24>)
 8000fcc:	68e3      	ldr	r3, [r4, #12]
 8000fce:	071b      	lsls	r3, r3, #28
 8000fd0:	d506      	bpl.n	8000fe0 <HW_IPCC_MM_SendFreeBuf+0x18>
 8000fd2:	4b07      	ldr	r3, [pc, #28]	; (8000ff0 <HW_IPCC_MM_SendFreeBuf+0x28>)
 8000fd4:	6018      	str	r0, [r3, #0]
 8000fd6:	6863      	ldr	r3, [r4, #4]
 8000fd8:	f423 2300 	bic.w	r3, r3, #524288	; 0x80000
 8000fdc:	6063      	str	r3, [r4, #4]
 8000fde:	bd10      	pop	{r4, pc}
 8000fe0:	4780      	blx	r0
 8000fe2:	f44f 2300 	mov.w	r3, #524288	; 0x80000
 8000fe6:	60a3      	str	r3, [r4, #8]
 8000fe8:	e7f9      	b.n	8000fde <HW_IPCC_MM_SendFreeBuf+0x16>
 8000fea:	bf00      	nop
 8000fec:	58000c00 	.word	0x58000c00
 8000ff0:	20000310 	.word	0x20000310

08000ff4 <HW_IPCC_TRACES_Init>:
 8000ff4:	4a02      	ldr	r2, [pc, #8]	; (8001000 <HW_IPCC_TRACES_Init+0xc>)
 8000ff6:	6853      	ldr	r3, [r2, #4]
 8000ff8:	f023 0308 	bic.w	r3, r3, #8
 8000ffc:	6053      	str	r3, [r2, #4]
 8000ffe:	4770      	bx	lr
 8001000:	58000c00 	.word	0x58000c00

08001004 <HW_IPCC_Rx_Handler>:
 8001004:	b538      	push	{r3, r4, r5, lr}
 8001006:	4c12      	ldr	r4, [pc, #72]	; (8001050 <HW_IPCC_Rx_Handler+0x4c>)
 8001008:	69e3      	ldr	r3, [r4, #28]
 800100a:	f013 0f02 	tst.w	r3, #2
 800100e:	4625      	mov	r5, r4
 8001010:	d007      	beq.n	8001022 <HW_IPCC_Rx_Handler+0x1e>
 8001012:	6863      	ldr	r3, [r4, #4]
 8001014:	079b      	lsls	r3, r3, #30
 8001016:	d404      	bmi.n	8001022 <HW_IPCC_Rx_Handler+0x1e>
 8001018:	f004 f854 	bl	80050c4 <HW_IPCC_SYS_EvtNot>
 800101c:	2302      	movs	r3, #2
 800101e:	60a3      	str	r3, [r4, #8]
 8001020:	e009      	b.n	8001036 <HW_IPCC_Rx_Handler+0x32>
 8001022:	69eb      	ldr	r3, [r5, #28]
 8001024:	07d8      	lsls	r0, r3, #31
 8001026:	d507      	bpl.n	8001038 <HW_IPCC_Rx_Handler+0x34>
 8001028:	686b      	ldr	r3, [r5, #4]
 800102a:	07d9      	lsls	r1, r3, #31
 800102c:	d404      	bmi.n	8001038 <HW_IPCC_Rx_Handler+0x34>
 800102e:	f003 fff5 	bl	800501c <HW_IPCC_BLE_RxEvtNot>
 8001032:	2301      	movs	r3, #1
 8001034:	60ab      	str	r3, [r5, #8]
 8001036:	bd38      	pop	{r3, r4, r5, pc}
 8001038:	4c05      	ldr	r4, [pc, #20]	; (8001050 <HW_IPCC_Rx_Handler+0x4c>)
 800103a:	69e3      	ldr	r3, [r4, #28]
 800103c:	071a      	lsls	r2, r3, #28
 800103e:	d5fa      	bpl.n	8001036 <HW_IPCC_Rx_Handler+0x32>
 8001040:	6863      	ldr	r3, [r4, #4]
 8001042:	071b      	lsls	r3, r3, #28
 8001044:	d4f7      	bmi.n	8001036 <HW_IPCC_Rx_Handler+0x32>
 8001046:	f004 f893 	bl	8005170 <HW_IPCC_TRACES_EvtNot>
 800104a:	2308      	movs	r3, #8
 800104c:	e7e7      	b.n	800101e <HW_IPCC_Rx_Handler+0x1a>
 800104e:	bf00      	nop
 8001050:	58000c00 	.word	0x58000c00

08001054 <LL_AHB2_GRP1_EnableClock>:
 8001054:	f04f 43b0 	mov.w	r3, #1476395008	; 0x58000000
 8001058:	b082      	sub	sp, #8
 800105a:	6cda      	ldr	r2, [r3, #76]	; 0x4c
 800105c:	4302      	orrs	r2, r0
 800105e:	64da      	str	r2, [r3, #76]	; 0x4c
 8001060:	6cdb      	ldr	r3, [r3, #76]	; 0x4c
 8001062:	4018      	ands	r0, r3
 8001064:	9001      	str	r0, [sp, #4]
 8001066:	9b01      	ldr	r3, [sp, #4]
 8001068:	b002      	add	sp, #8
 800106a:	4770      	bx	lr

0800106c <LL_C2_AHB2_GRP1_EnableClock>:
 800106c:	f04f 43b0 	mov.w	r3, #1476395008	; 0x58000000
 8001070:	b082      	sub	sp, #8
 8001072:	f8d3 214c 	ldr.w	r2, [r3, #332]	; 0x14c
 8001076:	4302      	orrs	r2, r0
 8001078:	f8c3 214c 	str.w	r2, [r3, #332]	; 0x14c
 800107c:	f8d3 314c 	ldr.w	r3, [r3, #332]	; 0x14c
 8001080:	4018      	ands	r0, r3
 8001082:	9001      	str	r0, [sp, #4]
 8001084:	9b01      	ldr	r3, [sp, #4]
 8001086:	b002      	add	sp, #8
 8001088:	4770      	bx	lr
	...

0800108c <APPD_Init>:
 800108c:	b5f0      	push	{r4, r5, r6, r7, lr}
 800108e:	b087      	sub	sp, #28
 8001090:	f001 f826 	bl	80020e0 <HAL_DBGMCU_EnableDBGSleepMode>
 8001094:	f001 f82c 	bl	80020f0 <HAL_DBGMCU_EnableDBGStopMode>
 8001098:	4a34      	ldr	r2, [pc, #208]	; (800116c <APPD_Init+0xe0>)
 800109a:	4f35      	ldr	r7, [pc, #212]	; (8001170 <APPD_Init+0xe4>)
 800109c:	f8d2 3090 	ldr.w	r3, [r2, #144]	; 0x90
 80010a0:	f443 3380 	orr.w	r3, r3, #65536	; 0x10000
 80010a4:	f8c2 3090 	str.w	r3, [r2, #144]	; 0x90
 80010a8:	f004 f898 	bl	80051dc <DbgTraceInit>
 80010ac:	2214      	movs	r2, #20
 80010ae:	2100      	movs	r1, #0
 80010b0:	a801      	add	r0, sp, #4
 80010b2:	f004 fc58 	bl	8005966 <memset>
 80010b6:	2300      	movs	r3, #0
 80010b8:	482e      	ldr	r0, [pc, #184]	; (8001174 <APPD_Init+0xe8>)
 80010ba:	f8df c0bc 	ldr.w	ip, [pc, #188]	; 8001178 <APPD_Init+0xec>
 80010be:	461c      	mov	r4, r3
 80010c0:	461d      	mov	r5, r3
 80010c2:	461e      	mov	r6, r3
 80010c4:	eb00 02c3 	add.w	r2, r0, r3, lsl #3
 80010c8:	7991      	ldrb	r1, [r2, #6]
 80010ca:	b151      	cbz	r1, 80010e2 <APPD_Init+0x56>
 80010cc:	f850 1033 	ldr.w	r1, [r0, r3, lsl #3]
 80010d0:	42b9      	cmp	r1, r7
 80010d2:	d044      	beq.n	800115e <APPD_Init+0xd2>
 80010d4:	4561      	cmp	r1, ip
 80010d6:	d045      	beq.n	8001164 <APPD_Init+0xd8>
 80010d8:	f1b1 4f90 	cmp.w	r1, #1207959552	; 0x48000000
 80010dc:	d101      	bne.n	80010e2 <APPD_Init+0x56>
 80010de:	8892      	ldrh	r2, [r2, #4]
 80010e0:	4316      	orrs	r6, r2
 80010e2:	3301      	adds	r3, #1
 80010e4:	2b22      	cmp	r3, #34	; 0x22
 80010e6:	d1ed      	bne.n	80010c4 <APPD_Init+0x38>
 80010e8:	2101      	movs	r1, #1
 80010ea:	2303      	movs	r3, #3
 80010ec:	9102      	str	r1, [sp, #8]
 80010ee:	9304      	str	r3, [sp, #16]
 80010f0:	b18e      	cbz	r6, 8001116 <APPD_Init+0x8a>
 80010f2:	4608      	mov	r0, r1
 80010f4:	9601      	str	r6, [sp, #4]
 80010f6:	f7ff ffad 	bl	8001054 <LL_AHB2_GRP1_EnableClock>
 80010fa:	4608      	mov	r0, r1
 80010fc:	f7ff ffb6 	bl	800106c <LL_C2_AHB2_GRP1_EnableClock>
 8001100:	a901      	add	r1, sp, #4
 8001102:	f04f 4090 	mov.w	r0, #1207959552	; 0x48000000
 8001106:	f001 fa39 	bl	800257c <HAL_GPIO_Init>
 800110a:	2200      	movs	r2, #0
 800110c:	4631      	mov	r1, r6
 800110e:	f04f 4090 	mov.w	r0, #1207959552	; 0x48000000
 8001112:	f001 fae9 	bl	80026e8 <HAL_GPIO_WritePin>
 8001116:	b17d      	cbz	r5, 8001138 <APPD_Init+0xac>
 8001118:	2002      	movs	r0, #2
 800111a:	9501      	str	r5, [sp, #4]
 800111c:	f7ff ff9a 	bl	8001054 <LL_AHB2_GRP1_EnableClock>
 8001120:	2002      	movs	r0, #2
 8001122:	f7ff ffa3 	bl	800106c <LL_C2_AHB2_GRP1_EnableClock>
 8001126:	a901      	add	r1, sp, #4
 8001128:	4811      	ldr	r0, [pc, #68]	; (8001170 <APPD_Init+0xe4>)
 800112a:	f001 fa27 	bl	800257c <HAL_GPIO_Init>
 800112e:	2200      	movs	r2, #0
 8001130:	4629      	mov	r1, r5
 8001132:	480f      	ldr	r0, [pc, #60]	; (8001170 <APPD_Init+0xe4>)
 8001134:	f001 fad8 	bl	80026e8 <HAL_GPIO_WritePin>
 8001138:	b17c      	cbz	r4, 800115a <APPD_Init+0xce>
 800113a:	2004      	movs	r0, #4
 800113c:	9401      	str	r4, [sp, #4]
 800113e:	f7ff ff89 	bl	8001054 <LL_AHB2_GRP1_EnableClock>
 8001142:	2004      	movs	r0, #4
 8001144:	f7ff ff92 	bl	800106c <LL_C2_AHB2_GRP1_EnableClock>
 8001148:	a901      	add	r1, sp, #4
 800114a:	480b      	ldr	r0, [pc, #44]	; (8001178 <APPD_Init+0xec>)
 800114c:	f001 fa16 	bl	800257c <HAL_GPIO_Init>
 8001150:	2200      	movs	r2, #0
 8001152:	4621      	mov	r1, r4
 8001154:	4808      	ldr	r0, [pc, #32]	; (8001178 <APPD_Init+0xec>)
 8001156:	f001 fac7 	bl	80026e8 <HAL_GPIO_WritePin>
 800115a:	b007      	add	sp, #28
 800115c:	bdf0      	pop	{r4, r5, r6, r7, pc}
 800115e:	8892      	ldrh	r2, [r2, #4]
 8001160:	4315      	orrs	r5, r2
 8001162:	e7be      	b.n	80010e2 <APPD_Init+0x56>
 8001164:	8892      	ldrh	r2, [r2, #4]
 8001166:	4314      	orrs	r4, r2
 8001168:	e7bb      	b.n	80010e2 <APPD_Init+0x56>
 800116a:	bf00      	nop
 800116c:	58000800 	.word	0x58000800
 8001170:	48000400 	.word	0x48000400
 8001174:	08006f10 	.word	0x08006f10
 8001178:	48000800 	.word	0x48000800

0800117c <APPD_EnableCPU2>:
 800117c:	b570      	push	{r4, r5, r6, lr}
 800117e:	4b0c      	ldr	r3, [pc, #48]	; (80011b0 <APPD_EnableCPU2+0x34>)
 8001180:	b088      	sub	sp, #32
 8001182:	aa01      	add	r2, sp, #4
 8001184:	f103 0618 	add.w	r6, r3, #24
 8001188:	4615      	mov	r5, r2
 800118a:	6818      	ldr	r0, [r3, #0]
 800118c:	6859      	ldr	r1, [r3, #4]
 800118e:	4614      	mov	r4, r2
 8001190:	c403      	stmia	r4!, {r0, r1}
 8001192:	3308      	adds	r3, #8
 8001194:	42b3      	cmp	r3, r6
 8001196:	4622      	mov	r2, r4
 8001198:	d1f7      	bne.n	800118a <APPD_EnableCPU2+0xe>
 800119a:	8819      	ldrh	r1, [r3, #0]
 800119c:	789b      	ldrb	r3, [r3, #2]
 800119e:	8021      	strh	r1, [r4, #0]
 80011a0:	70a3      	strb	r3, [r4, #2]
 80011a2:	f003 ffd3 	bl	800514c <TL_TRACES_Init>
 80011a6:	4628      	mov	r0, r5
 80011a8:	f003 fd98 	bl	8004cdc <SHCI_C2_DEBUG_Init>
 80011ac:	b008      	add	sp, #32
 80011ae:	bd70      	pop	{r4, r5, r6, pc}
 80011b0:	0800684d 	.word	0x0800684d

080011b4 <DbgOutputInit>:
 80011b4:	f000 bcc8 	b.w	8001b48 <MX_USART1_UART_Init>

080011b8 <DbgOutputTraces>:
 80011b8:	4613      	mov	r3, r2
 80011ba:	460a      	mov	r2, r1
 80011bc:	4601      	mov	r1, r0
 80011be:	2000      	movs	r0, #0
 80011c0:	f000 bb80 	b.w	80018c4 <HW_UART_Transmit_DMA>

080011c4 <APPE_SysStatusNot>:
 80011c4:	4770      	bx	lr

080011c6 <APPE_SysUserEvtRx>:
 80011c6:	b508      	push	{r3, lr}
 80011c8:	f7ff ffd8 	bl	800117c <APPD_EnableCPU2>
 80011cc:	f7ff fa6c 	bl	80006a8 <APP_BLE_Init>
 80011d0:	2100      	movs	r1, #0
 80011d2:	2001      	movs	r0, #1
 80011d4:	e8bd 4008 	ldmia.w	sp!, {r3, lr}
 80011d8:	f004 b85e 	b.w	8005298 <UTIL_LPM_SetOffMode>

080011dc <APPE_Init>:
 80011dc:	b510      	push	{r4, lr}
 80011de:	f04f 42b0 	mov.w	r2, #1476395008	; 0x58000000
 80011e2:	b088      	sub	sp, #32
 80011e4:	6893      	ldr	r3, [r2, #8]
 80011e6:	4c25      	ldr	r4, [pc, #148]	; (800127c <APPE_Init+0xa0>)
 80011e8:	f443 4300 	orr.w	r3, r3, #32768	; 0x8000
 80011ec:	6093      	str	r3, [r2, #8]
 80011ee:	f004 f849 	bl	8005284 <UTIL_LPM_Init>
 80011f2:	4a23      	ldr	r2, [pc, #140]	; (8001280 <APPE_Init+0xa4>)
 80011f4:	4923      	ldr	r1, [pc, #140]	; (8001284 <APPE_Init+0xa8>)
 80011f6:	f8d2 3080 	ldr.w	r3, [r2, #128]	; 0x80
 80011fa:	f023 0307 	bic.w	r3, r3, #7
 80011fe:	f043 0304 	orr.w	r3, r3, #4
 8001202:	f8c2 3080 	str.w	r3, [r2, #128]	; 0x80
 8001206:	2000      	movs	r0, #0
 8001208:	f000 f948 	bl	800149c <HW_TS_Init>
 800120c:	f7ff ff3e 	bl	800108c <APPD_Init>
 8001210:	2101      	movs	r1, #1
 8001212:	4608      	mov	r0, r1
 8001214:	f004 f840 	bl	8005298 <UTIL_LPM_SetOffMode>
 8001218:	2000      	movs	r0, #0
 800121a:	f000 fe53 	bl	8001ec4 <BSP_LED_Init>
 800121e:	2001      	movs	r0, #1
 8001220:	f000 fe50 	bl	8001ec4 <BSP_LED_Init>
 8001224:	2002      	movs	r0, #2
 8001226:	f000 fe4d 	bl	8001ec4 <BSP_LED_Init>
 800122a:	2001      	movs	r0, #1
 800122c:	f000 fe72 	bl	8001f14 <BSP_LED_On>
 8001230:	2101      	movs	r1, #1
 8001232:	2000      	movs	r0, #0
 8001234:	f000 fe7c 	bl	8001f30 <BSP_PB_Init>
 8001238:	f003 fe9a 	bl	8004f70 <TL_Init>
 800123c:	4a12      	ldr	r2, [pc, #72]	; (8001288 <APPE_Init+0xac>)
 800123e:	2100      	movs	r1, #0
 8001240:	2040      	movs	r0, #64	; 0x40
 8001242:	f004 f951 	bl	80054e8 <UTIL_SEQ_RegTask>
 8001246:	4669      	mov	r1, sp
 8001248:	4b10      	ldr	r3, [pc, #64]	; (800128c <APPE_Init+0xb0>)
 800124a:	4811      	ldr	r0, [pc, #68]	; (8001290 <APPE_Init+0xb4>)
 800124c:	9400      	str	r4, [sp, #0]
 800124e:	9301      	str	r3, [sp, #4]
 8001250:	f003 fd6c 	bl	8004d2c <shci_init>
 8001254:	f504 7386 	add.w	r3, r4, #268	; 0x10c
 8001258:	9302      	str	r3, [sp, #8]
 800125a:	f504 7306 	add.w	r3, r4, #536	; 0x218
 800125e:	9303      	str	r3, [sp, #12]
 8001260:	a802      	add	r0, sp, #8
 8001262:	f240 533c 	movw	r3, #1340	; 0x53c
 8001266:	f504 7449 	add.w	r4, r4, #804	; 0x324
 800126a:	9305      	str	r3, [sp, #20]
 800126c:	9404      	str	r4, [sp, #16]
 800126e:	f003 ff3f 	bl	80050f0 <TL_MM_Init>
 8001272:	f003 fe7b 	bl	8004f6c <TL_Enable>
 8001276:	b008      	add	sp, #32
 8001278:	bd10      	pop	{r4, pc}
 800127a:	bf00      	nop
 800127c:	200301e8 	.word	0x200301e8
 8001280:	58000400 	.word	0x58000400
 8001284:	200015dc 	.word	0x200015dc
 8001288:	08004d81 	.word	0x08004d81
 800128c:	080011c5 	.word	0x080011c5
 8001290:	080011c7 	.word	0x080011c7

08001294 <UTIL_SEQ_Idle>:
 8001294:	4770      	bx	lr

08001296 <UTIL_SEQ_EvtIdle>:
 8001296:	f04f 30ff 	mov.w	r0, #4294967295
 800129a:	f004 b871 	b.w	8005380 <UTIL_SEQ_Run>

0800129e <shci_notify_asynch_evt>:
 800129e:	2100      	movs	r1, #0
 80012a0:	2040      	movs	r0, #64	; 0x40
 80012a2:	f004 b80f 	b.w	80052c4 <UTIL_SEQ_SetTask>

080012a6 <shci_cmd_resp_release>:
 80012a6:	2002      	movs	r0, #2
 80012a8:	f004 b83c 	b.w	8005324 <UTIL_SEQ_SetEvt>

080012ac <shci_cmd_resp_wait>:
 80012ac:	2002      	movs	r0, #2
 80012ae:	f004 b8f3 	b.w	8005498 <UTIL_SEQ_WaitEvt>
	...

080012b4 <ReadRtcSsrValue>:
 80012b4:	4a05      	ldr	r2, [pc, #20]	; (80012cc <ReadRtcSsrValue+0x18>)
 80012b6:	6a90      	ldr	r0, [r2, #40]	; 0x28
 80012b8:	6a93      	ldr	r3, [r2, #40]	; 0x28
 80012ba:	b280      	uxth	r0, r0
 80012bc:	b29b      	uxth	r3, r3
 80012be:	4298      	cmp	r0, r3
 80012c0:	d100      	bne.n	80012c4 <ReadRtcSsrValue+0x10>
 80012c2:	4770      	bx	lr
 80012c4:	6a91      	ldr	r1, [r2, #40]	; 0x28
 80012c6:	4618      	mov	r0, r3
 80012c8:	b28b      	uxth	r3, r1
 80012ca:	e7f8      	b.n	80012be <ReadRtcSsrValue+0xa>
 80012cc:	40002800 	.word	0x40002800

080012d0 <UnlinkTimer>:
 80012d0:	b5f0      	push	{r4, r5, r6, r7, lr}
 80012d2:	4b17      	ldr	r3, [pc, #92]	; (8001330 <UnlinkTimer+0x60>)
 80012d4:	781a      	ldrb	r2, [r3, #0]
 80012d6:	4282      	cmp	r2, r0
 80012d8:	f04f 0418 	mov.w	r4, #24
 80012dc:	d115      	bne.n	800130a <UnlinkTimer+0x3a>
 80012de:	781a      	ldrb	r2, [r3, #0]
 80012e0:	b2d2      	uxtb	r2, r2
 80012e2:	705a      	strb	r2, [r3, #1]
 80012e4:	fb04 3200 	mla	r2, r4, r0, r3
 80012e8:	7e52      	ldrb	r2, [r2, #25]
 80012ea:	b2d2      	uxtb	r2, r2
 80012ec:	701a      	strb	r2, [r3, #0]
 80012ee:	2218      	movs	r2, #24
 80012f0:	fb02 3000 	mla	r0, r2, r0, r3
 80012f4:	2201      	movs	r2, #1
 80012f6:	7402      	strb	r2, [r0, #16]
 80012f8:	781a      	ldrb	r2, [r3, #0]
 80012fa:	2a06      	cmp	r2, #6
 80012fc:	d104      	bne.n	8001308 <UnlinkTimer+0x38>
 80012fe:	b919      	cbnz	r1, 8001308 <UnlinkTimer+0x38>
 8001300:	f04f 32ff 	mov.w	r2, #4294967295
 8001304:	f8c3 2094 	str.w	r2, [r3, #148]	; 0x94
 8001308:	bdf0      	pop	{r4, r5, r6, r7, pc}
 800130a:	fb04 3500 	mla	r5, r4, r0, r3
 800130e:	7e2e      	ldrb	r6, [r5, #24]
 8001310:	7e6a      	ldrb	r2, [r5, #25]
 8001312:	7e6f      	ldrb	r7, [r5, #25]
 8001314:	fb04 3606 	mla	r6, r4, r6, r3
 8001318:	b2d2      	uxtb	r2, r2
 800131a:	b2ff      	uxtb	r7, r7
 800131c:	2a06      	cmp	r2, #6
 800131e:	7677      	strb	r7, [r6, #25]
 8001320:	bf1f      	itttt	ne
 8001322:	7e2d      	ldrbne	r5, [r5, #24]
 8001324:	fb04 3202 	mlane	r2, r4, r2, r3
 8001328:	b2ed      	uxtbne	r5, r5
 800132a:	7615      	strbne	r5, [r2, #24]
 800132c:	e7df      	b.n	80012ee <UnlinkTimer+0x1e>
 800132e:	bf00      	nop
 8001330:	200001ec 	.word	0x200001ec

08001334 <ReturnTimeElapsed>:
 8001334:	b510      	push	{r4, lr}
 8001336:	4c0f      	ldr	r4, [pc, #60]	; (8001374 <ReturnTimeElapsed+0x40>)
 8001338:	f8d4 3094 	ldr.w	r3, [r4, #148]	; 0x94
 800133c:	3301      	adds	r3, #1
 800133e:	d016      	beq.n	800136e <ReturnTimeElapsed+0x3a>
 8001340:	f7ff ffb8 	bl	80012b4 <ReadRtcSsrValue>
 8001344:	f8d4 3094 	ldr.w	r3, [r4, #148]	; 0x94
 8001348:	4283      	cmp	r3, r0
 800134a:	bf3d      	ittte	cc
 800134c:	4b0a      	ldrcc	r3, [pc, #40]	; (8001378 <ReturnTimeElapsed+0x44>)
 800134e:	f8d4 2094 	ldrcc.w	r2, [r4, #148]	; 0x94
 8001352:	881b      	ldrhcc	r3, [r3, #0]
 8001354:	f8d4 3094 	ldrcs.w	r3, [r4, #148]	; 0x94
 8001358:	bf38      	it	cc
 800135a:	189b      	addcc	r3, r3, r2
 800135c:	1a18      	subs	r0, r3, r0
 800135e:	4b07      	ldr	r3, [pc, #28]	; (800137c <ReturnTimeElapsed+0x48>)
 8001360:	781b      	ldrb	r3, [r3, #0]
 8001362:	4358      	muls	r0, r3
 8001364:	4b06      	ldr	r3, [pc, #24]	; (8001380 <ReturnTimeElapsed+0x4c>)
 8001366:	781b      	ldrb	r3, [r3, #0]
 8001368:	40d8      	lsrs	r0, r3
 800136a:	b280      	uxth	r0, r0
 800136c:	bd10      	pop	{r4, pc}
 800136e:	2000      	movs	r0, #0
 8001370:	e7fb      	b.n	800136a <ReturnTimeElapsed+0x36>
 8001372:	bf00      	nop
 8001374:	200001ec 	.word	0x200001ec
 8001378:	20000318 	.word	0x20000318
 800137c:	20000314 	.word	0x20000314
 8001380:	2000031a 	.word	0x2000031a

08001384 <RescheduleTimerList>:
 8001384:	e92d 41f0 	stmdb	sp!, {r4, r5, r6, r7, r8, lr}
 8001388:	4c3e      	ldr	r4, [pc, #248]	; (8001484 <RescheduleTimerList+0x100>)
 800138a:	4b3f      	ldr	r3, [pc, #252]	; (8001488 <RescheduleTimerList+0x104>)
 800138c:	f8d4 8000 	ldr.w	r8, [r4]
 8001390:	689a      	ldr	r2, [r3, #8]
 8001392:	f8d8 3000 	ldr.w	r3, [r8]
 8001396:	f412 6f80 	tst.w	r2, #1024	; 0x400
 800139a:	d003      	beq.n	80013a4 <RescheduleTimerList+0x20>
 800139c:	68da      	ldr	r2, [r3, #12]
 800139e:	f012 0f04 	tst.w	r2, #4
 80013a2:	e7fa      	b.n	800139a <RescheduleTimerList+0x16>
 80013a4:	689a      	ldr	r2, [r3, #8]
 80013a6:	4e39      	ldr	r6, [pc, #228]	; (800148c <RescheduleTimerList+0x108>)
 80013a8:	f422 6280 	bic.w	r2, r2, #1024	; 0x400
 80013ac:	609a      	str	r2, [r3, #8]
 80013ae:	7837      	ldrb	r7, [r6, #0]
 80013b0:	2318      	movs	r3, #24
 80013b2:	b2ff      	uxtb	r7, r7
 80013b4:	fb03 6307 	mla	r3, r3, r7, r6
 80013b8:	68dd      	ldr	r5, [r3, #12]
 80013ba:	f7ff ffbb 	bl	8001334 <ReturnTimeElapsed>
 80013be:	42a8      	cmp	r0, r5
 80013c0:	d907      	bls.n	80013d2 <RescheduleTimerList+0x4e>
 80013c2:	2301      	movs	r3, #1
 80013c4:	f886 3098 	strb.w	r3, [r6, #152]	; 0x98
 80013c8:	2300      	movs	r3, #0
 80013ca:	2518      	movs	r5, #24
 80013cc:	f04f 0c00 	mov.w	ip, #0
 80013d0:	e01c      	b.n	800140c <RescheduleTimerList+0x88>
 80013d2:	4a2f      	ldr	r2, [pc, #188]	; (8001490 <RescheduleTimerList+0x10c>)
 80013d4:	8813      	ldrh	r3, [r2, #0]
 80013d6:	4403      	add	r3, r0
 80013d8:	42ab      	cmp	r3, r5
 80013da:	bf35      	itete	cc
 80013dc:	8813      	ldrhcc	r3, [r2, #0]
 80013de:	1a2b      	subcs	r3, r5, r0
 80013e0:	2200      	movcc	r2, #0
 80013e2:	2201      	movcs	r2, #1
 80013e4:	bf34      	ite	cc
 80013e6:	b29b      	uxthcc	r3, r3
 80013e8:	b29b      	uxthcs	r3, r3
 80013ea:	f886 2098 	strb.w	r2, [r6, #152]	; 0x98
 80013ee:	e7ec      	b.n	80013ca <RescheduleTimerList+0x46>
 80013f0:	fb05 6207 	mla	r2, r5, r7, r6
 80013f4:	fb05 6707 	mla	r7, r5, r7, r6
 80013f8:	68d1      	ldr	r1, [r2, #12]
 80013fa:	4288      	cmp	r0, r1
 80013fc:	bf97      	itett	ls
 80013fe:	68d1      	ldrls	r1, [r2, #12]
 8001400:	f8c2 c00c 	strhi.w	ip, [r2, #12]
 8001404:	1a09      	subls	r1, r1, r0
 8001406:	60d1      	strls	r1, [r2, #12]
 8001408:	7e7f      	ldrb	r7, [r7, #25]
 800140a:	b2ff      	uxtb	r7, r7
 800140c:	2f06      	cmp	r7, #6
 800140e:	d1ef      	bne.n	80013f0 <RescheduleTimerList+0x6c>
 8001410:	b943      	cbnz	r3, 8001424 <RescheduleTimerList+0xa0>
 8001412:	f7ff ff4f 	bl	80012b4 <ReadRtcSsrValue>
 8001416:	f8c6 0094 	str.w	r0, [r6, #148]	; 0x94
 800141a:	2003      	movs	r0, #3
 800141c:	e8bd 41f0 	ldmia.w	sp!, {r4, r5, r6, r7, r8, lr}
 8001420:	f000 beec 	b.w	80021fc <HAL_NVIC_SetPendingIRQ>
 8001424:	2b01      	cmp	r3, #1
 8001426:	d803      	bhi.n	8001430 <RescheduleTimerList+0xac>
 8001428:	4a1a      	ldr	r2, [pc, #104]	; (8001494 <RescheduleTimerList+0x110>)
 800142a:	7812      	ldrb	r2, [r2, #0]
 800142c:	2a01      	cmp	r2, #1
 800142e:	d026      	beq.n	800147e <RescheduleTimerList+0xfa>
 8001430:	3b01      	subs	r3, #1
 8001432:	b29d      	uxth	r5, r3
 8001434:	f8d8 3000 	ldr.w	r3, [r8]
 8001438:	68da      	ldr	r2, [r3, #12]
 800143a:	0752      	lsls	r2, r2, #29
 800143c:	d5fc      	bpl.n	8001438 <RescheduleTimerList+0xb4>
 800143e:	68d9      	ldr	r1, [r3, #12]
 8001440:	b2c9      	uxtb	r1, r1
 8001442:	f461 6190 	orn	r1, r1, #1152	; 0x480
 8001446:	60d9      	str	r1, [r3, #12]
 8001448:	4b13      	ldr	r3, [pc, #76]	; (8001498 <RescheduleTimerList+0x114>)
 800144a:	f44f 2200 	mov.w	r2, #524288	; 0x80000
 800144e:	60da      	str	r2, [r3, #12]
 8001450:	2003      	movs	r0, #3
 8001452:	f000 fee3 	bl	800221c <HAL_NVIC_ClearPendingIRQ>
 8001456:	4b0c      	ldr	r3, [pc, #48]	; (8001488 <RescheduleTimerList+0x104>)
 8001458:	695a      	ldr	r2, [r3, #20]
 800145a:	0c12      	lsrs	r2, r2, #16
 800145c:	0412      	lsls	r2, r2, #16
 800145e:	432a      	orrs	r2, r5
 8001460:	615a      	str	r2, [r3, #20]
 8001462:	f7ff ff27 	bl	80012b4 <ReadRtcSsrValue>
 8001466:	6823      	ldr	r3, [r4, #0]
 8001468:	f8c6 0094 	str.w	r0, [r6, #148]	; 0x94
 800146c:	681a      	ldr	r2, [r3, #0]
 800146e:	6893      	ldr	r3, [r2, #8]
 8001470:	f443 6380 	orr.w	r3, r3, #1024	; 0x400
 8001474:	6093      	str	r3, [r2, #8]
 8001476:	f3af 8000 	nop.w
 800147a:	e8bd 81f0 	ldmia.w	sp!, {r4, r5, r6, r7, r8, pc}
 800147e:	4615      	mov	r5, r2
 8001480:	e7d8      	b.n	8001434 <RescheduleTimerList+0xb0>
 8001482:	bf00      	nop
 8001484:	2000031c 	.word	0x2000031c
 8001488:	40002800 	.word	0x40002800
 800148c:	200001ec 	.word	0x200001ec
 8001490:	20000316 	.word	0x20000316
 8001494:	2000031a 	.word	0x2000031a
 8001498:	58000800 	.word	0x58000800

0800149c <HW_TS_Init>:
 800149c:	b570      	push	{r4, r5, r6, lr}
 800149e:	680d      	ldr	r5, [r1, #0]
 80014a0:	4e40      	ldr	r6, [pc, #256]	; (80015a4 <HW_TS_Init+0x108>)
 80014a2:	4c41      	ldr	r4, [pc, #260]	; (80015a8 <HW_TS_Init+0x10c>)
 80014a4:	23ca      	movs	r3, #202	; 0xca
 80014a6:	626b      	str	r3, [r5, #36]	; 0x24
 80014a8:	2353      	movs	r3, #83	; 0x53
 80014aa:	626b      	str	r3, [r5, #36]	; 0x24
 80014ac:	68b3      	ldr	r3, [r6, #8]
 80014ae:	6021      	str	r1, [r4, #0]
 80014b0:	f043 0320 	orr.w	r3, r3, #32
 80014b4:	60b3      	str	r3, [r6, #8]
 80014b6:	68b3      	ldr	r3, [r6, #8]
 80014b8:	f003 0307 	and.w	r3, r3, #7
 80014bc:	f1c3 0304 	rsb	r3, r3, #4
 80014c0:	b2d9      	uxtb	r1, r3
 80014c2:	4b3a      	ldr	r3, [pc, #232]	; (80015ac <HW_TS_Init+0x110>)
 80014c4:	7019      	strb	r1, [r3, #0]
 80014c6:	6932      	ldr	r2, [r6, #16]
 80014c8:	f44f 03fe 	mov.w	r3, #8323072	; 0x7f0000
 80014cc:	f402 02fe 	and.w	r2, r2, #8323072	; 0x7f0000
 80014d0:	fa93 f3a3 	rbit	r3, r3
 80014d4:	fab3 f383 	clz	r3, r3
 80014d8:	40da      	lsrs	r2, r3
 80014da:	3201      	adds	r2, #1
 80014dc:	4b34      	ldr	r3, [pc, #208]	; (80015b0 <HW_TS_Init+0x114>)
 80014de:	b2d2      	uxtb	r2, r2
 80014e0:	701a      	strb	r2, [r3, #0]
 80014e2:	6933      	ldr	r3, [r6, #16]
 80014e4:	4e33      	ldr	r6, [pc, #204]	; (80015b4 <HW_TS_Init+0x118>)
 80014e6:	f3c3 030e 	ubfx	r3, r3, #0, #15
 80014ea:	3301      	adds	r3, #1
 80014ec:	8033      	strh	r3, [r6, #0]
 80014ee:	3b01      	subs	r3, #1
 80014f0:	4353      	muls	r3, r2
 80014f2:	f5a3 73a0 	sub.w	r3, r3, #320	; 0x140
 80014f6:	40cb      	lsrs	r3, r1
 80014f8:	f64f 72fe 	movw	r2, #65534	; 0xfffe
 80014fc:	4293      	cmp	r3, r2
 80014fe:	4a2e      	ldr	r2, [pc, #184]	; (80015b8 <HW_TS_Init+0x11c>)
 8001500:	bf8c      	ite	hi
 8001502:	f64f 73ff 	movwhi	r3, #65535	; 0xffff
 8001506:	b29b      	uxthls	r3, r3
 8001508:	8013      	strh	r3, [r2, #0]
 800150a:	4a2c      	ldr	r2, [pc, #176]	; (80015bc <HW_TS_Init+0x120>)
 800150c:	6813      	ldr	r3, [r2, #0]
 800150e:	f443 2300 	orr.w	r3, r3, #524288	; 0x80000
 8001512:	6013      	str	r3, [r2, #0]
 8001514:	f8d2 3080 	ldr.w	r3, [r2, #128]	; 0x80
 8001518:	f443 2300 	orr.w	r3, r3, #524288	; 0x80000
 800151c:	f8c2 3080 	str.w	r3, [r2, #128]	; 0x80
 8001520:	2800      	cmp	r0, #0
 8001522:	d137      	bne.n	8001594 <HW_TS_Init+0xf8>
 8001524:	4b26      	ldr	r3, [pc, #152]	; (80015c0 <HW_TS_Init+0x124>)
 8001526:	2101      	movs	r1, #1
 8001528:	f883 1098 	strb.w	r1, [r3, #152]	; 0x98
 800152c:	f04f 31ff 	mov.w	r1, #4294967295
 8001530:	f8c3 1094 	str.w	r1, [r3, #148]	; 0x94
 8001534:	2106      	movs	r1, #6
 8001536:	7418      	strb	r0, [r3, #16]
 8001538:	f883 0028 	strb.w	r0, [r3, #40]	; 0x28
 800153c:	f883 0040 	strb.w	r0, [r3, #64]	; 0x40
 8001540:	f883 0058 	strb.w	r0, [r3, #88]	; 0x58
 8001544:	f883 0070 	strb.w	r0, [r3, #112]	; 0x70
 8001548:	f883 0088 	strb.w	r0, [r3, #136]	; 0x88
 800154c:	7019      	strb	r1, [r3, #0]
 800154e:	68ab      	ldr	r3, [r5, #8]
 8001550:	f423 6380 	bic.w	r3, r3, #1024	; 0x400
 8001554:	60ab      	str	r3, [r5, #8]
 8001556:	68eb      	ldr	r3, [r5, #12]
 8001558:	b2db      	uxtb	r3, r3
 800155a:	f463 6390 	orn	r3, r3, #1152	; 0x480
 800155e:	60eb      	str	r3, [r5, #12]
 8001560:	f44f 2300 	mov.w	r3, #524288	; 0x80000
 8001564:	60d3      	str	r3, [r2, #12]
 8001566:	2003      	movs	r0, #3
 8001568:	f000 fe58 	bl	800221c <HAL_NVIC_ClearPendingIRQ>
 800156c:	6823      	ldr	r3, [r4, #0]
 800156e:	681a      	ldr	r2, [r3, #0]
 8001570:	6893      	ldr	r3, [r2, #8]
 8001572:	f443 4380 	orr.w	r3, r3, #16384	; 0x4000
 8001576:	6093      	str	r3, [r2, #8]
 8001578:	6823      	ldr	r3, [r4, #0]
 800157a:	681b      	ldr	r3, [r3, #0]
 800157c:	22ff      	movs	r2, #255	; 0xff
 800157e:	2103      	movs	r1, #3
 8001580:	625a      	str	r2, [r3, #36]	; 0x24
 8001582:	4608      	mov	r0, r1
 8001584:	2200      	movs	r2, #0
 8001586:	f000 fdcd 	bl	8002124 <HAL_NVIC_SetPriority>
 800158a:	2003      	movs	r0, #3
 800158c:	e8bd 4070 	ldmia.w	sp!, {r4, r5, r6, lr}
 8001590:	f000 bdfc 	b.w	800218c <HAL_NVIC_EnableIRQ>
 8001594:	68eb      	ldr	r3, [r5, #12]
 8001596:	055b      	lsls	r3, r3, #21
 8001598:	d5ee      	bpl.n	8001578 <HW_TS_Init+0xdc>
 800159a:	2003      	movs	r0, #3
 800159c:	f000 fe2e 	bl	80021fc <HAL_NVIC_SetPendingIRQ>
 80015a0:	e7ea      	b.n	8001578 <HW_TS_Init+0xdc>
 80015a2:	bf00      	nop
 80015a4:	40002800 	.word	0x40002800
 80015a8:	2000031c 	.word	0x2000031c
 80015ac:	2000031a 	.word	0x2000031a
 80015b0:	20000314 	.word	0x20000314
 80015b4:	20000318 	.word	0x20000318
 80015b8:	20000316 	.word	0x20000316
 80015bc:	58000800 	.word	0x58000800
 80015c0:	200001ec 	.word	0x200001ec

080015c4 <HW_TS_Create>:
 80015c4:	e92d 47f0 	stmdb	sp!, {r4, r5, r6, r7, r8, r9, sl, lr}
 80015c8:	f3ef 8710 	mrs	r7, PRIMASK
 80015cc:	b672      	cpsid	i
 80015ce:	f8df 9044 	ldr.w	r9, [pc, #68]	; 8001614 <HW_TS_Create+0x50>
 80015d2:	2500      	movs	r5, #0
 80015d4:	f04f 0a18 	mov.w	sl, #24
 80015d8:	fb0a 9405 	mla	r4, sl, r5, r9
 80015dc:	fa5f fe85 	uxtb.w	lr, r5
 80015e0:	f894 c010 	ldrb.w	ip, [r4, #16]
 80015e4:	f00c 06ff 	and.w	r6, ip, #255	; 0xff
 80015e8:	f1bc 0f00 	cmp.w	ip, #0
 80015ec:	d10b      	bne.n	8001606 <HW_TS_Create+0x42>
 80015ee:	2501      	movs	r5, #1
 80015f0:	7425      	strb	r5, [r4, #16]
 80015f2:	f387 8810 	msr	PRIMASK, r7
 80015f6:	6160      	str	r0, [r4, #20]
 80015f8:	7462      	strb	r2, [r4, #17]
 80015fa:	4630      	mov	r0, r6
 80015fc:	6063      	str	r3, [r4, #4]
 80015fe:	f881 e000 	strb.w	lr, [r1]
 8001602:	e8bd 87f0 	ldmia.w	sp!, {r4, r5, r6, r7, r8, r9, sl, pc}
 8001606:	3501      	adds	r5, #1
 8001608:	2d06      	cmp	r5, #6
 800160a:	d1e5      	bne.n	80015d8 <HW_TS_Create+0x14>
 800160c:	f387 8810 	msr	PRIMASK, r7
 8001610:	2001      	movs	r0, #1
 8001612:	e7f6      	b.n	8001602 <HW_TS_Create+0x3e>
 8001614:	200001ec 	.word	0x200001ec

08001618 <HW_TS_Stop>:
 8001618:	e92d 41f0 	stmdb	sp!, {r4, r5, r6, r7, r8, lr}
 800161c:	4680      	mov	r8, r0
 800161e:	f3ef 8510 	mrs	r5, PRIMASK
 8001622:	b672      	cpsid	i
 8001624:	4c23      	ldr	r4, [pc, #140]	; (80016b4 <HW_TS_Stop+0x9c>)
 8001626:	4e24      	ldr	r6, [pc, #144]	; (80016b8 <HW_TS_Stop+0xa0>)
 8001628:	2003      	movs	r0, #3
 800162a:	f000 fdbd 	bl	80021a8 <HAL_NVIC_DisableIRQ>
 800162e:	6827      	ldr	r7, [r4, #0]
 8001630:	683b      	ldr	r3, [r7, #0]
 8001632:	22ca      	movs	r2, #202	; 0xca
 8001634:	625a      	str	r2, [r3, #36]	; 0x24
 8001636:	2253      	movs	r2, #83	; 0x53
 8001638:	625a      	str	r2, [r3, #36]	; 0x24
 800163a:	2318      	movs	r3, #24
 800163c:	fb03 6308 	mla	r3, r3, r8, r6
 8001640:	7c1b      	ldrb	r3, [r3, #16]
 8001642:	2b02      	cmp	r3, #2
 8001644:	d124      	bne.n	8001690 <HW_TS_Stop+0x78>
 8001646:	2100      	movs	r1, #0
 8001648:	4640      	mov	r0, r8
 800164a:	f7ff fe41 	bl	80012d0 <UnlinkTimer>
 800164e:	7833      	ldrb	r3, [r6, #0]
 8001650:	b2db      	uxtb	r3, r3
 8001652:	2b06      	cmp	r3, #6
 8001654:	d127      	bne.n	80016a6 <HW_TS_Stop+0x8e>
 8001656:	4b19      	ldr	r3, [pc, #100]	; (80016bc <HW_TS_Stop+0xa4>)
 8001658:	689a      	ldr	r2, [r3, #8]
 800165a:	683b      	ldr	r3, [r7, #0]
 800165c:	f412 6f80 	tst.w	r2, #1024	; 0x400
 8001660:	d003      	beq.n	800166a <HW_TS_Stop+0x52>
 8001662:	68da      	ldr	r2, [r3, #12]
 8001664:	f012 0f04 	tst.w	r2, #4
 8001668:	e7fa      	b.n	8001660 <HW_TS_Stop+0x48>
 800166a:	689a      	ldr	r2, [r3, #8]
 800166c:	f422 6280 	bic.w	r2, r2, #1024	; 0x400
 8001670:	609a      	str	r2, [r3, #8]
 8001672:	68da      	ldr	r2, [r3, #12]
 8001674:	0752      	lsls	r2, r2, #29
 8001676:	d5fc      	bpl.n	8001672 <HW_TS_Stop+0x5a>
 8001678:	68da      	ldr	r2, [r3, #12]
 800167a:	b2d2      	uxtb	r2, r2
 800167c:	f462 6290 	orn	r2, r2, #1152	; 0x480
 8001680:	60da      	str	r2, [r3, #12]
 8001682:	4b0f      	ldr	r3, [pc, #60]	; (80016c0 <HW_TS_Stop+0xa8>)
 8001684:	f44f 2200 	mov.w	r2, #524288	; 0x80000
 8001688:	60da      	str	r2, [r3, #12]
 800168a:	2003      	movs	r0, #3
 800168c:	f000 fdc6 	bl	800221c <HAL_NVIC_ClearPendingIRQ>
 8001690:	6823      	ldr	r3, [r4, #0]
 8001692:	681b      	ldr	r3, [r3, #0]
 8001694:	22ff      	movs	r2, #255	; 0xff
 8001696:	625a      	str	r2, [r3, #36]	; 0x24
 8001698:	2003      	movs	r0, #3
 800169a:	f000 fd77 	bl	800218c <HAL_NVIC_EnableIRQ>
 800169e:	f385 8810 	msr	PRIMASK, r5
 80016a2:	e8bd 81f0 	ldmia.w	sp!, {r4, r5, r6, r7, r8, pc}
 80016a6:	7872      	ldrb	r2, [r6, #1]
 80016a8:	429a      	cmp	r2, r3
 80016aa:	d0f1      	beq.n	8001690 <HW_TS_Stop+0x78>
 80016ac:	f7ff fe6a 	bl	8001384 <RescheduleTimerList>
 80016b0:	e7ee      	b.n	8001690 <HW_TS_Stop+0x78>
 80016b2:	bf00      	nop
 80016b4:	2000031c 	.word	0x2000031c
 80016b8:	200001ec 	.word	0x200001ec
 80016bc:	40002800 	.word	0x40002800
 80016c0:	58000800 	.word	0x58000800

080016c4 <HW_TS_Start>:
 80016c4:	e92d 43f8 	stmdb	sp!, {r3, r4, r5, r6, r7, r8, r9, lr}
 80016c8:	4c4b      	ldr	r4, [pc, #300]	; (80017f8 <HW_TS_Start+0x134>)
 80016ca:	2318      	movs	r3, #24
 80016cc:	fb03 4300 	mla	r3, r3, r0, r4
 80016d0:	4605      	mov	r5, r0
 80016d2:	7c1b      	ldrb	r3, [r3, #16]
 80016d4:	2b02      	cmp	r3, #2
 80016d6:	460f      	mov	r7, r1
 80016d8:	d101      	bne.n	80016de <HW_TS_Start+0x1a>
 80016da:	f7ff ff9d 	bl	8001618 <HW_TS_Stop>
 80016de:	f3ef 8810 	mrs	r8, PRIMASK
 80016e2:	b672      	cpsid	i
 80016e4:	2003      	movs	r0, #3
 80016e6:	f000 fd5f 	bl	80021a8 <HAL_NVIC_DisableIRQ>
 80016ea:	4a44      	ldr	r2, [pc, #272]	; (80017fc <HW_TS_Start+0x138>)
 80016ec:	6813      	ldr	r3, [r2, #0]
 80016ee:	681b      	ldr	r3, [r3, #0]
 80016f0:	21ca      	movs	r1, #202	; 0xca
 80016f2:	2618      	movs	r6, #24
 80016f4:	6259      	str	r1, [r3, #36]	; 0x24
 80016f6:	fb06 4905 	mla	r9, r6, r5, r4
 80016fa:	2153      	movs	r1, #83	; 0x53
 80016fc:	6259      	str	r1, [r3, #36]	; 0x24
 80016fe:	2302      	movs	r3, #2
 8001700:	f889 3010 	strb.w	r3, [r9, #16]
 8001704:	f8c9 700c 	str.w	r7, [r9, #12]
 8001708:	f8c9 7008 	str.w	r7, [r9, #8]
 800170c:	7823      	ldrb	r3, [r4, #0]
 800170e:	b2db      	uxtb	r3, r3
 8001710:	2b06      	cmp	r3, #6
 8001712:	4617      	mov	r7, r2
 8001714:	d11b      	bne.n	800174e <HW_TS_Start+0x8a>
 8001716:	7822      	ldrb	r2, [r4, #0]
 8001718:	b2d2      	uxtb	r2, r2
 800171a:	7062      	strb	r2, [r4, #1]
 800171c:	7025      	strb	r5, [r4, #0]
 800171e:	f889 3019 	strb.w	r3, [r9, #25]
 8001722:	f04f 33ff 	mov.w	r3, #4294967295
 8001726:	f8c4 3094 	str.w	r3, [r4, #148]	; 0x94
 800172a:	2000      	movs	r0, #0
 800172c:	7823      	ldrb	r3, [r4, #0]
 800172e:	7862      	ldrb	r2, [r4, #1]
 8001730:	429a      	cmp	r2, r3
 8001732:	d05a      	beq.n	80017ea <HW_TS_Start+0x126>
 8001734:	f7ff fe26 	bl	8001384 <RescheduleTimerList>
 8001738:	683b      	ldr	r3, [r7, #0]
 800173a:	681b      	ldr	r3, [r3, #0]
 800173c:	22ff      	movs	r2, #255	; 0xff
 800173e:	625a      	str	r2, [r3, #36]	; 0x24
 8001740:	2003      	movs	r0, #3
 8001742:	f000 fd23 	bl	800218c <HAL_NVIC_EnableIRQ>
 8001746:	f388 8810 	msr	PRIMASK, r8
 800174a:	e8bd 83f8 	ldmia.w	sp!, {r3, r4, r5, r6, r7, r8, r9, pc}
 800174e:	f7ff fdf1 	bl	8001334 <ReturnTimeElapsed>
 8001752:	f8d9 300c 	ldr.w	r3, [r9, #12]
 8001756:	4403      	add	r3, r0
 8001758:	f8c9 300c 	str.w	r3, [r9, #12]
 800175c:	f8d9 100c 	ldr.w	r1, [r9, #12]
 8001760:	7823      	ldrb	r3, [r4, #0]
 8001762:	fb06 4303 	mla	r3, r6, r3, r4
 8001766:	68db      	ldr	r3, [r3, #12]
 8001768:	4299      	cmp	r1, r3
 800176a:	d323      	bcc.n	80017b4 <HW_TS_Start+0xf0>
 800176c:	7823      	ldrb	r3, [r4, #0]
 800176e:	b2db      	uxtb	r3, r3
 8001770:	fb06 4203 	mla	r2, r6, r3, r4
 8001774:	7e52      	ldrb	r2, [r2, #25]
 8001776:	b2d2      	uxtb	r2, r2
 8001778:	2a06      	cmp	r2, #6
 800177a:	d004      	beq.n	8001786 <HW_TS_Start+0xc2>
 800177c:	fb06 4202 	mla	r2, r6, r2, r4
 8001780:	68d2      	ldr	r2, [r2, #12]
 8001782:	4291      	cmp	r1, r2
 8001784:	d212      	bcs.n	80017ac <HW_TS_Start+0xe8>
 8001786:	2118      	movs	r1, #24
 8001788:	fb01 4203 	mla	r2, r1, r3, r4
 800178c:	7e52      	ldrb	r2, [r2, #25]
 800178e:	b2d2      	uxtb	r2, r2
 8001790:	2a06      	cmp	r2, #6
 8001792:	bf1c      	itt	ne
 8001794:	fb01 4102 	mlane	r1, r1, r2, r4
 8001798:	760d      	strbne	r5, [r1, #24]
 800179a:	2118      	movs	r1, #24
 800179c:	fb01 4605 	mla	r6, r1, r5, r4
 80017a0:	7672      	strb	r2, [r6, #25]
 80017a2:	7633      	strb	r3, [r6, #24]
 80017a4:	fb01 4303 	mla	r3, r1, r3, r4
 80017a8:	765d      	strb	r5, [r3, #25]
 80017aa:	e7bf      	b.n	800172c <HW_TS_Start+0x68>
 80017ac:	fb06 4303 	mla	r3, r6, r3, r4
 80017b0:	7e5b      	ldrb	r3, [r3, #25]
 80017b2:	e7dc      	b.n	800176e <HW_TS_Start+0xaa>
 80017b4:	7822      	ldrb	r2, [r4, #0]
 80017b6:	7823      	ldrb	r3, [r4, #0]
 80017b8:	b2d2      	uxtb	r2, r2
 80017ba:	429a      	cmp	r2, r3
 80017bc:	fb06 f302 	mul.w	r3, r6, r2
 80017c0:	d00f      	beq.n	80017e2 <HW_TS_Start+0x11e>
 80017c2:	4423      	add	r3, r4
 80017c4:	7e19      	ldrb	r1, [r3, #24]
 80017c6:	b2c9      	uxtb	r1, r1
 80017c8:	fb06 4601 	mla	r6, r6, r1, r4
 80017cc:	7675      	strb	r5, [r6, #25]
 80017ce:	f889 2019 	strb.w	r2, [r9, #25]
 80017d2:	f889 1018 	strb.w	r1, [r9, #24]
 80017d6:	761d      	strb	r5, [r3, #24]
 80017d8:	7823      	ldrb	r3, [r4, #0]
 80017da:	b2db      	uxtb	r3, r3
 80017dc:	7063      	strb	r3, [r4, #1]
 80017de:	7025      	strb	r5, [r4, #0]
 80017e0:	e7a4      	b.n	800172c <HW_TS_Start+0x68>
 80017e2:	f889 2019 	strb.w	r2, [r9, #25]
 80017e6:	4423      	add	r3, r4
 80017e8:	e7f5      	b.n	80017d6 <HW_TS_Start+0x112>
 80017ea:	2318      	movs	r3, #24
 80017ec:	fb03 4405 	mla	r4, r3, r5, r4
 80017f0:	68e3      	ldr	r3, [r4, #12]
 80017f2:	1a18      	subs	r0, r3, r0
 80017f4:	60e0      	str	r0, [r4, #12]
 80017f6:	e79f      	b.n	8001738 <HW_TS_Start+0x74>
 80017f8:	200001ec 	.word	0x200001ec
 80017fc:	2000031c 	.word	0x2000031c

08001800 <HW_TS_RTC_Int_AppNot>:
 8001800:	4710      	bx	r2
	...

08001804 <HW_TS_RTC_Wakeup_Handler>:
 8001804:	e92d 4ff8 	stmdb	sp!, {r3, r4, r5, r6, r7, r8, r9, sl, fp, lr}
 8001808:	f3ef 8710 	mrs	r7, PRIMASK
 800180c:	b672      	cpsid	i
 800180e:	4e2a      	ldr	r6, [pc, #168]	; (80018b8 <HW_TS_RTC_Wakeup_Handler+0xb4>)
 8001810:	6833      	ldr	r3, [r6, #0]
 8001812:	681b      	ldr	r3, [r3, #0]
 8001814:	f04f 0bca 	mov.w	fp, #202	; 0xca
 8001818:	f04f 0853 	mov.w	r8, #83	; 0x53
 800181c:	f8c3 b024 	str.w	fp, [r3, #36]	; 0x24
 8001820:	f8c3 8024 	str.w	r8, [r3, #36]	; 0x24
 8001824:	689a      	ldr	r2, [r3, #8]
 8001826:	f422 6280 	bic.w	r2, r2, #1024	; 0x400
 800182a:	609a      	str	r2, [r3, #8]
 800182c:	4a23      	ldr	r2, [pc, #140]	; (80018bc <HW_TS_RTC_Wakeup_Handler+0xb8>)
 800182e:	7814      	ldrb	r4, [r2, #0]
 8001830:	2518      	movs	r5, #24
 8001832:	b2e4      	uxtb	r4, r4
 8001834:	fb05 2504 	mla	r5, r5, r4, r2
 8001838:	7c29      	ldrb	r1, [r5, #16]
 800183a:	2902      	cmp	r1, #2
 800183c:	d12f      	bne.n	800189e <HW_TS_RTC_Wakeup_Handler+0x9a>
 800183e:	f8d5 a004 	ldr.w	sl, [r5, #4]
 8001842:	f8d5 9014 	ldr.w	r9, [r5, #20]
 8001846:	f892 3098 	ldrb.w	r3, [r2, #152]	; 0x98
 800184a:	b31b      	cbz	r3, 8001894 <HW_TS_RTC_Wakeup_Handler+0x90>
 800184c:	7c69      	ldrb	r1, [r5, #17]
 800184e:	b2c9      	uxtb	r1, r1
 8001850:	2901      	cmp	r1, #1
 8001852:	d119      	bne.n	8001888 <HW_TS_RTC_Wakeup_Handler+0x84>
 8001854:	4620      	mov	r0, r4
 8001856:	f7ff fd3b 	bl	80012d0 <UnlinkTimer>
 800185a:	f387 8810 	msr	PRIMASK, r7
 800185e:	68a9      	ldr	r1, [r5, #8]
 8001860:	4620      	mov	r0, r4
 8001862:	f7ff ff2f 	bl	80016c4 <HW_TS_Start>
 8001866:	6833      	ldr	r3, [r6, #0]
 8001868:	681b      	ldr	r3, [r3, #0]
 800186a:	4652      	mov	r2, sl
 800186c:	f8c3 b024 	str.w	fp, [r3, #36]	; 0x24
 8001870:	4621      	mov	r1, r4
 8001872:	f8c3 8024 	str.w	r8, [r3, #36]	; 0x24
 8001876:	4648      	mov	r0, r9
 8001878:	f7ff ffc2 	bl	8001800 <HW_TS_RTC_Int_AppNot>
 800187c:	6833      	ldr	r3, [r6, #0]
 800187e:	681b      	ldr	r3, [r3, #0]
 8001880:	22ff      	movs	r2, #255	; 0xff
 8001882:	625a      	str	r2, [r3, #36]	; 0x24
 8001884:	e8bd 8ff8 	ldmia.w	sp!, {r3, r4, r5, r6, r7, r8, r9, sl, fp, pc}
 8001888:	f387 8810 	msr	PRIMASK, r7
 800188c:	4620      	mov	r0, r4
 800188e:	f7ff fec3 	bl	8001618 <HW_TS_Stop>
 8001892:	e7e8      	b.n	8001866 <HW_TS_RTC_Wakeup_Handler+0x62>
 8001894:	f7ff fd76 	bl	8001384 <RescheduleTimerList>
 8001898:	f387 8810 	msr	PRIMASK, r7
 800189c:	e7ee      	b.n	800187c <HW_TS_RTC_Wakeup_Handler+0x78>
 800189e:	68da      	ldr	r2, [r3, #12]
 80018a0:	0752      	lsls	r2, r2, #29
 80018a2:	d5fc      	bpl.n	800189e <HW_TS_RTC_Wakeup_Handler+0x9a>
 80018a4:	68da      	ldr	r2, [r3, #12]
 80018a6:	b2d2      	uxtb	r2, r2
 80018a8:	f462 6290 	orn	r2, r2, #1152	; 0x480
 80018ac:	60da      	str	r2, [r3, #12]
 80018ae:	4b04      	ldr	r3, [pc, #16]	; (80018c0 <HW_TS_RTC_Wakeup_Handler+0xbc>)
 80018b0:	f44f 2200 	mov.w	r2, #524288	; 0x80000
 80018b4:	60da      	str	r2, [r3, #12]
 80018b6:	e7ef      	b.n	8001898 <HW_TS_RTC_Wakeup_Handler+0x94>
 80018b8:	2000031c 	.word	0x2000031c
 80018bc:	200001ec 	.word	0x200001ec
 80018c0:	58000800 	.word	0x58000800

080018c4 <HW_UART_Transmit_DMA>:
 80018c4:	b508      	push	{r3, lr}
 80018c6:	b108      	cbz	r0, 80018cc <HW_UART_Transmit_DMA+0x8>
 80018c8:	2000      	movs	r0, #0
 80018ca:	bd08      	pop	{r3, pc}
 80018cc:	4806      	ldr	r0, [pc, #24]	; (80018e8 <HW_UART_Transmit_DMA+0x24>)
 80018ce:	6003      	str	r3, [r0, #0]
 80018d0:	4806      	ldr	r0, [pc, #24]	; (80018ec <HW_UART_Transmit_DMA+0x28>)
 80018d2:	4b07      	ldr	r3, [pc, #28]	; (80018f0 <HW_UART_Transmit_DMA+0x2c>)
 80018d4:	6003      	str	r3, [r0, #0]
 80018d6:	f001 feb9 	bl	800364c <HAL_UART_Transmit_DMA>
 80018da:	2802      	cmp	r0, #2
 80018dc:	d0f5      	beq.n	80018ca <HW_UART_Transmit_DMA+0x6>
 80018de:	2803      	cmp	r0, #3
 80018e0:	d0f3      	beq.n	80018ca <HW_UART_Transmit_DMA+0x6>
 80018e2:	2801      	cmp	r0, #1
 80018e4:	d1f0      	bne.n	80018c8 <HW_UART_Transmit_DMA+0x4>
 80018e6:	e7f0      	b.n	80018ca <HW_UART_Transmit_DMA+0x6>
 80018e8:	20001460 	.word	0x20001460
 80018ec:	20001550 	.word	0x20001550
 80018f0:	40013800 	.word	0x40013800

080018f4 <HAL_UART_TxCpltCallback>:
 80018f4:	6802      	ldr	r2, [r0, #0]
 80018f6:	4b04      	ldr	r3, [pc, #16]	; (8001908 <HAL_UART_TxCpltCallback+0x14>)
 80018f8:	429a      	cmp	r2, r3
 80018fa:	d103      	bne.n	8001904 <HAL_UART_TxCpltCallback+0x10>
 80018fc:	4b03      	ldr	r3, [pc, #12]	; (800190c <HAL_UART_TxCpltCallback+0x18>)
 80018fe:	681b      	ldr	r3, [r3, #0]
 8001900:	b103      	cbz	r3, 8001904 <HAL_UART_TxCpltCallback+0x10>
 8001902:	4718      	bx	r3
 8001904:	4770      	bx	lr
 8001906:	bf00      	nop
 8001908:	40013800 	.word	0x40013800
 800190c:	20001460 	.word	0x20001460

08001910 <LL_AHB1_GRP1_EnableClock>:
 8001910:	f04f 43b0 	mov.w	r3, #1476395008	; 0x58000000
 8001914:	b082      	sub	sp, #8
 8001916:	6c9a      	ldr	r2, [r3, #72]	; 0x48
 8001918:	4302      	orrs	r2, r0
 800191a:	649a      	str	r2, [r3, #72]	; 0x48
 800191c:	6c9b      	ldr	r3, [r3, #72]	; 0x48
 800191e:	4018      	ands	r0, r3
 8001920:	9001      	str	r0, [sp, #4]
 8001922:	9b01      	ldr	r3, [sp, #4]
 8001924:	b002      	add	sp, #8
 8001926:	4770      	bx	lr

08001928 <LL_AHB2_GRP1_EnableClock>:
 8001928:	f04f 43b0 	mov.w	r3, #1476395008	; 0x58000000
 800192c:	b082      	sub	sp, #8
 800192e:	6cda      	ldr	r2, [r3, #76]	; 0x4c
 8001930:	4302      	orrs	r2, r0
 8001932:	64da      	str	r2, [r3, #76]	; 0x4c
 8001934:	6cdb      	ldr	r3, [r3, #76]	; 0x4c
 8001936:	4018      	ands	r0, r3
 8001938:	9001      	str	r0, [sp, #4]
 800193a:	9b01      	ldr	r3, [sp, #4]
 800193c:	b002      	add	sp, #8
 800193e:	4770      	bx	lr

08001940 <SystemClock_Config>:
 8001940:	b5f0      	push	{r4, r5, r6, r7, lr}
 8001942:	b0af      	sub	sp, #188	; 0xbc
 8001944:	2248      	movs	r2, #72	; 0x48
 8001946:	2100      	movs	r1, #0
 8001948:	a808      	add	r0, sp, #32
 800194a:	f004 f80c 	bl	8005966 <memset>
 800194e:	221c      	movs	r2, #28
 8001950:	2100      	movs	r1, #0
 8001952:	a801      	add	r0, sp, #4
 8001954:	f004 f807 	bl	8005966 <memset>
 8001958:	2100      	movs	r1, #0
 800195a:	2250      	movs	r2, #80	; 0x50
 800195c:	a81a      	add	r0, sp, #104	; 0x68
 800195e:	f004 f802 	bl	8005966 <memset>
 8001962:	f000 fed5 	bl	8002710 <HAL_PWR_EnableBkUpAccess>
 8001966:	f04f 42b0 	mov.w	r2, #1476395008	; 0x58000000
 800196a:	2400      	movs	r4, #0
 800196c:	f8d2 3090 	ldr.w	r3, [r2, #144]	; 0x90
 8001970:	f023 0318 	bic.w	r3, r3, #24
 8001974:	f8c2 3090 	str.w	r3, [r2, #144]	; 0x90
 8001978:	f8d2 3400 	ldr.w	r3, [r2, #1024]	; 0x400
 800197c:	f423 63c0 	bic.w	r3, r3, #1536	; 0x600
 8001980:	f443 7300 	orr.w	r3, r3, #512	; 0x200
 8001984:	f8c2 3400 	str.w	r3, [r2, #1024]	; 0x400
 8001988:	f8d2 3400 	ldr.w	r3, [r2, #1024]	; 0x400
 800198c:	9413      	str	r4, [sp, #76]	; 0x4c
 800198e:	f403 63c0 	and.w	r3, r3, #1536	; 0x600
 8001992:	9300      	str	r3, [sp, #0]
 8001994:	2207      	movs	r2, #7
 8001996:	9b00      	ldr	r3, [sp, #0]
 8001998:	f44f 3380 	mov.w	r3, #65536	; 0x10000
 800199c:	e9cd 2308 	strd	r2, r3, [sp, #32]
 80019a0:	2701      	movs	r7, #1
 80019a2:	f44f 7680 	mov.w	r6, #256	; 0x100
 80019a6:	2340      	movs	r3, #64	; 0x40
 80019a8:	a808      	add	r0, sp, #32
 80019aa:	930c      	str	r3, [sp, #48]	; 0x30
 80019ac:	2502      	movs	r5, #2
 80019ae:	e9cd 760a 	strd	r7, r6, [sp, #40]	; 0x28
 80019b2:	f000 ffb7 	bl	8002924 <HAL_RCC_OscConfig>
 80019b6:	236f      	movs	r3, #111	; 0x6f
 80019b8:	4639      	mov	r1, r7
 80019ba:	a801      	add	r0, sp, #4
 80019bc:	e9cd 3501 	strd	r3, r5, [sp, #4]
 80019c0:	e9cd 4403 	strd	r4, r4, [sp, #12]
 80019c4:	e9cd 4405 	strd	r4, r4, [sp, #20]
 80019c8:	9407      	str	r4, [sp, #28]
 80019ca:	f001 fa7b 	bl	8002ec4 <HAL_RCC_ClockConfig>
 80019ce:	f643 0303 	movw	r3, #14339	; 0x3803
 80019d2:	931a      	str	r3, [sp, #104]	; 0x68
 80019d4:	f44f 4380 	mov.w	r3, #16384	; 0x4000
 80019d8:	e9cd 352b 	strd	r3, r5, [sp, #172]	; 0xac
 80019dc:	a81a      	add	r0, sp, #104	; 0x68
 80019de:	2310      	movs	r3, #16
 80019e0:	e9cd 4420 	strd	r4, r4, [sp, #128]	; 0x80
 80019e4:	962a      	str	r6, [sp, #168]	; 0xa8
 80019e6:	932d      	str	r3, [sp, #180]	; 0xb4
 80019e8:	f001 fbb3 	bl	8003152 <HAL_RCCEx_PeriphCLKConfig>
 80019ec:	b02f      	add	sp, #188	; 0xbc
 80019ee:	bdf0      	pop	{r4, r5, r6, r7, pc}

080019f0 <main>:
 80019f0:	4b4f      	ldr	r3, [pc, #316]	; (8001b30 <main+0x140>)
 80019f2:	b537      	push	{r0, r1, r2, r4, r5, lr}
 80019f4:	f44f 4200 	mov.w	r2, #32768	; 0x8000
 80019f8:	f04f 44b0 	mov.w	r4, #1476395008	; 0x58000000
 80019fc:	611a      	str	r2, [r3, #16]
 80019fe:	f000 fb3b 	bl	8002078 <HAL_Init>
 8001a02:	f8d4 3094 	ldr.w	r3, [r4, #148]	; 0x94
 8001a06:	0158      	lsls	r0, r3, #5
 8001a08:	d513      	bpl.n	8001a32 <main+0x42>
 8001a0a:	f8d4 3094 	ldr.w	r3, [r4, #148]	; 0x94
 8001a0e:	00d9      	lsls	r1, r3, #3
 8001a10:	d40f      	bmi.n	8001a32 <main+0x42>
 8001a12:	f000 fe7d 	bl	8002710 <HAL_PWR_EnableBkUpAccess>
 8001a16:	f000 fe7b 	bl	8002710 <HAL_PWR_EnableBkUpAccess>
 8001a1a:	f8d4 3090 	ldr.w	r3, [r4, #144]	; 0x90
 8001a1e:	f443 3380 	orr.w	r3, r3, #65536	; 0x10000
 8001a22:	f8c4 3090 	str.w	r3, [r4, #144]	; 0x90
 8001a26:	f8d4 3090 	ldr.w	r3, [r4, #144]	; 0x90
 8001a2a:	f423 3380 	bic.w	r3, r3, #65536	; 0x10000
 8001a2e:	f8c4 3090 	str.w	r3, [r4, #144]	; 0x90
 8001a32:	f04f 44b0 	mov.w	r4, #1476395008	; 0x58000000
 8001a36:	223f      	movs	r2, #63	; 0x3f
 8001a38:	6d23      	ldr	r3, [r4, #80]	; 0x50
 8001a3a:	f443 1380 	orr.w	r3, r3, #1048576	; 0x100000
 8001a3e:	6523      	str	r3, [r4, #80]	; 0x50
 8001a40:	6d23      	ldr	r3, [r4, #80]	; 0x50
 8001a42:	f403 1380 	and.w	r3, r3, #1048576	; 0x100000
 8001a46:	9301      	str	r3, [sp, #4]
 8001a48:	9b01      	ldr	r3, [sp, #4]
 8001a4a:	4b3a      	ldr	r3, [pc, #232]	; (8001b34 <main+0x144>)
 8001a4c:	609a      	str	r2, [r3, #8]
 8001a4e:	619a      	str	r2, [r3, #24]
 8001a50:	685a      	ldr	r2, [r3, #4]
 8001a52:	f442 127c 	orr.w	r2, r2, #4128768	; 0x3f0000
 8001a56:	605a      	str	r2, [r3, #4]
 8001a58:	695a      	ldr	r2, [r3, #20]
 8001a5a:	f442 127c 	orr.w	r2, r2, #4128768	; 0x3f0000
 8001a5e:	615a      	str	r2, [r3, #20]
 8001a60:	685a      	ldr	r2, [r3, #4]
 8001a62:	f042 023f 	orr.w	r2, r2, #63	; 0x3f
 8001a66:	605a      	str	r2, [r3, #4]
 8001a68:	695a      	ldr	r2, [r3, #20]
 8001a6a:	f042 023f 	orr.w	r2, r2, #63	; 0x3f
 8001a6e:	615a      	str	r2, [r3, #20]
 8001a70:	2000      	movs	r0, #0
 8001a72:	f003 fbf7 	bl	8005264 <OTP_Read>
 8001a76:	b158      	cbz	r0, 8001a90 <main+0xa0>
 8001a78:	4b2f      	ldr	r3, [pc, #188]	; (8001b38 <main+0x148>)
 8001a7a:	7982      	ldrb	r2, [r0, #6]
 8001a7c:	f8c4 309c 	str.w	r3, [r4, #156]	; 0x9c
 8001a80:	f8d4 309c 	ldr.w	r3, [r4, #156]	; 0x9c
 8001a84:	f423 537c 	bic.w	r3, r3, #16128	; 0x3f00
 8001a88:	ea43 2302 	orr.w	r3, r3, r2, lsl #8
 8001a8c:	f8c4 309c 	str.w	r3, [r4, #156]	; 0x9c
 8001a90:	f7ff ff56 	bl	8001940 <SystemClock_Config>
 8001a94:	4b29      	ldr	r3, [pc, #164]	; (8001b3c <main+0x14c>)
 8001a96:	4d2a      	ldr	r5, [pc, #168]	; (8001b40 <main+0x150>)
 8001a98:	f8d3 2080 	ldr.w	r2, [r3, #128]	; 0x80
 8001a9c:	2400      	movs	r4, #0
 8001a9e:	f8c3 4080 	str.w	r4, [r3, #128]	; 0x80
 8001aa2:	f8d3 2090 	ldr.w	r2, [r3, #144]	; 0x90
 8001aa6:	f002 0250 	and.w	r2, r2, #80	; 0x50
 8001aaa:	f8c3 2090 	str.w	r2, [r3, #144]	; 0x90
 8001aae:	2004      	movs	r0, #4
 8001ab0:	f7ff ff3a 	bl	8001928 <LL_AHB2_GRP1_EnableClock>
 8001ab4:	2001      	movs	r0, #1
 8001ab6:	f7ff ff37 	bl	8001928 <LL_AHB2_GRP1_EnableClock>
 8001aba:	2002      	movs	r0, #2
 8001abc:	f7ff ff34 	bl	8001928 <LL_AHB2_GRP1_EnableClock>
 8001ac0:	2004      	movs	r0, #4
 8001ac2:	f7ff ff25 	bl	8001910 <LL_AHB1_GRP1_EnableClock>
 8001ac6:	2002      	movs	r0, #2
 8001ac8:	f7ff ff22 	bl	8001910 <LL_AHB1_GRP1_EnableClock>
 8001acc:	2001      	movs	r0, #1
 8001ace:	f7ff ff1f 	bl	8001910 <LL_AHB1_GRP1_EnableClock>
 8001ad2:	4622      	mov	r2, r4
 8001ad4:	210f      	movs	r1, #15
 8001ad6:	200e      	movs	r0, #14
 8001ad8:	f000 fb24 	bl	8002124 <HAL_NVIC_SetPriority>
 8001adc:	200e      	movs	r0, #14
 8001ade:	f000 fb55 	bl	800218c <HAL_NVIC_EnableIRQ>
 8001ae2:	4622      	mov	r2, r4
 8001ae4:	210f      	movs	r1, #15
 8001ae6:	203a      	movs	r0, #58	; 0x3a
 8001ae8:	f000 fb1c 	bl	8002124 <HAL_NVIC_SetPriority>
 8001aec:	203a      	movs	r0, #58	; 0x3a
 8001aee:	f000 fb4d 	bl	800218c <HAL_NVIC_EnableIRQ>
 8001af2:	4814      	ldr	r0, [pc, #80]	; (8001b44 <main+0x154>)
 8001af4:	f647 73ff 	movw	r3, #32767	; 0x7fff
 8001af8:	220f      	movs	r2, #15
 8001afa:	e9c0 2302 	strd	r2, r3, [r0, #8]
 8001afe:	e9c0 5400 	strd	r5, r4, [r0]
 8001b02:	6104      	str	r4, [r0, #16]
 8001b04:	e9c0 4406 	strd	r4, r4, [r0, #24]
 8001b08:	6144      	str	r4, [r0, #20]
 8001b0a:	f001 fd17 	bl	800353c <HAL_RTC_Init>
 8001b0e:	23ca      	movs	r3, #202	; 0xca
 8001b10:	626b      	str	r3, [r5, #36]	; 0x24
 8001b12:	2353      	movs	r3, #83	; 0x53
 8001b14:	626b      	str	r3, [r5, #36]	; 0x24
 8001b16:	68ab      	ldr	r3, [r5, #8]
 8001b18:	f023 0307 	bic.w	r3, r3, #7
 8001b1c:	60ab      	str	r3, [r5, #8]
 8001b1e:	23ff      	movs	r3, #255	; 0xff
 8001b20:	626b      	str	r3, [r5, #36]	; 0x24
 8001b22:	f7ff fb5b 	bl	80011dc <APPE_Init>
 8001b26:	f04f 30ff 	mov.w	r0, #4294967295
 8001b2a:	f003 fc29 	bl	8005380 <UTIL_SEQ_Run>
 8001b2e:	e7fa      	b.n	8001b26 <main+0x136>
 8001b30:	58004000 	.word	0x58004000
 8001b34:	58000c00 	.word	0x58000c00
 8001b38:	cafecafe 	.word	0xcafecafe
 8001b3c:	58000800 	.word	0x58000800
 8001b40:	40002800 	.word	0x40002800
 8001b44:	200015dc 	.word	0x200015dc

08001b48 <MX_USART1_UART_Init>:
 8001b48:	b538      	push	{r3, r4, r5, lr}
 8001b4a:	4a11      	ldr	r2, [pc, #68]	; (8001b90 <MX_USART1_UART_Init+0x48>)
 8001b4c:	4c11      	ldr	r4, [pc, #68]	; (8001b94 <MX_USART1_UART_Init+0x4c>)
 8001b4e:	f44f 33e1 	mov.w	r3, #115200	; 0x1c200
 8001b52:	2500      	movs	r5, #0
 8001b54:	e9c4 2300 	strd	r2, r3, [r4]
 8001b58:	230c      	movs	r3, #12
 8001b5a:	e9c4 3505 	strd	r3, r5, [r4, #20]
 8001b5e:	4620      	mov	r0, r4
 8001b60:	f44f 4300 	mov.w	r3, #32768	; 0x8000
 8001b64:	e9c4 3507 	strd	r3, r5, [r4, #28]
 8001b68:	e9c4 5502 	strd	r5, r5, [r4, #8]
 8001b6c:	6125      	str	r5, [r4, #16]
 8001b6e:	e9c4 5509 	strd	r5, r5, [r4, #36]	; 0x24
 8001b72:	f002 f8a9 	bl	8003cc8 <HAL_UART_Init>
 8001b76:	4629      	mov	r1, r5
 8001b78:	4620      	mov	r0, r4
 8001b7a:	f002 f929 	bl	8003dd0 <HAL_UARTEx_SetTxFifoThreshold>
 8001b7e:	4629      	mov	r1, r5
 8001b80:	4620      	mov	r0, r4
 8001b82:	f002 f949 	bl	8003e18 <HAL_UARTEx_SetRxFifoThreshold>
 8001b86:	4620      	mov	r0, r4
 8001b88:	e8bd 4038 	ldmia.w	sp!, {r3, r4, r5, lr}
 8001b8c:	f002 b905 	b.w	8003d9a <HAL_UARTEx_DisableFifoMode>
 8001b90:	40013800 	.word	0x40013800
 8001b94:	20001550 	.word	0x20001550

08001b98 <HAL_Delay>:
 8001b98:	b570      	push	{r4, r5, r6, lr}
 8001b9a:	4604      	mov	r4, r0
 8001b9c:	f000 fa8e 	bl	80020bc <HAL_GetTick>
 8001ba0:	1c63      	adds	r3, r4, #1
 8001ba2:	4606      	mov	r6, r0
 8001ba4:	d002      	beq.n	8001bac <HAL_Delay+0x14>
 8001ba6:	f000 fa95 	bl	80020d4 <HAL_GetTickFreq>
 8001baa:	4404      	add	r4, r0
 8001bac:	4d06      	ldr	r5, [pc, #24]	; (8001bc8 <HAL_Delay+0x30>)
 8001bae:	e004      	b.n	8001bba <HAL_Delay+0x22>
 8001bb0:	692b      	ldr	r3, [r5, #16]
 8001bb2:	f023 0304 	bic.w	r3, r3, #4
 8001bb6:	612b      	str	r3, [r5, #16]
 8001bb8:	bf30      	wfi
 8001bba:	f000 fa7f 	bl	80020bc <HAL_GetTick>
 8001bbe:	1b80      	subs	r0, r0, r6
 8001bc0:	42a0      	cmp	r0, r4
 8001bc2:	d3f5      	bcc.n	8001bb0 <HAL_Delay+0x18>
 8001bc4:	bd70      	pop	{r4, r5, r6, pc}
 8001bc6:	bf00      	nop
 8001bc8:	e000ed00 	.word	0xe000ed00

08001bcc <Error_Handler>:
 8001bcc:	4770      	bx	lr

08001bce <LL_AHB2_GRP1_EnableClock>:
 8001bce:	f04f 43b0 	mov.w	r3, #1476395008	; 0x58000000
 8001bd2:	b082      	sub	sp, #8
 8001bd4:	6cda      	ldr	r2, [r3, #76]	; 0x4c
 8001bd6:	4302      	orrs	r2, r0
 8001bd8:	64da      	str	r2, [r3, #76]	; 0x4c
 8001bda:	6cdb      	ldr	r3, [r3, #76]	; 0x4c
 8001bdc:	4018      	ands	r0, r3
 8001bde:	9001      	str	r0, [sp, #4]
 8001be0:	9b01      	ldr	r3, [sp, #4]
 8001be2:	b002      	add	sp, #8
 8001be4:	4770      	bx	lr

08001be6 <HAL_MspInit>:
 8001be6:	f04f 43b0 	mov.w	r3, #1476395008	; 0x58000000
 8001bea:	b507      	push	{r0, r1, r2, lr}
 8001bec:	6d1a      	ldr	r2, [r3, #80]	; 0x50
 8001bee:	f442 2200 	orr.w	r2, r2, #524288	; 0x80000
 8001bf2:	651a      	str	r2, [r3, #80]	; 0x50
 8001bf4:	6d1b      	ldr	r3, [r3, #80]	; 0x50
 8001bf6:	2200      	movs	r2, #0
 8001bf8:	f403 2300 	and.w	r3, r3, #524288	; 0x80000
 8001bfc:	9301      	str	r3, [sp, #4]
 8001bfe:	4611      	mov	r1, r2
 8001c00:	202e      	movs	r0, #46	; 0x2e
 8001c02:	9b01      	ldr	r3, [sp, #4]
 8001c04:	f000 fa8e 	bl	8002124 <HAL_NVIC_SetPriority>
 8001c08:	202e      	movs	r0, #46	; 0x2e
 8001c0a:	b003      	add	sp, #12
 8001c0c:	f85d eb04 	ldr.w	lr, [sp], #4
 8001c10:	f000 babc 	b.w	800218c <HAL_NVIC_EnableIRQ>

08001c14 <HAL_UART_MspInit>:
 8001c14:	b5f0      	push	{r4, r5, r6, r7, lr}
 8001c16:	2214      	movs	r2, #20
 8001c18:	b08b      	sub	sp, #44	; 0x2c
 8001c1a:	4606      	mov	r6, r0
 8001c1c:	2100      	movs	r1, #0
 8001c1e:	eb0d 0002 	add.w	r0, sp, r2
 8001c22:	f003 fea0 	bl	8005966 <memset>
 8001c26:	6833      	ldr	r3, [r6, #0]
 8001c28:	4a53      	ldr	r2, [pc, #332]	; (8001d78 <HAL_UART_MspInit+0x164>)
 8001c2a:	4293      	cmp	r3, r2
 8001c2c:	d158      	bne.n	8001ce0 <HAL_UART_MspInit+0xcc>
 8001c2e:	f04f 43b0 	mov.w	r3, #1476395008	; 0x58000000
 8001c32:	2001      	movs	r0, #1
 8001c34:	6dda      	ldr	r2, [r3, #92]	; 0x5c
 8001c36:	f042 0201 	orr.w	r2, r2, #1
 8001c3a:	65da      	str	r2, [r3, #92]	; 0x5c
 8001c3c:	6ddb      	ldr	r3, [r3, #92]	; 0x5c
 8001c3e:	f003 0301 	and.w	r3, r3, #1
 8001c42:	9300      	str	r3, [sp, #0]
 8001c44:	9b00      	ldr	r3, [sp, #0]
 8001c46:	2702      	movs	r7, #2
 8001c48:	f7ff ffc1 	bl	8001bce <LL_AHB2_GRP1_EnableClock>
 8001c4c:	230c      	movs	r3, #12
 8001c4e:	2500      	movs	r5, #0
 8001c50:	2408      	movs	r4, #8
 8001c52:	e9cd 3705 	strd	r3, r7, [sp, #20]
 8001c56:	a905      	add	r1, sp, #20
 8001c58:	2303      	movs	r3, #3
 8001c5a:	f04f 4090 	mov.w	r0, #1207959552	; 0x48000000
 8001c5e:	e9cd 5307 	strd	r5, r3, [sp, #28]
 8001c62:	9409      	str	r4, [sp, #36]	; 0x24
 8001c64:	f000 fc8a 	bl	800257c <HAL_GPIO_Init>
 8001c68:	2340      	movs	r3, #64	; 0x40
 8001c6a:	f04f 4090 	mov.w	r0, #1207959552	; 0x48000000
 8001c6e:	a905      	add	r1, sp, #20
 8001c70:	e9cd 3705 	strd	r3, r7, [sp, #20]
 8001c74:	9409      	str	r4, [sp, #36]	; 0x24
 8001c76:	e9cd 5507 	strd	r5, r5, [sp, #28]
 8001c7a:	4c40      	ldr	r4, [pc, #256]	; (8001d7c <HAL_UART_MspInit+0x168>)
 8001c7c:	f000 fc7e 	bl	800257c <HAL_GPIO_Init>
 8001c80:	483f      	ldr	r0, [pc, #252]	; (8001d80 <HAL_UART_MspInit+0x16c>)
 8001c82:	6225      	str	r5, [r4, #32]
 8001c84:	2311      	movs	r3, #17
 8001c86:	e9c4 0300 	strd	r0, r3, [r4]
 8001c8a:	2310      	movs	r3, #16
 8001c8c:	e9c4 3502 	strd	r3, r5, [r4, #8]
 8001c90:	4620      	mov	r0, r4
 8001c92:	2380      	movs	r3, #128	; 0x80
 8001c94:	e9c4 3504 	strd	r3, r5, [r4, #16]
 8001c98:	e9c4 5506 	strd	r5, r5, [r4, #24]
 8001c9c:	f000 fb10 	bl	80022c0 <HAL_DMA_Init>
 8001ca0:	b108      	cbz	r0, 8001ca6 <HAL_UART_MspInit+0x92>
 8001ca2:	f7ff ff93 	bl	8001bcc <Error_Handler>
 8001ca6:	f04f 5388 	mov.w	r3, #285212672	; 0x11000000
 8001caa:	e9cd 3501 	strd	r3, r5, [sp, #4]
 8001cae:	a901      	add	r1, sp, #4
 8001cb0:	2301      	movs	r3, #1
 8001cb2:	4832      	ldr	r0, [pc, #200]	; (8001d7c <HAL_UART_MspInit+0x168>)
 8001cb4:	f88d 500c 	strb.w	r5, [sp, #12]
 8001cb8:	f88d 500d 	strb.w	r5, [sp, #13]
 8001cbc:	9304      	str	r3, [sp, #16]
 8001cbe:	f000 fc35 	bl	800252c <HAL_DMAEx_ConfigMuxSync>
 8001cc2:	b108      	cbz	r0, 8001cc8 <HAL_UART_MspInit+0xb4>
 8001cc4:	f7ff ff82 	bl	8001bcc <Error_Handler>
 8001cc8:	2200      	movs	r2, #0
 8001cca:	2025      	movs	r0, #37	; 0x25
 8001ccc:	6774      	str	r4, [r6, #116]	; 0x74
 8001cce:	4611      	mov	r1, r2
 8001cd0:	62a6      	str	r6, [r4, #40]	; 0x28
 8001cd2:	f000 fa27 	bl	8002124 <HAL_NVIC_SetPriority>
 8001cd6:	2025      	movs	r0, #37	; 0x25
 8001cd8:	f000 fa58 	bl	800218c <HAL_NVIC_EnableIRQ>
 8001cdc:	b00b      	add	sp, #44	; 0x2c
 8001cde:	bdf0      	pop	{r4, r5, r6, r7, pc}
 8001ce0:	4a28      	ldr	r2, [pc, #160]	; (8001d84 <HAL_UART_MspInit+0x170>)
 8001ce2:	4293      	cmp	r3, r2
 8001ce4:	d1fa      	bne.n	8001cdc <HAL_UART_MspInit+0xc8>
 8001ce6:	f04f 43b0 	mov.w	r3, #1476395008	; 0x58000000
 8001cea:	2001      	movs	r0, #1
 8001cec:	6e1a      	ldr	r2, [r3, #96]	; 0x60
 8001cee:	f442 4280 	orr.w	r2, r2, #16384	; 0x4000
 8001cf2:	661a      	str	r2, [r3, #96]	; 0x60
 8001cf4:	6e1b      	ldr	r3, [r3, #96]	; 0x60
 8001cf6:	f403 4380 	and.w	r3, r3, #16384	; 0x4000
 8001cfa:	9301      	str	r3, [sp, #4]
 8001cfc:	9b01      	ldr	r3, [sp, #4]
 8001cfe:	f7ff ff66 	bl	8001bce <LL_AHB2_GRP1_EnableClock>
 8001d02:	2002      	movs	r0, #2
 8001d04:	f7ff ff63 	bl	8001bce <LL_AHB2_GRP1_EnableClock>
 8001d08:	2500      	movs	r5, #0
 8001d0a:	f44f 6300 	mov.w	r3, #2048	; 0x800
 8001d0e:	2407      	movs	r4, #7
 8001d10:	2702      	movs	r7, #2
 8001d12:	a905      	add	r1, sp, #20
 8001d14:	f04f 4090 	mov.w	r0, #1207959552	; 0x48000000
 8001d18:	e9cd 3705 	strd	r3, r7, [sp, #20]
 8001d1c:	9409      	str	r4, [sp, #36]	; 0x24
 8001d1e:	e9cd 5507 	strd	r5, r5, [sp, #28]
 8001d22:	f000 fc2b 	bl	800257c <HAL_GPIO_Init>
 8001d26:	23c0      	movs	r3, #192	; 0xc0
 8001d28:	e9cd 3705 	strd	r3, r7, [sp, #20]
 8001d2c:	2201      	movs	r2, #1
 8001d2e:	2303      	movs	r3, #3
 8001d30:	a905      	add	r1, sp, #20
 8001d32:	4815      	ldr	r0, [pc, #84]	; (8001d88 <HAL_UART_MspInit+0x174>)
 8001d34:	9409      	str	r4, [sp, #36]	; 0x24
 8001d36:	e9cd 2307 	strd	r2, r3, [sp, #28]
 8001d3a:	4c14      	ldr	r4, [pc, #80]	; (8001d8c <HAL_UART_MspInit+0x178>)
 8001d3c:	f000 fc1e 	bl	800257c <HAL_GPIO_Init>
 8001d40:	4913      	ldr	r1, [pc, #76]	; (8001d90 <HAL_UART_MspInit+0x17c>)
 8001d42:	6225      	str	r5, [r4, #32]
 8001d44:	230f      	movs	r3, #15
 8001d46:	e9c4 1300 	strd	r1, r3, [r4]
 8001d4a:	2310      	movs	r3, #16
 8001d4c:	e9c4 3502 	strd	r3, r5, [r4, #8]
 8001d50:	4620      	mov	r0, r4
 8001d52:	2380      	movs	r3, #128	; 0x80
 8001d54:	e9c4 3504 	strd	r3, r5, [r4, #16]
 8001d58:	e9c4 5506 	strd	r5, r5, [r4, #24]
 8001d5c:	f000 fab0 	bl	80022c0 <HAL_DMA_Init>
 8001d60:	b108      	cbz	r0, 8001d66 <HAL_UART_MspInit+0x152>
 8001d62:	f7ff ff33 	bl	8001bcc <Error_Handler>
 8001d66:	2200      	movs	r2, #0
 8001d68:	2024      	movs	r0, #36	; 0x24
 8001d6a:	6774      	str	r4, [r6, #116]	; 0x74
 8001d6c:	4611      	mov	r1, r2
 8001d6e:	62a6      	str	r6, [r4, #40]	; 0x28
 8001d70:	f000 f9d8 	bl	8002124 <HAL_NVIC_SetPriority>
 8001d74:	2024      	movs	r0, #36	; 0x24
 8001d76:	e7af      	b.n	8001cd8 <HAL_UART_MspInit+0xc4>
 8001d78:	40008000 	.word	0x40008000
 8001d7c:	20001600 	.word	0x20001600
 8001d80:	40020044 	.word	0x40020044
 8001d84:	40013800 	.word	0x40013800
 8001d88:	48000400 	.word	0x48000400
 8001d8c:	200014f0 	.word	0x200014f0
 8001d90:	40020444 	.word	0x40020444

08001d94 <HAL_RTC_MspInit>:
 8001d94:	6802      	ldr	r2, [r0, #0]
 8001d96:	4b15      	ldr	r3, [pc, #84]	; (8001dec <HAL_RTC_MspInit+0x58>)
 8001d98:	429a      	cmp	r2, r3
 8001d9a:	b513      	push	{r0, r1, r4, lr}
 8001d9c:	4604      	mov	r4, r0
 8001d9e:	d122      	bne.n	8001de6 <HAL_RTC_MspInit+0x52>
 8001da0:	f000 fcb6 	bl	8002710 <HAL_PWR_EnableBkUpAccess>
 8001da4:	f000 fcb4 	bl	8002710 <HAL_PWR_EnableBkUpAccess>
 8001da8:	f04f 43b0 	mov.w	r3, #1476395008	; 0x58000000
 8001dac:	4620      	mov	r0, r4
 8001dae:	f8d3 2090 	ldr.w	r2, [r3, #144]	; 0x90
 8001db2:	f422 7240 	bic.w	r2, r2, #768	; 0x300
 8001db6:	f442 7280 	orr.w	r2, r2, #256	; 0x100
 8001dba:	f8c3 2090 	str.w	r2, [r3, #144]	; 0x90
 8001dbe:	f8d3 2090 	ldr.w	r2, [r3, #144]	; 0x90
 8001dc2:	f442 4200 	orr.w	r2, r2, #32768	; 0x8000
 8001dc6:	f8c3 2090 	str.w	r2, [r3, #144]	; 0x90
 8001dca:	6d9a      	ldr	r2, [r3, #88]	; 0x58
 8001dcc:	f442 6280 	orr.w	r2, r2, #1024	; 0x400
 8001dd0:	659a      	str	r2, [r3, #88]	; 0x58
 8001dd2:	6d9b      	ldr	r3, [r3, #88]	; 0x58
 8001dd4:	f403 6380 	and.w	r3, r3, #1024	; 0x400
 8001dd8:	9301      	str	r3, [sp, #4]
 8001dda:	9b01      	ldr	r3, [sp, #4]
 8001ddc:	b002      	add	sp, #8
 8001dde:	e8bd 4010 	ldmia.w	sp!, {r4, lr}
 8001de2:	f001 bc07 	b.w	80035f4 <HAL_RTCEx_EnableBypassShadow>
 8001de6:	b002      	add	sp, #8
 8001de8:	bd10      	pop	{r4, pc}
 8001dea:	bf00      	nop
 8001dec:	40002800 	.word	0x40002800

08001df0 <NMI_Handler>:
 8001df0:	4770      	bx	lr

08001df2 <HardFault_Handler>:
 8001df2:	e7fe      	b.n	8001df2 <HardFault_Handler>

08001df4 <MemManage_Handler>:
 8001df4:	e7fe      	b.n	8001df4 <MemManage_Handler>

08001df6 <BusFault_Handler>:
 8001df6:	e7fe      	b.n	8001df6 <BusFault_Handler>

08001df8 <UsageFault_Handler>:
 8001df8:	e7fe      	b.n	8001df8 <UsageFault_Handler>

08001dfa <SVC_Handler>:
 8001dfa:	4770      	bx	lr

08001dfc <DebugMon_Handler>:
 8001dfc:	4770      	bx	lr

08001dfe <PendSV_Handler>:
 8001dfe:	4770      	bx	lr

08001e00 <SysTick_Handler>:
 8001e00:	f000 b950 	b.w	80020a4 <HAL_IncTick>

08001e04 <DMA1_Channel4_IRQHandler>:
 8001e04:	4801      	ldr	r0, [pc, #4]	; (8001e0c <DMA1_Channel4_IRQHandler+0x8>)
 8001e06:	f000 bb46 	b.w	8002496 <HAL_DMA_IRQHandler>
 8001e0a:	bf00      	nop
 8001e0c:	20001600 	.word	0x20001600

08001e10 <USART1_IRQHandler>:
 8001e10:	4801      	ldr	r0, [pc, #4]	; (8001e18 <USART1_IRQHandler+0x8>)
 8001e12:	f001 bcb3 	b.w	800377c <HAL_UART_IRQHandler>
 8001e16:	bf00      	nop
 8001e18:	20001550 	.word	0x20001550

08001e1c <LPUART1_IRQHandler>:
 8001e1c:	4801      	ldr	r0, [pc, #4]	; (8001e24 <LPUART1_IRQHandler+0x8>)
 8001e1e:	f001 bcad 	b.w	800377c <HAL_UART_IRQHandler>
 8001e22:	bf00      	nop
 8001e24:	20001464 	.word	0x20001464

08001e28 <HSEM_IRQHandler>:
 8001e28:	f000 bc64 	b.w	80026f4 <HAL_HSEM_IRQHandler>

08001e2c <DMA2_Channel4_IRQHandler>:
 8001e2c:	4801      	ldr	r0, [pc, #4]	; (8001e34 <DMA2_Channel4_IRQHandler+0x8>)
 8001e2e:	f000 bb32 	b.w	8002496 <HAL_DMA_IRQHandler>
 8001e32:	bf00      	nop
 8001e34:	200014f0 	.word	0x200014f0

08001e38 <RTC_WKUP_IRQHandler>:
 8001e38:	f7ff bce4 	b.w	8001804 <HW_TS_RTC_Wakeup_Handler>

08001e3c <IPCC_C1_TX_IRQHandler>:
 8001e3c:	f7ff b882 	b.w	8000f44 <HW_IPCC_Tx_Handler>

08001e40 <IPCC_C1_RX_IRQHandler>:
 8001e40:	f7ff b8e0 	b.w	8001004 <HW_IPCC_Rx_Handler>

08001e44 <_read>:
 8001e44:	b570      	push	{r4, r5, r6, lr}
 8001e46:	460e      	mov	r6, r1
 8001e48:	4615      	mov	r5, r2
 8001e4a:	460c      	mov	r4, r1
 8001e4c:	1ba3      	subs	r3, r4, r6
 8001e4e:	429d      	cmp	r5, r3
 8001e50:	dc01      	bgt.n	8001e56 <_read+0x12>
 8001e52:	4628      	mov	r0, r5
 8001e54:	bd70      	pop	{r4, r5, r6, pc}
 8001e56:	f3af 8000 	nop.w
 8001e5a:	f804 0b01 	strb.w	r0, [r4], #1
 8001e5e:	e7f5      	b.n	8001e4c <_read+0x8>

08001e60 <_close>:
 8001e60:	f04f 30ff 	mov.w	r0, #4294967295
 8001e64:	4770      	bx	lr

08001e66 <_fstat>:
 8001e66:	f44f 5300 	mov.w	r3, #8192	; 0x2000
 8001e6a:	604b      	str	r3, [r1, #4]
 8001e6c:	2000      	movs	r0, #0
 8001e6e:	4770      	bx	lr

08001e70 <_isatty>:
 8001e70:	2001      	movs	r0, #1
 8001e72:	4770      	bx	lr

08001e74 <_lseek>:
 8001e74:	2000      	movs	r0, #0
 8001e76:	4770      	bx	lr

08001e78 <_sbrk>:
 8001e78:	b508      	push	{r3, lr}
 8001e7a:	4b0a      	ldr	r3, [pc, #40]	; (8001ea4 <_sbrk+0x2c>)
 8001e7c:	6819      	ldr	r1, [r3, #0]
 8001e7e:	4602      	mov	r2, r0
 8001e80:	b909      	cbnz	r1, 8001e86 <_sbrk+0xe>
 8001e82:	4909      	ldr	r1, [pc, #36]	; (8001ea8 <_sbrk+0x30>)
 8001e84:	6019      	str	r1, [r3, #0]
 8001e86:	6818      	ldr	r0, [r3, #0]
 8001e88:	4669      	mov	r1, sp
 8001e8a:	4402      	add	r2, r0
 8001e8c:	428a      	cmp	r2, r1
 8001e8e:	d906      	bls.n	8001e9e <_sbrk+0x26>
 8001e90:	f003 fd34 	bl	80058fc <__errno>
 8001e94:	230c      	movs	r3, #12
 8001e96:	6003      	str	r3, [r0, #0]
 8001e98:	f04f 30ff 	mov.w	r0, #4294967295
 8001e9c:	bd08      	pop	{r3, pc}
 8001e9e:	601a      	str	r2, [r3, #0]
 8001ea0:	e7fc      	b.n	8001e9c <_sbrk+0x24>
 8001ea2:	bf00      	nop
 8001ea4:	20000320 	.word	0x20000320
 8001ea8:	20001670 	.word	0x20001670

08001eac <LL_AHB2_GRP1_EnableClock>:
 8001eac:	f04f 43b0 	mov.w	r3, #1476395008	; 0x58000000
 8001eb0:	b082      	sub	sp, #8
 8001eb2:	6cda      	ldr	r2, [r3, #76]	; 0x4c
 8001eb4:	4302      	orrs	r2, r0
 8001eb6:	64da      	str	r2, [r3, #76]	; 0x4c
 8001eb8:	6cdb      	ldr	r3, [r3, #76]	; 0x4c
 8001eba:	4018      	ands	r0, r3
 8001ebc:	9001      	str	r0, [sp, #4]
 8001ebe:	9b01      	ldr	r3, [sp, #4]
 8001ec0:	b002      	add	sp, #8
 8001ec2:	4770      	bx	lr

08001ec4 <BSP_LED_Init>:
 8001ec4:	b5f0      	push	{r4, r5, r6, r7, lr}
 8001ec6:	b087      	sub	sp, #28
 8001ec8:	4604      	mov	r4, r0
 8001eca:	2214      	movs	r2, #20
 8001ecc:	2100      	movs	r1, #0
 8001ece:	a801      	add	r0, sp, #4
 8001ed0:	f003 fd49 	bl	8005966 <memset>
 8001ed4:	2002      	movs	r0, #2
 8001ed6:	f7ff ffe9 	bl	8001eac <LL_AHB2_GRP1_EnableClock>
 8001eda:	4b0c      	ldr	r3, [pc, #48]	; (8001f0c <BSP_LED_Init+0x48>)
 8001edc:	4d0c      	ldr	r5, [pc, #48]	; (8001f10 <BSP_LED_Init+0x4c>)
 8001ede:	f833 6014 	ldrh.w	r6, [r3, r4, lsl #1]
 8001ee2:	f855 0024 	ldr.w	r0, [r5, r4, lsl #2]
 8001ee6:	9601      	str	r6, [sp, #4]
 8001ee8:	2700      	movs	r7, #0
 8001eea:	2301      	movs	r3, #1
 8001eec:	e9cd 3702 	strd	r3, r7, [sp, #8]
 8001ef0:	a901      	add	r1, sp, #4
 8001ef2:	2302      	movs	r3, #2
 8001ef4:	9304      	str	r3, [sp, #16]
 8001ef6:	f000 fb41 	bl	800257c <HAL_GPIO_Init>
 8001efa:	463a      	mov	r2, r7
 8001efc:	4631      	mov	r1, r6
 8001efe:	f855 0024 	ldr.w	r0, [r5, r4, lsl #2]
 8001f02:	f000 fbf1 	bl	80026e8 <HAL_GPIO_WritePin>
 8001f06:	b007      	add	sp, #28
 8001f08:	bdf0      	pop	{r4, r5, r6, r7, pc}
 8001f0a:	bf00      	nop
 8001f0c:	0800702a 	.word	0x0800702a
 8001f10:	20000010 	.word	0x20000010

08001f14 <BSP_LED_On>:
 8001f14:	4b04      	ldr	r3, [pc, #16]	; (8001f28 <BSP_LED_On+0x14>)
 8001f16:	f833 1010 	ldrh.w	r1, [r3, r0, lsl #1]
 8001f1a:	4b04      	ldr	r3, [pc, #16]	; (8001f2c <BSP_LED_On+0x18>)
 8001f1c:	2201      	movs	r2, #1
 8001f1e:	f853 0020 	ldr.w	r0, [r3, r0, lsl #2]
 8001f22:	f000 bbe1 	b.w	80026e8 <HAL_GPIO_WritePin>
 8001f26:	bf00      	nop
 8001f28:	0800702a 	.word	0x0800702a
 8001f2c:	20000010 	.word	0x20000010

08001f30 <BSP_PB_Init>:
 8001f30:	b530      	push	{r4, r5, lr}
 8001f32:	b087      	sub	sp, #28
 8001f34:	4604      	mov	r4, r0
 8001f36:	460d      	mov	r5, r1
 8001f38:	2214      	movs	r2, #20
 8001f3a:	2100      	movs	r1, #0
 8001f3c:	a801      	add	r0, sp, #4
 8001f3e:	f003 fd12 	bl	8005966 <memset>
 8001f42:	b9bc      	cbnz	r4, 8001f74 <BSP_PB_Init+0x44>
 8001f44:	2004      	movs	r0, #4
 8001f46:	f7ff ffb1 	bl	8001eac <LL_AHB2_GRP1_EnableClock>
 8001f4a:	b9c5      	cbnz	r5, 8001f7e <BSP_PB_Init+0x4e>
 8001f4c:	4b19      	ldr	r3, [pc, #100]	; (8001fb4 <BSP_PB_Init+0x84>)
 8001f4e:	f833 3014 	ldrh.w	r3, [r3, r4, lsl #1]
 8001f52:	e9cd 3501 	strd	r3, r5, [sp, #4]
 8001f56:	2501      	movs	r5, #1
 8001f58:	2302      	movs	r3, #2
 8001f5a:	e9cd 5303 	strd	r5, r3, [sp, #12]
 8001f5e:	4b16      	ldr	r3, [pc, #88]	; (8001fb8 <BSP_PB_Init+0x88>)
 8001f60:	a901      	add	r1, sp, #4
 8001f62:	f853 0024 	ldr.w	r0, [r3, r4, lsl #2]
 8001f66:	f000 fb09 	bl	800257c <HAL_GPIO_Init>
 8001f6a:	4628      	mov	r0, r5
 8001f6c:	f7ff fe14 	bl	8001b98 <HAL_Delay>
 8001f70:	b007      	add	sp, #28
 8001f72:	bd30      	pop	{r4, r5, pc}
 8001f74:	1e63      	subs	r3, r4, #1
 8001f76:	2b01      	cmp	r3, #1
 8001f78:	d8e7      	bhi.n	8001f4a <BSP_PB_Init+0x1a>
 8001f7a:	2008      	movs	r0, #8
 8001f7c:	e7e3      	b.n	8001f46 <BSP_PB_Init+0x16>
 8001f7e:	2d01      	cmp	r5, #1
 8001f80:	d1f6      	bne.n	8001f70 <BSP_PB_Init+0x40>
 8001f82:	4b0c      	ldr	r3, [pc, #48]	; (8001fb4 <BSP_PB_Init+0x84>)
 8001f84:	9503      	str	r5, [sp, #12]
 8001f86:	f833 3014 	ldrh.w	r3, [r3, r4, lsl #1]
 8001f8a:	9301      	str	r3, [sp, #4]
 8001f8c:	4b0b      	ldr	r3, [pc, #44]	; (8001fbc <BSP_PB_Init+0x8c>)
 8001f8e:	9302      	str	r3, [sp, #8]
 8001f90:	4b09      	ldr	r3, [pc, #36]	; (8001fb8 <BSP_PB_Init+0x88>)
 8001f92:	a901      	add	r1, sp, #4
 8001f94:	f853 0024 	ldr.w	r0, [r3, r4, lsl #2]
 8001f98:	f000 faf0 	bl	800257c <HAL_GPIO_Init>
 8001f9c:	4b08      	ldr	r3, [pc, #32]	; (8001fc0 <BSP_PB_Init+0x90>)
 8001f9e:	571c      	ldrsb	r4, [r3, r4]
 8001fa0:	2200      	movs	r2, #0
 8001fa2:	4620      	mov	r0, r4
 8001fa4:	210f      	movs	r1, #15
 8001fa6:	f000 f8bd 	bl	8002124 <HAL_NVIC_SetPriority>
 8001faa:	4620      	mov	r0, r4
 8001fac:	f000 f8ee 	bl	800218c <HAL_NVIC_EnableIRQ>
 8001fb0:	e7de      	b.n	8001f70 <BSP_PB_Init+0x40>
 8001fb2:	bf00      	nop
 8001fb4:	08007024 	.word	0x08007024
 8001fb8:	20000004 	.word	0x20000004
 8001fbc:	10210000 	.word	0x10210000
 8001fc0:	08007020 	.word	0x08007020

08001fc4 <SystemInit>:
 8001fc4:	4b17      	ldr	r3, [pc, #92]	; (8002024 <SystemInit+0x60>)
 8001fc6:	2100      	movs	r1, #0
 8001fc8:	6099      	str	r1, [r3, #8]
 8001fca:	f8d3 2088 	ldr.w	r2, [r3, #136]	; 0x88
 8001fce:	f442 0270 	orr.w	r2, r2, #15728640	; 0xf00000
 8001fd2:	f8c3 2088 	str.w	r2, [r3, #136]	; 0x88
 8001fd6:	f04f 43b0 	mov.w	r3, #1476395008	; 0x58000000
 8001fda:	f46f 7c82 	mvn.w	ip, #260	; 0x104
 8001fde:	681a      	ldr	r2, [r3, #0]
 8001fe0:	f042 0201 	orr.w	r2, r2, #1
 8001fe4:	601a      	str	r2, [r3, #0]
 8001fe6:	f44f 22e0 	mov.w	r2, #458752	; 0x70000
 8001fea:	609a      	str	r2, [r3, #8]
 8001fec:	6818      	ldr	r0, [r3, #0]
 8001fee:	f1a2 62a2 	sub.w	r2, r2, #84934656	; 0x5100000
 8001ff2:	4462      	add	r2, ip
 8001ff4:	4002      	ands	r2, r0
 8001ff6:	601a      	str	r2, [r3, #0]
 8001ff8:	f8d3 2094 	ldr.w	r2, [r3, #148]	; 0x94
 8001ffc:	f022 0205 	bic.w	r2, r2, #5
 8002000:	f8c3 2094 	str.w	r2, [r3, #148]	; 0x94
 8002004:	f8d3 2098 	ldr.w	r2, [r3, #152]	; 0x98
 8002008:	f022 0201 	bic.w	r2, r2, #1
 800200c:	f8c3 2098 	str.w	r2, [r3, #152]	; 0x98
 8002010:	4a05      	ldr	r2, [pc, #20]	; (8002028 <SystemInit+0x64>)
 8002012:	60da      	str	r2, [r3, #12]
 8002014:	611a      	str	r2, [r3, #16]
 8002016:	681a      	ldr	r2, [r3, #0]
 8002018:	f422 2280 	bic.w	r2, r2, #262144	; 0x40000
 800201c:	601a      	str	r2, [r3, #0]
 800201e:	6199      	str	r1, [r3, #24]
 8002020:	4770      	bx	lr
 8002022:	bf00      	nop
 8002024:	e000ed00 	.word	0xe000ed00
 8002028:	22041000 	.word	0x22041000

0800202c <HAL_InitTick>:
 800202c:	b538      	push	{r3, r4, r5, lr}
 800202e:	4c10      	ldr	r4, [pc, #64]	; (8002070 <HAL_InitTick+0x44>)
 8002030:	7823      	ldrb	r3, [r4, #0]
 8002032:	4605      	mov	r5, r0
 8002034:	b90b      	cbnz	r3, 800203a <HAL_InitTick+0xe>
 8002036:	2001      	movs	r0, #1
 8002038:	bd38      	pop	{r3, r4, r5, pc}
 800203a:	f000 fc63 	bl	8002904 <HAL_RCC_GetHCLKFreq>
 800203e:	7822      	ldrb	r2, [r4, #0]
 8002040:	f44f 737a 	mov.w	r3, #1000	; 0x3e8
 8002044:	fbb3 f3f2 	udiv	r3, r3, r2
 8002048:	fbb0 f0f3 	udiv	r0, r0, r3
 800204c:	f000 f8c0 	bl	80021d0 <HAL_SYSTICK_Config>
 8002050:	4604      	mov	r4, r0
 8002052:	2800      	cmp	r0, #0
 8002054:	d1ef      	bne.n	8002036 <HAL_InitTick+0xa>
 8002056:	2d0f      	cmp	r5, #15
 8002058:	d8ed      	bhi.n	8002036 <HAL_InitTick+0xa>
 800205a:	4602      	mov	r2, r0
 800205c:	4629      	mov	r1, r5
 800205e:	f04f 30ff 	mov.w	r0, #4294967295
 8002062:	f000 f85f 	bl	8002124 <HAL_NVIC_SetPriority>
 8002066:	4b03      	ldr	r3, [pc, #12]	; (8002074 <HAL_InitTick+0x48>)
 8002068:	4620      	mov	r0, r4
 800206a:	601d      	str	r5, [r3, #0]
 800206c:	e7e4      	b.n	8002038 <HAL_InitTick+0xc>
 800206e:	bf00      	nop
 8002070:	20000020 	.word	0x20000020
 8002074:	20000024 	.word	0x20000024

08002078 <HAL_Init>:
 8002078:	4a09      	ldr	r2, [pc, #36]	; (80020a0 <HAL_Init+0x28>)
 800207a:	6813      	ldr	r3, [r2, #0]
 800207c:	f443 7380 	orr.w	r3, r3, #256	; 0x100
 8002080:	b510      	push	{r4, lr}
 8002082:	2003      	movs	r0, #3
 8002084:	6013      	str	r3, [r2, #0]
 8002086:	f000 f83b 	bl	8002100 <HAL_NVIC_SetPriorityGrouping>
 800208a:	2000      	movs	r0, #0
 800208c:	f7ff ffce 	bl	800202c <HAL_InitTick>
 8002090:	4604      	mov	r4, r0
 8002092:	b918      	cbnz	r0, 800209c <HAL_Init+0x24>
 8002094:	f7ff fda7 	bl	8001be6 <HAL_MspInit>
 8002098:	4620      	mov	r0, r4
 800209a:	bd10      	pop	{r4, pc}
 800209c:	2401      	movs	r4, #1
 800209e:	e7fb      	b.n	8002098 <HAL_Init+0x20>
 80020a0:	58004000 	.word	0x58004000

080020a4 <HAL_IncTick>:
 80020a4:	4a03      	ldr	r2, [pc, #12]	; (80020b4 <HAL_IncTick+0x10>)
 80020a6:	4b04      	ldr	r3, [pc, #16]	; (80020b8 <HAL_IncTick+0x14>)
 80020a8:	6811      	ldr	r1, [r2, #0]
 80020aa:	781b      	ldrb	r3, [r3, #0]
 80020ac:	440b      	add	r3, r1
 80020ae:	6013      	str	r3, [r2, #0]
 80020b0:	4770      	bx	lr
 80020b2:	bf00      	nop
 80020b4:	20001660 	.word	0x20001660
 80020b8:	20000020 	.word	0x20000020

080020bc <HAL_GetTick>:
 80020bc:	4b01      	ldr	r3, [pc, #4]	; (80020c4 <HAL_GetTick+0x8>)
 80020be:	6818      	ldr	r0, [r3, #0]
 80020c0:	4770      	bx	lr
 80020c2:	bf00      	nop
 80020c4:	20001660 	.word	0x20001660

080020c8 <HAL_GetTickPrio>:
 80020c8:	4b01      	ldr	r3, [pc, #4]	; (80020d0 <HAL_GetTickPrio+0x8>)
 80020ca:	6818      	ldr	r0, [r3, #0]
 80020cc:	4770      	bx	lr
 80020ce:	bf00      	nop
 80020d0:	20000024 	.word	0x20000024

080020d4 <HAL_GetTickFreq>:
 80020d4:	4b01      	ldr	r3, [pc, #4]	; (80020dc <HAL_GetTickFreq+0x8>)
 80020d6:	7818      	ldrb	r0, [r3, #0]
 80020d8:	4770      	bx	lr
 80020da:	bf00      	nop
 80020dc:	20000020 	.word	0x20000020

080020e0 <HAL_DBGMCU_EnableDBGSleepMode>:
 80020e0:	4a02      	ldr	r2, [pc, #8]	; (80020ec <HAL_DBGMCU_EnableDBGSleepMode+0xc>)
 80020e2:	6853      	ldr	r3, [r2, #4]
 80020e4:	f043 0301 	orr.w	r3, r3, #1
 80020e8:	6053      	str	r3, [r2, #4]
 80020ea:	4770      	bx	lr
 80020ec:	e0042000 	.word	0xe0042000

080020f0 <HAL_DBGMCU_EnableDBGStopMode>:
 80020f0:	4a02      	ldr	r2, [pc, #8]	; (80020fc <HAL_DBGMCU_EnableDBGStopMode+0xc>)
 80020f2:	6853      	ldr	r3, [r2, #4]
 80020f4:	f043 0302 	orr.w	r3, r3, #2
 80020f8:	6053      	str	r3, [r2, #4]
 80020fa:	4770      	bx	lr
 80020fc:	e0042000 	.word	0xe0042000

08002100 <HAL_NVIC_SetPriorityGrouping>:
 8002100:	4a07      	ldr	r2, [pc, #28]	; (8002120 <HAL_NVIC_SetPriorityGrouping+0x20>)
 8002102:	68d3      	ldr	r3, [r2, #12]
 8002104:	f423 63e0 	bic.w	r3, r3, #1792	; 0x700
 8002108:	041b      	lsls	r3, r3, #16
 800210a:	0c1b      	lsrs	r3, r3, #16
 800210c:	f043 63bf 	orr.w	r3, r3, #100139008	; 0x5f80000
 8002110:	0200      	lsls	r0, r0, #8
 8002112:	f443 3300 	orr.w	r3, r3, #131072	; 0x20000
 8002116:	f400 60e0 	and.w	r0, r0, #1792	; 0x700
 800211a:	4303      	orrs	r3, r0
 800211c:	60d3      	str	r3, [r2, #12]
 800211e:	4770      	bx	lr
 8002120:	e000ed00 	.word	0xe000ed00

08002124 <HAL_NVIC_SetPriority>:
 8002124:	4b17      	ldr	r3, [pc, #92]	; (8002184 <HAL_NVIC_SetPriority+0x60>)
 8002126:	b570      	push	{r4, r5, r6, lr}
 8002128:	68dc      	ldr	r4, [r3, #12]
 800212a:	f3c4 2402 	ubfx	r4, r4, #8, #3
 800212e:	f1c4 0507 	rsb	r5, r4, #7
 8002132:	2d04      	cmp	r5, #4
 8002134:	f104 0304 	add.w	r3, r4, #4
 8002138:	bf28      	it	cs
 800213a:	2504      	movcs	r5, #4
 800213c:	f04f 36ff 	mov.w	r6, #4294967295
 8002140:	2b06      	cmp	r3, #6
 8002142:	fa06 f305 	lsl.w	r3, r6, r5
 8002146:	bf8c      	ite	hi
 8002148:	3c03      	subhi	r4, #3
 800214a:	2400      	movls	r4, #0
 800214c:	ea21 0303 	bic.w	r3, r1, r3
 8002150:	40a3      	lsls	r3, r4
 8002152:	fa06 f404 	lsl.w	r4, r6, r4
 8002156:	ea22 0404 	bic.w	r4, r2, r4
 800215a:	2800      	cmp	r0, #0
 800215c:	ea43 0304 	orr.w	r3, r3, r4
 8002160:	bfa8      	it	ge
 8002162:	f100 4060 	addge.w	r0, r0, #3758096384	; 0xe0000000
 8002166:	ea4f 1303 	mov.w	r3, r3, lsl #4
 800216a:	bfbc      	itt	lt
 800216c:	f000 000f 	andlt.w	r0, r0, #15
 8002170:	4a05      	ldrlt	r2, [pc, #20]	; (8002188 <HAL_NVIC_SetPriority+0x64>)
 8002172:	b2db      	uxtb	r3, r3
 8002174:	bfaa      	itet	ge
 8002176:	f500 4061 	addge.w	r0, r0, #57600	; 0xe100
 800217a:	5413      	strblt	r3, [r2, r0]
 800217c:	f880 3300 	strbge.w	r3, [r0, #768]	; 0x300
 8002180:	bd70      	pop	{r4, r5, r6, pc}
 8002182:	bf00      	nop
 8002184:	e000ed00 	.word	0xe000ed00
 8002188:	e000ed14 	.word	0xe000ed14

0800218c <HAL_NVIC_EnableIRQ>:
 800218c:	2800      	cmp	r0, #0
 800218e:	db08      	blt.n	80021a2 <HAL_NVIC_EnableIRQ+0x16>
 8002190:	2301      	movs	r3, #1
 8002192:	0942      	lsrs	r2, r0, #5
 8002194:	f000 001f 	and.w	r0, r0, #31
 8002198:	fa03 f000 	lsl.w	r0, r3, r0
 800219c:	4b01      	ldr	r3, [pc, #4]	; (80021a4 <HAL_NVIC_EnableIRQ+0x18>)
 800219e:	f843 0022 	str.w	r0, [r3, r2, lsl #2]
 80021a2:	4770      	bx	lr
 80021a4:	e000e100 	.word	0xe000e100

080021a8 <HAL_NVIC_DisableIRQ>:
 80021a8:	2800      	cmp	r0, #0
 80021aa:	db0d      	blt.n	80021c8 <HAL_NVIC_DisableIRQ+0x20>
 80021ac:	0943      	lsrs	r3, r0, #5
 80021ae:	2201      	movs	r2, #1
 80021b0:	f000 001f 	and.w	r0, r0, #31
 80021b4:	fa02 f000 	lsl.w	r0, r2, r0
 80021b8:	3320      	adds	r3, #32
 80021ba:	4a04      	ldr	r2, [pc, #16]	; (80021cc <HAL_NVIC_DisableIRQ+0x24>)
 80021bc:	f842 0023 	str.w	r0, [r2, r3, lsl #2]
 80021c0:	f3bf 8f4f 	dsb	sy
 80021c4:	f3bf 8f6f 	isb	sy
 80021c8:	4770      	bx	lr
 80021ca:	bf00      	nop
 80021cc:	e000e100 	.word	0xe000e100

080021d0 <HAL_SYSTICK_Config>:
 80021d0:	3801      	subs	r0, #1
 80021d2:	f1b0 7f80 	cmp.w	r0, #16777216	; 0x1000000
 80021d6:	d20a      	bcs.n	80021ee <HAL_SYSTICK_Config+0x1e>
 80021d8:	4b06      	ldr	r3, [pc, #24]	; (80021f4 <HAL_SYSTICK_Config+0x24>)
 80021da:	4a07      	ldr	r2, [pc, #28]	; (80021f8 <HAL_SYSTICK_Config+0x28>)
 80021dc:	6058      	str	r0, [r3, #4]
 80021de:	21f0      	movs	r1, #240	; 0xf0
 80021e0:	f882 1023 	strb.w	r1, [r2, #35]	; 0x23
 80021e4:	2000      	movs	r0, #0
 80021e6:	2207      	movs	r2, #7
 80021e8:	6098      	str	r0, [r3, #8]
 80021ea:	601a      	str	r2, [r3, #0]
 80021ec:	4770      	bx	lr
 80021ee:	2001      	movs	r0, #1
 80021f0:	4770      	bx	lr
 80021f2:	bf00      	nop
 80021f4:	e000e010 	.word	0xe000e010
 80021f8:	e000ed00 	.word	0xe000ed00

080021fc <HAL_NVIC_SetPendingIRQ>:
 80021fc:	2800      	cmp	r0, #0
 80021fe:	db09      	blt.n	8002214 <HAL_NVIC_SetPendingIRQ+0x18>
 8002200:	0943      	lsrs	r3, r0, #5
 8002202:	2201      	movs	r2, #1
 8002204:	f000 001f 	and.w	r0, r0, #31
 8002208:	fa02 f000 	lsl.w	r0, r2, r0
 800220c:	3340      	adds	r3, #64	; 0x40
 800220e:	4a02      	ldr	r2, [pc, #8]	; (8002218 <HAL_NVIC_SetPendingIRQ+0x1c>)
 8002210:	f842 0023 	str.w	r0, [r2, r3, lsl #2]
 8002214:	4770      	bx	lr
 8002216:	bf00      	nop
 8002218:	e000e100 	.word	0xe000e100

0800221c <HAL_NVIC_ClearPendingIRQ>:
 800221c:	2800      	cmp	r0, #0
 800221e:	db09      	blt.n	8002234 <HAL_NVIC_ClearPendingIRQ+0x18>
 8002220:	0943      	lsrs	r3, r0, #5
 8002222:	2201      	movs	r2, #1
 8002224:	f000 001f 	and.w	r0, r0, #31
 8002228:	fa02 f000 	lsl.w	r0, r2, r0
 800222c:	3360      	adds	r3, #96	; 0x60
 800222e:	4a02      	ldr	r2, [pc, #8]	; (8002238 <HAL_NVIC_ClearPendingIRQ+0x1c>)
 8002230:	f842 0023 	str.w	r0, [r2, r3, lsl #2]
 8002234:	4770      	bx	lr
 8002236:	bf00      	nop
 8002238:	e000e100 	.word	0xe000e100

0800223c <DMA_SetConfig>:
 800223c:	b570      	push	{r4, r5, r6, lr}
 800223e:	e9d0 4513 	ldrd	r4, r5, [r0, #76]	; 0x4c
 8002242:	6065      	str	r5, [r4, #4]
 8002244:	6d44      	ldr	r4, [r0, #84]	; 0x54
 8002246:	b114      	cbz	r4, 800224e <DMA_SetConfig+0x12>
 8002248:	e9d0 4516 	ldrd	r4, r5, [r0, #88]	; 0x58
 800224c:	6065      	str	r5, [r4, #4]
 800224e:	e9d0 6410 	ldrd	r6, r4, [r0, #64]	; 0x40
 8002252:	f004 051c 	and.w	r5, r4, #28
 8002256:	2401      	movs	r4, #1
 8002258:	40ac      	lsls	r4, r5
 800225a:	6074      	str	r4, [r6, #4]
 800225c:	6804      	ldr	r4, [r0, #0]
 800225e:	6063      	str	r3, [r4, #4]
 8002260:	6883      	ldr	r3, [r0, #8]
 8002262:	2b10      	cmp	r3, #16
 8002264:	bf0b      	itete	eq
 8002266:	60a2      	streq	r2, [r4, #8]
 8002268:	60a1      	strne	r1, [r4, #8]
 800226a:	60e1      	streq	r1, [r4, #12]
 800226c:	60e2      	strne	r2, [r4, #12]
 800226e:	bd70      	pop	{r4, r5, r6, pc}

08002270 <DMA_CalcDMAMUXChannelBaseAndMask>:
 8002270:	4910      	ldr	r1, [pc, #64]	; (80022b4 <DMA_CalcDMAMUXChannelBaseAndMask+0x44>)
 8002272:	6803      	ldr	r3, [r0, #0]
 8002274:	6c42      	ldr	r2, [r0, #68]	; 0x44
 8002276:	428b      	cmp	r3, r1
 8002278:	f022 0203 	bic.w	r2, r2, #3
 800227c:	bf95      	itete	ls
 800227e:	f102 4280 	addls.w	r2, r2, #1073741824	; 0x40000000
 8002282:	490d      	ldrhi	r1, [pc, #52]	; (80022b8 <DMA_CalcDMAMUXChannelBaseAndMask+0x48>)
 8002284:	f502 3202 	addls.w	r2, r2, #133120	; 0x20800
 8002288:	1889      	addhi	r1, r1, r2
 800228a:	bf98      	it	ls
 800228c:	6482      	strls	r2, [r0, #72]	; 0x48
 800228e:	b2db      	uxtb	r3, r3
 8002290:	4a0a      	ldr	r2, [pc, #40]	; (80022bc <DMA_CalcDMAMUXChannelBaseAndMask+0x4c>)
 8002292:	64c2      	str	r2, [r0, #76]	; 0x4c
 8002294:	f1a3 0308 	sub.w	r3, r3, #8
 8002298:	f04f 0214 	mov.w	r2, #20
 800229c:	fbb3 f3f2 	udiv	r3, r3, r2
 80022a0:	f04f 0201 	mov.w	r2, #1
 80022a4:	f003 031f 	and.w	r3, r3, #31
 80022a8:	fa02 f303 	lsl.w	r3, r2, r3
 80022ac:	bf88      	it	hi
 80022ae:	6481      	strhi	r1, [r0, #72]	; 0x48
 80022b0:	6503      	str	r3, [r0, #80]	; 0x50
 80022b2:	4770      	bx	lr
 80022b4:	40020407 	.word	0x40020407
 80022b8:	4002081c 	.word	0x4002081c
 80022bc:	40020880 	.word	0x40020880

080022c0 <HAL_DMA_Init>:
 80022c0:	b510      	push	{r4, lr}
 80022c2:	4604      	mov	r4, r0
 80022c4:	2800      	cmp	r0, #0
 80022c6:	d05e      	beq.n	8002386 <HAL_DMA_Init+0xc6>
 80022c8:	6801      	ldr	r1, [r0, #0]
 80022ca:	4b30      	ldr	r3, [pc, #192]	; (800238c <HAL_DMA_Init+0xcc>)
 80022cc:	4299      	cmp	r1, r3
 80022ce:	f04f 0014 	mov.w	r0, #20
 80022d2:	d84b      	bhi.n	800236c <HAL_DMA_Init+0xac>
 80022d4:	4a2e      	ldr	r2, [pc, #184]	; (8002390 <HAL_DMA_Init+0xd0>)
 80022d6:	440a      	add	r2, r1
 80022d8:	fbb2 f2f0 	udiv	r2, r2, r0
 80022dc:	0092      	lsls	r2, r2, #2
 80022de:	6462      	str	r2, [r4, #68]	; 0x44
 80022e0:	f2a3 4307 	subw	r3, r3, #1031	; 0x407
 80022e4:	6423      	str	r3, [r4, #64]	; 0x40
 80022e6:	2302      	movs	r3, #2
 80022e8:	f884 3025 	strb.w	r3, [r4, #37]	; 0x25
 80022ec:	e9d4 3002 	ldrd	r3, r0, [r4, #8]
 80022f0:	4303      	orrs	r3, r0
 80022f2:	6920      	ldr	r0, [r4, #16]
 80022f4:	680a      	ldr	r2, [r1, #0]
 80022f6:	4303      	orrs	r3, r0
 80022f8:	6960      	ldr	r0, [r4, #20]
 80022fa:	4303      	orrs	r3, r0
 80022fc:	69a0      	ldr	r0, [r4, #24]
 80022fe:	4303      	orrs	r3, r0
 8002300:	69e0      	ldr	r0, [r4, #28]
 8002302:	4303      	orrs	r3, r0
 8002304:	6a20      	ldr	r0, [r4, #32]
 8002306:	f422 42ff 	bic.w	r2, r2, #32640	; 0x7f80
 800230a:	f022 0270 	bic.w	r2, r2, #112	; 0x70
 800230e:	4303      	orrs	r3, r0
 8002310:	4313      	orrs	r3, r2
 8002312:	600b      	str	r3, [r1, #0]
 8002314:	4620      	mov	r0, r4
 8002316:	f7ff ffab 	bl	8002270 <DMA_CalcDMAMUXChannelBaseAndMask>
 800231a:	68a3      	ldr	r3, [r4, #8]
 800231c:	6ca1      	ldr	r1, [r4, #72]	; 0x48
 800231e:	f5b3 4f80 	cmp.w	r3, #16384	; 0x4000
 8002322:	bf04      	itt	eq
 8002324:	2300      	moveq	r3, #0
 8002326:	6063      	streq	r3, [r4, #4]
 8002328:	6862      	ldr	r2, [r4, #4]
 800232a:	f002 033f 	and.w	r3, r2, #63	; 0x3f
 800232e:	600b      	str	r3, [r1, #0]
 8002330:	e9d4 1013 	ldrd	r1, r0, [r4, #76]	; 0x4c
 8002334:	3a01      	subs	r2, #1
 8002336:	2a03      	cmp	r2, #3
 8002338:	6048      	str	r0, [r1, #4]
 800233a:	d81f      	bhi.n	800237c <HAL_DMA_Init+0xbc>
 800233c:	4a15      	ldr	r2, [pc, #84]	; (8002394 <HAL_DMA_Init+0xd4>)
 800233e:	4816      	ldr	r0, [pc, #88]	; (8002398 <HAL_DMA_Init+0xd8>)
 8002340:	65a0      	str	r0, [r4, #88]	; 0x58
 8002342:	441a      	add	r2, r3
 8002344:	3b01      	subs	r3, #1
 8002346:	0092      	lsls	r2, r2, #2
 8002348:	2101      	movs	r1, #1
 800234a:	f003 0303 	and.w	r3, r3, #3
 800234e:	fa01 f303 	lsl.w	r3, r1, r3
 8002352:	2100      	movs	r1, #0
 8002354:	6562      	str	r2, [r4, #84]	; 0x54
 8002356:	65e3      	str	r3, [r4, #92]	; 0x5c
 8002358:	6011      	str	r1, [r2, #0]
 800235a:	6043      	str	r3, [r0, #4]
 800235c:	2000      	movs	r0, #0
 800235e:	2301      	movs	r3, #1
 8002360:	63e0      	str	r0, [r4, #60]	; 0x3c
 8002362:	f884 0024 	strb.w	r0, [r4, #36]	; 0x24
 8002366:	f884 3025 	strb.w	r3, [r4, #37]	; 0x25
 800236a:	bd10      	pop	{r4, pc}
 800236c:	4b0b      	ldr	r3, [pc, #44]	; (800239c <HAL_DMA_Init+0xdc>)
 800236e:	440b      	add	r3, r1
 8002370:	fbb3 f3f0 	udiv	r3, r3, r0
 8002374:	009b      	lsls	r3, r3, #2
 8002376:	6463      	str	r3, [r4, #68]	; 0x44
 8002378:	4b09      	ldr	r3, [pc, #36]	; (80023a0 <HAL_DMA_Init+0xe0>)
 800237a:	e7b3      	b.n	80022e4 <HAL_DMA_Init+0x24>
 800237c:	2300      	movs	r3, #0
 800237e:	e9c4 3315 	strd	r3, r3, [r4, #84]	; 0x54
 8002382:	65e3      	str	r3, [r4, #92]	; 0x5c
 8002384:	e7ea      	b.n	800235c <HAL_DMA_Init+0x9c>
 8002386:	2001      	movs	r0, #1
 8002388:	e7ef      	b.n	800236a <HAL_DMA_Init+0xaa>
 800238a:	bf00      	nop
 800238c:	40020407 	.word	0x40020407
 8002390:	bffdfff8 	.word	0xbffdfff8
 8002394:	1000823f 	.word	0x1000823f
 8002398:	40020940 	.word	0x40020940
 800239c:	bffdfbf8 	.word	0xbffdfbf8
 80023a0:	40020400 	.word	0x40020400

080023a4 <HAL_DMA_Start_IT>:
 80023a4:	b570      	push	{r4, r5, r6, lr}
 80023a6:	f890 5024 	ldrb.w	r5, [r0, #36]	; 0x24
 80023aa:	2d01      	cmp	r5, #1
 80023ac:	4604      	mov	r4, r0
 80023ae:	d039      	beq.n	8002424 <HAL_DMA_Start_IT+0x80>
 80023b0:	2501      	movs	r5, #1
 80023b2:	f880 5024 	strb.w	r5, [r0, #36]	; 0x24
 80023b6:	f890 5025 	ldrb.w	r5, [r0, #37]	; 0x25
 80023ba:	2d01      	cmp	r5, #1
 80023bc:	f04f 0600 	mov.w	r6, #0
 80023c0:	f04f 0502 	mov.w	r5, #2
 80023c4:	d12c      	bne.n	8002420 <HAL_DMA_Start_IT+0x7c>
 80023c6:	f880 5025 	strb.w	r5, [r0, #37]	; 0x25
 80023ca:	63c6      	str	r6, [r0, #60]	; 0x3c
 80023cc:	6806      	ldr	r6, [r0, #0]
 80023ce:	6835      	ldr	r5, [r6, #0]
 80023d0:	f025 0501 	bic.w	r5, r5, #1
 80023d4:	6035      	str	r5, [r6, #0]
 80023d6:	f7ff ff31 	bl	800223c <DMA_SetConfig>
 80023da:	6b02      	ldr	r2, [r0, #48]	; 0x30
 80023dc:	6803      	ldr	r3, [r0, #0]
 80023de:	b1ba      	cbz	r2, 8002410 <HAL_DMA_Start_IT+0x6c>
 80023e0:	681a      	ldr	r2, [r3, #0]
 80023e2:	f042 020e 	orr.w	r2, r2, #14
 80023e6:	601a      	str	r2, [r3, #0]
 80023e8:	6ca2      	ldr	r2, [r4, #72]	; 0x48
 80023ea:	6811      	ldr	r1, [r2, #0]
 80023ec:	03c9      	lsls	r1, r1, #15
 80023ee:	bf42      	ittt	mi
 80023f0:	6811      	ldrmi	r1, [r2, #0]
 80023f2:	f441 7180 	orrmi.w	r1, r1, #256	; 0x100
 80023f6:	6011      	strmi	r1, [r2, #0]
 80023f8:	6d62      	ldr	r2, [r4, #84]	; 0x54
 80023fa:	b11a      	cbz	r2, 8002404 <HAL_DMA_Start_IT+0x60>
 80023fc:	6811      	ldr	r1, [r2, #0]
 80023fe:	f441 7180 	orr.w	r1, r1, #256	; 0x100
 8002402:	6011      	str	r1, [r2, #0]
 8002404:	681a      	ldr	r2, [r3, #0]
 8002406:	f042 0201 	orr.w	r2, r2, #1
 800240a:	601a      	str	r2, [r3, #0]
 800240c:	2000      	movs	r0, #0
 800240e:	bd70      	pop	{r4, r5, r6, pc}
 8002410:	681a      	ldr	r2, [r3, #0]
 8002412:	f022 0204 	bic.w	r2, r2, #4
 8002416:	601a      	str	r2, [r3, #0]
 8002418:	681a      	ldr	r2, [r3, #0]
 800241a:	f042 020a 	orr.w	r2, r2, #10
 800241e:	e7e2      	b.n	80023e6 <HAL_DMA_Start_IT+0x42>
 8002420:	f880 6024 	strb.w	r6, [r0, #36]	; 0x24
 8002424:	2002      	movs	r0, #2
 8002426:	e7f2      	b.n	800240e <HAL_DMA_Start_IT+0x6a>

08002428 <HAL_DMA_Abort_IT>:
 8002428:	f890 3025 	ldrb.w	r3, [r0, #37]	; 0x25
 800242c:	2b02      	cmp	r3, #2
 800242e:	b510      	push	{r4, lr}
 8002430:	d003      	beq.n	800243a <HAL_DMA_Abort_IT+0x12>
 8002432:	2304      	movs	r3, #4
 8002434:	63c3      	str	r3, [r0, #60]	; 0x3c
 8002436:	2001      	movs	r0, #1
 8002438:	bd10      	pop	{r4, pc}
 800243a:	6803      	ldr	r3, [r0, #0]
 800243c:	681a      	ldr	r2, [r3, #0]
 800243e:	f022 020e 	bic.w	r2, r2, #14
 8002442:	601a      	str	r2, [r3, #0]
 8002444:	681a      	ldr	r2, [r3, #0]
 8002446:	f022 0201 	bic.w	r2, r2, #1
 800244a:	601a      	str	r2, [r3, #0]
 800244c:	6c82      	ldr	r2, [r0, #72]	; 0x48
 800244e:	6813      	ldr	r3, [r2, #0]
 8002450:	f423 7380 	bic.w	r3, r3, #256	; 0x100
 8002454:	6013      	str	r3, [r2, #0]
 8002456:	e9d0 1310 	ldrd	r1, r3, [r0, #64]	; 0x40
 800245a:	f003 021c 	and.w	r2, r3, #28
 800245e:	2301      	movs	r3, #1
 8002460:	4093      	lsls	r3, r2
 8002462:	604b      	str	r3, [r1, #4]
 8002464:	e9d0 3213 	ldrd	r3, r2, [r0, #76]	; 0x4c
 8002468:	605a      	str	r2, [r3, #4]
 800246a:	6d43      	ldr	r3, [r0, #84]	; 0x54
 800246c:	b133      	cbz	r3, 800247c <HAL_DMA_Abort_IT+0x54>
 800246e:	681a      	ldr	r2, [r3, #0]
 8002470:	f422 7280 	bic.w	r2, r2, #256	; 0x100
 8002474:	601a      	str	r2, [r3, #0]
 8002476:	e9d0 3216 	ldrd	r3, r2, [r0, #88]	; 0x58
 800247a:	605a      	str	r2, [r3, #4]
 800247c:	2301      	movs	r3, #1
 800247e:	f880 3025 	strb.w	r3, [r0, #37]	; 0x25
 8002482:	6b83      	ldr	r3, [r0, #56]	; 0x38
 8002484:	2400      	movs	r4, #0
 8002486:	f880 4024 	strb.w	r4, [r0, #36]	; 0x24
 800248a:	b113      	cbz	r3, 8002492 <HAL_DMA_Abort_IT+0x6a>
 800248c:	4798      	blx	r3
 800248e:	4620      	mov	r0, r4
 8002490:	e7d2      	b.n	8002438 <HAL_DMA_Abort_IT+0x10>
 8002492:	4618      	mov	r0, r3
 8002494:	e7d0      	b.n	8002438 <HAL_DMA_Abort_IT+0x10>

08002496 <HAL_DMA_IRQHandler>:
 8002496:	6c01      	ldr	r1, [r0, #64]	; 0x40
 8002498:	6c42      	ldr	r2, [r0, #68]	; 0x44
 800249a:	6803      	ldr	r3, [r0, #0]
 800249c:	b470      	push	{r4, r5, r6}
 800249e:	f002 021c 	and.w	r2, r2, #28
 80024a2:	680e      	ldr	r6, [r1, #0]
 80024a4:	681d      	ldr	r5, [r3, #0]
 80024a6:	2404      	movs	r4, #4
 80024a8:	4094      	lsls	r4, r2
 80024aa:	4234      	tst	r4, r6
 80024ac:	d00e      	beq.n	80024cc <HAL_DMA_IRQHandler+0x36>
 80024ae:	f015 0f04 	tst.w	r5, #4
 80024b2:	d00b      	beq.n	80024cc <HAL_DMA_IRQHandler+0x36>
 80024b4:	681a      	ldr	r2, [r3, #0]
 80024b6:	0692      	lsls	r2, r2, #26
 80024b8:	bf5e      	ittt	pl
 80024ba:	681a      	ldrpl	r2, [r3, #0]
 80024bc:	f022 0204 	bicpl.w	r2, r2, #4
 80024c0:	601a      	strpl	r2, [r3, #0]
 80024c2:	6b03      	ldr	r3, [r0, #48]	; 0x30
 80024c4:	604c      	str	r4, [r1, #4]
 80024c6:	b373      	cbz	r3, 8002526 <HAL_DMA_IRQHandler+0x90>
 80024c8:	bc70      	pop	{r4, r5, r6}
 80024ca:	4718      	bx	r3
 80024cc:	2402      	movs	r4, #2
 80024ce:	4094      	lsls	r4, r2
 80024d0:	4234      	tst	r4, r6
 80024d2:	d012      	beq.n	80024fa <HAL_DMA_IRQHandler+0x64>
 80024d4:	f015 0f02 	tst.w	r5, #2
 80024d8:	d00f      	beq.n	80024fa <HAL_DMA_IRQHandler+0x64>
 80024da:	681a      	ldr	r2, [r3, #0]
 80024dc:	0695      	lsls	r5, r2, #26
 80024de:	d406      	bmi.n	80024ee <HAL_DMA_IRQHandler+0x58>
 80024e0:	681a      	ldr	r2, [r3, #0]
 80024e2:	f022 020a 	bic.w	r2, r2, #10
 80024e6:	601a      	str	r2, [r3, #0]
 80024e8:	2301      	movs	r3, #1
 80024ea:	f880 3025 	strb.w	r3, [r0, #37]	; 0x25
 80024ee:	2300      	movs	r3, #0
 80024f0:	604c      	str	r4, [r1, #4]
 80024f2:	f880 3024 	strb.w	r3, [r0, #36]	; 0x24
 80024f6:	6ac3      	ldr	r3, [r0, #44]	; 0x2c
 80024f8:	e7e5      	b.n	80024c6 <HAL_DMA_IRQHandler+0x30>
 80024fa:	2408      	movs	r4, #8
 80024fc:	4094      	lsls	r4, r2
 80024fe:	4234      	tst	r4, r6
 8002500:	d011      	beq.n	8002526 <HAL_DMA_IRQHandler+0x90>
 8002502:	072c      	lsls	r4, r5, #28
 8002504:	d50f      	bpl.n	8002526 <HAL_DMA_IRQHandler+0x90>
 8002506:	681c      	ldr	r4, [r3, #0]
 8002508:	f024 040e 	bic.w	r4, r4, #14
 800250c:	601c      	str	r4, [r3, #0]
 800250e:	2301      	movs	r3, #1
 8002510:	fa03 f202 	lsl.w	r2, r3, r2
 8002514:	604a      	str	r2, [r1, #4]
 8002516:	63c3      	str	r3, [r0, #60]	; 0x3c
 8002518:	f880 3025 	strb.w	r3, [r0, #37]	; 0x25
 800251c:	2300      	movs	r3, #0
 800251e:	f880 3024 	strb.w	r3, [r0, #36]	; 0x24
 8002522:	6b43      	ldr	r3, [r0, #52]	; 0x34
 8002524:	e7cf      	b.n	80024c6 <HAL_DMA_IRQHandler+0x30>
 8002526:	bc70      	pop	{r4, r5, r6}
 8002528:	4770      	bx	lr
	...

0800252c <HAL_DMAEx_ConfigMuxSync>:
 800252c:	f890 3025 	ldrb.w	r3, [r0, #37]	; 0x25
 8002530:	2b01      	cmp	r3, #1
 8002532:	b570      	push	{r4, r5, r6, lr}
 8002534:	d11b      	bne.n	800256e <HAL_DMAEx_ConfigMuxSync+0x42>
 8002536:	f890 3024 	ldrb.w	r3, [r0, #36]	; 0x24
 800253a:	2b01      	cmp	r3, #1
 800253c:	d019      	beq.n	8002572 <HAL_DMAEx_ConfigMuxSync+0x46>
 800253e:	68cb      	ldr	r3, [r1, #12]
 8002540:	6c84      	ldr	r4, [r0, #72]	; 0x48
 8002542:	1e5a      	subs	r2, r3, #1
 8002544:	e9d1 3600 	ldrd	r3, r6, [r1]
 8002548:	4333      	orrs	r3, r6
 800254a:	ea43 43c2 	orr.w	r3, r3, r2, lsl #19
 800254e:	7a0a      	ldrb	r2, [r1, #8]
 8002550:	6825      	ldr	r5, [r4, #0]
 8002552:	ea43 4302 	orr.w	r3, r3, r2, lsl #16
 8002556:	7a4a      	ldrb	r2, [r1, #9]
 8002558:	ea43 2342 	orr.w	r3, r3, r2, lsl #9
 800255c:	4a06      	ldr	r2, [pc, #24]	; (8002578 <HAL_DMAEx_ConfigMuxSync+0x4c>)
 800255e:	402a      	ands	r2, r5
 8002560:	4313      	orrs	r3, r2
 8002562:	6023      	str	r3, [r4, #0]
 8002564:	2300      	movs	r3, #0
 8002566:	f880 3024 	strb.w	r3, [r0, #36]	; 0x24
 800256a:	4618      	mov	r0, r3
 800256c:	bd70      	pop	{r4, r5, r6, pc}
 800256e:	2001      	movs	r0, #1
 8002570:	e7fc      	b.n	800256c <HAL_DMAEx_ConfigMuxSync+0x40>
 8002572:	2002      	movs	r0, #2
 8002574:	e7fa      	b.n	800256c <HAL_DMAEx_ConfigMuxSync+0x40>
 8002576:	bf00      	nop
 8002578:	e000fdff 	.word	0xe000fdff

0800257c <HAL_GPIO_Init>:
 800257c:	e92d 4ff0 	stmdb	sp!, {r4, r5, r6, r7, r8, r9, sl, fp, lr}
 8002580:	4a57      	ldr	r2, [pc, #348]	; (80026e0 <HAL_GPIO_Init+0x164>)
 8002582:	f8d1 e000 	ldr.w	lr, [r1]
 8002586:	2300      	movs	r3, #0
 8002588:	f04f 090f 	mov.w	r9, #15
 800258c:	fa3e f403 	lsrs.w	r4, lr, r3
 8002590:	d101      	bne.n	8002596 <HAL_GPIO_Init+0x1a>
 8002592:	e8bd 8ff0 	ldmia.w	sp!, {r4, r5, r6, r7, r8, r9, sl, fp, pc}
 8002596:	2401      	movs	r4, #1
 8002598:	fa04 f803 	lsl.w	r8, r4, r3
 800259c:	ea18 050e 	ands.w	r5, r8, lr
 80025a0:	f000 8094 	beq.w	80026cc <HAL_GPIO_Init+0x150>
 80025a4:	684c      	ldr	r4, [r1, #4]
 80025a6:	f024 0a10 	bic.w	sl, r4, #16
 80025aa:	ea4f 0c43 	mov.w	ip, r3, lsl #1
 80025ae:	2603      	movs	r6, #3
 80025b0:	f10a 37ff 	add.w	r7, sl, #4294967295
 80025b4:	fa06 f60c 	lsl.w	r6, r6, ip
 80025b8:	2f01      	cmp	r7, #1
 80025ba:	ea6f 0606 	mvn.w	r6, r6
 80025be:	d811      	bhi.n	80025e4 <HAL_GPIO_Init+0x68>
 80025c0:	6887      	ldr	r7, [r0, #8]
 80025c2:	ea07 0b06 	and.w	fp, r7, r6
 80025c6:	68cf      	ldr	r7, [r1, #12]
 80025c8:	fa07 f70c 	lsl.w	r7, r7, ip
 80025cc:	ea47 070b 	orr.w	r7, r7, fp
 80025d0:	6087      	str	r7, [r0, #8]
 80025d2:	6847      	ldr	r7, [r0, #4]
 80025d4:	ea27 0808 	bic.w	r8, r7, r8
 80025d8:	f3c4 1700 	ubfx	r7, r4, #4, #1
 80025dc:	409f      	lsls	r7, r3
 80025de:	ea47 0708 	orr.w	r7, r7, r8
 80025e2:	6047      	str	r7, [r0, #4]
 80025e4:	68c7      	ldr	r7, [r0, #12]
 80025e6:	ea07 0806 	and.w	r8, r7, r6
 80025ea:	688f      	ldr	r7, [r1, #8]
 80025ec:	fa07 f70c 	lsl.w	r7, r7, ip
 80025f0:	ea47 0708 	orr.w	r7, r7, r8
 80025f4:	f1ba 0f02 	cmp.w	sl, #2
 80025f8:	60c7      	str	r7, [r0, #12]
 80025fa:	d114      	bne.n	8002626 <HAL_GPIO_Init+0xaa>
 80025fc:	ea4f 08d3 	mov.w	r8, r3, lsr #3
 8002600:	eb00 0888 	add.w	r8, r0, r8, lsl #2
 8002604:	f003 0a07 	and.w	sl, r3, #7
 8002608:	f8d8 7020 	ldr.w	r7, [r8, #32]
 800260c:	ea4f 0a8a 	mov.w	sl, sl, lsl #2
 8002610:	fa09 fb0a 	lsl.w	fp, r9, sl
 8002614:	ea27 0b0b 	bic.w	fp, r7, fp
 8002618:	690f      	ldr	r7, [r1, #16]
 800261a:	fa07 f70a 	lsl.w	r7, r7, sl
 800261e:	ea47 070b 	orr.w	r7, r7, fp
 8002622:	f8c8 7020 	str.w	r7, [r8, #32]
 8002626:	6807      	ldr	r7, [r0, #0]
 8002628:	403e      	ands	r6, r7
 800262a:	f004 0703 	and.w	r7, r4, #3
 800262e:	fa07 fc0c 	lsl.w	ip, r7, ip
 8002632:	ea4c 0606 	orr.w	r6, ip, r6
 8002636:	6006      	str	r6, [r0, #0]
 8002638:	00e6      	lsls	r6, r4, #3
 800263a:	d547      	bpl.n	80026cc <HAL_GPIO_Init+0x150>
 800263c:	f023 0703 	bic.w	r7, r3, #3
 8002640:	f107 4780 	add.w	r7, r7, #1073741824	; 0x40000000
 8002644:	f507 3780 	add.w	r7, r7, #65536	; 0x10000
 8002648:	f003 0c03 	and.w	ip, r3, #3
 800264c:	68be      	ldr	r6, [r7, #8]
 800264e:	ea4f 0c8c 	mov.w	ip, ip, lsl #2
 8002652:	fa09 f80c 	lsl.w	r8, r9, ip
 8002656:	f1b0 4f90 	cmp.w	r0, #1207959552	; 0x48000000
 800265a:	ea26 0808 	bic.w	r8, r6, r8
 800265e:	d037      	beq.n	80026d0 <HAL_GPIO_Init+0x154>
 8002660:	4e20      	ldr	r6, [pc, #128]	; (80026e4 <HAL_GPIO_Init+0x168>)
 8002662:	42b0      	cmp	r0, r6
 8002664:	d036      	beq.n	80026d4 <HAL_GPIO_Init+0x158>
 8002666:	f506 6680 	add.w	r6, r6, #1024	; 0x400
 800266a:	42b0      	cmp	r0, r6
 800266c:	d034      	beq.n	80026d8 <HAL_GPIO_Init+0x15c>
 800266e:	f506 6680 	add.w	r6, r6, #1024	; 0x400
 8002672:	42b0      	cmp	r0, r6
 8002674:	d032      	beq.n	80026dc <HAL_GPIO_Init+0x160>
 8002676:	f506 6680 	add.w	r6, r6, #1024	; 0x400
 800267a:	42b0      	cmp	r0, r6
 800267c:	bf14      	ite	ne
 800267e:	2607      	movne	r6, #7
 8002680:	2604      	moveq	r6, #4
 8002682:	fa06 f60c 	lsl.w	r6, r6, ip
 8002686:	ea46 0608 	orr.w	r6, r6, r8
 800268a:	60be      	str	r6, [r7, #8]
 800268c:	f8d2 6080 	ldr.w	r6, [r2, #128]	; 0x80
 8002690:	43ef      	mvns	r7, r5
 8002692:	f414 3f80 	tst.w	r4, #65536	; 0x10000
 8002696:	bf0c      	ite	eq
 8002698:	403e      	andeq	r6, r7
 800269a:	432e      	orrne	r6, r5
 800269c:	f8c2 6080 	str.w	r6, [r2, #128]	; 0x80
 80026a0:	f8d2 6084 	ldr.w	r6, [r2, #132]	; 0x84
 80026a4:	f414 3f00 	tst.w	r4, #131072	; 0x20000
 80026a8:	bf0c      	ite	eq
 80026aa:	403e      	andeq	r6, r7
 80026ac:	432e      	orrne	r6, r5
 80026ae:	f8c2 6084 	str.w	r6, [r2, #132]	; 0x84
 80026b2:	6816      	ldr	r6, [r2, #0]
 80026b4:	f414 1f80 	tst.w	r4, #1048576	; 0x100000
 80026b8:	bf0c      	ite	eq
 80026ba:	403e      	andeq	r6, r7
 80026bc:	432e      	orrne	r6, r5
 80026be:	6016      	str	r6, [r2, #0]
 80026c0:	6856      	ldr	r6, [r2, #4]
 80026c2:	02a4      	lsls	r4, r4, #10
 80026c4:	bf54      	ite	pl
 80026c6:	403e      	andpl	r6, r7
 80026c8:	432e      	orrmi	r6, r5
 80026ca:	6056      	str	r6, [r2, #4]
 80026cc:	3301      	adds	r3, #1
 80026ce:	e75d      	b.n	800258c <HAL_GPIO_Init+0x10>
 80026d0:	2600      	movs	r6, #0
 80026d2:	e7d6      	b.n	8002682 <HAL_GPIO_Init+0x106>
 80026d4:	2601      	movs	r6, #1
 80026d6:	e7d4      	b.n	8002682 <HAL_GPIO_Init+0x106>
 80026d8:	2602      	movs	r6, #2
 80026da:	e7d2      	b.n	8002682 <HAL_GPIO_Init+0x106>
 80026dc:	2603      	movs	r6, #3
 80026de:	e7d0      	b.n	8002682 <HAL_GPIO_Init+0x106>
 80026e0:	58000800 	.word	0x58000800
 80026e4:	48000400 	.word	0x48000400

080026e8 <HAL_GPIO_WritePin>:
 80026e8:	b10a      	cbz	r2, 80026ee <HAL_GPIO_WritePin+0x6>
 80026ea:	6181      	str	r1, [r0, #24]
 80026ec:	4770      	bx	lr
 80026ee:	6281      	str	r1, [r0, #40]	; 0x28
 80026f0:	4770      	bx	lr

080026f2 <HAL_HSEM_FreeCallback>:
 80026f2:	4770      	bx	lr

080026f4 <HAL_HSEM_IRQHandler>:
 80026f4:	b508      	push	{r3, lr}
 80026f6:	4b05      	ldr	r3, [pc, #20]	; (800270c <HAL_HSEM_IRQHandler+0x18>)
 80026f8:	68d8      	ldr	r0, [r3, #12]
 80026fa:	681a      	ldr	r2, [r3, #0]
 80026fc:	ea22 0200 	bic.w	r2, r2, r0
 8002700:	601a      	str	r2, [r3, #0]
 8002702:	6058      	str	r0, [r3, #4]
 8002704:	f7ff fff5 	bl	80026f2 <HAL_HSEM_FreeCallback>
 8002708:	bd08      	pop	{r3, pc}
 800270a:	bf00      	nop
 800270c:	58001500 	.word	0x58001500

08002710 <HAL_PWR_EnableBkUpAccess>:
 8002710:	4a02      	ldr	r2, [pc, #8]	; (800271c <HAL_PWR_EnableBkUpAccess+0xc>)
 8002712:	6813      	ldr	r3, [r2, #0]
 8002714:	f443 7380 	orr.w	r3, r3, #256	; 0x100
 8002718:	6013      	str	r3, [r2, #0]
 800271a:	4770      	bx	lr
 800271c:	58000400 	.word	0x58000400

08002720 <HAL_PWREx_GetVoltageRange>:
 8002720:	4b02      	ldr	r3, [pc, #8]	; (800272c <HAL_PWREx_GetVoltageRange+0xc>)
 8002722:	6818      	ldr	r0, [r3, #0]
 8002724:	f400 60c0 	and.w	r0, r0, #1536	; 0x600
 8002728:	4770      	bx	lr
 800272a:	bf00      	nop
 800272c:	58000400 	.word	0x58000400

08002730 <LL_RCC_HSE_IsReady>:
 8002730:	f04f 43b0 	mov.w	r3, #1476395008	; 0x58000000
 8002734:	6818      	ldr	r0, [r3, #0]
 8002736:	f3c0 4040 	ubfx	r0, r0, #17, #1
 800273a:	4770      	bx	lr

0800273c <LL_RCC_HSI_IsReady>:
 800273c:	f04f 43b0 	mov.w	r3, #1476395008	; 0x58000000
 8002740:	6818      	ldr	r0, [r3, #0]
 8002742:	f3c0 2080 	ubfx	r0, r0, #10, #1
 8002746:	4770      	bx	lr

08002748 <LL_RCC_LSI1_IsReady>:
 8002748:	f04f 43b0 	mov.w	r3, #1476395008	; 0x58000000
 800274c:	f8d3 0094 	ldr.w	r0, [r3, #148]	; 0x94
 8002750:	f3c0 0040 	ubfx	r0, r0, #1, #1
 8002754:	4770      	bx	lr

08002756 <LL_RCC_MSI_IsReady>:
 8002756:	f04f 43b0 	mov.w	r3, #1476395008	; 0x58000000
 800275a:	6818      	ldr	r0, [r3, #0]
 800275c:	f3c0 0040 	ubfx	r0, r0, #1, #1
 8002760:	4770      	bx	lr

08002762 <LL_RCC_MSI_SetRange>:
 8002762:	f04f 42b0 	mov.w	r2, #1476395008	; 0x58000000
 8002766:	6813      	ldr	r3, [r2, #0]
 8002768:	f023 03f0 	bic.w	r3, r3, #240	; 0xf0
 800276c:	4318      	orrs	r0, r3
 800276e:	6010      	str	r0, [r2, #0]
 8002770:	4770      	bx	lr

08002772 <LL_RCC_MSI_GetRange>:
 8002772:	f04f 43b0 	mov.w	r3, #1476395008	; 0x58000000
 8002776:	6818      	ldr	r0, [r3, #0]
 8002778:	f000 00f0 	and.w	r0, r0, #240	; 0xf0
 800277c:	28b0      	cmp	r0, #176	; 0xb0
 800277e:	bf28      	it	cs
 8002780:	20b0      	movcs	r0, #176	; 0xb0
 8002782:	4770      	bx	lr

08002784 <LL_RCC_MSI_SetCalibTrimming>:
 8002784:	f04f 42b0 	mov.w	r2, #1476395008	; 0x58000000
 8002788:	6853      	ldr	r3, [r2, #4]
 800278a:	f423 437f 	bic.w	r3, r3, #65280	; 0xff00
 800278e:	ea43 2000 	orr.w	r0, r3, r0, lsl #8
 8002792:	6050      	str	r0, [r2, #4]
 8002794:	4770      	bx	lr
	...

08002798 <RCC_SetFlashLatencyFromMSIRange>:
 8002798:	28b0      	cmp	r0, #176	; 0xb0
 800279a:	4b2e      	ldr	r3, [pc, #184]	; (8002854 <RCC_SetFlashLatencyFromMSIRange+0xbc>)
 800279c:	4a2e      	ldr	r2, [pc, #184]	; (8002858 <RCC_SetFlashLatencyFromMSIRange+0xc0>)
 800279e:	bf98      	it	ls
 80027a0:	0900      	lsrls	r0, r0, #4
 80027a2:	b5f0      	push	{r4, r5, r6, r7, lr}
 80027a4:	bf8c      	ite	hi
 80027a6:	6add      	ldrhi	r5, [r3, #44]	; 0x2c
 80027a8:	f853 5020 	ldrls.w	r5, [r3, r0, lsl #2]
 80027ac:	4c2b      	ldr	r4, [pc, #172]	; (800285c <RCC_SetFlashLatencyFromMSIRange+0xc4>)
 80027ae:	f04f 43b0 	mov.w	r3, #1476395008	; 0x58000000
 80027b2:	b089      	sub	sp, #36	; 0x24
 80027b4:	f8d3 3108 	ldr.w	r3, [r3, #264]	; 0x108
 80027b8:	f003 030f 	and.w	r3, r3, #15
 80027bc:	466e      	mov	r6, sp
 80027be:	f852 3023 	ldr.w	r3, [r2, r3, lsl #2]
 80027c2:	fbb5 f5f3 	udiv	r5, r5, r3
 80027c6:	4b26      	ldr	r3, [pc, #152]	; (8002860 <RCC_SetFlashLatencyFromMSIRange+0xc8>)
 80027c8:	fbb5 f5f3 	udiv	r5, r5, r3
 80027cc:	f7ff ffa8 	bl	8002720 <HAL_PWREx_GetVoltageRange>
 80027d0:	4607      	mov	r7, r0
 80027d2:	e894 000f 	ldmia.w	r4, {r0, r1, r2, r3}
 80027d6:	3410      	adds	r4, #16
 80027d8:	e886 000f 	stmia.w	r6, {r0, r1, r2, r3}
 80027dc:	e894 000f 	ldmia.w	r4, {r0, r1, r2, r3}
 80027e0:	f5b7 7f00 	cmp.w	r7, #512	; 0x200
 80027e4:	ac08      	add	r4, sp, #32
 80027e6:	e904 000f 	stmdb	r4, {r0, r1, r2, r3}
 80027ea:	d017      	beq.n	800281c <RCC_SetFlashLatencyFromMSIRange+0x84>
 80027ec:	2d06      	cmp	r5, #6
 80027ee:	d924      	bls.n	800283a <RCC_SetFlashLatencyFromMSIRange+0xa2>
 80027f0:	2d0c      	cmp	r5, #12
 80027f2:	d924      	bls.n	800283e <RCC_SetFlashLatencyFromMSIRange+0xa6>
 80027f4:	2d10      	cmp	r5, #16
 80027f6:	d924      	bls.n	8002842 <RCC_SetFlashLatencyFromMSIRange+0xaa>
 80027f8:	2400      	movs	r4, #0
 80027fa:	4d1a      	ldr	r5, [pc, #104]	; (8002864 <RCC_SetFlashLatencyFromMSIRange+0xcc>)
 80027fc:	682b      	ldr	r3, [r5, #0]
 80027fe:	f023 0307 	bic.w	r3, r3, #7
 8002802:	4323      	orrs	r3, r4
 8002804:	602b      	str	r3, [r5, #0]
 8002806:	f7ff fc59 	bl	80020bc <HAL_GetTick>
 800280a:	4606      	mov	r6, r0
 800280c:	682b      	ldr	r3, [r5, #0]
 800280e:	f003 0307 	and.w	r3, r3, #7
 8002812:	429c      	cmp	r4, r3
 8002814:	d117      	bne.n	8002846 <RCC_SetFlashLatencyFromMSIRange+0xae>
 8002816:	2000      	movs	r0, #0
 8002818:	b009      	add	sp, #36	; 0x24
 800281a:	bdf0      	pop	{r4, r5, r6, r7, pc}
 800281c:	2300      	movs	r3, #0
 800281e:	f856 2023 	ldr.w	r2, [r6, r3, lsl #2]
 8002822:	4295      	cmp	r5, r2
 8002824:	d805      	bhi.n	8002832 <RCC_SetFlashLatencyFromMSIRange+0x9a>
 8002826:	aa08      	add	r2, sp, #32
 8002828:	eb02 0383 	add.w	r3, r2, r3, lsl #2
 800282c:	f853 4c10 	ldr.w	r4, [r3, #-16]
 8002830:	e7e3      	b.n	80027fa <RCC_SetFlashLatencyFromMSIRange+0x62>
 8002832:	3301      	adds	r3, #1
 8002834:	2b04      	cmp	r3, #4
 8002836:	d1f2      	bne.n	800281e <RCC_SetFlashLatencyFromMSIRange+0x86>
 8002838:	e7de      	b.n	80027f8 <RCC_SetFlashLatencyFromMSIRange+0x60>
 800283a:	2300      	movs	r3, #0
 800283c:	e7f3      	b.n	8002826 <RCC_SetFlashLatencyFromMSIRange+0x8e>
 800283e:	2301      	movs	r3, #1
 8002840:	e7f1      	b.n	8002826 <RCC_SetFlashLatencyFromMSIRange+0x8e>
 8002842:	2302      	movs	r3, #2
 8002844:	e7ef      	b.n	8002826 <RCC_SetFlashLatencyFromMSIRange+0x8e>
 8002846:	f7ff fc39 	bl	80020bc <HAL_GetTick>
 800284a:	1b80      	subs	r0, r0, r6
 800284c:	2802      	cmp	r0, #2
 800284e:	d9dd      	bls.n	800280c <RCC_SetFlashLatencyFromMSIRange+0x74>
 8002850:	2003      	movs	r0, #3
 8002852:	e7e1      	b.n	8002818 <RCC_SetFlashLatencyFromMSIRange+0x80>
 8002854:	08007090 	.word	0x08007090
 8002858:	08007030 	.word	0x08007030
 800285c:	08006868 	.word	0x08006868
 8002860:	000f4240 	.word	0x000f4240
 8002864:	58004000 	.word	0x58004000

08002868 <HAL_RCC_GetSysClockFreq>:
 8002868:	f04f 42b0 	mov.w	r2, #1476395008	; 0x58000000
 800286c:	b508      	push	{r3, lr}
 800286e:	6893      	ldr	r3, [r2, #8]
 8002870:	f013 030c 	ands.w	r3, r3, #12
 8002874:	d107      	bne.n	8002886 <HAL_RCC_GetSysClockFreq+0x1e>
 8002876:	f7ff ff7c 	bl	8002772 <LL_RCC_MSI_GetRange>
 800287a:	4b1f      	ldr	r3, [pc, #124]	; (80028f8 <HAL_RCC_GetSysClockFreq+0x90>)
 800287c:	f3c0 1003 	ubfx	r0, r0, #4, #4
 8002880:	f853 0020 	ldr.w	r0, [r3, r0, lsl #2]
 8002884:	bd08      	pop	{r3, pc}
 8002886:	2b04      	cmp	r3, #4
 8002888:	d033      	beq.n	80028f2 <HAL_RCC_GetSysClockFreq+0x8a>
 800288a:	2b08      	cmp	r3, #8
 800288c:	d107      	bne.n	800289e <HAL_RCC_GetSysClockFreq+0x36>
 800288e:	6813      	ldr	r3, [r2, #0]
 8002890:	481a      	ldr	r0, [pc, #104]	; (80028fc <HAL_RCC_GetSysClockFreq+0x94>)
 8002892:	f413 1f80 	tst.w	r3, #1048576	; 0x100000
 8002896:	4b1a      	ldr	r3, [pc, #104]	; (8002900 <HAL_RCC_GetSysClockFreq+0x98>)
 8002898:	bf08      	it	eq
 800289a:	4618      	moveq	r0, r3
 800289c:	e7f2      	b.n	8002884 <HAL_RCC_GetSysClockFreq+0x1c>
 800289e:	68d3      	ldr	r3, [r2, #12]
 80028a0:	f003 0303 	and.w	r3, r3, #3
 80028a4:	2b02      	cmp	r3, #2
 80028a6:	d022      	beq.n	80028ee <HAL_RCC_GetSysClockFreq+0x86>
 80028a8:	2b03      	cmp	r3, #3
 80028aa:	d118      	bne.n	80028de <HAL_RCC_GetSysClockFreq+0x76>
 80028ac:	6813      	ldr	r3, [r2, #0]
 80028ae:	4813      	ldr	r0, [pc, #76]	; (80028fc <HAL_RCC_GetSysClockFreq+0x94>)
 80028b0:	f413 1f80 	tst.w	r3, #1048576	; 0x100000
 80028b4:	4b12      	ldr	r3, [pc, #72]	; (8002900 <HAL_RCC_GetSysClockFreq+0x98>)
 80028b6:	bf18      	it	ne
 80028b8:	4603      	movne	r3, r0
 80028ba:	f04f 42b0 	mov.w	r2, #1476395008	; 0x58000000
 80028be:	68d0      	ldr	r0, [r2, #12]
 80028c0:	68d1      	ldr	r1, [r2, #12]
 80028c2:	68d2      	ldr	r2, [r2, #12]
 80028c4:	f3c0 2006 	ubfx	r0, r0, #8, #7
 80028c8:	4358      	muls	r0, r3
 80028ca:	f3c1 1302 	ubfx	r3, r1, #4, #3
 80028ce:	3301      	adds	r3, #1
 80028d0:	fbb0 f0f3 	udiv	r0, r0, r3
 80028d4:	0f53      	lsrs	r3, r2, #29
 80028d6:	3301      	adds	r3, #1
 80028d8:	fbb0 f0f3 	udiv	r0, r0, r3
 80028dc:	e7d2      	b.n	8002884 <HAL_RCC_GetSysClockFreq+0x1c>
 80028de:	f7ff ff48 	bl	8002772 <LL_RCC_MSI_GetRange>
 80028e2:	4b05      	ldr	r3, [pc, #20]	; (80028f8 <HAL_RCC_GetSysClockFreq+0x90>)
 80028e4:	f3c0 1003 	ubfx	r0, r0, #4, #4
 80028e8:	f853 3020 	ldr.w	r3, [r3, r0, lsl #2]
 80028ec:	e7e5      	b.n	80028ba <HAL_RCC_GetSysClockFreq+0x52>
 80028ee:	4b03      	ldr	r3, [pc, #12]	; (80028fc <HAL_RCC_GetSysClockFreq+0x94>)
 80028f0:	e7e3      	b.n	80028ba <HAL_RCC_GetSysClockFreq+0x52>
 80028f2:	4802      	ldr	r0, [pc, #8]	; (80028fc <HAL_RCC_GetSysClockFreq+0x94>)
 80028f4:	e7c6      	b.n	8002884 <HAL_RCC_GetSysClockFreq+0x1c>
 80028f6:	bf00      	nop
 80028f8:	08007090 	.word	0x08007090
 80028fc:	00f42400 	.word	0x00f42400
 8002900:	01e84800 	.word	0x01e84800

08002904 <HAL_RCC_GetHCLKFreq>:
 8002904:	b508      	push	{r3, lr}
 8002906:	f7ff ffaf 	bl	8002868 <HAL_RCC_GetSysClockFreq>
 800290a:	f04f 43b0 	mov.w	r3, #1476395008	; 0x58000000
 800290e:	4a04      	ldr	r2, [pc, #16]	; (8002920 <HAL_RCC_GetHCLKFreq+0x1c>)
 8002910:	689b      	ldr	r3, [r3, #8]
 8002912:	f3c3 1303 	ubfx	r3, r3, #4, #4
 8002916:	f852 3023 	ldr.w	r3, [r2, r3, lsl #2]
 800291a:	fbb0 f0f3 	udiv	r0, r0, r3
 800291e:	bd08      	pop	{r3, pc}
 8002920:	08007030 	.word	0x08007030

08002924 <HAL_RCC_OscConfig>:
 8002924:	b5f8      	push	{r3, r4, r5, r6, r7, lr}
 8002926:	4604      	mov	r4, r0
 8002928:	b908      	cbnz	r0, 800292e <HAL_RCC_OscConfig+0xa>
 800292a:	2001      	movs	r0, #1
 800292c:	e083      	b.n	8002a36 <HAL_RCC_OscConfig+0x112>
 800292e:	6803      	ldr	r3, [r0, #0]
 8002930:	069f      	lsls	r7, r3, #26
 8002932:	d52c      	bpl.n	800298e <HAL_RCC_OscConfig+0x6a>
 8002934:	f04f 42b0 	mov.w	r2, #1476395008	; 0x58000000
 8002938:	6893      	ldr	r3, [r2, #8]
 800293a:	68d2      	ldr	r2, [r2, #12]
 800293c:	f013 030c 	ands.w	r3, r3, #12
 8002940:	d005      	beq.n	800294e <HAL_RCC_OscConfig+0x2a>
 8002942:	2b0c      	cmp	r3, #12
 8002944:	d15c      	bne.n	8002a00 <HAL_RCC_OscConfig+0xdc>
 8002946:	f002 0303 	and.w	r3, r2, #3
 800294a:	2b01      	cmp	r3, #1
 800294c:	d158      	bne.n	8002a00 <HAL_RCC_OscConfig+0xdc>
 800294e:	f7ff ff02 	bl	8002756 <LL_RCC_MSI_IsReady>
 8002952:	b110      	cbz	r0, 800295a <HAL_RCC_OscConfig+0x36>
 8002954:	69e3      	ldr	r3, [r4, #28]
 8002956:	2b00      	cmp	r3, #0
 8002958:	d0e7      	beq.n	800292a <HAL_RCC_OscConfig+0x6>
 800295a:	6a62      	ldr	r2, [r4, #36]	; 0x24
 800295c:	f7ff ff09 	bl	8002772 <LL_RCC_MSI_GetRange>
 8002960:	4282      	cmp	r2, r0
 8002962:	6a60      	ldr	r0, [r4, #36]	; 0x24
 8002964:	d941      	bls.n	80029ea <HAL_RCC_OscConfig+0xc6>
 8002966:	f7ff ff17 	bl	8002798 <RCC_SetFlashLatencyFromMSIRange>
 800296a:	2800      	cmp	r0, #0
 800296c:	d1dd      	bne.n	800292a <HAL_RCC_OscConfig+0x6>
 800296e:	6a60      	ldr	r0, [r4, #36]	; 0x24
 8002970:	f7ff fef7 	bl	8002762 <LL_RCC_MSI_SetRange>
 8002974:	6a20      	ldr	r0, [r4, #32]
 8002976:	f7ff ff05 	bl	8002784 <LL_RCC_MSI_SetCalibTrimming>
 800297a:	f7ff ffc3 	bl	8002904 <HAL_RCC_GetHCLKFreq>
 800297e:	4bb5      	ldr	r3, [pc, #724]	; (8002c54 <HAL_RCC_OscConfig+0x330>)
 8002980:	6018      	str	r0, [r3, #0]
 8002982:	4bb5      	ldr	r3, [pc, #724]	; (8002c58 <HAL_RCC_OscConfig+0x334>)
 8002984:	6818      	ldr	r0, [r3, #0]
 8002986:	f7ff fb51 	bl	800202c <HAL_InitTick>
 800298a:	2800      	cmp	r0, #0
 800298c:	d1cd      	bne.n	800292a <HAL_RCC_OscConfig+0x6>
 800298e:	6823      	ldr	r3, [r4, #0]
 8002990:	07de      	lsls	r6, r3, #31
 8002992:	d462      	bmi.n	8002a5a <HAL_RCC_OscConfig+0x136>
 8002994:	6823      	ldr	r3, [r4, #0]
 8002996:	079d      	lsls	r5, r3, #30
 8002998:	f100 80a0 	bmi.w	8002adc <HAL_RCC_OscConfig+0x1b8>
 800299c:	6823      	ldr	r3, [r4, #0]
 800299e:	f013 0f18 	tst.w	r3, #24
 80029a2:	f040 80e1 	bne.w	8002b68 <HAL_RCC_OscConfig+0x244>
 80029a6:	6823      	ldr	r3, [r4, #0]
 80029a8:	0758      	lsls	r0, r3, #29
 80029aa:	f100 817e 	bmi.w	8002caa <HAL_RCC_OscConfig+0x386>
 80029ae:	6823      	ldr	r3, [r4, #0]
 80029b0:	0658      	lsls	r0, r3, #25
 80029b2:	f140 81e3 	bpl.w	8002d7c <HAL_RCC_OscConfig+0x458>
 80029b6:	6aa3      	ldr	r3, [r4, #40]	; 0x28
 80029b8:	f04f 45b0 	mov.w	r5, #1476395008	; 0x58000000
 80029bc:	2b00      	cmp	r3, #0
 80029be:	f000 81ca 	beq.w	8002d56 <HAL_RCC_OscConfig+0x432>
 80029c2:	f8d5 3098 	ldr.w	r3, [r5, #152]	; 0x98
 80029c6:	f043 0301 	orr.w	r3, r3, #1
 80029ca:	f8c5 3098 	str.w	r3, [r5, #152]	; 0x98
 80029ce:	f7ff fb75 	bl	80020bc <HAL_GetTick>
 80029d2:	4606      	mov	r6, r0
 80029d4:	f8d5 3098 	ldr.w	r3, [r5, #152]	; 0x98
 80029d8:	0799      	lsls	r1, r3, #30
 80029da:	f100 81cf 	bmi.w	8002d7c <HAL_RCC_OscConfig+0x458>
 80029de:	f7ff fb6d 	bl	80020bc <HAL_GetTick>
 80029e2:	1b80      	subs	r0, r0, r6
 80029e4:	2802      	cmp	r0, #2
 80029e6:	d9f5      	bls.n	80029d4 <HAL_RCC_OscConfig+0xb0>
 80029e8:	e024      	b.n	8002a34 <HAL_RCC_OscConfig+0x110>
 80029ea:	f7ff feba 	bl	8002762 <LL_RCC_MSI_SetRange>
 80029ee:	6a20      	ldr	r0, [r4, #32]
 80029f0:	f7ff fec8 	bl	8002784 <LL_RCC_MSI_SetCalibTrimming>
 80029f4:	6a60      	ldr	r0, [r4, #36]	; 0x24
 80029f6:	f7ff fecf 	bl	8002798 <RCC_SetFlashLatencyFromMSIRange>
 80029fa:	2800      	cmp	r0, #0
 80029fc:	d0bd      	beq.n	800297a <HAL_RCC_OscConfig+0x56>
 80029fe:	e794      	b.n	800292a <HAL_RCC_OscConfig+0x6>
 8002a00:	69e2      	ldr	r2, [r4, #28]
 8002a02:	f04f 43b0 	mov.w	r3, #1476395008	; 0x58000000
 8002a06:	b1ba      	cbz	r2, 8002a38 <HAL_RCC_OscConfig+0x114>
 8002a08:	681a      	ldr	r2, [r3, #0]
 8002a0a:	f042 0201 	orr.w	r2, r2, #1
 8002a0e:	601a      	str	r2, [r3, #0]
 8002a10:	f7ff fb54 	bl	80020bc <HAL_GetTick>
 8002a14:	4605      	mov	r5, r0
 8002a16:	f7ff fe9e 	bl	8002756 <LL_RCC_MSI_IsReady>
 8002a1a:	b130      	cbz	r0, 8002a2a <HAL_RCC_OscConfig+0x106>
 8002a1c:	6a60      	ldr	r0, [r4, #36]	; 0x24
 8002a1e:	f7ff fea0 	bl	8002762 <LL_RCC_MSI_SetRange>
 8002a22:	6a20      	ldr	r0, [r4, #32]
 8002a24:	f7ff feae 	bl	8002784 <LL_RCC_MSI_SetCalibTrimming>
 8002a28:	e7b1      	b.n	800298e <HAL_RCC_OscConfig+0x6a>
 8002a2a:	f7ff fb47 	bl	80020bc <HAL_GetTick>
 8002a2e:	1b40      	subs	r0, r0, r5
 8002a30:	2802      	cmp	r0, #2
 8002a32:	d9f0      	bls.n	8002a16 <HAL_RCC_OscConfig+0xf2>
 8002a34:	2003      	movs	r0, #3
 8002a36:	bdf8      	pop	{r3, r4, r5, r6, r7, pc}
 8002a38:	681a      	ldr	r2, [r3, #0]
 8002a3a:	f022 0201 	bic.w	r2, r2, #1
 8002a3e:	601a      	str	r2, [r3, #0]
 8002a40:	f7ff fb3c 	bl	80020bc <HAL_GetTick>
 8002a44:	4605      	mov	r5, r0
 8002a46:	f7ff fe86 	bl	8002756 <LL_RCC_MSI_IsReady>
 8002a4a:	2800      	cmp	r0, #0
 8002a4c:	d09f      	beq.n	800298e <HAL_RCC_OscConfig+0x6a>
 8002a4e:	f7ff fb35 	bl	80020bc <HAL_GetTick>
 8002a52:	1b40      	subs	r0, r0, r5
 8002a54:	2802      	cmp	r0, #2
 8002a56:	d9f6      	bls.n	8002a46 <HAL_RCC_OscConfig+0x122>
 8002a58:	e7ec      	b.n	8002a34 <HAL_RCC_OscConfig+0x110>
 8002a5a:	f04f 42b0 	mov.w	r2, #1476395008	; 0x58000000
 8002a5e:	6893      	ldr	r3, [r2, #8]
 8002a60:	68d2      	ldr	r2, [r2, #12]
 8002a62:	f003 030c 	and.w	r3, r3, #12
 8002a66:	2b08      	cmp	r3, #8
 8002a68:	d005      	beq.n	8002a76 <HAL_RCC_OscConfig+0x152>
 8002a6a:	2b0c      	cmp	r3, #12
 8002a6c:	d10b      	bne.n	8002a86 <HAL_RCC_OscConfig+0x162>
 8002a6e:	f002 0303 	and.w	r3, r2, #3
 8002a72:	2b03      	cmp	r3, #3
 8002a74:	d107      	bne.n	8002a86 <HAL_RCC_OscConfig+0x162>
 8002a76:	f7ff fe5b 	bl	8002730 <LL_RCC_HSE_IsReady>
 8002a7a:	2800      	cmp	r0, #0
 8002a7c:	d08a      	beq.n	8002994 <HAL_RCC_OscConfig+0x70>
 8002a7e:	6863      	ldr	r3, [r4, #4]
 8002a80:	2b00      	cmp	r3, #0
 8002a82:	d187      	bne.n	8002994 <HAL_RCC_OscConfig+0x70>
 8002a84:	e751      	b.n	800292a <HAL_RCC_OscConfig+0x6>
 8002a86:	6861      	ldr	r1, [r4, #4]
 8002a88:	f04f 43b0 	mov.w	r3, #1476395008	; 0x58000000
 8002a8c:	f5b1 3f80 	cmp.w	r1, #65536	; 0x10000
 8002a90:	681a      	ldr	r2, [r3, #0]
 8002a92:	d110      	bne.n	8002ab6 <HAL_RCC_OscConfig+0x192>
 8002a94:	f442 3280 	orr.w	r2, r2, #65536	; 0x10000
 8002a98:	601a      	str	r2, [r3, #0]
 8002a9a:	f7ff fb0f 	bl	80020bc <HAL_GetTick>
 8002a9e:	4605      	mov	r5, r0
 8002aa0:	f7ff fe46 	bl	8002730 <LL_RCC_HSE_IsReady>
 8002aa4:	2800      	cmp	r0, #0
 8002aa6:	f47f af75 	bne.w	8002994 <HAL_RCC_OscConfig+0x70>
 8002aaa:	f7ff fb07 	bl	80020bc <HAL_GetTick>
 8002aae:	1b40      	subs	r0, r0, r5
 8002ab0:	2864      	cmp	r0, #100	; 0x64
 8002ab2:	d9f5      	bls.n	8002aa0 <HAL_RCC_OscConfig+0x17c>
 8002ab4:	e7be      	b.n	8002a34 <HAL_RCC_OscConfig+0x110>
 8002ab6:	f422 3280 	bic.w	r2, r2, #65536	; 0x10000
 8002aba:	601a      	str	r2, [r3, #0]
 8002abc:	2900      	cmp	r1, #0
 8002abe:	d1ec      	bne.n	8002a9a <HAL_RCC_OscConfig+0x176>
 8002ac0:	f7ff fafc 	bl	80020bc <HAL_GetTick>
 8002ac4:	4605      	mov	r5, r0
 8002ac6:	f7ff fe33 	bl	8002730 <LL_RCC_HSE_IsReady>
 8002aca:	2800      	cmp	r0, #0
 8002acc:	f43f af62 	beq.w	8002994 <HAL_RCC_OscConfig+0x70>
 8002ad0:	f7ff faf4 	bl	80020bc <HAL_GetTick>
 8002ad4:	1b40      	subs	r0, r0, r5
 8002ad6:	2864      	cmp	r0, #100	; 0x64
 8002ad8:	d9f5      	bls.n	8002ac6 <HAL_RCC_OscConfig+0x1a2>
 8002ada:	e7ab      	b.n	8002a34 <HAL_RCC_OscConfig+0x110>
 8002adc:	f04f 42b0 	mov.w	r2, #1476395008	; 0x58000000
 8002ae0:	6893      	ldr	r3, [r2, #8]
 8002ae2:	68d2      	ldr	r2, [r2, #12]
 8002ae4:	f003 030c 	and.w	r3, r3, #12
 8002ae8:	2b04      	cmp	r3, #4
 8002aea:	d005      	beq.n	8002af8 <HAL_RCC_OscConfig+0x1d4>
 8002aec:	2b0c      	cmp	r3, #12
 8002aee:	d114      	bne.n	8002b1a <HAL_RCC_OscConfig+0x1f6>
 8002af0:	f002 0303 	and.w	r3, r2, #3
 8002af4:	2b02      	cmp	r3, #2
 8002af6:	d110      	bne.n	8002b1a <HAL_RCC_OscConfig+0x1f6>
 8002af8:	f7ff fe20 	bl	800273c <LL_RCC_HSI_IsReady>
 8002afc:	b118      	cbz	r0, 8002b06 <HAL_RCC_OscConfig+0x1e2>
 8002afe:	68e3      	ldr	r3, [r4, #12]
 8002b00:	2b00      	cmp	r3, #0
 8002b02:	f43f af12 	beq.w	800292a <HAL_RCC_OscConfig+0x6>
 8002b06:	f04f 42b0 	mov.w	r2, #1476395008	; 0x58000000
 8002b0a:	6921      	ldr	r1, [r4, #16]
 8002b0c:	6853      	ldr	r3, [r2, #4]
 8002b0e:	f023 43fe 	bic.w	r3, r3, #2130706432	; 0x7f000000
 8002b12:	ea43 6301 	orr.w	r3, r3, r1, lsl #24
 8002b16:	6053      	str	r3, [r2, #4]
 8002b18:	e740      	b.n	800299c <HAL_RCC_OscConfig+0x78>
 8002b1a:	68e2      	ldr	r2, [r4, #12]
 8002b1c:	f04f 43b0 	mov.w	r3, #1476395008	; 0x58000000
 8002b20:	b182      	cbz	r2, 8002b44 <HAL_RCC_OscConfig+0x220>
 8002b22:	681a      	ldr	r2, [r3, #0]
 8002b24:	f442 7280 	orr.w	r2, r2, #256	; 0x100
 8002b28:	601a      	str	r2, [r3, #0]
 8002b2a:	f7ff fac7 	bl	80020bc <HAL_GetTick>
 8002b2e:	4605      	mov	r5, r0
 8002b30:	f7ff fe04 	bl	800273c <LL_RCC_HSI_IsReady>
 8002b34:	2800      	cmp	r0, #0
 8002b36:	d1e6      	bne.n	8002b06 <HAL_RCC_OscConfig+0x1e2>
 8002b38:	f7ff fac0 	bl	80020bc <HAL_GetTick>
 8002b3c:	1b40      	subs	r0, r0, r5
 8002b3e:	2802      	cmp	r0, #2
 8002b40:	d9f6      	bls.n	8002b30 <HAL_RCC_OscConfig+0x20c>
 8002b42:	e777      	b.n	8002a34 <HAL_RCC_OscConfig+0x110>
 8002b44:	681a      	ldr	r2, [r3, #0]
 8002b46:	f422 7280 	bic.w	r2, r2, #256	; 0x100
 8002b4a:	601a      	str	r2, [r3, #0]
 8002b4c:	f7ff fab6 	bl	80020bc <HAL_GetTick>
 8002b50:	4605      	mov	r5, r0
 8002b52:	f7ff fdf3 	bl	800273c <LL_RCC_HSI_IsReady>
 8002b56:	2800      	cmp	r0, #0
 8002b58:	f43f af20 	beq.w	800299c <HAL_RCC_OscConfig+0x78>
 8002b5c:	f7ff faae 	bl	80020bc <HAL_GetTick>
 8002b60:	1b40      	subs	r0, r0, r5
 8002b62:	2802      	cmp	r0, #2
 8002b64:	d9f5      	bls.n	8002b52 <HAL_RCC_OscConfig+0x22e>
 8002b66:	e765      	b.n	8002a34 <HAL_RCC_OscConfig+0x110>
 8002b68:	6962      	ldr	r2, [r4, #20]
 8002b6a:	f04f 45b0 	mov.w	r5, #1476395008	; 0x58000000
 8002b6e:	2a00      	cmp	r2, #0
 8002b70:	d074      	beq.n	8002c5c <HAL_RCC_OscConfig+0x338>
 8002b72:	06d9      	lsls	r1, r3, #27
 8002b74:	d547      	bpl.n	8002c06 <HAL_RCC_OscConfig+0x2e2>
 8002b76:	f7ff fde7 	bl	8002748 <LL_RCC_LSI1_IsReady>
 8002b7a:	b358      	cbz	r0, 8002bd4 <HAL_RCC_OscConfig+0x2b0>
 8002b7c:	f04f 45b0 	mov.w	r5, #1476395008	; 0x58000000
 8002b80:	f8d5 3094 	ldr.w	r3, [r5, #148]	; 0x94
 8002b84:	f043 0304 	orr.w	r3, r3, #4
 8002b88:	f8c5 3094 	str.w	r3, [r5, #148]	; 0x94
 8002b8c:	f7ff fa96 	bl	80020bc <HAL_GetTick>
 8002b90:	4606      	mov	r6, r0
 8002b92:	f8d5 3094 	ldr.w	r3, [r5, #148]	; 0x94
 8002b96:	071a      	lsls	r2, r3, #28
 8002b98:	d52f      	bpl.n	8002bfa <HAL_RCC_OscConfig+0x2d6>
 8002b9a:	f8d5 3094 	ldr.w	r3, [r5, #148]	; 0x94
 8002b9e:	69a2      	ldr	r2, [r4, #24]
 8002ba0:	f423 6370 	bic.w	r3, r3, #3840	; 0xf00
 8002ba4:	ea43 2302 	orr.w	r3, r3, r2, lsl #8
 8002ba8:	f8c5 3094 	str.w	r3, [r5, #148]	; 0x94
 8002bac:	f8d5 3094 	ldr.w	r3, [r5, #148]	; 0x94
 8002bb0:	f023 0301 	bic.w	r3, r3, #1
 8002bb4:	f8c5 3094 	str.w	r3, [r5, #148]	; 0x94
 8002bb8:	f7ff fa80 	bl	80020bc <HAL_GetTick>
 8002bbc:	4605      	mov	r5, r0
 8002bbe:	f7ff fdc3 	bl	8002748 <LL_RCC_LSI1_IsReady>
 8002bc2:	2800      	cmp	r0, #0
 8002bc4:	f43f aeef 	beq.w	80029a6 <HAL_RCC_OscConfig+0x82>
 8002bc8:	f7ff fa78 	bl	80020bc <HAL_GetTick>
 8002bcc:	1b40      	subs	r0, r0, r5
 8002bce:	2802      	cmp	r0, #2
 8002bd0:	d9f5      	bls.n	8002bbe <HAL_RCC_OscConfig+0x29a>
 8002bd2:	e72f      	b.n	8002a34 <HAL_RCC_OscConfig+0x110>
 8002bd4:	f8d5 3094 	ldr.w	r3, [r5, #148]	; 0x94
 8002bd8:	f043 0301 	orr.w	r3, r3, #1
 8002bdc:	f8c5 3094 	str.w	r3, [r5, #148]	; 0x94
 8002be0:	f7ff fa6c 	bl	80020bc <HAL_GetTick>
 8002be4:	4605      	mov	r5, r0
 8002be6:	f7ff fdaf 	bl	8002748 <LL_RCC_LSI1_IsReady>
 8002bea:	2800      	cmp	r0, #0
 8002bec:	d1c6      	bne.n	8002b7c <HAL_RCC_OscConfig+0x258>
 8002bee:	f7ff fa65 	bl	80020bc <HAL_GetTick>
 8002bf2:	1b40      	subs	r0, r0, r5
 8002bf4:	2802      	cmp	r0, #2
 8002bf6:	d9f6      	bls.n	8002be6 <HAL_RCC_OscConfig+0x2c2>
 8002bf8:	e71c      	b.n	8002a34 <HAL_RCC_OscConfig+0x110>
 8002bfa:	f7ff fa5f 	bl	80020bc <HAL_GetTick>
 8002bfe:	1b80      	subs	r0, r0, r6
 8002c00:	2803      	cmp	r0, #3
 8002c02:	d9c6      	bls.n	8002b92 <HAL_RCC_OscConfig+0x26e>
 8002c04:	e716      	b.n	8002a34 <HAL_RCC_OscConfig+0x110>
 8002c06:	f8d5 3094 	ldr.w	r3, [r5, #148]	; 0x94
 8002c0a:	f043 0301 	orr.w	r3, r3, #1
 8002c0e:	f8c5 3094 	str.w	r3, [r5, #148]	; 0x94
 8002c12:	f7ff fa53 	bl	80020bc <HAL_GetTick>
 8002c16:	4606      	mov	r6, r0
 8002c18:	f7ff fd96 	bl	8002748 <LL_RCC_LSI1_IsReady>
 8002c1c:	b198      	cbz	r0, 8002c46 <HAL_RCC_OscConfig+0x322>
 8002c1e:	f04f 43b0 	mov.w	r3, #1476395008	; 0x58000000
 8002c22:	461d      	mov	r5, r3
 8002c24:	f8d3 2094 	ldr.w	r2, [r3, #148]	; 0x94
 8002c28:	f022 0204 	bic.w	r2, r2, #4
 8002c2c:	f8c3 2094 	str.w	r2, [r3, #148]	; 0x94
 8002c30:	f8d5 3094 	ldr.w	r3, [r5, #148]	; 0x94
 8002c34:	071b      	lsls	r3, r3, #28
 8002c36:	f57f aeb6 	bpl.w	80029a6 <HAL_RCC_OscConfig+0x82>
 8002c3a:	f7ff fa3f 	bl	80020bc <HAL_GetTick>
 8002c3e:	1b80      	subs	r0, r0, r6
 8002c40:	2803      	cmp	r0, #3
 8002c42:	d9f5      	bls.n	8002c30 <HAL_RCC_OscConfig+0x30c>
 8002c44:	e6f6      	b.n	8002a34 <HAL_RCC_OscConfig+0x110>
 8002c46:	f7ff fa39 	bl	80020bc <HAL_GetTick>
 8002c4a:	1b80      	subs	r0, r0, r6
 8002c4c:	2802      	cmp	r0, #2
 8002c4e:	d9e3      	bls.n	8002c18 <HAL_RCC_OscConfig+0x2f4>
 8002c50:	e6f0      	b.n	8002a34 <HAL_RCC_OscConfig+0x110>
 8002c52:	bf00      	nop
 8002c54:	2000001c 	.word	0x2000001c
 8002c58:	20000024 	.word	0x20000024
 8002c5c:	f8d5 3094 	ldr.w	r3, [r5, #148]	; 0x94
 8002c60:	f023 0304 	bic.w	r3, r3, #4
 8002c64:	f8c5 3094 	str.w	r3, [r5, #148]	; 0x94
 8002c68:	f7ff fa28 	bl	80020bc <HAL_GetTick>
 8002c6c:	4606      	mov	r6, r0
 8002c6e:	f8d5 3094 	ldr.w	r3, [r5, #148]	; 0x94
 8002c72:	071f      	lsls	r7, r3, #28
 8002c74:	d413      	bmi.n	8002c9e <HAL_RCC_OscConfig+0x37a>
 8002c76:	f8d5 3094 	ldr.w	r3, [r5, #148]	; 0x94
 8002c7a:	f023 0301 	bic.w	r3, r3, #1
 8002c7e:	f8c5 3094 	str.w	r3, [r5, #148]	; 0x94
 8002c82:	f7ff fa1b 	bl	80020bc <HAL_GetTick>
 8002c86:	4605      	mov	r5, r0
 8002c88:	f7ff fd5e 	bl	8002748 <LL_RCC_LSI1_IsReady>
 8002c8c:	2800      	cmp	r0, #0
 8002c8e:	f43f ae8a 	beq.w	80029a6 <HAL_RCC_OscConfig+0x82>
 8002c92:	f7ff fa13 	bl	80020bc <HAL_GetTick>
 8002c96:	1b40      	subs	r0, r0, r5
 8002c98:	2802      	cmp	r0, #2
 8002c9a:	d9f5      	bls.n	8002c88 <HAL_RCC_OscConfig+0x364>
 8002c9c:	e6ca      	b.n	8002a34 <HAL_RCC_OscConfig+0x110>
 8002c9e:	f7ff fa0d 	bl	80020bc <HAL_GetTick>
 8002ca2:	1b80      	subs	r0, r0, r6
 8002ca4:	2803      	cmp	r0, #3
 8002ca6:	d9e2      	bls.n	8002c6e <HAL_RCC_OscConfig+0x34a>
 8002ca8:	e6c4      	b.n	8002a34 <HAL_RCC_OscConfig+0x110>
 8002caa:	4d84      	ldr	r5, [pc, #528]	; (8002ebc <HAL_RCC_OscConfig+0x598>)
 8002cac:	682b      	ldr	r3, [r5, #0]
 8002cae:	05d8      	lsls	r0, r3, #23
 8002cb0:	d51c      	bpl.n	8002cec <HAL_RCC_OscConfig+0x3c8>
 8002cb2:	68a3      	ldr	r3, [r4, #8]
 8002cb4:	2b01      	cmp	r3, #1
 8002cb6:	f04f 45b0 	mov.w	r5, #1476395008	; 0x58000000
 8002cba:	d125      	bne.n	8002d08 <HAL_RCC_OscConfig+0x3e4>
 8002cbc:	f8d5 3090 	ldr.w	r3, [r5, #144]	; 0x90
 8002cc0:	f043 0301 	orr.w	r3, r3, #1
 8002cc4:	f8c5 3090 	str.w	r3, [r5, #144]	; 0x90
 8002cc8:	f7ff f9f8 	bl	80020bc <HAL_GetTick>
 8002ccc:	f04f 47b0 	mov.w	r7, #1476395008	; 0x58000000
 8002cd0:	4606      	mov	r6, r0
 8002cd2:	f241 3588 	movw	r5, #5000	; 0x1388
 8002cd6:	f8d7 3090 	ldr.w	r3, [r7, #144]	; 0x90
 8002cda:	079a      	lsls	r2, r3, #30
 8002cdc:	f53f ae67 	bmi.w	80029ae <HAL_RCC_OscConfig+0x8a>
 8002ce0:	f7ff f9ec 	bl	80020bc <HAL_GetTick>
 8002ce4:	1b80      	subs	r0, r0, r6
 8002ce6:	42a8      	cmp	r0, r5
 8002ce8:	d9f5      	bls.n	8002cd6 <HAL_RCC_OscConfig+0x3b2>
 8002cea:	e6a3      	b.n	8002a34 <HAL_RCC_OscConfig+0x110>
 8002cec:	f7ff fd10 	bl	8002710 <HAL_PWR_EnableBkUpAccess>
 8002cf0:	f7ff f9e4 	bl	80020bc <HAL_GetTick>
 8002cf4:	4606      	mov	r6, r0
 8002cf6:	682b      	ldr	r3, [r5, #0]
 8002cf8:	05d9      	lsls	r1, r3, #23
 8002cfa:	d4da      	bmi.n	8002cb2 <HAL_RCC_OscConfig+0x38e>
 8002cfc:	f7ff f9de 	bl	80020bc <HAL_GetTick>
 8002d00:	1b80      	subs	r0, r0, r6
 8002d02:	2802      	cmp	r0, #2
 8002d04:	d9f7      	bls.n	8002cf6 <HAL_RCC_OscConfig+0x3d2>
 8002d06:	e695      	b.n	8002a34 <HAL_RCC_OscConfig+0x110>
 8002d08:	2b05      	cmp	r3, #5
 8002d0a:	d106      	bne.n	8002d1a <HAL_RCC_OscConfig+0x3f6>
 8002d0c:	f8d5 3090 	ldr.w	r3, [r5, #144]	; 0x90
 8002d10:	f043 0304 	orr.w	r3, r3, #4
 8002d14:	f8c5 3090 	str.w	r3, [r5, #144]	; 0x90
 8002d18:	e7d0      	b.n	8002cbc <HAL_RCC_OscConfig+0x398>
 8002d1a:	f8d5 2090 	ldr.w	r2, [r5, #144]	; 0x90
 8002d1e:	f022 0201 	bic.w	r2, r2, #1
 8002d22:	f8c5 2090 	str.w	r2, [r5, #144]	; 0x90
 8002d26:	f8d5 2090 	ldr.w	r2, [r5, #144]	; 0x90
 8002d2a:	f022 0204 	bic.w	r2, r2, #4
 8002d2e:	f8c5 2090 	str.w	r2, [r5, #144]	; 0x90
 8002d32:	2b00      	cmp	r3, #0
 8002d34:	d1c8      	bne.n	8002cc8 <HAL_RCC_OscConfig+0x3a4>
 8002d36:	f7ff f9c1 	bl	80020bc <HAL_GetTick>
 8002d3a:	f241 3688 	movw	r6, #5000	; 0x1388
 8002d3e:	4607      	mov	r7, r0
 8002d40:	f8d5 3090 	ldr.w	r3, [r5, #144]	; 0x90
 8002d44:	079b      	lsls	r3, r3, #30
 8002d46:	f57f ae32 	bpl.w	80029ae <HAL_RCC_OscConfig+0x8a>
 8002d4a:	f7ff f9b7 	bl	80020bc <HAL_GetTick>
 8002d4e:	1bc0      	subs	r0, r0, r7
 8002d50:	42b0      	cmp	r0, r6
 8002d52:	d9f5      	bls.n	8002d40 <HAL_RCC_OscConfig+0x41c>
 8002d54:	e66e      	b.n	8002a34 <HAL_RCC_OscConfig+0x110>
 8002d56:	f8d5 3098 	ldr.w	r3, [r5, #152]	; 0x98
 8002d5a:	f023 0301 	bic.w	r3, r3, #1
 8002d5e:	f8c5 3098 	str.w	r3, [r5, #152]	; 0x98
 8002d62:	f7ff f9ab 	bl	80020bc <HAL_GetTick>
 8002d66:	4606      	mov	r6, r0
 8002d68:	f8d5 3098 	ldr.w	r3, [r5, #152]	; 0x98
 8002d6c:	079a      	lsls	r2, r3, #30
 8002d6e:	d505      	bpl.n	8002d7c <HAL_RCC_OscConfig+0x458>
 8002d70:	f7ff f9a4 	bl	80020bc <HAL_GetTick>
 8002d74:	1b80      	subs	r0, r0, r6
 8002d76:	2802      	cmp	r0, #2
 8002d78:	d9f6      	bls.n	8002d68 <HAL_RCC_OscConfig+0x444>
 8002d7a:	e65b      	b.n	8002a34 <HAL_RCC_OscConfig+0x110>
 8002d7c:	6ae1      	ldr	r1, [r4, #44]	; 0x2c
 8002d7e:	b909      	cbnz	r1, 8002d84 <HAL_RCC_OscConfig+0x460>
 8002d80:	2000      	movs	r0, #0
 8002d82:	e658      	b.n	8002a36 <HAL_RCC_OscConfig+0x112>
 8002d84:	f04f 45b0 	mov.w	r5, #1476395008	; 0x58000000
 8002d88:	2902      	cmp	r1, #2
 8002d8a:	68aa      	ldr	r2, [r5, #8]
 8002d8c:	68eb      	ldr	r3, [r5, #12]
 8002d8e:	f002 020c 	and.w	r2, r2, #12
 8002d92:	d174      	bne.n	8002e7e <HAL_RCC_OscConfig+0x55a>
 8002d94:	6b20      	ldr	r0, [r4, #48]	; 0x30
 8002d96:	f003 0103 	and.w	r1, r3, #3
 8002d9a:	4281      	cmp	r1, r0
 8002d9c:	d118      	bne.n	8002dd0 <HAL_RCC_OscConfig+0x4ac>
 8002d9e:	6b60      	ldr	r0, [r4, #52]	; 0x34
 8002da0:	f003 0170 	and.w	r1, r3, #112	; 0x70
 8002da4:	4281      	cmp	r1, r0
 8002da6:	d113      	bne.n	8002dd0 <HAL_RCC_OscConfig+0x4ac>
 8002da8:	6ba0      	ldr	r0, [r4, #56]	; 0x38
 8002daa:	f3c3 2106 	ubfx	r1, r3, #8, #7
 8002dae:	4281      	cmp	r1, r0
 8002db0:	d10e      	bne.n	8002dd0 <HAL_RCC_OscConfig+0x4ac>
 8002db2:	6be0      	ldr	r0, [r4, #60]	; 0x3c
 8002db4:	f403 1178 	and.w	r1, r3, #4063232	; 0x3e0000
 8002db8:	4281      	cmp	r1, r0
 8002dba:	d109      	bne.n	8002dd0 <HAL_RCC_OscConfig+0x4ac>
 8002dbc:	6c20      	ldr	r0, [r4, #64]	; 0x40
 8002dbe:	f003 6160 	and.w	r1, r3, #234881024	; 0xe000000
 8002dc2:	4281      	cmp	r1, r0
 8002dc4:	d104      	bne.n	8002dd0 <HAL_RCC_OscConfig+0x4ac>
 8002dc6:	6c61      	ldr	r1, [r4, #68]	; 0x44
 8002dc8:	f003 4360 	and.w	r3, r3, #3758096384	; 0xe0000000
 8002dcc:	428b      	cmp	r3, r1
 8002dce:	d03f      	beq.n	8002e50 <HAL_RCC_OscConfig+0x52c>
 8002dd0:	2a0c      	cmp	r2, #12
 8002dd2:	f43f adaa 	beq.w	800292a <HAL_RCC_OscConfig+0x6>
 8002dd6:	f04f 45b0 	mov.w	r5, #1476395008	; 0x58000000
 8002dda:	682b      	ldr	r3, [r5, #0]
 8002ddc:	015b      	lsls	r3, r3, #5
 8002dde:	f53f ada4 	bmi.w	800292a <HAL_RCC_OscConfig+0x6>
 8002de2:	682b      	ldr	r3, [r5, #0]
 8002de4:	f023 7380 	bic.w	r3, r3, #16777216	; 0x1000000
 8002de8:	602b      	str	r3, [r5, #0]
 8002dea:	f7ff f967 	bl	80020bc <HAL_GetTick>
 8002dee:	4606      	mov	r6, r0
 8002df0:	682b      	ldr	r3, [r5, #0]
 8002df2:	019f      	lsls	r7, r3, #6
 8002df4:	d426      	bmi.n	8002e44 <HAL_RCC_OscConfig+0x520>
 8002df6:	e9d4 320c 	ldrd	r3, r2, [r4, #48]	; 0x30
 8002dfa:	68e9      	ldr	r1, [r5, #12]
 8002dfc:	4313      	orrs	r3, r2
 8002dfe:	4a30      	ldr	r2, [pc, #192]	; (8002ec0 <HAL_RCC_OscConfig+0x59c>)
 8002e00:	400a      	ands	r2, r1
 8002e02:	4313      	orrs	r3, r2
 8002e04:	6be2      	ldr	r2, [r4, #60]	; 0x3c
 8002e06:	4313      	orrs	r3, r2
 8002e08:	6c22      	ldr	r2, [r4, #64]	; 0x40
 8002e0a:	4313      	orrs	r3, r2
 8002e0c:	6c62      	ldr	r2, [r4, #68]	; 0x44
 8002e0e:	4313      	orrs	r3, r2
 8002e10:	6ba2      	ldr	r2, [r4, #56]	; 0x38
 8002e12:	ea43 2302 	orr.w	r3, r3, r2, lsl #8
 8002e16:	60eb      	str	r3, [r5, #12]
 8002e18:	682b      	ldr	r3, [r5, #0]
 8002e1a:	f043 7380 	orr.w	r3, r3, #16777216	; 0x1000000
 8002e1e:	602b      	str	r3, [r5, #0]
 8002e20:	68eb      	ldr	r3, [r5, #12]
 8002e22:	f043 5380 	orr.w	r3, r3, #268435456	; 0x10000000
 8002e26:	60eb      	str	r3, [r5, #12]
 8002e28:	f7ff f948 	bl	80020bc <HAL_GetTick>
 8002e2c:	f04f 44b0 	mov.w	r4, #1476395008	; 0x58000000
 8002e30:	4605      	mov	r5, r0
 8002e32:	6823      	ldr	r3, [r4, #0]
 8002e34:	0198      	lsls	r0, r3, #6
 8002e36:	d4a3      	bmi.n	8002d80 <HAL_RCC_OscConfig+0x45c>
 8002e38:	f7ff f940 	bl	80020bc <HAL_GetTick>
 8002e3c:	1b40      	subs	r0, r0, r5
 8002e3e:	2802      	cmp	r0, #2
 8002e40:	d9f7      	bls.n	8002e32 <HAL_RCC_OscConfig+0x50e>
 8002e42:	e5f7      	b.n	8002a34 <HAL_RCC_OscConfig+0x110>
 8002e44:	f7ff f93a 	bl	80020bc <HAL_GetTick>
 8002e48:	1b80      	subs	r0, r0, r6
 8002e4a:	2802      	cmp	r0, #2
 8002e4c:	d9d0      	bls.n	8002df0 <HAL_RCC_OscConfig+0x4cc>
 8002e4e:	e5f1      	b.n	8002a34 <HAL_RCC_OscConfig+0x110>
 8002e50:	682b      	ldr	r3, [r5, #0]
 8002e52:	0199      	lsls	r1, r3, #6
 8002e54:	d494      	bmi.n	8002d80 <HAL_RCC_OscConfig+0x45c>
 8002e56:	682b      	ldr	r3, [r5, #0]
 8002e58:	f043 7380 	orr.w	r3, r3, #16777216	; 0x1000000
 8002e5c:	602b      	str	r3, [r5, #0]
 8002e5e:	68eb      	ldr	r3, [r5, #12]
 8002e60:	f043 5380 	orr.w	r3, r3, #268435456	; 0x10000000
 8002e64:	60eb      	str	r3, [r5, #12]
 8002e66:	f7ff f929 	bl	80020bc <HAL_GetTick>
 8002e6a:	4604      	mov	r4, r0
 8002e6c:	682b      	ldr	r3, [r5, #0]
 8002e6e:	019a      	lsls	r2, r3, #6
 8002e70:	d486      	bmi.n	8002d80 <HAL_RCC_OscConfig+0x45c>
 8002e72:	f7ff f923 	bl	80020bc <HAL_GetTick>
 8002e76:	1b00      	subs	r0, r0, r4
 8002e78:	2802      	cmp	r0, #2
 8002e7a:	d9f7      	bls.n	8002e6c <HAL_RCC_OscConfig+0x548>
 8002e7c:	e5da      	b.n	8002a34 <HAL_RCC_OscConfig+0x110>
 8002e7e:	2a0c      	cmp	r2, #12
 8002e80:	f43f ad53 	beq.w	800292a <HAL_RCC_OscConfig+0x6>
 8002e84:	682b      	ldr	r3, [r5, #0]
 8002e86:	f023 7380 	bic.w	r3, r3, #16777216	; 0x1000000
 8002e8a:	602b      	str	r3, [r5, #0]
 8002e8c:	68eb      	ldr	r3, [r5, #12]
 8002e8e:	f023 0303 	bic.w	r3, r3, #3
 8002e92:	60eb      	str	r3, [r5, #12]
 8002e94:	68eb      	ldr	r3, [r5, #12]
 8002e96:	f023 5388 	bic.w	r3, r3, #285212672	; 0x11000000
 8002e9a:	f423 3380 	bic.w	r3, r3, #65536	; 0x10000
 8002e9e:	60eb      	str	r3, [r5, #12]
 8002ea0:	f7ff f90c 	bl	80020bc <HAL_GetTick>
 8002ea4:	4604      	mov	r4, r0
 8002ea6:	682b      	ldr	r3, [r5, #0]
 8002ea8:	019b      	lsls	r3, r3, #6
 8002eaa:	f57f af69 	bpl.w	8002d80 <HAL_RCC_OscConfig+0x45c>
 8002eae:	f7ff f905 	bl	80020bc <HAL_GetTick>
 8002eb2:	1b00      	subs	r0, r0, r4
 8002eb4:	2802      	cmp	r0, #2
 8002eb6:	d9f6      	bls.n	8002ea6 <HAL_RCC_OscConfig+0x582>
 8002eb8:	e5bc      	b.n	8002a34 <HAL_RCC_OscConfig+0x110>
 8002eba:	bf00      	nop
 8002ebc:	58000400 	.word	0x58000400
 8002ec0:	11c1808c 	.word	0x11c1808c

08002ec4 <HAL_RCC_ClockConfig>:
 8002ec4:	e92d 41f0 	stmdb	sp!, {r4, r5, r6, r7, r8, lr}
 8002ec8:	460d      	mov	r5, r1
 8002eca:	4604      	mov	r4, r0
 8002ecc:	b910      	cbnz	r0, 8002ed4 <HAL_RCC_ClockConfig+0x10>
 8002ece:	2001      	movs	r0, #1
 8002ed0:	e8bd 81f0 	ldmia.w	sp!, {r4, r5, r6, r7, r8, pc}
 8002ed4:	4e75      	ldr	r6, [pc, #468]	; (80030ac <HAL_RCC_ClockConfig+0x1e8>)
 8002ed6:	6833      	ldr	r3, [r6, #0]
 8002ed8:	f003 0307 	and.w	r3, r3, #7
 8002edc:	428b      	cmp	r3, r1
 8002ede:	d316      	bcc.n	8002f0e <HAL_RCC_ClockConfig+0x4a>
 8002ee0:	6823      	ldr	r3, [r4, #0]
 8002ee2:	0798      	lsls	r0, r3, #30
 8002ee4:	d527      	bpl.n	8002f36 <HAL_RCC_ClockConfig+0x72>
 8002ee6:	f04f 46b0 	mov.w	r6, #1476395008	; 0x58000000
 8002eea:	68a2      	ldr	r2, [r4, #8]
 8002eec:	68b3      	ldr	r3, [r6, #8]
 8002eee:	f023 03f0 	bic.w	r3, r3, #240	; 0xf0
 8002ef2:	4313      	orrs	r3, r2
 8002ef4:	60b3      	str	r3, [r6, #8]
 8002ef6:	f7ff f8e1 	bl	80020bc <HAL_GetTick>
 8002efa:	4607      	mov	r7, r0
 8002efc:	68b3      	ldr	r3, [r6, #8]
 8002efe:	03d9      	lsls	r1, r3, #15
 8002f00:	d419      	bmi.n	8002f36 <HAL_RCC_ClockConfig+0x72>
 8002f02:	f7ff f8db 	bl	80020bc <HAL_GetTick>
 8002f06:	1bc0      	subs	r0, r0, r7
 8002f08:	2802      	cmp	r0, #2
 8002f0a:	d9f7      	bls.n	8002efc <HAL_RCC_ClockConfig+0x38>
 8002f0c:	e011      	b.n	8002f32 <HAL_RCC_ClockConfig+0x6e>
 8002f0e:	6833      	ldr	r3, [r6, #0]
 8002f10:	f023 0307 	bic.w	r3, r3, #7
 8002f14:	430b      	orrs	r3, r1
 8002f16:	6033      	str	r3, [r6, #0]
 8002f18:	f7ff f8d0 	bl	80020bc <HAL_GetTick>
 8002f1c:	4607      	mov	r7, r0
 8002f1e:	6833      	ldr	r3, [r6, #0]
 8002f20:	f003 0307 	and.w	r3, r3, #7
 8002f24:	42ab      	cmp	r3, r5
 8002f26:	d0db      	beq.n	8002ee0 <HAL_RCC_ClockConfig+0x1c>
 8002f28:	f7ff f8c8 	bl	80020bc <HAL_GetTick>
 8002f2c:	1bc0      	subs	r0, r0, r7
 8002f2e:	2802      	cmp	r0, #2
 8002f30:	d9f5      	bls.n	8002f1e <HAL_RCC_ClockConfig+0x5a>
 8002f32:	2003      	movs	r0, #3
 8002f34:	e7cc      	b.n	8002ed0 <HAL_RCC_ClockConfig+0xc>
 8002f36:	6823      	ldr	r3, [r4, #0]
 8002f38:	069a      	lsls	r2, r3, #26
 8002f3a:	d516      	bpl.n	8002f6a <HAL_RCC_ClockConfig+0xa6>
 8002f3c:	f04f 46b0 	mov.w	r6, #1476395008	; 0x58000000
 8002f40:	6962      	ldr	r2, [r4, #20]
 8002f42:	f8d6 3108 	ldr.w	r3, [r6, #264]	; 0x108
 8002f46:	f023 03f0 	bic.w	r3, r3, #240	; 0xf0
 8002f4a:	4313      	orrs	r3, r2
 8002f4c:	f8c6 3108 	str.w	r3, [r6, #264]	; 0x108
 8002f50:	f7ff f8b4 	bl	80020bc <HAL_GetTick>
 8002f54:	4607      	mov	r7, r0
 8002f56:	f8d6 3108 	ldr.w	r3, [r6, #264]	; 0x108
 8002f5a:	039b      	lsls	r3, r3, #14
 8002f5c:	d405      	bmi.n	8002f6a <HAL_RCC_ClockConfig+0xa6>
 8002f5e:	f7ff f8ad 	bl	80020bc <HAL_GetTick>
 8002f62:	1bc0      	subs	r0, r0, r7
 8002f64:	2802      	cmp	r0, #2
 8002f66:	d9f6      	bls.n	8002f56 <HAL_RCC_ClockConfig+0x92>
 8002f68:	e7e3      	b.n	8002f32 <HAL_RCC_ClockConfig+0x6e>
 8002f6a:	6823      	ldr	r3, [r4, #0]
 8002f6c:	0658      	lsls	r0, r3, #25
 8002f6e:	d517      	bpl.n	8002fa0 <HAL_RCC_ClockConfig+0xdc>
 8002f70:	f04f 46b0 	mov.w	r6, #1476395008	; 0x58000000
 8002f74:	69a2      	ldr	r2, [r4, #24]
 8002f76:	f8d6 3108 	ldr.w	r3, [r6, #264]	; 0x108
 8002f7a:	f023 030f 	bic.w	r3, r3, #15
 8002f7e:	ea43 1312 	orr.w	r3, r3, r2, lsr #4
 8002f82:	f8c6 3108 	str.w	r3, [r6, #264]	; 0x108
 8002f86:	f7ff f899 	bl	80020bc <HAL_GetTick>
 8002f8a:	4607      	mov	r7, r0
 8002f8c:	f8d6 3108 	ldr.w	r3, [r6, #264]	; 0x108
 8002f90:	03d9      	lsls	r1, r3, #15
 8002f92:	d405      	bmi.n	8002fa0 <HAL_RCC_ClockConfig+0xdc>
 8002f94:	f7ff f892 	bl	80020bc <HAL_GetTick>
 8002f98:	1bc0      	subs	r0, r0, r7
 8002f9a:	2802      	cmp	r0, #2
 8002f9c:	d9f6      	bls.n	8002f8c <HAL_RCC_ClockConfig+0xc8>
 8002f9e:	e7c8      	b.n	8002f32 <HAL_RCC_ClockConfig+0x6e>
 8002fa0:	6823      	ldr	r3, [r4, #0]
 8002fa2:	075a      	lsls	r2, r3, #29
 8002fa4:	d513      	bpl.n	8002fce <HAL_RCC_ClockConfig+0x10a>
 8002fa6:	f04f 46b0 	mov.w	r6, #1476395008	; 0x58000000
 8002faa:	68e2      	ldr	r2, [r4, #12]
 8002fac:	68b3      	ldr	r3, [r6, #8]
 8002fae:	f423 63e0 	bic.w	r3, r3, #1792	; 0x700
 8002fb2:	4313      	orrs	r3, r2
 8002fb4:	60b3      	str	r3, [r6, #8]
 8002fb6:	f7ff f881 	bl	80020bc <HAL_GetTick>
 8002fba:	4607      	mov	r7, r0
 8002fbc:	68b3      	ldr	r3, [r6, #8]
 8002fbe:	039b      	lsls	r3, r3, #14
 8002fc0:	d405      	bmi.n	8002fce <HAL_RCC_ClockConfig+0x10a>
 8002fc2:	f7ff f87b 	bl	80020bc <HAL_GetTick>
 8002fc6:	1bc0      	subs	r0, r0, r7
