Archive member included to satisfy reference by file (symbol)

c:/st/stm32cubeide_1.4.0/stm32cubeide/plugins/com.st.stm32cube.ide.mcu.externaltools.gnu-tools-for-stm32.7-2018-q2-update.win32_1.5.0.202011040924/tools/bin/../lib/gcc/arm-none-eabi/7.3.1/../../../../arm-none-eabi/lib/thumb/v7e-m/fpv4-sp/hard\libc_nano.a(lib_a-errno.o)
                              Application/User/syscalls.o (__errno)
c:/st/stm32cubeide_1.4.0/stm32cubeide/plugins/com.st.stm32cube.ide.mcu.externaltools.gnu-tools-for-stm32.7-2018-q2-update.win32_1.5.0.202011040924/tools/bin/../lib/gcc/arm-none-eabi/7.3.1/../../../../arm-none-eabi/lib/thumb/v7e-m/fpv4-sp/hard\libc_nano.a(lib_a-exit.o)
                              c:/st/stm32cubeide_1.4.0/stm32cubeide/plugins/com.st.stm32cube.ide.mcu.externaltools.gnu-tools-for-stm32.7-2018-q2-update.win32_1.5.0.202011040924/tools/bin/../lib/gcc/arm-none-eabi/7.3.1/../../../../arm-none-eabi/lib/thumb/v7e-m/fpv4-sp/hard/crt0.o (exit)
c:/st/stm32cubeide_1.4.0/stm32cubeide/plugins/com.st.stm32cube.ide.mcu.externaltools.gnu-tools-for-stm32.7-2018-q2-update.win32_1.5.0.202011040924/tools/bin/../lib/gcc/arm-none-eabi/7.3.1/../../../../arm-none-eabi/lib/thumb/v7e-m/fpv4-sp/hard\libc_nano.a(lib_a-impure.o)
                              c:/st/stm32cubeide_1.4.0/stm32cubeide/plugins/com.st.stm32cube.ide.mcu.externaltools.gnu-tools-for-stm32.7-2018-q2-update.win32_1.5.0.202011040924/tools/bin/../lib/gcc/arm-none-eabi/7.3.1/../../../../arm-none-eabi/lib/thumb/v7e-m/fpv4-sp/hard\libc_nano.a(lib_a-exit.o) (_global_impure_ptr)
c:/st/stm32cubeide_1.4.0/stm32cubeide/plugins/com.st.stm32cube.ide.mcu.externaltools.gnu-tools-for-stm32.7-2018-q2-update.win32_1.5.0.202011040924/tools/bin/../lib/gcc/arm-none-eabi/7.3.1/../../../../arm-none-eabi/lib/thumb/v7e-m/fpv4-sp/hard\libc_nano.a(lib_a-init.o)
                              c:/st/stm32cubeide_1.4.0/stm32cubeide/plugins/com.st.stm32cube.ide.mcu.externaltools.gnu-tools-for-stm32.7-2018-q2-update.win32_1.5.0.202011040924/tools/bin/../lib/gcc/arm-none-eabi/7.3.1/../../../../arm-none-eabi/lib/thumb/v7e-m/fpv4-sp/hard/crt0.o (__libc_init_array)
c:/st/stm32cubeide_1.4.0/stm32cubeide/plugins/com.st.stm32cube.ide.mcu.externaltools.gnu-tools-for-stm32.7-2018-q2-update.win32_1.5.0.202011040924/tools/bin/../lib/gcc/arm-none-eabi/7.3.1/../../../../arm-none-eabi/lib/thumb/v7e-m/fpv4-sp/hard\libc_nano.a(lib_a-memcmp.o)
                              Middlewares/STM32_WPAN/osal.o (memcmp)
c:/st/stm32cubeide_1.4.0/stm32cubeide/plugins/com.st.stm32cube.ide.mcu.externaltools.gnu-tools-for-stm32.7-2018-q2-update.win32_1.5.0.202011040924/tools/bin/../lib/gcc/arm-none-eabi/7.3.1/../../../../arm-none-eabi/lib/thumb/v7e-m/fpv4-sp/hard\libc_nano.a(lib_a-memcpy-stub.o)
                              Middlewares/STM32_WPAN/hci_tl.o (memcpy)
c:/st/stm32cubeide_1.4.0/stm32cubeide/plugins/com.st.stm32cube.ide.mcu.externaltools.gnu-tools-for-stm32.7-2018-q2-update.win32_1.5.0.202011040924/tools/bin/../lib/gcc/arm-none-eabi/7.3.1/../../../../arm-none-eabi/lib/thumb/v7e-m/fpv4-sp/hard\libc_nano.a(lib_a-memset.o)
                              c:/st/stm32cubeide_1.4.0/stm32cubeide/plugins/com.st.stm32cube.ide.mcu.externaltools.gnu-tools-for-stm32.7-2018-q2-update.win32_1.5.0.202011040924/tools/bin/../lib/gcc/arm-none-eabi/7.3.1/../../../../arm-none-eabi/lib/thumb/v7e-m/fpv4-sp/hard/crt0.o (memset)
c:/st/stm32cubeide_1.4.0/stm32cubeide/plugins/com.st.stm32cube.ide.mcu.externaltools.gnu-tools-for-stm32.7-2018-q2-update.win32_1.5.0.202011040924/tools/bin/../lib/gcc/arm-none-eabi/7.3.1/../../../../arm-none-eabi/lib/thumb/v7e-m/fpv4-sp/hard\libc_nano.a(lib_a-printf.o)
                              Application/User/STM32_WPAN/App/app_ble.o (printf)
c:/st/stm32cubeide_1.4.0/stm32cubeide/plugins/com.st.stm32cube.ide.mcu.externaltools.gnu-tools-for-stm32.7-2018-q2-update.win32_1.5.0.202011040924/tools/bin/../lib/gcc/arm-none-eabi/7.3.1/../../../../arm-none-eabi/lib/thumb/v7e-m/fpv4-sp/hard\libc_nano.a(lib_a-puts.o)
                              Application/User/STM32_WPAN/App/app_ble.o (puts)
c:/st/stm32cubeide_1.4.0/stm32cubeide/plugins/com.st.stm32cube.ide.mcu.externaltools.gnu-tools-for-stm32.7-2018-q2-update.win32_1.5.0.202011040924/tools/bin/../lib/gcc/arm-none-eabi/7.3.1/../../../../arm-none-eabi/lib/thumb/v7e-m/fpv4-sp/hard\libc_nano.a(lib_a-strrchr.o)
                              Utilities/dbg_trace.o (strrchr)
c:/st/stm32cubeide_1.4.0/stm32cubeide/plugins/com.st.stm32cube.ide.mcu.externaltools.gnu-tools-for-stm32.7-2018-q2-update.win32_1.5.0.202011040924/tools/bin/../lib/gcc/arm-none-eabi/7.3.1/../../../../arm-none-eabi/lib/thumb/v7e-m/fpv4-sp/hard\libc_nano.a(lib_a-vprintf.o)
                              Utilities/dbg_trace.o (vprintf)
c:/st/stm32cubeide_1.4.0/stm32cubeide/plugins/com.st.stm32cube.ide.mcu.externaltools.gnu-tools-for-stm32.7-2018-q2-update.win32_1.5.0.202011040924/tools/bin/../lib/gcc/arm-none-eabi/7.3.1/../../../../arm-none-eabi/lib/thumb/v7e-m/fpv4-sp/hard\libc_nano.a(lib_a-wbuf.o)
                              c:/st/stm32cubeide_1.4.0/stm32cubeide/plugins/com.st.stm32cube.ide.mcu.externaltools.gnu-tools-for-stm32.7-2018-q2-update.win32_1.5.0.202011040924/tools/bin/../lib/gcc/arm-none-eabi/7.3.1/../../../../arm-none-eabi/lib/thumb/v7e-m/fpv4-sp/hard\libc_nano.a(lib_a-puts.o) (__swbuf_r)
c:/st/stm32cubeide_1.4.0/stm32cubeide/plugins/com.st.stm32cube.ide.mcu.externaltools.gnu-tools-for-stm32.7-2018-q2-update.win32_1.5.0.202011040924/tools/bin/../lib/gcc/arm-none-eabi/7.3.1/../../../../arm-none-eabi/lib/thumb/v7e-m/fpv4-sp/hard\libc_nano.a(lib_a-wsetup.o)
                              c:/st/stm32cubeide_1.4.0/stm32cubeide/plugins/com.st.stm32cube.ide.mcu.externaltools.gnu-tools-for-stm32.7-2018-q2-update.win32_1.5.0.202011040924/tools/bin/../lib/gcc/arm-none-eabi/7.3.1/../../../../arm-none-eabi/lib/thumb/v7e-m/fpv4-sp/hard\libc_nano.a(lib_a-puts.o) (__swsetup_r)
c:/st/stm32cubeide_1.4.0/stm32cubeide/plugins/com.st.stm32cube.ide.mcu.externaltools.gnu-tools-for-stm32.7-2018-q2-update.win32_1.5.0.202011040924/tools/bin/../lib/gcc/arm-none-eabi/7.3.1/../../../../arm-none-eabi/lib/thumb/v7e-m/fpv4-sp/hard\libc_nano.a(lib_a-fflush.o)
                              c:/st/stm32cubeide_1.4.0/stm32cubeide/plugins/com.st.stm32cube.ide.mcu.externaltools.gnu-tools-for-stm32.7-2018-q2-update.win32_1.5.0.202011040924/tools/bin/../lib/gcc/arm-none-eabi/7.3.1/../../../../arm-none-eabi/lib/thumb/v7e-m/fpv4-sp/hard\libc_nano.a(lib_a-wbuf.o) (_fflush_r)
c:/st/stm32cubeide_1.4.0/stm32cubeide/plugins/com.st.stm32cube.ide.mcu.externaltools.gnu-tools-for-stm32.7-2018-q2-update.win32_1.5.0.202011040924/tools/bin/../lib/gcc/arm-none-eabi/7.3.1/../../../../arm-none-eabi/lib/thumb/v7e-m/fpv4-sp/hard\libc_nano.a(lib_a-findfp.o)
                              c:/st/stm32cubeide_1.4.0/stm32cubeide/plugins/com.st.stm32cube.ide.mcu.externaltools.gnu-tools-for-stm32.7-2018-q2-update.win32_1.5.0.202011040924/tools/bin/../lib/gcc/arm-none-eabi/7.3.1/../../../../arm-none-eabi/lib/thumb/v7e-m/fpv4-sp/hard\libc_nano.a(lib_a-printf.o) (__sinit)
c:/st/stm32cubeide_1.4.0/stm32cubeide/plugins/com.st.stm32cube.ide.mcu.externaltools.gnu-tools-for-stm32.7-2018-q2-update.win32_1.5.0.202011040924/tools/bin/../lib/gcc/arm-none-eabi/7.3.1/../../../../arm-none-eabi/lib/thumb/v7e-m/fpv4-sp/hard\libc_nano.a(lib_a-fwalk.o)
                              c:/st/stm32cubeide_1.4.0/stm32cubeide/plugins/com.st.stm32cube.ide.mcu.externaltools.gnu-tools-for-stm32.7-2018-q2-update.win32_1.5.0.202011040924/tools/bin/../lib/gcc/arm-none-eabi/7.3.1/../../../../arm-none-eabi/lib/thumb/v7e-m/fpv4-sp/hard\libc_nano.a(lib_a-findfp.o) (_fwalk)
c:/st/stm32cubeide_1.4.0/stm32cubeide/plugins/com.st.stm32cube.ide.mcu.externaltools.gnu-tools-for-stm32.7-2018-q2-update.win32_1.5.0.202011040924/tools/bin/../lib/gcc/arm-none-eabi/7.3.1/../../../../arm-none-eabi/lib/thumb/v7e-m/fpv4-sp/hard\libc_nano.a(lib_a-makebuf.o)
                              c:/st/stm32cubeide_1.4.0/stm32cubeide/plugins/com.st.stm32cube.ide.mcu.externaltools.gnu-tools-for-stm32.7-2018-q2-update.win32_1.5.0.202011040924/tools/bin/../lib/gcc/arm-none-eabi/7.3.1/../../../../arm-none-eabi/lib/thumb/v7e-m/fpv4-sp/hard\libc_nano.a(lib_a-wsetup.o) (__smakebuf_r)
c:/st/stm32cubeide_1.4.0/stm32cubeide/plugins/com.st.stm32cube.ide.mcu.externaltools.gnu-tools-for-stm32.7-2018-q2-update.win32_1.5.0.202011040924/tools/bin/../lib/gcc/arm-none-eabi/7.3.1/../../../../arm-none-eabi/lib/thumb/v7e-m/fpv4-sp/hard\libc_nano.a(lib_a-nano-freer.o)
                              c:/st/stm32cubeide_1.4.0/stm32cubeide/plugins/com.st.stm32cube.ide.mcu.externaltools.gnu-tools-for-stm32.7-2018-q2-update.win32_1.5.0.202011040924/tools/bin/../lib/gcc/arm-none-eabi/7.3.1/../../../../arm-none-eabi/lib/thumb/v7e-m/fpv4-sp/hard\libc_nano.a(lib_a-wsetup.o) (_free_r)
c:/st/stm32cubeide_1.4.0/stm32cubeide/plugins/com.st.stm32cube.ide.mcu.externaltools.gnu-tools-for-stm32.7-2018-q2-update.win32_1.5.0.202011040924/tools/bin/../lib/gcc/arm-none-eabi/7.3.1/../../../../arm-none-eabi/lib/thumb/v7e-m/fpv4-sp/hard\libc_nano.a(lib_a-nano-mallocr.o)
                              c:/st/stm32cubeide_1.4.0/stm32cubeide/plugins/com.st.stm32cube.ide.mcu.externaltools.gnu-tools-for-stm32.7-2018-q2-update.win32_1.5.0.202011040924/tools/bin/../lib/gcc/arm-none-eabi/7.3.1/../../../../arm-none-eabi/lib/thumb/v7e-m/fpv4-sp/hard\libc_nano.a(lib_a-findfp.o) (_malloc_r)
c:/st/stm32cubeide_1.4.0/stm32cubeide/plugins/com.st.stm32cube.ide.mcu.externaltools.gnu-tools-for-stm32.7-2018-q2-update.win32_1.5.0.202011040924/tools/bin/../lib/gcc/arm-none-eabi/7.3.1/../../../../arm-none-eabi/lib/thumb/v7e-m/fpv4-sp/hard\libc_nano.a(lib_a-nano-vfprintf.o)
                              c:/st/stm32cubeide_1.4.0/stm32cubeide/plugins/com.st.stm32cube.ide.mcu.externaltools.gnu-tools-for-stm32.7-2018-q2-update.win32_1.5.0.202011040924/tools/bin/../lib/gcc/arm-none-eabi/7.3.1/../../../../arm-none-eabi/lib/thumb/v7e-m/fpv4-sp/hard\libc_nano.a(lib_a-printf.o) (_vfprintf_r)
c:/st/stm32cubeide_1.4.0/stm32cubeide/plugins/com.st.stm32cube.ide.mcu.externaltools.gnu-tools-for-stm32.7-2018-q2-update.win32_1.5.0.202011040924/tools/bin/../lib/gcc/arm-none-eabi/7.3.1/../../../../arm-none-eabi/lib/thumb/v7e-m/fpv4-sp/hard\libc_nano.a(lib_a-nano-vfprintf_i.o)
                              c:/st/stm32cubeide_1.4.0/stm32cubeide/plugins/com.st.stm32cube.ide.mcu.externaltools.gnu-tools-for-stm32.7-2018-q2-update.win32_1.5.0.202011040924/tools/bin/../lib/gcc/arm-none-eabi/7.3.1/../../../../arm-none-eabi/lib/thumb/v7e-m/fpv4-sp/hard\libc_nano.a(lib_a-nano-vfprintf.o) (_printf_i)
c:/st/stm32cubeide_1.4.0/stm32cubeide/plugins/com.st.stm32cube.ide.mcu.externaltools.gnu-tools-for-stm32.7-2018-q2-update.win32_1.5.0.202011040924/tools/bin/../lib/gcc/arm-none-eabi/7.3.1/../../../../arm-none-eabi/lib/thumb/v7e-m/fpv4-sp/hard\libc_nano.a(lib_a-sbrkr.o)
                              c:/st/stm32cubeide_1.4.0/stm32cubeide/plugins/com.st.stm32cube.ide.mcu.externaltools.gnu-tools-for-stm32.7-2018-q2-update.win32_1.5.0.202011040924/tools/bin/../lib/gcc/arm-none-eabi/7.3.1/../../../../arm-none-eabi/lib/thumb/v7e-m/fpv4-sp/hard\libc_nano.a(lib_a-nano-mallocr.o) (_sbrk_r)
c:/st/stm32cubeide_1.4.0/stm32cubeide/plugins/com.st.stm32cube.ide.mcu.externaltools.gnu-tools-for-stm32.7-2018-q2-update.win32_1.5.0.202011040924/tools/bin/../lib/gcc/arm-none-eabi/7.3.1/../../../../arm-none-eabi/lib/thumb/v7e-m/fpv4-sp/hard\libc_nano.a(lib_a-stdio.o)
                              c:/st/stm32cubeide_1.4.0/stm32cubeide/plugins/com.st.stm32cube.ide.mcu.externaltools.gnu-tools-for-stm32.7-2018-q2-update.win32_1.5.0.202011040924/tools/bin/../lib/gcc/arm-none-eabi/7.3.1/../../../../arm-none-eabi/lib/thumb/v7e-m/fpv4-sp/hard\libc_nano.a(lib_a-findfp.o) (__sread)
c:/st/stm32cubeide_1.4.0/stm32cubeide/plugins/com.st.stm32cube.ide.mcu.externaltools.gnu-tools-for-stm32.7-2018-q2-update.win32_1.5.0.202011040924/tools/bin/../lib/gcc/arm-none-eabi/7.3.1/../../../../arm-none-eabi/lib/thumb/v7e-m/fpv4-sp/hard\libc_nano.a(lib_a-strchr.o)
                              c:/st/stm32cubeide_1.4.0/stm32cubeide/plugins/com.st.stm32cube.ide.mcu.externaltools.gnu-tools-for-stm32.7-2018-q2-update.win32_1.5.0.202011040924/tools/bin/../lib/gcc/arm-none-eabi/7.3.1/../../../../arm-none-eabi/lib/thumb/v7e-m/fpv4-sp/hard\libc_nano.a(lib_a-strrchr.o) (strchr)
c:/st/stm32cubeide_1.4.0/stm32cubeide/plugins/com.st.stm32cube.ide.mcu.externaltools.gnu-tools-for-stm32.7-2018-q2-update.win32_1.5.0.202011040924/tools/bin/../lib/gcc/arm-none-eabi/7.3.1/../../../../arm-none-eabi/lib/thumb/v7e-m/fpv4-sp/hard\libc_nano.a(lib_a-writer.o)
                              c:/st/stm32cubeide_1.4.0/stm32cubeide/plugins/com.st.stm32cube.ide.mcu.externaltools.gnu-tools-for-stm32.7-2018-q2-update.win32_1.5.0.202011040924/tools/bin/../lib/gcc/arm-none-eabi/7.3.1/../../../../arm-none-eabi/lib/thumb/v7e-m/fpv4-sp/hard\libc_nano.a(lib_a-stdio.o) (_write_r)
c:/st/stm32cubeide_1.4.0/stm32cubeide/plugins/com.st.stm32cube.ide.mcu.externaltools.gnu-tools-for-stm32.7-2018-q2-update.win32_1.5.0.202011040924/tools/bin/../lib/gcc/arm-none-eabi/7.3.1/../../../../arm-none-eabi/lib/thumb/v7e-m/fpv4-sp/hard\libc_nano.a(lib_a-closer.o)
                              c:/st/stm32cubeide_1.4.0/stm32cubeide/plugins/com.st.stm32cube.ide.mcu.externaltools.gnu-tools-for-stm32.7-2018-q2-update.win32_1.5.0.202011040924/tools/bin/../lib/gcc/arm-none-eabi/7.3.1/../../../../arm-none-eabi/lib/thumb/v7e-m/fpv4-sp/hard\libc_nano.a(lib_a-stdio.o) (_close_r)
c:/st/stm32cubeide_1.4.0/stm32cubeide/plugins/com.st.stm32cube.ide.mcu.externaltools.gnu-tools-for-stm32.7-2018-q2-update.win32_1.5.0.202011040924/tools/bin/../lib/gcc/arm-none-eabi/7.3.1/../../../../arm-none-eabi/lib/thumb/v7e-m/fpv4-sp/hard\libc_nano.a(lib_a-fstatr.o)
                              c:/st/stm32cubeide_1.4.0/stm32cubeide/plugins/com.st.stm32cube.ide.mcu.externaltools.gnu-tools-for-stm32.7-2018-q2-update.win32_1.5.0.202011040924/tools/bin/../lib/gcc/arm-none-eabi/7.3.1/../../../../arm-none-eabi/lib/thumb/v7e-m/fpv4-sp/hard\libc_nano.a(lib_a-makebuf.o) (_fstat_r)
c:/st/stm32cubeide_1.4.0/stm32cubeide/plugins/com.st.stm32cube.ide.mcu.externaltools.gnu-tools-for-stm32.7-2018-q2-update.win32_1.5.0.202011040924/tools/bin/../lib/gcc/arm-none-eabi/7.3.1/../../../../arm-none-eabi/lib/thumb/v7e-m/fpv4-sp/hard\libc_nano.a(lib_a-fvwrite.o)
                              c:/st/stm32cubeide_1.4.0/stm32cubeide/plugins/com.st.stm32cube.ide.mcu.externaltools.gnu-tools-for-stm32.7-2018-q2-update.win32_1.5.0.202011040924/tools/bin/../lib/gcc/arm-none-eabi/7.3.1/../../../../arm-none-eabi/lib/thumb/v7e-m/fpv4-sp/hard\libc_nano.a(lib_a-nano-vfprintf.o) (__sfvwrite_r)
c:/st/stm32cubeide_1.4.0/stm32cubeide/plugins/com.st.stm32cube.ide.mcu.externaltools.gnu-tools-for-stm32.7-2018-q2-update.win32_1.5.0.202011040924/tools/bin/../lib/gcc/arm-none-eabi/7.3.1/../../../../arm-none-eabi/lib/thumb/v7e-m/fpv4-sp/hard\libc_nano.a(lib_a-isattyr.o)
                              c:/st/stm32cubeide_1.4.0/stm32cubeide/plugins/com.st.stm32cube.ide.mcu.externaltools.gnu-tools-for-stm32.7-2018-q2-update.win32_1.5.0.202011040924/tools/bin/../lib/gcc/arm-none-eabi/7.3.1/../../../../arm-none-eabi/lib/thumb/v7e-m/fpv4-sp/hard\libc_nano.a(lib_a-makebuf.o) (_isatty_r)
c:/st/stm32cubeide_1.4.0/stm32cubeide/plugins/com.st.stm32cube.ide.mcu.externaltools.gnu-tools-for-stm32.7-2018-q2-update.win32_1.5.0.202011040924/tools/bin/../lib/gcc/arm-none-eabi/7.3.1/../../../../arm-none-eabi/lib/thumb/v7e-m/fpv4-sp/hard\libc_nano.a(lib_a-lseekr.o)
                              c:/st/stm32cubeide_1.4.0/stm32cubeide/plugins/com.st.stm32cube.ide.mcu.externaltools.gnu-tools-for-stm32.7-2018-q2-update.win32_1.5.0.202011040924/tools/bin/../lib/gcc/arm-none-eabi/7.3.1/../../../../arm-none-eabi/lib/thumb/v7e-m/fpv4-sp/hard\libc_nano.a(lib_a-stdio.o) (_lseek_r)
c:/st/stm32cubeide_1.4.0/stm32cubeide/plugins/com.st.stm32cube.ide.mcu.externaltools.gnu-tools-for-stm32.7-2018-q2-update.win32_1.5.0.202011040924/tools/bin/../lib/gcc/arm-none-eabi/7.3.1/../../../../arm-none-eabi/lib/thumb/v7e-m/fpv4-sp/hard\libc_nano.a(lib_a-memchr.o)
                              c:/st/stm32cubeide_1.4.0/stm32cubeide/plugins/com.st.stm32cube.ide.mcu.externaltools.gnu-tools-for-stm32.7-2018-q2-update.win32_1.5.0.202011040924/tools/bin/../lib/gcc/arm-none-eabi/7.3.1/../../../../arm-none-eabi/lib/thumb/v7e-m/fpv4-sp/hard\libc_nano.a(lib_a-nano-vfprintf.o) (memchr)
c:/st/stm32cubeide_1.4.0/stm32cubeide/plugins/com.st.stm32cube.ide.mcu.externaltools.gnu-tools-for-stm32.7-2018-q2-update.win32_1.5.0.202011040924/tools/bin/../lib/gcc/arm-none-eabi/7.3.1/../../../../arm-none-eabi/lib/thumb/v7e-m/fpv4-sp/hard\libc_nano.a(lib_a-memmove.o)
                              c:/st/stm32cubeide_1.4.0/stm32cubeide/plugins/com.st.stm32cube.ide.mcu.externaltools.gnu-tools-for-stm32.7-2018-q2-update.win32_1.5.0.202011040924/tools/bin/../lib/gcc/arm-none-eabi/7.3.1/../../../../arm-none-eabi/lib/thumb/v7e-m/fpv4-sp/hard\libc_nano.a(lib_a-fvwrite.o) (memmove)
c:/st/stm32cubeide_1.4.0/stm32cubeide/plugins/com.st.stm32cube.ide.mcu.externaltools.gnu-tools-for-stm32.7-2018-q2-update.win32_1.5.0.202011040924/tools/bin/../lib/gcc/arm-none-eabi/7.3.1/../../../../arm-none-eabi/lib/thumb/v7e-m/fpv4-sp/hard\libc_nano.a(lib_a-mlock.o)
                              c:/st/stm32cubeide_1.4.0/stm32cubeide/plugins/com.st.stm32cube.ide.mcu.externaltools.gnu-tools-for-stm32.7-2018-q2-update.win32_1.5.0.202011040924/tools/bin/../lib/gcc/arm-none-eabi/7.3.1/../../../../arm-none-eabi/lib/thumb/v7e-m/fpv4-sp/hard\libc_nano.a(lib_a-nano-freer.o) (__malloc_lock)
c:/st/stm32cubeide_1.4.0/stm32cubeide/plugins/com.st.stm32cube.ide.mcu.externaltools.gnu-tools-for-stm32.7-2018-q2-update.win32_1.5.0.202011040924/tools/bin/../lib/gcc/arm-none-eabi/7.3.1/../../../../arm-none-eabi/lib/thumb/v7e-m/fpv4-sp/hard\libc_nano.a(lib_a-nano-reallocr.o)
                              c:/st/stm32cubeide_1.4.0/stm32cubeide/plugins/com.st.stm32cube.ide.mcu.externaltools.gnu-tools-for-stm32.7-2018-q2-update.win32_1.5.0.202011040924/tools/bin/../lib/gcc/arm-none-eabi/7.3.1/../../../../arm-none-eabi/lib/thumb/v7e-m/fpv4-sp/hard\libc_nano.a(lib_a-fvwrite.o) (_realloc_r)
c:/st/stm32cubeide_1.4.0/stm32cubeide/plugins/com.st.stm32cube.ide.mcu.externaltools.gnu-tools-for-stm32.7-2018-q2-update.win32_1.5.0.202011040924/tools/bin/../lib/gcc/arm-none-eabi/7.3.1/../../../../arm-none-eabi/lib/thumb/v7e-m/fpv4-sp/hard\libc_nano.a(lib_a-readr.o)
                              c:/st/stm32cubeide_1.4.0/stm32cubeide/plugins/com.st.stm32cube.ide.mcu.externaltools.gnu-tools-for-stm32.7-2018-q2-update.win32_1.5.0.202011040924/tools/bin/../lib/gcc/arm-none-eabi/7.3.1/../../../../arm-none-eabi/lib/thumb/v7e-m/fpv4-sp/hard\libc_nano.a(lib_a-stdio.o) (_read_r)
c:/st/stm32cubeide_1.4.0/stm32cubeide/plugins/com.st.stm32cube.ide.mcu.externaltools.gnu-tools-for-stm32.7-2018-q2-update.win32_1.5.0.202011040924/tools/bin/../lib/gcc/arm-none-eabi/7.3.1/../../../../arm-none-eabi/lib/thumb/v7e-m/fpv4-sp/hard\libc_nano.a(lib_a-reent.o)
                              c:/st/stm32cubeide_1.4.0/stm32cubeide/plugins/com.st.stm32cube.ide.mcu.externaltools.gnu-tools-for-stm32.7-2018-q2-update.win32_1.5.0.202011040924/tools/bin/../lib/gcc/arm-none-eabi/7.3.1/../../../../arm-none-eabi/lib/thumb/v7e-m/fpv4-sp/hard\libc_nano.a(lib_a-sbrkr.o) (errno)
c:/st/stm32cubeide_1.4.0/stm32cubeide/plugins/com.st.stm32cube.ide.mcu.externaltools.gnu-tools-for-stm32.7-2018-q2-update.win32_1.5.0.202011040924/tools/bin/../lib/gcc/arm-none-eabi/7.3.1/../../../../arm-none-eabi/lib/thumb/v7e-m/fpv4-sp/hard\libc_nano.a(lib_a-nano-msizer.o)
                              c:/st/stm32cubeide_1.4.0/stm32cubeide/plugins/com.st.stm32cube.ide.mcu.externaltools.gnu-tools-for-stm32.7-2018-q2-update.win32_1.5.0.202011040924/tools/bin/../lib/gcc/arm-none-eabi/7.3.1/../../../../arm-none-eabi/lib/thumb/v7e-m/fpv4-sp/hard\libc_nano.a(lib_a-nano-reallocr.o) (_malloc_usable_size_r)
c:/st/stm32cubeide_1.4.0/stm32cubeide/plugins/com.st.stm32cube.ide.mcu.externaltools.gnu-tools-for-stm32.7-2018-q2-update.win32_1.5.0.202011040924/tools/bin/../lib/gcc/arm-none-eabi/7.3.1/thumb/v7e-m/fpv4-sp/hard\libgcc.a(_aeabi_ldivmod.o)
                              Drivers/STM32WBxx_HAL_Driver/stm32wbxx_hal_uart.o (__aeabi_ldivmod)
c:/st/stm32cubeide_1.4.0/stm32cubeide/plugins/com.st.stm32cube.ide.mcu.externaltools.gnu-tools-for-stm32.7-2018-q2-update.win32_1.5.0.202011040924/tools/bin/../lib/gcc/arm-none-eabi/7.3.1/thumb/v7e-m/fpv4-sp/hard\libgcc.a(_aeabi_uldivmod.o)
                              Drivers/STM32WBxx_HAL_Driver/stm32wbxx_hal_uart.o (__aeabi_uldivmod)
c:/st/stm32cubeide_1.4.0/stm32cubeide/plugins/com.st.stm32cube.ide.mcu.externaltools.gnu-tools-for-stm32.7-2018-q2-update.win32_1.5.0.202011040924/tools/bin/../lib/gcc/arm-none-eabi/7.3.1/thumb/v7e-m/fpv4-sp/hard\libgcc.a(_udivmoddi4.o)
                              c:/st/stm32cubeide_1.4.0/stm32cubeide/plugins/com.st.stm32cube.ide.mcu.externaltools.gnu-tools-for-stm32.7-2018-q2-update.win32_1.5.0.202011040924/tools/bin/../lib/gcc/arm-none-eabi/7.3.1/thumb/v7e-m/fpv4-sp/hard\libgcc.a(_aeabi_ldivmod.o) (__udivmoddi4)
c:/st/stm32cubeide_1.4.0/stm32cubeide/plugins/com.st.stm32cube.ide.mcu.externaltools.gnu-tools-for-stm32.7-2018-q2-update.win32_1.5.0.202011040924/tools/bin/../lib/gcc/arm-none-eabi/7.3.1/thumb/v7e-m/fpv4-sp/hard\libgcc.a(_dvmd_tls.o)
                              c:/st/stm32cubeide_1.4.0/stm32cubeide/plugins/com.st.stm32cube.ide.mcu.externaltools.gnu-tools-for-stm32.7-2018-q2-update.win32_1.5.0.202011040924/tools/bin/../lib/gcc/arm-none-eabi/7.3.1/thumb/v7e-m/fpv4-sp/hard\libgcc.a(_aeabi_ldivmod.o) (__aeabi_ldiv0)

Allocating common symbols
Common symbol       size              file

errno               0x4               c:/st/stm32cubeide_1.4.0/stm32cubeide/plugins/com.st.stm32cube.ide.mcu.externaltools.gnu-tools-for-stm32.7-2018-q2-update.win32_1.5.0.202011040924/tools/bin/../lib/gcc/arm-none-eabi/7.3.1/../../../../arm-none-eabi/lib/thumb/v7e-m/fpv4-sp/hard\libc_nano.a(lib_a-reent.o)
HW_huart1RxCb       0x4               Application/User/hw_uart.o
uwTick              0x4               Drivers/STM32WBxx_HAL_Driver/stm32wbxx_hal.o
CusChHdle           0x2               Middlewares/STM32_WPAN/dis.o
hlpuart1            0x8c              Application/User/main.o
CusSvcHdle          0x2               Middlewares/STM32_WPAN/dis.o
hdma_usart1_tx      0x60              Application/User/main.o
huart1              0x8c              Application/User/main.o
hrtc                0x24              Application/User/main.o
hdma_lpuart1_tx     0x60              Application/User/main.o
HW_huart1TxCb       0x4               Application/User/hw_uart.o

Discarded input sections

 .text          0x0000000000000000        0x0 c:/st/stm32cubeide_1.4.0/stm32cubeide/plugins/com.st.stm32cube.ide.mcu.externaltools.gnu-tools-for-stm32.7-2018-q2-update.win32_1.5.0.202011040924/tools/bin/../lib/gcc/arm-none-eabi/7.3.1/thumb/v7e-m/fpv4-sp/hard/crti.o
 .data          0x0000000000000000        0x0 c:/st/stm32cubeide_1.4.0/stm32cubeide/plugins/com.st.stm32cube.ide.mcu.externaltools.gnu-tools-for-stm32.7-2018-q2-update.win32_1.5.0.202011040924/tools/bin/../lib/gcc/arm-none-eabi/7.3.1/thumb/v7e-m/fpv4-sp/hard/crti.o
 .bss           0x0000000000000000        0x0 c:/st/stm32cubeide_1.4.0/stm32cubeide/plugins/com.st.stm32cube.ide.mcu.externaltools.gnu-tools-for-stm32.7-2018-q2-update.win32_1.5.0.202011040924/tools/bin/../lib/gcc/arm-none-eabi/7.3.1/thumb/v7e-m/fpv4-sp/hard/crti.o
 .data          0x0000000000000000        0x4 c:/st/stm32cubeide_1.4.0/stm32cubeide/plugins/com.st.stm32cube.ide.mcu.externaltools.gnu-tools-for-stm32.7-2018-q2-update.win32_1.5.0.202011040924/tools/bin/../lib/gcc/arm-none-eabi/7.3.1/thumb/v7e-m/fpv4-sp/hard/crtbegin.o
 .text          0x0000000000000000       0x74 c:/st/stm32cubeide_1.4.0/stm32cubeide/plugins/com.st.stm32cube.ide.mcu.externaltools.gnu-tools-for-stm32.7-2018-q2-update.win32_1.5.0.202011040924/tools/bin/../lib/gcc/arm-none-eabi/7.3.1/../../../../arm-none-eabi/lib/thumb/v7e-m/fpv4-sp/hard/crt0.o
 .data          0x0000000000000000        0x0 c:/st/stm32cubeide_1.4.0/stm32cubeide/plugins/com.st.stm32cube.ide.mcu.externaltools.gnu-tools-for-stm32.7-2018-q2-update.win32_1.5.0.202011040924/tools/bin/../lib/gcc/arm-none-eabi/7.3.1/../../../../arm-none-eabi/lib/thumb/v7e-m/fpv4-sp/hard/crt0.o
 .bss           0x0000000000000000        0x0 c:/st/stm32cubeide_1.4.0/stm32cubeide/plugins/com.st.stm32cube.ide.mcu.externaltools.gnu-tools-for-stm32.7-2018-q2-update.win32_1.5.0.202011040924/tools/bin/../lib/gcc/arm-none-eabi/7.3.1/../../../../arm-none-eabi/lib/thumb/v7e-m/fpv4-sp/hard/crt0.o
 .ARM.extab     0x0000000000000000        0x0 c:/st/stm32cubeide_1.4.0/stm32cubeide/plugins/com.st.stm32cube.ide.mcu.externaltools.gnu-tools-for-stm32.7-2018-q2-update.win32_1.5.0.202011040924/tools/bin/../lib/gcc/arm-none-eabi/7.3.1/../../../../arm-none-eabi/lib/thumb/v7e-m/fpv4-sp/hard/crt0.o
 .ARM.exidx     0x0000000000000000        0x8 c:/st/stm32cubeide_1.4.0/stm32cubeide/plugins/com.st.stm32cube.ide.mcu.externaltools.gnu-tools-for-stm32.7-2018-q2-update.win32_1.5.0.202011040924/tools/bin/../lib/gcc/arm-none-eabi/7.3.1/../../../../arm-none-eabi/lib/thumb/v7e-m/fpv4-sp/hard/crt0.o
 .ARM.attributes
                0x0000000000000000       0x20 c:/st/stm32cubeide_1.4.0/stm32cubeide/plugins/com.st.stm32cube.ide.mcu.externaltools.gnu-tools-for-stm32.7-2018-q2-update.win32_1.5.0.202011040924/tools/bin/../lib/gcc/arm-none-eabi/7.3.1/../../../../arm-none-eabi/lib/thumb/v7e-m/fpv4-sp/hard/crt0.o
 .text          0x0000000000000000       0x1c Application/Startup/startup_stm32wb55rgvx.o
 .data          0x0000000000000000        0x0 Application/Startup/startup_stm32wb55rgvx.o
 .bss           0x0000000000000000        0x0 Application/Startup/startup_stm32wb55rgvx.o
 .text          0x0000000000000000        0x0 Application/User/STM32_WPAN/App/app_ble.o
 .data          0x0000000000000000        0x0 Application/User/STM32_WPAN/App/app_ble.o
 .bss           0x0000000000000000        0x0 Application/User/STM32_WPAN/App/app_ble.o
 .text.APP_BLE_Key_Button1_Action
Memory Configuration

Name             Origin             Length             Attributes
FLASH            0x0000000008000000 0x0000000000080000 xr
RAM1             0x0000000020000004 0x000000000002fffc xrw
RAM_SHARED       0x0000000020030000 0x0000000000002800 xrw
*default*        0x0000000000000000 0xffffffffffffffff

Linker script and memory map

LOAD c:/st/stm32cubeide_1.4.0/stm32cubeide/plugins/com.st.stm32cube.ide.mcu.externaltools.gnu-tools-for-stm32.7-2018-q2-update.win32_1.5.0.202011040924/tools/bin/../lib/gcc/arm-none-eabi/7.3.1/thumb/v7e-m/fpv4-sp/hard/crti.o
LOAD c:/st/stm32cubeide_1.4.0/stm32cubeide/plugins/com.st.stm32cube.ide.mcu.externaltools.gnu-tools-for-stm32.7-2018-q2-update.win32_1.5.0.202011040924/tools/bin/../lib/gcc/arm-none-eabi/7.3.1/thumb/v7e-m/fpv4-sp/hard/crtbegin.o
LOAD c:/st/stm32cubeide_1.4.0/stm32cubeide/plugins/com.st.stm32cube.ide.mcu.externaltools.gnu-tools-for-stm32.7-2018-q2-update.win32_1.5.0.202011040924/tools/bin/../lib/gcc/arm-none-eabi/7.3.1/../../../../arm-none-eabi/lib/thumb/v7e-m/fpv4-sp/hard/crt0.o
LOAD Application/Startup/startup_stm32wb55rgvx.o
LOAD Application/User/STM32_WPAN/App/app_ble.o
LOAD Application/User/STM32_WPAN/App/dis_app.o
LOAD Application/User/STM32_WPAN/App/hts_app.o
LOAD Application/User/STM32_WPAN/Target/hw_ipcc.o
LOAD Application/User/app_debug.o
LOAD Application/User/app_entry.o
LOAD Application/User/hw_timerserver.o
LOAD Application/User/hw_uart.o
LOAD Application/User/main.o
LOAD Application/User/stm32_lpm_if.o
LOAD Application/User/stm32wbxx_hal_msp.o
LOAD Application/User/stm32wbxx_it.o
LOAD Application/User/syscalls.o
LOAD Application/User/sysmem.o
LOAD Drivers/BSP/P-NUCLEO-WB55.Nucleo/stm32wbxx_nucleo.o
LOAD Drivers/CMSIS/system_stm32wbxx.o
LOAD Drivers/STM32WBxx_HAL_Driver/stm32wbxx_hal.o
LOAD Drivers/STM32WBxx_HAL_Driver/stm32wbxx_hal_cortex.o
LOAD Drivers/STM32WBxx_HAL_Driver/stm32wbxx_hal_dma.o
LOAD Drivers/STM32WBxx_HAL_Driver/stm32wbxx_hal_dma_ex.o
LOAD Drivers/STM32WBxx_HAL_Driver/stm32wbxx_hal_exti.o
LOAD Drivers/STM32WBxx_HAL_Driver/stm32wbxx_hal_flash.o
LOAD Drivers/STM32WBxx_HAL_Driver/stm32wbxx_hal_flash_ex.o
LOAD Drivers/STM32WBxx_HAL_Driver/stm32wbxx_hal_gpio.o
LOAD Drivers/STM32WBxx_HAL_Driver/stm32wbxx_hal_hsem.o
LOAD Drivers/STM32WBxx_HAL_Driver/stm32wbxx_hal_ipcc.o
LOAD Drivers/STM32WBxx_HAL_Driver/stm32wbxx_hal_pwr.o
LOAD Drivers/STM32WBxx_HAL_Driver/stm32wbxx_hal_pwr_ex.o
LOAD Drivers/STM32WBxx_HAL_Driver/stm32wbxx_hal_rcc.o
LOAD Drivers/STM32WBxx_HAL_Driver/stm32wbxx_hal_rcc_ex.o
LOAD Drivers/STM32WBxx_HAL_Driver/stm32wbxx_hal_rtc.o
LOAD Drivers/STM32WBxx_HAL_Driver/stm32wbxx_hal_rtc_ex.o
LOAD Drivers/STM32WBxx_HAL_Driver/stm32wbxx_hal_tim.o
LOAD Drivers/STM32WBxx_HAL_Driver/stm32wbxx_hal_tim_ex.o
LOAD Drivers/STM32WBxx_HAL_Driver/stm32wbxx_hal_uart.o
LOAD Drivers/STM32WBxx_HAL_Driver/stm32wbxx_hal_uart_ex.o
LOAD Middlewares/STM32_WPAN/ble_gap_aci.o
LOAD Middlewares/STM32_WPAN/ble_gatt_aci.o
LOAD Middlewares/STM32_WPAN/ble_hal_aci.o
LOAD Middlewares/STM32_WPAN/ble_hci_le.o
LOAD Middlewares/STM32_WPAN/ble_l2cap_aci.o
LOAD Middlewares/STM32_WPAN/dis.o
LOAD Middlewares/STM32_WPAN/hci_tl.o
LOAD Middlewares/STM32_WPAN/hci_tl_if.o
LOAD Middlewares/STM32_WPAN/hts.o
LOAD Middlewares/STM32_WPAN/osal.o
LOAD Middlewares/STM32_WPAN/shci.o
LOAD Middlewares/STM32_WPAN/shci_tl.o
LOAD Middlewares/STM32_WPAN/shci_tl_if.o
LOAD Middlewares/STM32_WPAN/svc_ctl.o
LOAD Middlewares/STM32_WPAN/tl_mbox.o
LOAD Utilities/dbg_trace.o
LOAD Utilities/otp.o
LOAD Utilities/stm32_lpm.o
LOAD Utilities/stm32_seq.o
LOAD Utilities/stm_list.o
LOAD Utilities/stm_queue.o
START GROUP
LOAD c:/st/stm32cubeide_1.4.0/stm32cubeide/plugins/com.st.stm32cube.ide.mcu.externaltools.gnu-tools-for-stm32.7-2018-q2-update.win32_1.5.0.202011040924/tools/bin/../lib/gcc/arm-none-eabi/7.3.1/../../../../arm-none-eabi/lib/thumb/v7e-m/fpv4-sp/hard\libc_nano.a
LOAD c:/st/stm32cubeide_1.4.0/stm32cubeide/plugins/com.st.stm32cube.ide.mcu.externaltools.gnu-tools-for-stm32.7-2018-q2-update.win32_1.5.0.202011040924/tools/bin/../lib/gcc/arm-none-eabi/7.3.1/../../../../arm-none-eabi/lib/thumb/v7e-m/fpv4-sp/hard\libm.a
END GROUP
START GROUP
LOAD c:/st/stm32cubeide_1.4.0/stm32cubeide/plugins/com.st.stm32cube.ide.mcu.externaltools.gnu-tools-for-stm32.7-2018-q2-update.win32_1.5.0.202011040924/tools/bin/../lib/gcc/arm-none-eabi/7.3.1/thumb/v7e-m/fpv4-sp/hard\libgcc.a
LOAD c:/st/stm32cubeide_1.4.0/stm32cubeide/plugins/com.st.stm32cube.ide.mcu.externaltools.gnu-tools-for-stm32.7-2018-q2-update.win32_1.5.0.202011040924/tools/bin/../lib/gcc/arm-none-eabi/7.3.1/../../../../arm-none-eabi/lib/thumb/v7e-m/fpv4-sp/hard\libc_nano.a
END GROUP
START GROUP
LOAD c:/st/stm32cubeide_1.4.0/stm32cubeide/plugins/com.st.stm32cube.ide.mcu.externaltools.gnu-tools-for-stm32.7-2018-q2-update.win32_1.5.0.202011040924/tools/bin/../lib/gcc/arm-none-eabi/7.3.1/thumb/v7e-m/fpv4-sp/hard\libgcc.a
LOAD c:/st/stm32cubeide_1.4.0/stm32cubeide/plugins/com.st.stm32cube.ide.mcu.externaltools.gnu-tools-for-stm32.7-2018-q2-update.win32_1.5.0.202011040924/tools/bin/../lib/gcc/arm-none-eabi/7.3.1/../../../../arm-none-eabi/lib/thumb/v7e-m/fpv4-sp/hard\libc_nano.a
LOAD c:/st/stm32cubeide_1.4.0/stm32cubeide/plugins/com.st.stm32cube.ide.mcu.externaltools.gnu-tools-for-stm32.7-2018-q2-update.win32_1.5.0.202011040924/tools/bin/../lib/gcc/arm-none-eabi/7.3.1/../../../../arm-none-eabi/lib/thumb/v7e-m/fpv4-sp/hard\libnosys.a
END GROUP
START GROUP
LOAD c:/st/stm32cubeide_1.4.0/stm32cubeide/plugins/com.st.stm32cube.ide.mcu.externaltools.gnu-tools-for-stm32.7-2018-q2-update.win32_1.5.0.202011040924/tools/bin/../lib/gcc/arm-none-eabi/7.3.1/thumb/v7e-m/fpv4-sp/hard\libgcc.a
LOAD c:/st/stm32cubeide_1.4.0/stm32cubeide/plugins/com.st.stm32cube.ide.mcu.externaltools.gnu-tools-for-stm32.7-2018-q2-update.win32_1.5.0.202011040924/tools/bin/../lib/gcc/arm-none-eabi/7.3.1/../../../../arm-none-eabi/lib/thumb/v7e-m/fpv4-sp/hard\libc_nano.a
LOAD c:/st/stm32cubeide_1.4.0/stm32cubeide/plugins/com.st.stm32cube.ide.mcu.externaltools.gnu-tools-for-stm32.7-2018-q2-update.win32_1.5.0.202011040924/tools/bin/../lib/gcc/arm-none-eabi/7.3.1/../../../../arm-none-eabi/lib/thumb/v7e-m/fpv4-sp/hard\libnosys.a
END GROUP
LOAD c:/st/stm32cubeide_1.4.0/stm32cubeide/plugins/com.st.stm32cube.ide.mcu.externaltools.gnu-tools-for-stm32.7-2018-q2-update.win32_1.5.0.202011040924/tools/bin/../lib/gcc/arm-none-eabi/7.3.1/thumb/v7e-m/fpv4-sp/hard/crtend.o
LOAD c:/st/stm32cubeide_1.4.0/stm32cubeide/plugins/com.st.stm32cube.ide.mcu.externaltools.gnu-tools-for-stm32.7-2018-q2-update.win32_1.5.0.202011040924/tools/bin/../lib/gcc/arm-none-eabi/7.3.1/thumb/v7e-m/fpv4-sp/hard/crtn.o
                0x0000000020030000                _estack = 0x20030000
                0x0000000000000400                _Min_Heap_Size = 0x400
                0x0000000000001000                _Min_Stack_Size = 0x1000

.isr_vector     0x0000000008000000      0x13c
                0x0000000008000000                . = ALIGN (0x4)
 *(.isr_vector)
 .isr_vector    0x0000000008000000      0x13c Application/Startup/startup_stm32wb55rgvx.o
                0x0000000008000000                g_pfnVectors
                0x000000000800013c                . = ALIGN (0x4)

.text           0x0000000008000140     0x66e0
                0x0000000008000140                . = ALIGN (0x4)
 *(.text)
 .text          0x0000000008000140       0x40 c:/st/stm32cubeide_1.4.0/stm32cubeide/plugins/com.st.stm32cube.ide.mcu.externaltools.gnu-tools-for-stm32.7-2018-q2-update.win32_1.5.0.202011040924/tools/bin/../lib/gcc/arm-none-eabi/7.3.1/thumb/v7e-m/fpv4-sp/hard/crtbegin.o
 .text          0x0000000008000180       0xa0 c:/st/stm32cubeide_1.4.0/stm32cubeide/plugins/com.st.stm32cube.ide.mcu.externaltools.gnu-tools-for-stm32.7-2018-q2-update.win32_1.5.0.202011040924/tools/bin/../lib/gcc/arm-none-eabi/7.3.1/../../../../arm-none-eabi/lib/thumb/v7e-m/fpv4-sp/hard\libc_nano.a(lib_a-memchr.o)
                0x0000000008000180                memchr
 .text          0x0000000008000220       0x30 c:/st/stm32cubeide_1.4.0/stm32cubeide/plugins/com.st.stm32cube.ide.mcu.externaltools.gnu-tools-for-stm32.7-2018-q2-update.win32_1.5.0.202011040924/tools/bin/../lib/gcc/arm-none-eabi/7.3.1/thumb/v7e-m/fpv4-sp/hard\libgcc.a(_aeabi_uldivmod.o)
                0x0000000008000220                __aeabi_uldivmod
 .text          0x0000000008000250      0x2cc c:/st/stm32cubeide_1.4.0/stm32cubeide/plugins/com.st.stm32cube.ide.mcu.externaltools.gnu-tools-for-stm32.7-2018-q2-update.win32_1.5.0.202011040924/tools/bin/../lib/gcc/arm-none-eabi/7.3.1/thumb/v7e-m/fpv4-sp/hard\libgcc.a(_udivmoddi4.o)
                0x0000000008000250                __udivmoddi4
 .text          0x000000000800051c        0x4 c:/st/stm32cubeide_1.4.0/stm32cubeide/plugins/com.st.stm32cube.ide.mcu.externaltools.gnu-tools-for-stm32.7-2018-q2-update.win32_1.5.0.202011040924/tools/bin/../lib/gcc/arm-none-eabi/7.3.1/thumb/v7e-m/fpv4-sp/hard\libgcc.a(_dvmd_tls.o)
                0x000000000800051c                __aeabi_idiv0
                0x000000000800051c                __aeabi_ldiv0
 *(.text*)
 .text.data_initializers
                0x0000000008000520       0x18 Application/Startup/startup_stm32wb55rgvx.o
 .text.Reset_Handler
                0x0000000008000538       0x54 Application/Startup/startup_stm32wb55rgvx.o
                0x0000000008000538                Reset_Handler
 .text.Default_Handler
                0x000000000800058c        0x2 Application/Startup/startup_stm32wb55rgvx.o
                0x000000000800058c                RTC_Alarm_IRQHandler
                0x000000000800058c                EXTI2_IRQHandler
                0x000000000800058c                TIM1_CC_IRQHandler
                0x000000000800058c                TSC_IRQHandler
                0x000000000800058c                USB_HP_IRQHandler
                0x000000000800058c                EXTI3_IRQHandler
                0x000000000800058c                LPTIM2_IRQHandler
                0x000000000800058c                I2C3_ER_IRQHandler
                0x000000000800058c                EXTI0_IRQHandler
                0x000000000800058c                FPU_IRQHandler
                0x000000000800058c                TIM1_UP_TIM16_IRQHandler
                0x000000000800058c                AES1_IRQHandler
                0x000000000800058c                SPI1_IRQHandler
                0x000000000800058c                PWR_SOTF_BLEACT_802ACT_RFPHASE_IRQHandler
                0x000000000800058c                DMA2_Channel2_IRQHandler
                0x000000000800058c                ADC1_IRQHandler
                0x000000000800058c                PKA_IRQHandler
                0x000000000800058c                DMA1_Channel7_IRQHandler
                0x000000000800058c                LCD_IRQHandler
                0x000000000800058c                DMA2_Channel1_IRQHandler
                0x000000000800058c                QUADSPI_IRQHandler
                0x000000000800058c                I2C1_EV_IRQHandler
                0x000000000800058c                DMAMUX1_OVR_IRQHandler
                0x000000000800058c                DMA1_Channel6_IRQHandler
                0x000000000800058c                RCC_IRQHandler
                0x000000000800058c                DMA1_Channel1_IRQHandler
                0x000000000800058c                Default_Handler
                0x000000000800058c                DMA2_Channel7_IRQHandler
                0x000000000800058c                EXTI15_10_IRQHandler
                0x000000000800058c                C2SEV_PWR_C2H_IRQHandler
                0x000000000800058c                AES2_IRQHandler
                0x000000000800058c                I2C3_EV_IRQHandler
                0x000000000800058c                EXTI9_5_IRQHandler
                0x000000000800058c                PVD_PVM_IRQHandler
                0x000000000800058c                SPI2_IRQHandler
                0x000000000800058c                DMA2_Channel5_IRQHandler
                0x000000000800058c                CRS_IRQHandler
                0x000000000800058c                DMA1_Channel5_IRQHandler
                0x000000000800058c                USB_LP_IRQHandler
                0x000000000800058c                EXTI4_IRQHandler
                0x000000000800058c                RNG_IRQHandler
                0x000000000800058c                TIM1_TRG_COM_TIM17_IRQHandler
                0x000000000800058c                TAMP_STAMP_LSECSS_IRQHandler
                0x000000000800058c                DMA1_Channel3_IRQHandler
                0x000000000800058c                COMP_IRQHandler
                0x000000000800058c                WWDG_IRQHandler
                0x000000000800058c                DMA2_Channel6_IRQHandler
                0x000000000800058c                TIM2_IRQHandler
                0x000000000800058c                TIM1_BRK_IRQHandler
                0x000000000800058c                EXTI1_IRQHandler
                0x000000000800058c                DMA1_Channel2_IRQHandler
                0x000000000800058c                FLASH_IRQHandler
                0x000000000800058c                I2C1_ER_IRQHandler
                0x000000000800058c                LPTIM1_IRQHandler
                0x000000000800058c                SAI1_IRQHandler
                0x000000000800058c                DMA2_Channel3_IRQHandler
 .text.Adv_Mgr  0x000000000800058e        0x8 Application/User/STM32_WPAN/App/app_ble.o
 .text.BLE_UserEvtRx
                0x0000000008000596       0x18 Application/User/STM32_WPAN/App/app_ble.o
 .text.BLE_StatusNot
                0x00000000080005ae       0x14 Application/User/STM32_WPAN/App/app_ble.o
 *fill*         0x00000000080005c2        0x2 
 .text.Adv_Request
                0x00000000080005c4       0xdc Application/User/STM32_WPAN/App/app_ble.o
 .text.Adv_Update
                0x00000000080006a0        0x6 Application/User/STM32_WPAN/App/app_ble.o
 *fill*         0x00000000080006a6        0x2 
 .text.APP_BLE_Init
                0x00000000080006a8      0x1f0 Application/User/STM32_WPAN/App/app_ble.o
                0x00000000080006a8                APP_BLE_Init
 .text.SVCCTL_App_Notification
                0x0000000008000898      0x1c4 Application/User/STM32_WPAN/App/app_ble.o
                0x0000000008000898                SVCCTL_App_Notification
 .text.APP_BLE_Get_Server_Connection_Status
                0x0000000008000a5c        0xc Application/User/STM32_WPAN/App/app_ble.o
                0x0000000008000a5c                APP_BLE_Get_Server_Connection_Status
 .text.hci_notify_asynch_evt
                0x0000000008000a68        0x8 Application/User/STM32_WPAN/App/app_ble.o
                0x0000000008000a68                hci_notify_asynch_evt
 .text.hci_cmd_resp_release
                0x0000000008000a70        0x6 Application/User/STM32_WPAN/App/app_ble.o
                0x0000000008000a70                hci_cmd_resp_release
 .text.hci_cmd_resp_wait
                0x0000000008000a76        0x6 Application/User/STM32_WPAN/App/app_ble.o
                0x0000000008000a76                hci_cmd_resp_wait
 .text.DISAPP_Init
                0x0000000008000a7c       0xdc Application/User/STM32_WPAN/App/dis_app.o
                0x0000000008000a7c                DISAPP_Init
 .text.HTSAPP_UpdateIntermediateTemperature
                0x0000000008000b58        0x8 Application/User/STM32_WPAN/App/hts_app.o
 .text.HTSAPP_UpdateMeasurement
                0x0000000008000b60        0x8 Application/User/STM32_WPAN/App/hts_app.o
 .text.HTSAPP_IntermediateTemperature
                0x0000000008000b68       0x3c Application/User/STM32_WPAN/App/hts_app.o
                0x0000000008000b68                HTSAPP_IntermediateTemperature
 .text.HTSAPP_Measurement
                0x0000000008000ba4      0x1b4 Application/User/STM32_WPAN/App/hts_app.o
                0x0000000008000ba4                HTSAPP_Measurement
 .text.HTS_App_Notification
                0x0000000008000d58       0xa0 Application/User/STM32_WPAN/App/hts_app.o
                0x0000000008000d58                HTS_App_Notification
 .text.HTSAPP_Init
                0x0000000008000df8       0x74 Application/User/STM32_WPAN/App/hts_app.o
                0x0000000008000df8                HTSAPP_Init
 .text.HW_IPCC_Enable
                0x0000000008000e6c       0x50 Application/User/STM32_WPAN/Target/hw_ipcc.o
                0x0000000008000e6c                HW_IPCC_Enable
 .text.HW_IPCC_Init
                0x0000000008000ebc       0x40 Application/User/STM32_WPAN/Target/hw_ipcc.o
                0x0000000008000ebc                HW_IPCC_Init
 .text.HW_IPCC_BLE_Init
                0x0000000008000efc       0x10 Application/User/STM32_WPAN/Target/hw_ipcc.o
                0x0000000008000efc                HW_IPCC_BLE_Init
 .text.HW_IPCC_BLE_SendCmd
                0x0000000008000f0c       0x10 Application/User/STM32_WPAN/Target/hw_ipcc.o
                0x0000000008000f0c                HW_IPCC_BLE_SendCmd
 .text.HW_IPCC_SYS_Init
                0x0000000008000f1c       0x10 Application/User/STM32_WPAN/Target/hw_ipcc.o
                0x0000000008000f1c                HW_IPCC_SYS_Init
 .text.HW_IPCC_SYS_SendCmd
                0x0000000008000f2c       0x18 Application/User/STM32_WPAN/Target/hw_ipcc.o
                0x0000000008000f2c                HW_IPCC_SYS_SendCmd
 .text.HW_IPCC_Tx_Handler
                0x0000000008000f44       0x84 Application/User/STM32_WPAN/Target/hw_ipcc.o
                0x0000000008000f44                HW_IPCC_Tx_Handler
 .text.HW_IPCC_MM_SendFreeBuf
                0x0000000008000fc8       0x2c Application/User/STM32_WPAN/Target/hw_ipcc.o
                0x0000000008000fc8                HW_IPCC_MM_SendFreeBuf
 .text.HW_IPCC_TRACES_Init
                0x0000000008000ff4       0x10 Application/User/STM32_WPAN/Target/hw_ipcc.o
                0x0000000008000ff4                HW_IPCC_TRACES_Init
 .text.HW_IPCC_Rx_Handler
                0x0000000008001004       0x50 Application/User/STM32_WPAN/Target/hw_ipcc.o
                0x0000000008001004                HW_IPCC_Rx_Handler
 .text.LL_AHB2_GRP1_EnableClock
                0x0000000008001054       0x18 Application/User/app_debug.o
 .text.LL_C2_AHB2_GRP1_EnableClock
                0x000000000800106c       0x1e Application/User/app_debug.o
 *fill*         0x000000000800108a        0x2 
 .text.APPD_Init
                0x000000000800108c       0xf0 Application/User/app_debug.o
                0x000000000800108c                APPD_Init
 .text.APPD_EnableCPU2
                0x000000000800117c       0x38 Application/User/app_debug.o
                0x000000000800117c                APPD_EnableCPU2
 .text.DbgOutputInit
                0x00000000080011b4        0x4 Application/User/app_debug.o
                0x00000000080011b4                DbgOutputInit
 .text.DbgOutputTraces
                0x00000000080011b8        0xc Application/User/app_debug.o
                0x00000000080011b8                DbgOutputTraces
 .text.APPE_SysStatusNot
                0x00000000080011c4        0x2 Application/User/app_entry.o
 .text.APPE_SysUserEvtRx
                0x00000000080011c6       0x16 Application/User/app_entry.o
 .text.APPE_Init
                0x00000000080011dc       0xb8 Application/User/app_entry.o
                0x00000000080011dc                APPE_Init
 .text.UTIL_SEQ_Idle
                0x0000000008001294        0x2 Application/User/app_entry.o
                0x0000000008001294                UTIL_SEQ_Idle
 .text.UTIL_SEQ_EvtIdle
                0x0000000008001296        0x8 Application/User/app_entry.o
                0x0000000008001296                UTIL_SEQ_EvtIdle
 .text.shci_notify_asynch_evt
                0x000000000800129e        0x8 Application/User/app_entry.o
                0x000000000800129e                shci_notify_asynch_evt
 .text.shci_cmd_resp_release
                0x00000000080012a6        0x6 Application/User/app_entry.o
                0x00000000080012a6                shci_cmd_resp_release
 .text.shci_cmd_resp_wait
                0x00000000080012ac        0x6 Application/User/app_entry.o
                0x00000000080012ac                shci_cmd_resp_wait
 *fill*         0x00000000080012b2        0x2 
 .text.ReadRtcSsrValue
                0x00000000080012b4       0x1c Application/User/hw_timerserver.o
 .text.UnlinkTimer
                0x00000000080012d0       0x64 Application/User/hw_timerserver.o
 .text.ReturnTimeElapsed
                0x0000000008001334       0x50 Application/User/hw_timerserver.o
 .text.RescheduleTimerList
                0x0000000008001384      0x118 Application/User/hw_timerserver.o
 .text.HW_TS_Init
                0x000000000800149c      0x128 Application/User/hw_timerserver.o
                0x000000000800149c                HW_TS_Init
 .text.HW_TS_Create
                0x00000000080015c4       0x54 Application/User/hw_timerserver.o
                0x00000000080015c4                HW_TS_Create
 .text.HW_TS_Stop
                0x0000000008001618       0xac Application/User/hw_timerserver.o
                0x0000000008001618                HW_TS_Stop
 .text.HW_TS_Start
                0x00000000080016c4      0x13c Application/User/hw_timerserver.o
                0x00000000080016c4                HW_TS_Start
 .text.HW_TS_RTC_Int_AppNot
                0x0000000008001800        0x2 Application/User/hw_timerserver.o
                0x0000000008001800                HW_TS_RTC_Int_AppNot
 *fill*         0x0000000008001802        0x2 
 .text.HW_TS_RTC_Wakeup_Handler
                0x0000000008001804       0xc0 Application/User/hw_timerserver.o
                0x0000000008001804                HW_TS_RTC_Wakeup_Handler
 .text.HW_UART_Transmit_DMA
                0x00000000080018c4       0x30 Application/User/hw_uart.o
                0x00000000080018c4                HW_UART_Transmit_DMA
 .text.HAL_UART_TxCpltCallback
                0x00000000080018f4       0x1c Application/User/hw_uart.o
                0x00000000080018f4                HAL_UART_TxCpltCallback
 .text.LL_AHB1_GRP1_EnableClock
                0x0000000008001910       0x18 Application/User/main.o
 .text.LL_AHB2_GRP1_EnableClock
                0x0000000008001928       0x18 Application/User/main.o
 .text.SystemClock_Config
                0x0000000008001940       0xb0 Application/User/main.o
                0x0000000008001940                SystemClock_Config
 .text.startup.main
                0x00000000080019f0      0x158 Application/User/main.o
                0x00000000080019f0                main
 .text.MX_USART1_UART_Init
                0x0000000008001b48       0x50 Application/User/main.o
                0x0000000008001b48                MX_USART1_UART_Init
 .text.HAL_Delay
                0x0000000008001b98       0x34 Application/User/main.o
                0x0000000008001b98                HAL_Delay
 .text.Error_Handler
                0x0000000008001bcc        0x2 Application/User/main.o
                0x0000000008001bcc                Error_Handler
 .text.LL_AHB2_GRP1_EnableClock
                0x0000000008001bce       0x18 Application/User/stm32wbxx_hal_msp.o
 .text.HAL_MspInit
                0x0000000008001be6       0x2e Application/User/stm32wbxx_hal_msp.o
                0x0000000008001be6                HAL_MspInit
 .text.HAL_UART_MspInit
                0x0000000008001c14      0x180 Application/User/stm32wbxx_hal_msp.o
                0x0000000008001c14                HAL_UART_MspInit
 .text.HAL_RTC_MspInit
                0x0000000008001d94       0x5c Application/User/stm32wbxx_hal_msp.o
                0x0000000008001d94                HAL_RTC_MspInit
 .text.NMI_Handler
                0x0000000008001df0        0x2 Application/User/stm32wbxx_it.o
                0x0000000008001df0                NMI_Handler
 .text.HardFault_Handler
                0x0000000008001df2        0x2 Application/User/stm32wbxx_it.o
                0x0000000008001df2                HardFault_Handler
 .text.MemManage_Handler
                0x0000000008001df4        0x2 Application/User/stm32wbxx_it.o
                0x0000000008001df4                MemManage_Handler
 .text.BusFault_Handler
                0x0000000008001df6        0x2 Application/User/stm32wbxx_it.o
                0x0000000008001df6                BusFault_Handler
 .text.UsageFault_Handler
                0x0000000008001df8        0x2 Application/User/stm32wbxx_it.o
                0x0000000008001df8                UsageFault_Handler
 .text.SVC_Handler
                0x0000000008001dfa        0x2 Application/User/stm32wbxx_it.o
                0x0000000008001dfa                SVC_Handler
 .text.DebugMon_Handler
                0x0000000008001dfc        0x2 Application/User/stm32wbxx_it.o
                0x0000000008001dfc                DebugMon_Handler
 .text.PendSV_Handler
                0x0000000008001dfe        0x2 Application/User/stm32wbxx_it.o
                0x0000000008001dfe                PendSV_Handler
 .text.SysTick_Handler
                0x0000000008001e00        0x4 Application/User/stm32wbxx_it.o
                0x0000000008001e00                SysTick_Handler
 .text.DMA1_Channel4_IRQHandler
                0x0000000008001e04        0xc Application/User/stm32wbxx_it.o
                0x0000000008001e04                DMA1_Channel4_IRQHandler
 .text.USART1_IRQHandler
                0x0000000008001e10        0xc Application/User/stm32wbxx_it.o
                0x0000000008001e10                USART1_IRQHandler
 .text.LPUART1_IRQHandler
                0x0000000008001e1c        0xc Application/User/stm32wbxx_it.o
                0x0000000008001e1c                LPUART1_IRQHandler
 .text.HSEM_IRQHandler
                0x0000000008001e28        0x4 Application/User/stm32wbxx_it.o
                0x0000000008001e28                HSEM_IRQHandler
 .text.DMA2_Channel4_IRQHandler
                0x0000000008001e2c        0xc Application/User/stm32wbxx_it.o
                0x0000000008001e2c                DMA2_Channel4_IRQHandler
 .text.RTC_WKUP_IRQHandler
                0x0000000008001e38        0x4 Application/User/stm32wbxx_it.o
                0x0000000008001e38                RTC_WKUP_IRQHandler
 .text.IPCC_C1_TX_IRQHandler
                0x0000000008001e3c        0x4 Application/User/stm32wbxx_it.o
                0x0000000008001e3c                IPCC_C1_TX_IRQHandler
 .text.IPCC_C1_RX_IRQHandler
                0x0000000008001e40        0x4 Application/User/stm32wbxx_it.o
                0x0000000008001e40                IPCC_C1_RX_IRQHandler
 .text._read    0x0000000008001e44       0x1c Application/User/syscalls.o
                0x0000000008001e44                _read
 .text._close   0x0000000008001e60        0x6 Application/User/syscalls.o
                0x0000000008001e60                _close
 .text._fstat   0x0000000008001e66        0xa Application/User/syscalls.o
                0x0000000008001e66                _fstat
 .text._isatty  0x0000000008001e70        0x4 Application/User/syscalls.o
                0x0000000008001e70                _isatty
 .text._lseek   0x0000000008001e74        0x4 Application/User/syscalls.o
                0x0000000008001e74                _lseek
 .text._sbrk    0x0000000008001e78       0x34 Application/User/sysmem.o
                0x0000000008001e78                _sbrk
 .text.LL_AHB2_GRP1_EnableClock
                0x0000000008001eac       0x18 Drivers/BSP/P-NUCLEO-WB55.Nucleo/stm32wbxx_nucleo.o
 .text.BSP_LED_Init
                0x0000000008001ec4       0x50 Drivers/BSP/P-NUCLEO-WB55.Nucleo/stm32wbxx_nucleo.o
                0x0000000008001ec4                BSP_LED_Init
 .text.BSP_LED_On
                0x0000000008001f14       0x1c Drivers/BSP/P-NUCLEO-WB55.Nucleo/stm32wbxx_nucleo.o
                0x0000000008001f14                BSP_LED_On
 .text.BSP_PB_Init
                0x0000000008001f30       0x94 Drivers/BSP/P-NUCLEO-WB55.Nucleo/stm32wbxx_nucleo.o
                0x0000000008001f30                BSP_PB_Init
 .text.SystemInit
                0x0000000008001fc4       0x68 Drivers/CMSIS/system_stm32wbxx.o
                0x0000000008001fc4                SystemInit
 .text.HAL_InitTick
                0x000000000800202c       0x4c Drivers/STM32WBxx_HAL_Driver/stm32wbxx_hal.o
                0x000000000800202c                HAL_InitTick
 .text.HAL_Init
                0x0000000008002078       0x2c Drivers/STM32WBxx_HAL_Driver/stm32wbxx_hal.o
                0x0000000008002078                HAL_Init
 .text.HAL_IncTick
                0x00000000080020a4       0x18 Drivers/STM32WBxx_HAL_Driver/stm32wbxx_hal.o
                0x00000000080020a4                HAL_IncTick
 .text.HAL_GetTick
                0x00000000080020bc        0xc Drivers/STM32WBxx_HAL_Driver/stm32wbxx_hal.o
                0x00000000080020bc                HAL_GetTick
 .text.HAL_GetTickPrio
                0x00000000080020c8        0xc Drivers/STM32WBxx_HAL_Driver/stm32wbxx_hal.o
                0x00000000080020c8                HAL_GetTickPrio
 .text.HAL_GetTickFreq
                0x00000000080020d4        0xc Drivers/STM32WBxx_HAL_Driver/stm32wbxx_hal.o
                0x00000000080020d4                HAL_GetTickFreq
 .text.HAL_DBGMCU_EnableDBGSleepMode
                0x00000000080020e0       0x10 Drivers/STM32WBxx_HAL_Driver/stm32wbxx_hal.o
                0x00000000080020e0                HAL_DBGMCU_EnableDBGSleepMode
 .text.HAL_DBGMCU_EnableDBGStopMode
                0x00000000080020f0       0x10 Drivers/STM32WBxx_HAL_Driver/stm32wbxx_hal.o
                0x00000000080020f0                HAL_DBGMCU_EnableDBGStopMode
 .text.HAL_NVIC_SetPriorityGrouping
                0x0000000008002100       0x24 Drivers/STM32WBxx_HAL_Driver/stm32wbxx_hal_cortex.o
                0x0000000008002100                HAL_NVIC_SetPriorityGrouping
 .text.HAL_NVIC_SetPriority
                0x0000000008002124       0x68 Drivers/STM32WBxx_HAL_Driver/stm32wbxx_hal_cortex.o
                0x0000000008002124                HAL_NVIC_SetPriority
 .text.HAL_NVIC_EnableIRQ
                0x000000000800218c       0x1c Drivers/STM32WBxx_HAL_Driver/stm32wbxx_hal_cortex.o
                0x000000000800218c                HAL_NVIC_EnableIRQ
 .text.HAL_NVIC_DisableIRQ
                0x00000000080021a8       0x28 Drivers/STM32WBxx_HAL_Driver/stm32wbxx_hal_cortex.o
                0x00000000080021a8                HAL_NVIC_DisableIRQ
 .text.HAL_SYSTICK_Config
                0x00000000080021d0       0x2c Drivers/STM32WBxx_HAL_Driver/stm32wbxx_hal_cortex.o
                0x00000000080021d0                HAL_SYSTICK_Config
 .text.HAL_NVIC_SetPendingIRQ
                0x00000000080021fc       0x20 Drivers/STM32WBxx_HAL_Driver/stm32wbxx_hal_cortex.o
                0x00000000080021fc                HAL_NVIC_SetPendingIRQ
 .text.HAL_NVIC_ClearPendingIRQ
                0x000000000800221c       0x20 Drivers/STM32WBxx_HAL_Driver/stm32wbxx_hal_cortex.o
                0x000000000800221c                HAL_NVIC_ClearPendingIRQ
 .text.DMA_SetConfig
                0x000000000800223c       0x34 Drivers/STM32WBxx_HAL_Driver/stm32wbxx_hal_dma.o
 .text.DMA_CalcDMAMUXChannelBaseAndMask
                0x0000000008002270       0x50 Drivers/STM32WBxx_HAL_Driver/stm32wbxx_hal_dma.o
 .text.HAL_DMA_Init
                0x00000000080022c0       0xe4 Drivers/STM32WBxx_HAL_Driver/stm32wbxx_hal_dma.o
                0x00000000080022c0                HAL_DMA_Init
 .text.HAL_DMA_Start_IT
                0x00000000080023a4       0x84 Drivers/STM32WBxx_HAL_Driver/stm32wbxx_hal_dma.o
                0x00000000080023a4                HAL_DMA_Start_IT
 .text.HAL_DMA_Abort_IT
                0x0000000008002428       0x6e Drivers/STM32WBxx_HAL_Driver/stm32wbxx_hal_dma.o
                0x0000000008002428                HAL_DMA_Abort_IT
 .text.HAL_DMA_IRQHandler
                0x0000000008002496       0x94 Drivers/STM32WBxx_HAL_Driver/stm32wbxx_hal_dma.o
                0x0000000008002496                HAL_DMA_IRQHandler
 *fill*         0x000000000800252a        0x2 
 .text.HAL_DMAEx_ConfigMuxSync
                0x000000000800252c       0x50 Drivers/STM32WBxx_HAL_Driver/stm32wbxx_hal_dma_ex.o
                0x000000000800252c                HAL_DMAEx_ConfigMuxSync
 .text.HAL_GPIO_Init
                0x000000000800257c      0x16c Drivers/STM32WBxx_HAL_Driver/stm32wbxx_hal_gpio.o
                0x000000000800257c                HAL_GPIO_Init
 .text.HAL_GPIO_WritePin
                0x00000000080026e8        0xa Drivers/STM32WBxx_HAL_Driver/stm32wbxx_hal_gpio.o
                0x00000000080026e8                HAL_GPIO_WritePin
 .text.HAL_HSEM_FreeCallback
                0x00000000080026f2        0x2 Drivers/STM32WBxx_HAL_Driver/stm32wbxx_hal_hsem.o
                0x00000000080026f2                HAL_HSEM_FreeCallback
 .text.HAL_HSEM_IRQHandler
                0x00000000080026f4       0x1c Drivers/STM32WBxx_HAL_Driver/stm32wbxx_hal_hsem.o
                0x00000000080026f4                HAL_HSEM_IRQHandler
 .text.HAL_PWR_EnableBkUpAccess
                0x0000000008002710       0x10 Drivers/STM32WBxx_HAL_Driver/stm32wbxx_hal_pwr.o
                0x0000000008002710                HAL_PWR_EnableBkUpAccess
 .text.HAL_PWREx_GetVoltageRange
                0x0000000008002720       0x10 Drivers/STM32WBxx_HAL_Driver/stm32wbxx_hal_pwr_ex.o
                0x0000000008002720                HAL_PWREx_GetVoltageRange
 .text.LL_RCC_HSE_IsReady
                0x0000000008002730        0xc Drivers/STM32WBxx_HAL_Driver/stm32wbxx_hal_rcc.o
 .text.LL_RCC_HSI_IsReady
                0x000000000800273c        0xc Drivers/STM32WBxx_HAL_Driver/stm32wbxx_hal_rcc.o
 .text.LL_RCC_LSI1_IsReady
                0x0000000008002748        0xe Drivers/STM32WBxx_HAL_Driver/stm32wbxx_hal_rcc.o
 .text.LL_RCC_MSI_IsReady
                0x0000000008002756        0xc Drivers/STM32WBxx_HAL_Driver/stm32wbxx_hal_rcc.o
 .text.LL_RCC_MSI_SetRange
                0x0000000008002762       0x10 Drivers/STM32WBxx_HAL_Driver/stm32wbxx_hal_rcc.o
 .text.LL_RCC_MSI_GetRange
                0x0000000008002772       0x12 Drivers/STM32WBxx_HAL_Driver/stm32wbxx_hal_rcc.o
 .text.LL_RCC_MSI_SetCalibTrimming
                0x0000000008002784       0x12 Drivers/STM32WBxx_HAL_Driver/stm32wbxx_hal_rcc.o
 *fill*         0x0000000008002796        0x2 
 .text.RCC_SetFlashLatencyFromMSIRange
                0x0000000008002798       0xd0 Drivers/STM32WBxx_HAL_Driver/stm32wbxx_hal_rcc.o
 .text.HAL_RCC_GetSysClockFreq
                0x0000000008002868       0x9c Drivers/STM32WBxx_HAL_Driver/stm32wbxx_hal_rcc.o
                0x0000000008002868                HAL_RCC_GetSysClockFreq
 .text.HAL_RCC_GetHCLKFreq
                0x0000000008002904       0x20 Drivers/STM32WBxx_HAL_Driver/stm32wbxx_hal_rcc.o
                0x0000000008002904                HAL_RCC_GetHCLKFreq
 .text.HAL_RCC_OscConfig
                0x0000000008002924      0x5a0 Drivers/STM32WBxx_HAL_Driver/stm32wbxx_hal_rcc.o
                0x0000000008002924                HAL_RCC_OscConfig
 .text.HAL_RCC_ClockConfig
                0x0000000008002ec4      0x1f0 Drivers/STM32WBxx_HAL_Driver/stm32wbxx_hal_rcc.o
                0x0000000008002ec4                HAL_RCC_ClockConfig
 .text.HAL_RCC_GetPCLK1Freq
                0x00000000080030b4       0x24 Drivers/STM32WBxx_HAL_Driver/stm32wbxx_hal_rcc.o
                0x00000000080030b4                HAL_RCC_GetPCLK1Freq
 .text.HAL_RCC_GetPCLK2Freq
                0x00000000080030d8       0x24 Drivers/STM32WBxx_HAL_Driver/stm32wbxx_hal_rcc.o
                0x00000000080030d8                HAL_RCC_GetPCLK2Freq
 .text.LL_RCC_LSE_IsReady
                0x00000000080030fc        0xe Drivers/STM32WBxx_HAL_Driver/stm32wbxx_hal_rcc_ex.o
 .text.LL_RCC_SetI2CClockSource
                0x000000000800310a       0x20 Drivers/STM32WBxx_HAL_Driver/stm32wbxx_hal_rcc_ex.o
 .text.LL_RCC_PLLSAI1_Enable
                0x000000000800312a        0xe Drivers/STM32WBxx_HAL_Driver/stm32wbxx_hal_rcc_ex.o
 .text.LL_RCC_PLLSAI1_Disable
                0x0000000008003138        0xe Drivers/STM32WBxx_HAL_Driver/stm32wbxx_hal_rcc_ex.o
 .text.LL_RCC_PLLSAI1_IsReady
                0x0000000008003146        0xc Drivers/STM32WBxx_HAL_Driver/stm32wbxx_hal_rcc_ex.o
 .text.HAL_RCCEx_PeriphCLKConfig
                0x0000000008003152      0x386 Drivers/STM32WBxx_HAL_Driver/stm32wbxx_hal_rcc_ex.o
                0x0000000008003152                HAL_RCCEx_PeriphCLKConfig
 .text.HAL_RTC_WaitForSynchro
                0x00000000080034d8       0x30 Drivers/STM32WBxx_HAL_Driver/stm32wbxx_hal_rtc.o
                0x00000000080034d8                HAL_RTC_WaitForSynchro
 .text.RTC_EnterInitMode
                0x0000000008003508       0x34 Drivers/STM32WBxx_HAL_Driver/stm32wbxx_hal_rtc.o
                0x0000000008003508                RTC_EnterInitMode
 .text.HAL_RTC_Init
                0x000000000800353c       0xb8 Drivers/STM32WBxx_HAL_Driver/stm32wbxx_hal_rtc.o
                0x000000000800353c                HAL_RTC_Init
 .text.HAL_RTCEx_EnableBypassShadow
                0x00000000080035f4       0x36 Drivers/STM32WBxx_HAL_Driver/stm32wbxx_hal_rtc_ex.o
                0x00000000080035f4                HAL_RTCEx_EnableBypassShadow
 .text.UART_EndRxTransfer
                0x000000000800362a       0x22 Drivers/STM32WBxx_HAL_Driver/stm32wbxx_hal_uart.o
 .text.HAL_UART_Transmit_DMA
                0x000000000800364c       0x94 Drivers/STM32WBxx_HAL_Driver/stm32wbxx_hal_uart.o
                0x000000000800364c                HAL_UART_Transmit_DMA
 .text.UART_DMATransmitCplt
                0x00000000080036e0       0x2e Drivers/STM32WBxx_HAL_Driver/stm32wbxx_hal_uart.o
 .text.HAL_UART_TxHalfCpltCallback
                0x000000000800370e        0x2 Drivers/STM32WBxx_HAL_Driver/stm32wbxx_hal_uart.o
                0x000000000800370e                HAL_UART_TxHalfCpltCallback
 .text.UART_DMATxHalfCplt
                0x0000000008003710        0xa Drivers/STM32WBxx_HAL_Driver/stm32wbxx_hal_uart.o
 .text.HAL_UART_ErrorCallback
                0x000000000800371a        0x2 Drivers/STM32WBxx_HAL_Driver/stm32wbxx_hal_uart.o
                0x000000000800371a                HAL_UART_ErrorCallback
 .text.UART_DMAError
                0x000000000800371c       0x5e Drivers/STM32WBxx_HAL_Driver/stm32wbxx_hal_uart.o
 *fill*         0x000000000800377a        0x2 
 .text.HAL_UART_IRQHandler
                0x000000000800377c      0x19c Drivers/STM32WBxx_HAL_Driver/stm32wbxx_hal_uart.o
                0x000000000800377c                HAL_UART_IRQHandler
 .text.UART_DMAAbortOnError
                0x0000000008003918       0x14 Drivers/STM32WBxx_HAL_Driver/stm32wbxx_hal_uart.o
 .text.UART_SetConfig
                0x000000000800392c      0x200 Drivers/STM32WBxx_HAL_Driver/stm32wbxx_hal_uart.o
                0x000000000800392c                UART_SetConfig
 .text.UART_AdvFeatureConfig
                0x0000000008003b2c       0xa8 Drivers/STM32WBxx_HAL_Driver/stm32wbxx_hal_uart.o
                0x0000000008003b2c                UART_AdvFeatureConfig
 .text.UART_WaitOnFlagUntilTimeout
                0x0000000008003bd4       0x8e Drivers/STM32WBxx_HAL_Driver/stm32wbxx_hal_uart.o
                0x0000000008003bd4                UART_WaitOnFlagUntilTimeout
 .text.UART_CheckIdleState
                0x0000000008003c62       0x66 Drivers/STM32WBxx_HAL_Driver/stm32wbxx_hal_uart.o
                0x0000000008003c62                UART_CheckIdleState
 .text.HAL_UART_Init
                0x0000000008003cc8       0x60 Drivers/STM32WBxx_HAL_Driver/stm32wbxx_hal_uart.o
                0x0000000008003cc8                HAL_UART_Init
 .text.UARTEx_SetNbDataToProcess
                0x0000000008003d28       0x6c Drivers/STM32WBxx_HAL_Driver/stm32wbxx_hal_uart_ex.o
 .text.HAL_UARTEx_WakeupCallback
                0x0000000008003d94        0x2 Drivers/STM32WBxx_HAL_Driver/stm32wbxx_hal_uart_ex.o
                0x0000000008003d94                HAL_UARTEx_WakeupCallback
 .text.HAL_UARTEx_RxFifoFullCallback
                0x0000000008003d96        0x2 Drivers/STM32WBxx_HAL_Driver/stm32wbxx_hal_uart_ex.o
                0x0000000008003d96                HAL_UARTEx_RxFifoFullCallback
 .text.HAL_UARTEx_TxFifoEmptyCallback
                0x0000000008003d98        0x2 Drivers/STM32WBxx_HAL_Driver/stm32wbxx_hal_uart_ex.o
                0x0000000008003d98                HAL_UARTEx_TxFifoEmptyCallback
 .text.HAL_UARTEx_DisableFifoMode
                0x0000000008003d9a       0x36 Drivers/STM32WBxx_HAL_Driver/stm32wbxx_hal_uart_ex.o
                0x0000000008003d9a                HAL_UARTEx_DisableFifoMode
 .text.HAL_UARTEx_SetTxFifoThreshold
                0x0000000008003dd0       0x48 Drivers/STM32WBxx_HAL_Driver/stm32wbxx_hal_uart_ex.o
                0x0000000008003dd0                HAL_UARTEx_SetTxFifoThreshold
 .text.HAL_UARTEx_SetRxFifoThreshold
                0x0000000008003e18       0x48 Drivers/STM32WBxx_HAL_Driver/stm32wbxx_hal_uart_ex.o
                0x0000000008003e18                HAL_UARTEx_SetRxFifoThreshold
 .text.aci_gap_set_non_discoverable
                0x0000000008003e60       0x3c Middlewares/STM32_WPAN/ble_gap_aci.o
                0x0000000008003e60                aci_gap_set_non_discoverable
 .text.aci_gap_set_discoverable
                0x0000000008003e9c       0xb8 Middlewares/STM32_WPAN/ble_gap_aci.o
                0x0000000008003e9c                aci_gap_set_discoverable
 .text.aci_gap_set_io_capability
                0x0000000008003f54       0x44 Middlewares/STM32_WPAN/ble_gap_aci.o
                0x0000000008003f54                aci_gap_set_io_capability
 .text.aci_gap_set_authentication_requirement
                0x0000000008003f98       0x78 Middlewares/STM32_WPAN/ble_gap_aci.o
                0x0000000008003f98                aci_gap_set_authentication_requirement
 .text.aci_gap_pass_key_resp
                0x0000000008004010       0x4c Middlewares/STM32_WPAN/ble_gap_aci.o
                0x0000000008004010                aci_gap_pass_key_resp
 .text.aci_gap_init
                0x000000000800405c       0x84 Middlewares/STM32_WPAN/ble_gap_aci.o
                0x000000000800405c                aci_gap_init
 .text.aci_gap_configure_whitelist
                0x00000000080040e0       0x3c Middlewares/STM32_WPAN/ble_gap_aci.o
                0x00000000080040e0                aci_gap_configure_whitelist
 .text.aci_gap_allow_rebond
                0x000000000800411c       0x48 Middlewares/STM32_WPAN/ble_gap_aci.o
                0x000000000800411c                aci_gap_allow_rebond
 .text.aci_gap_numeric_comparison_value_confirm_yesno
                0x0000000008004164       0x4c Middlewares/STM32_WPAN/ble_gap_aci.o
                0x0000000008004164                aci_gap_numeric_comparison_value_confirm_yesno
 .text.aci_gatt_init
                0x00000000080041b0       0x3c Middlewares/STM32_WPAN/ble_gatt_aci.o
                0x00000000080041b0                aci_gatt_init
 .text.aci_gatt_add_service
                0x00000000080041ec       0x9c Middlewares/STM32_WPAN/ble_gatt_aci.o
                0x00000000080041ec                aci_gatt_add_service
 .text.aci_gatt_add_char
                0x0000000008004288       0xb4 Middlewares/STM32_WPAN/ble_gatt_aci.o
                0x0000000008004288                aci_gatt_add_char
 .text.aci_gatt_update_char_value
                0x000000000800433c       0x60 Middlewares/STM32_WPAN/ble_gatt_aci.o
                0x000000000800433c                aci_gatt_update_char_value
 .text.aci_hal_write_config_data
                0x000000000800439c       0x58 Middlewares/STM32_WPAN/ble_hal_aci.o
                0x000000000800439c                aci_hal_write_config_data
 .text.aci_hal_set_tx_power_level
                0x00000000080043f4       0x4c Middlewares/STM32_WPAN/ble_hal_aci.o
                0x00000000080043f4                aci_hal_set_tx_power_level
 .text.hci_reset
                0x0000000008004440       0x3a Middlewares/STM32_WPAN/ble_hci_le.o
                0x0000000008004440                hci_reset
 *fill*         0x000000000800447a        0x2 
 .text.hci_le_read_phy
                0x000000000800447c       0x60 Middlewares/STM32_WPAN/ble_hci_le.o
                0x000000000800447c                hci_le_read_phy
 .text.DIS_Init
                0x00000000080044dc      0x35c Middlewares/STM32_WPAN/dis.o
                0x00000000080044dc                DIS_Init
 .text.DIS_UpdateChar
                0x0000000008004838       0xc4 Middlewares/STM32_WPAN/dis.o
                0x0000000008004838                DIS_UpdateChar
 .text.hci_init
                0x00000000080048fc       0x54 Middlewares/STM32_WPAN/hci_tl.o
                0x00000000080048fc                hci_init
 .text.hci_user_evt_proc
                0x0000000008004950       0x68 Middlewares/STM32_WPAN/hci_tl.o
                0x0000000008004950                hci_user_evt_proc
 .text.hci_send_req
                0x00000000080049b8       0xcc Middlewares/STM32_WPAN/hci_tl.o
                0x00000000080049b8                hci_send_req
 .text.TlEvtReceived
                0x0000000008004a84       0x34 Middlewares/STM32_WPAN/hci_tl.o
 .text.hci_register_io_bus
                0x0000000008004ab8       0x14 Middlewares/STM32_WPAN/hci_tl_if.o
                0x0000000008004ab8                hci_register_io_bus
 .text.Update_Char_TemperatureValue
                0x0000000008004acc       0x7c Middlewares/STM32_WPAN/hts.o
 .text.HTS_Event_Handler
                0x0000000008004b48       0x74 Middlewares/STM32_WPAN/hts.o
 .text.HTS_Init
                0x0000000008004bbc       0xd4 Middlewares/STM32_WPAN/hts.o
                0x0000000008004bbc                HTS_Init
 .text.HTS_Update_Char
                0x0000000008004c90       0x28 Middlewares/STM32_WPAN/hts.o
                0x0000000008004c90                HTS_Update_Char
 .text.Osal_MemCpy
                0x0000000008004cb8        0x4 Middlewares/STM32_WPAN/osal.o
                0x0000000008004cb8                Osal_MemCpy
 .text.Osal_MemSet
                0x0000000008004cbc        0x4 Middlewares/STM32_WPAN/osal.o
                0x0000000008004cbc                Osal_MemSet
 .text.SHCI_C2_BLE_Init
                0x0000000008004cc0       0x1c Middlewares/STM32_WPAN/shci.o
                0x0000000008004cc0                SHCI_C2_BLE_Init
 .text.SHCI_C2_DEBUG_Init
                0x0000000008004cdc       0x1c Middlewares/STM32_WPAN/shci.o
                0x0000000008004cdc                SHCI_C2_DEBUG_Init
 .text.TlUserEvtReceived
                0x0000000008004cf8       0x1c Middlewares/STM32_WPAN/shci_tl.o
 .text.Cmd_SetStatus.constprop.1
                0x0000000008004d14       0x18 Middlewares/STM32_WPAN/shci_tl.o
 .text.shci_init
                0x0000000008004d2c       0x54 Middlewares/STM32_WPAN/shci_tl.o
                0x0000000008004d2c                shci_init
 .text.shci_user_evt_proc
                0x0000000008004d80       0x64 Middlewares/STM32_WPAN/shci_tl.o
                0x0000000008004d80                shci_user_evt_proc
 .text.shci_send
                0x0000000008004de4       0x64 Middlewares/STM32_WPAN/shci_tl.o
                0x0000000008004de4                shci_send
 .text.TlCmdEvtReceived
                0x0000000008004e48        0xa Middlewares/STM32_WPAN/shci_tl.o
 *fill*         0x0000000008004e52        0x2 
 .text.shci_register_io_bus
                0x0000000008004e54       0x14 Middlewares/STM32_WPAN/shci_tl_if.o
                0x0000000008004e54                shci_register_io_bus
 .text.BLS_Init
                0x0000000008004e68        0x2 Middlewares/STM32_WPAN/svc_ctl.o
                0x0000000008004e68                BLS_Init
 .text.CRS_STM_Init
                0x0000000008004e6a        0x2 Middlewares/STM32_WPAN/svc_ctl.o
                0x0000000008004e6a                CRS_STM_Init
 .text.EDS_STM_Init
                0x0000000008004e6c        0x2 Middlewares/STM32_WPAN/svc_ctl.o
                0x0000000008004e6c                EDS_STM_Init
 .text.HIDS_Init
                0x0000000008004e6e        0x2 Middlewares/STM32_WPAN/svc_ctl.o
                0x0000000008004e6e                HIDS_Init
 .text.HRS_Init
                0x0000000008004e70        0x2 Middlewares/STM32_WPAN/svc_ctl.o
                0x0000000008004e70                HRS_Init
 .text.IAS_Init
                0x0000000008004e72        0x2 Middlewares/STM32_WPAN/svc_ctl.o
                0x0000000008004e72                IAS_Init
 .text.LLS_Init
                0x0000000008004e74        0x2 Middlewares/STM32_WPAN/svc_ctl.o
                0x0000000008004e74                LLS_Init
 .text.TPS_Init
                0x0000000008004e76        0x2 Middlewares/STM32_WPAN/svc_ctl.o
                0x0000000008004e76                TPS_Init
 .text.MOTENV_STM_Init
                0x0000000008004e78        0x2 Middlewares/STM32_WPAN/svc_ctl.o
                0x0000000008004e78                MOTENV_STM_Init
 .text.P2PS_STM_Init
                0x0000000008004e7a        0x2 Middlewares/STM32_WPAN/svc_ctl.o
                0x0000000008004e7a                P2PS_STM_Init
 .text.OTAS_STM_Init
                0x0000000008004e7c        0x2 Middlewares/STM32_WPAN/svc_ctl.o
                0x0000000008004e7c                OTAS_STM_Init
 .text.MESH_Init
                0x0000000008004e7e        0x2 Middlewares/STM32_WPAN/svc_ctl.o
                0x0000000008004e7e                MESH_Init
 .text.BVOPUS_STM_Init
                0x0000000008004e80        0x2 Middlewares/STM32_WPAN/svc_ctl.o
                0x0000000008004e80                BVOPUS_STM_Init
 .text.SVCCTL_InitCustomSvc
                0x0000000008004e82        0x2 Middlewares/STM32_WPAN/svc_ctl.o
                0x0000000008004e82                SVCCTL_InitCustomSvc
 .text.SVCCTL_SvcInit
                0x0000000008004e84       0x44 Middlewares/STM32_WPAN/svc_ctl.o
                0x0000000008004e84                SVCCTL_SvcInit
 .text.SVCCTL_Init
                0x0000000008004ec8       0x18 Middlewares/STM32_WPAN/svc_ctl.o
                0x0000000008004ec8                SVCCTL_Init
 .text.SVCCTL_RegisterSvcHandler
                0x0000000008004ee0       0x14 Middlewares/STM32_WPAN/svc_ctl.o
                0x0000000008004ee0                SVCCTL_RegisterSvcHandler
 .text.SVCCTL_UserEvtRx
                0x0000000008004ef4       0x48 Middlewares/STM32_WPAN/svc_ctl.o
                0x0000000008004ef4                SVCCTL_UserEvtRx
 .text.SendFreeBuf
                0x0000000008004f3c       0x30 Middlewares/STM32_WPAN/tl_mbox.o
 .text.TL_Enable
                0x0000000008004f6c        0x4 Middlewares/STM32_WPAN/tl_mbox.o
                0x0000000008004f6c                TL_Enable
 .text.TL_Init  0x0000000008004f70       0x48 Middlewares/STM32_WPAN/tl_mbox.o
                0x0000000008004f70                TL_Init
 .text.TL_BLE_Init
                0x0000000008004fb8       0x48 Middlewares/STM32_WPAN/tl_mbox.o
                0x0000000008004fb8                TL_BLE_Init
 .text.TL_BLE_SendCmd
                0x0000000008005000       0x1c Middlewares/STM32_WPAN/tl_mbox.o
                0x0000000008005000                TL_BLE_SendCmd
 .text.HW_IPCC_BLE_RxEvtNot
                0x000000000800501c       0x2c Middlewares/STM32_WPAN/tl_mbox.o
                0x000000000800501c                HW_IPCC_BLE_RxEvtNot
 .text.HW_IPCC_BLE_AclDataAckNot
                0x0000000008005048        0xc Middlewares/STM32_WPAN/tl_mbox.o
                0x0000000008005048                HW_IPCC_BLE_AclDataAckNot
 .text.TL_SYS_Init
                0x0000000008005054       0x3c Middlewares/STM32_WPAN/tl_mbox.o
                0x0000000008005054                TL_SYS_Init
 .text.TL_SYS_SendCmd
                0x0000000008005090       0x1c Middlewares/STM32_WPAN/tl_mbox.o
                0x0000000008005090                TL_SYS_SendCmd
 .text.HW_IPCC_SYS_CmdEvtNot
                0x00000000080050ac       0x18 Middlewares/STM32_WPAN/tl_mbox.o
                0x00000000080050ac                HW_IPCC_SYS_CmdEvtNot
 .text.HW_IPCC_SYS_EvtNot
                0x00000000080050c4       0x2c Middlewares/STM32_WPAN/tl_mbox.o
                0x00000000080050c4                HW_IPCC_SYS_EvtNot
 .text.TL_MM_Init
                0x00000000080050f0       0x40 Middlewares/STM32_WPAN/tl_mbox.o
                0x00000000080050f0                TL_MM_Init
 .text.TL_MM_EvtDone
                0x0000000008005130       0x1c Middlewares/STM32_WPAN/tl_mbox.o
                0x0000000008005130                TL_MM_EvtDone
 .text.TL_TRACES_Init
                0x000000000800514c       0x20 Middlewares/STM32_WPAN/tl_mbox.o
                0x000000000800514c                TL_TRACES_Init
 .text.TL_TRACES_EvtReceived
                0x000000000800516c        0x2 Middlewares/STM32_WPAN/tl_mbox.o
                0x000000000800516c                TL_TRACES_EvtReceived
 *fill*         0x000000000800516e        0x2 
 .text.HW_IPCC_TRACES_EvtNot
                0x0000000008005170       0x24 Middlewares/STM32_WPAN/tl_mbox.o
                0x0000000008005170                HW_IPCC_TRACES_EvtNot
 .text.DbgTrace_TxCpltCallback
                0x0000000008005194       0x48 Utilities/dbg_trace.o
 .text.DbgTraceInit
                0x00000000080051dc       0x28 Utilities/dbg_trace.o
                0x00000000080051dc                DbgTraceInit
 .text.DbgTraceWrite
                0x0000000008005204       0x5c Utilities/dbg_trace.o
                0x0000000008005204                DbgTraceWrite
 .text._write   0x0000000008005260        0x4 Utilities/dbg_trace.o
                0x0000000008005260                _write
 .text.OTP_Read
                0x0000000008005264       0x20 Utilities/otp.o
                0x0000000008005264                OTP_Read
 .text.UTIL_LPM_Init
                0x0000000008005284       0x14 Utilities/stm32_lpm.o
                0x0000000008005284                UTIL_LPM_Init
 .text.UTIL_LPM_SetOffMode
                0x0000000008005298       0x2c Utilities/stm32_lpm.o
                0x0000000008005298                UTIL_LPM_SetOffMode
 .text.UTIL_SEQ_SetTask
                0x00000000080052c4       0x2c Utilities/stm32_seq.o
                0x00000000080052c4                UTIL_SEQ_SetTask
 .text.UTIL_SEQ_PauseTask
                0x00000000080052f0       0x1c Utilities/stm32_seq.o
                0x00000000080052f0                UTIL_SEQ_PauseTask
 .text.UTIL_SEQ_ResumeTask
                0x000000000800530c       0x18 Utilities/stm32_seq.o
                0x000000000800530c                UTIL_SEQ_ResumeTask
 .text.UTIL_SEQ_SetEvt
                0x0000000008005324       0x18 Utilities/stm32_seq.o
                0x0000000008005324                UTIL_SEQ_SetEvt
 .text.UTIL_SEQ_PreIdle
                0x000000000800533c        0x2 Utilities/stm32_seq.o
                0x000000000800533c                UTIL_SEQ_PreIdle
 .text.UTIL_SEQ_PostIdle
                0x000000000800533e        0x2 Utilities/stm32_seq.o
                0x000000000800533e                UTIL_SEQ_PostIdle
 .text.SEQ_BitPosition
                0x0000000008005340       0x40 Utilities/stm32_seq.o
                0x0000000008005340                SEQ_BitPosition
 .text.UTIL_SEQ_Run
                0x0000000008005380      0x118 Utilities/stm32_seq.o
                0x0000000008005380                UTIL_SEQ_Run
 .text.UTIL_SEQ_WaitEvt
                0x0000000008005498       0x50 Utilities/stm32_seq.o
                0x0000000008005498                UTIL_SEQ_WaitEvt
 .text.UTIL_SEQ_RegTask
                0x00000000080054e8       0x20 Utilities/stm32_seq.o
                0x00000000080054e8                UTIL_SEQ_RegTask
 .text.LST_init_head
                0x0000000008005508        0x6 Utilities/stm_list.o
                0x0000000008005508                LST_init_head
 .text.LST_is_empty
                0x000000000800550e       0x14 Utilities/stm_list.o
                0x000000000800550e                LST_is_empty
 .text.LST_insert_head
                0x0000000008005522       0x18 Utilities/stm_list.o
                0x0000000008005522                LST_insert_head
 .text.LST_insert_tail
                0x000000000800553a       0x18 Utilities/stm_list.o
                0x000000000800553a                LST_insert_tail
 .text.LST_remove_node
                0x0000000008005552       0x16 Utilities/stm_list.o
                0x0000000008005552                LST_remove_node
 .text.LST_remove_head
                0x0000000008005568       0x18 Utilities/stm_list.o
                0x0000000008005568                LST_remove_head
 .text.CircularQueue_Init
                0x0000000008005580       0x28 Utilities/stm_queue.o
                0x0000000008005580                CircularQueue_Init
 .text.CircularQueue_Add
                0x00000000080055a8      0x20a Utilities/stm_queue.o
                0x00000000080055a8                CircularQueue_Add
 .text.CircularQueue_Remove
                0x00000000080057b2       0xc2 Utilities/stm_queue.o
                0x00000000080057b2                CircularQueue_Remove
 .text.CircularQueue_Sense
                0x0000000008005874       0x88 Utilities/stm_queue.o
                0x0000000008005874                CircularQueue_Sense
 .text.__errno  0x00000000080058fc        0xc c:/st/stm32cubeide_1.4.0/stm32cubeide/plugins/com.st.stm32cube.ide.mcu.externaltools.gnu-tools-for-stm32.7-2018-q2-update.win32_1.5.0.202011040924/tools/bin/../lib/gcc/arm-none-eabi/7.3.1/../../../../arm-none-eabi/lib/thumb/v7e-m/fpv4-sp/hard\libc_nano.a(lib_a-errno.o)
                0x00000000080058fc                __errno
 .text.__libc_init_array
                0x0000000008005908       0x48 c:/st/stm32cubeide_1.4.0/stm32cubeide/plugins/com.st.stm32cube.ide.mcu.externaltools.gnu-tools-for-stm32.7-2018-q2-update.win32_1.5.0.202011040924/tools/bin/../lib/gcc/arm-none-eabi/7.3.1/../../../../arm-none-eabi/lib/thumb/v7e-m/fpv4-sp/hard\libc_nano.a(lib_a-init.o)
                0x0000000008005908                __libc_init_array
 .text.memcpy   0x0000000008005950       0x16 c:/st/stm32cubeide_1.4.0/stm32cubeide/plugins/com.st.stm32cube.ide.mcu.externaltools.gnu-tools-for-stm32.7-2018-q2-update.win32_1.5.0.202011040924/tools/bin/../lib/gcc/arm-none-eabi/7.3.1/../../../../arm-none-eabi/lib/thumb/v7e-m/fpv4-sp/hard\libc_nano.a(lib_a-memcpy-stub.o)
                0x0000000008005950                memcpy
 .text.memset   0x0000000008005966       0x10 c:/st/stm32cubeide_1.4.0/stm32cubeide/plugins/com.st.stm32cube.ide.mcu.externaltools.gnu-tools-for-stm32.7-2018-q2-update.win32_1.5.0.202011040924/tools/bin/../lib/gcc/arm-none-eabi/7.3.1/../../../../arm-none-eabi/lib/thumb/v7e-m/fpv4-sp/hard\libc_nano.a(lib_a-memset.o)
                0x0000000008005966                memset
 *fill*         0x0000000008005976        0x2 
 .text.printf   0x0000000008005978       0x30 c:/st/stm32cubeide_1.4.0/stm32cubeide/plugins/com.st.stm32cube.ide.mcu.externaltools.gnu-tools-for-stm32.7-2018-q2-update.win32_1.5.0.202011040924/tools/bin/../lib/gcc/arm-none-eabi/7.3.1/../../../../arm-none-eabi/lib/thumb/v7e-m/fpv4-sp/hard\libc_nano.a(lib_a-printf.o)
                0x0000000008005978                iprintf
                0x0000000008005978                printf
 .text._puts_r  0x00000000080059a8       0xb8 c:/st/stm32cubeide_1.4.0/stm32cubeide/plugins/com.st.stm32cube.ide.mcu.externaltools.gnu-tools-for-stm32.7-2018-q2-update.win32_1.5.0.202011040924/tools/bin/../lib/gcc/arm-none-eabi/7.3.1/../../../../arm-none-eabi/lib/thumb/v7e-m/fpv4-sp/hard\libc_nano.a(lib_a-puts.o)
                0x00000000080059a8                _puts_r
 .text.puts     0x0000000008005a60       0x10 c:/st/stm32cubeide_1.4.0/stm32cubeide/plugins/com.st.stm32cube.ide.mcu.externaltools.gnu-tools-for-stm32.7-2018-q2-update.win32_1.5.0.202011040924/tools/bin/../lib/gcc/arm-none-eabi/7.3.1/../../../../arm-none-eabi/lib/thumb/v7e-m/fpv4-sp/hard\libc_nano.a(lib_a-puts.o)
                0x0000000008005a60                puts
 .text.__swbuf_r
                0x0000000008005a70       0xa4 c:/st/stm32cubeide_1.4.0/stm32cubeide/plugins/com.st.stm32cube.ide.mcu.externaltools.gnu-tools-for-stm32.7-2018-q2-update.win32_1.5.0.202011040924/tools/bin/../lib/gcc/arm-none-eabi/7.3.1/../../../../arm-none-eabi/lib/thumb/v7e-m/fpv4-sp/hard\libc_nano.a(lib_a-wbuf.o)
                0x0000000008005a70                __swbuf_r
 .text.__swsetup_r
                0x0000000008005b14       0xdc c:/st/stm32cubeide_1.4.0/stm32cubeide/plugins/com.st.stm32cube.ide.mcu.externaltools.gnu-tools-for-stm32.7-2018-q2-update.win32_1.5.0.202011040924/tools/bin/../lib/gcc/arm-none-eabi/7.3.1/../../../../arm-none-eabi/lib/thumb/v7e-m/fpv4-sp/hard\libc_nano.a(lib_a-wsetup.o)
                0x0000000008005b14                __swsetup_r
 .text.__sflush_r
                0x0000000008005bf0      0x10c c:/st/stm32cubeide_1.4.0/stm32cubeide/plugins/com.st.stm32cube.ide.mcu.externaltools.gnu-tools-for-stm32.7-2018-q2-update.win32_1.5.0.202011040924/tools/bin/../lib/gcc/arm-none-eabi/7.3.1/../../../../arm-none-eabi/lib/thumb/v7e-m/fpv4-sp/hard\libc_nano.a(lib_a-fflush.o)
                0x0000000008005bf0                __sflush_r
 .text._fflush_r
                0x0000000008005cfc       0x54 c:/st/stm32cubeide_1.4.0/stm32cubeide/plugins/com.st.stm32cube.ide.mcu.externaltools.gnu-tools-for-stm32.7-2018-q2-update.win32_1.5.0.202011040924/tools/bin/../lib/gcc/arm-none-eabi/7.3.1/../../../../arm-none-eabi/lib/thumb/v7e-m/fpv4-sp/hard\libc_nano.a(lib_a-fflush.o)
                0x0000000008005cfc                _fflush_r
 .text.std      0x0000000008005d50       0x48 c:/st/stm32cubeide_1.4.0/stm32cubeide/plugins/com.st.stm32cube.ide.mcu.externaltools.gnu-tools-for-stm32.7-2018-q2-update.win32_1.5.0.202011040924/tools/bin/../lib/gcc/arm-none-eabi/7.3.1/../../../../arm-none-eabi/lib/thumb/v7e-m/fpv4-sp/hard\libc_nano.a(lib_a-findfp.o)
 .text._cleanup_r
                0x0000000008005d98        0xc c:/st/stm32cubeide_1.4.0/stm32cubeide/plugins/com.st.stm32cube.ide.mcu.externaltools.gnu-tools-for-stm32.7-2018-q2-update.win32_1.5.0.202011040924/tools/bin/../lib/gcc/arm-none-eabi/7.3.1/../../../../arm-none-eabi/lib/thumb/v7e-m/fpv4-sp/hard\libc_nano.a(lib_a-findfp.o)
                0x0000000008005d98                _cleanup_r
 .text.__sfmoreglue
                0x0000000008005da4       0x2c c:/st/stm32cubeide_1.4.0/stm32cubeide/plugins/com.st.stm32cube.ide.mcu.externaltools.gnu-tools-for-stm32.7-2018-q2-update.win32_1.5.0.202011040924/tools/bin/../lib/gcc/arm-none-eabi/7.3.1/../../../../arm-none-eabi/lib/thumb/v7e-m/fpv4-sp/hard\libc_nano.a(lib_a-findfp.o)
                0x0000000008005da4                __sfmoreglue
 .text.__sinit  0x0000000008005dd0       0x60 c:/st/stm32cubeide_1.4.0/stm32cubeide/plugins/com.st.stm32cube.ide.mcu.externaltools.gnu-tools-for-stm32.7-2018-q2-update.win32_1.5.0.202011040924/tools/bin/../lib/gcc/arm-none-eabi/7.3.1/../../../../arm-none-eabi/lib/thumb/v7e-m/fpv4-sp/hard\libc_nano.a(lib_a-findfp.o)
                0x0000000008005dd0                __sinit
 .text.__sfp    0x0000000008005e30       0x78 c:/st/stm32cubeide_1.4.0/stm32cubeide/plugins/com.st.stm32cube.ide.mcu.externaltools.gnu-tools-for-stm32.7-2018-q2-update.win32_1.5.0.202011040924/tools/bin/../lib/gcc/arm-none-eabi/7.3.1/../../../../arm-none-eabi/lib/thumb/v7e-m/fpv4-sp/hard\libc_nano.a(lib_a-findfp.o)
                0x0000000008005e30                __sfp
 .text._fwalk_reent
                0x0000000008005ea8       0x3c c:/st/stm32cubeide_1.4.0/stm32cubeide/plugins/com.st.stm32cube.ide.mcu.externaltools.gnu-tools-for-stm32.7-2018-q2-update.win32_1.5.0.202011040924/tools/bin/../lib/gcc/arm-none-eabi/7.3.1/../../../../arm-none-eabi/lib/thumb/v7e-m/fpv4-sp/hard\libc_nano.a(lib_a-fwalk.o)
                0x0000000008005ea8                _fwalk_reent
 .text.__swhatbuf_r
                0x0000000008005ee4       0x48 c:/st/stm32cubeide_1.4.0/stm32cubeide/plugins/com.st.stm32cube.ide.mcu.externaltools.gnu-tools-for-stm32.7-2018-q2-update.win32_1.5.0.202011040924/tools/bin/../lib/gcc/arm-none-eabi/7.3.1/../../../../arm-none-eabi/lib/thumb/v7e-m/fpv4-sp/hard\libc_nano.a(lib_a-makebuf.o)
                0x0000000008005ee4                __swhatbuf_r
 .text.__smakebuf_r
                0x0000000008005f2c       0x80 c:/st/stm32cubeide_1.4.0/stm32cubeide/plugins/com.st.stm32cube.ide.mcu.externaltools.gnu-tools-for-stm32.7-2018-q2-update.win32_1.5.0.202011040924/tools/bin/../lib/gcc/arm-none-eabi/7.3.1/../../../../arm-none-eabi/lib/thumb/v7e-m/fpv4-sp/hard\libc_nano.a(lib_a-makebuf.o)
                0x0000000008005f2c                __smakebuf_r
 .text._free_r  0x0000000008005fac       0x9c c:/st/stm32cubeide_1.4.0/stm32cubeide/plugins/com.st.stm32cube.ide.mcu.externaltools.gnu-tools-for-stm32.7-2018-q2-update.win32_1.5.0.202011040924/tools/bin/../lib/gcc/arm-none-eabi/7.3.1/../../../../arm-none-eabi/lib/thumb/v7e-m/fpv4-sp/hard\libc_nano.a(lib_a-nano-freer.o)
                0x0000000008005fac                _free_r
 .text._malloc_r
                0x0000000008006048       0xb4 c:/st/stm32cubeide_1.4.0/stm32cubeide/plugins/com.st.stm32cube.ide.mcu.externaltools.gnu-tools-for-stm32.7-2018-q2-update.win32_1.5.0.202011040924/tools/bin/../lib/gcc/arm-none-eabi/7.3.1/../../../../arm-none-eabi/lib/thumb/v7e-m/fpv4-sp/hard\libc_nano.a(lib_a-nano-mallocr.o)
                0x0000000008006048                _malloc_r
 .text.__sfputc_r
                0x00000000080060fc       0x2e c:/st/stm32cubeide_1.4.0/stm32cubeide/plugins/com.st.stm32cube.ide.mcu.externaltools.gnu-tools-for-stm32.7-2018-q2-update.win32_1.5.0.202011040924/tools/bin/../lib/gcc/arm-none-eabi/7.3.1/../../../../arm-none-eabi/lib/thumb/v7e-m/fpv4-sp/hard\libc_nano.a(lib_a-nano-vfprintf.o)
 .text.__sfputs_r
                0x000000000800612a       0x24 c:/st/stm32cubeide_1.4.0/stm32cubeide/plugins/com.st.stm32cube.ide.mcu.externaltools.gnu-tools-for-stm32.7-2018-q2-update.win32_1.5.0.202011040924/tools/bin/../lib/gcc/arm-none-eabi/7.3.1/../../../../arm-none-eabi/lib/thumb/v7e-m/fpv4-sp/hard\libc_nano.a(lib_a-nano-vfprintf.o)
                0x000000000800612a                __sfputs_r
 *fill*         0x000000000800614e        0x2 
 .text._vfprintf_r
                0x0000000008006150      0x22c c:/st/stm32cubeide_1.4.0/stm32cubeide/plugins/com.st.stm32cube.ide.mcu.externaltools.gnu-tools-for-stm32.7-2018-q2-update.win32_1.5.0.202011040924/tools/bin/../lib/gcc/arm-none-eabi/7.3.1/../../../../arm-none-eabi/lib/thumb/v7e-m/fpv4-sp/hard\libc_nano.a(lib_a-nano-vfprintf.o)
                0x0000000008006150                _vfprintf_r
                0x0000000008006150                _vfiprintf_r
 .text._printf_common
                0x000000000800637c       0xea c:/st/stm32cubeide_1.4.0/stm32cubeide/plugins/com.st.stm32cube.ide.mcu.externaltools.gnu-tools-for-stm32.7-2018-q2-update.win32_1.5.0.202011040924/tools/bin/../lib/gcc/arm-none-eabi/7.3.1/../../../../arm-none-eabi/lib/thumb/v7e-m/fpv4-sp/hard\libc_nano.a(lib_a-nano-vfprintf_i.o)
                0x000000000800637c                _printf_common
 *fill*         0x0000000008006466        0x2 
 .text._printf_i
                0x0000000008006468      0x224 c:/st/stm32cubeide_1.4.0/stm32cubeide/plugins/com.st.stm32cube.ide.mcu.externaltools.gnu-tools-for-stm32.7-2018-q2-update.win32_1.5.0.202011040924/tools/bin/../lib/gcc/arm-none-eabi/7.3.1/../../../../arm-none-eabi/lib/thumb/v7e-m/fpv4-sp/hard\libc_nano.a(lib_a-nano-vfprintf_i.o)
                0x0000000008006468                _printf_i
 .text._sbrk_r  0x000000000800668c       0x20 c:/st/stm32cubeide_1.4.0/stm32cubeide/plugins/com.st.stm32cube.ide.mcu.externaltools.gnu-tools-for-stm32.7-2018-q2-update.win32_1.5.0.202011040924/tools/bin/../lib/gcc/arm-none-eabi/7.3.1/../../../../arm-none-eabi/lib/thumb/v7e-m/fpv4-sp/hard\libc_nano.a(lib_a-sbrkr.o)
                0x000000000800668c                _sbrk_r
 .text.__sread  0x00000000080066ac       0x22 c:/st/stm32cubeide_1.4.0/stm32cubeide/plugins/com.st.stm32cube.ide.mcu.externaltools.gnu-tools-for-stm32.7-2018-q2-update.win32_1.5.0.202011040924/tools/bin/../lib/gcc/arm-none-eabi/7.3.1/../../../../arm-none-eabi/lib/thumb/v7e-m/fpv4-sp/hard\libc_nano.a(lib_a-stdio.o)
                0x00000000080066ac                __sread
 .text.__swrite
                0x00000000080066ce       0x38 c:/st/stm32cubeide_1.4.0/stm32cubeide/plugins/com.st.stm32cube.ide.mcu.externaltools.gnu-tools-for-stm32.7-2018-q2-update.win32_1.5.0.202011040924/tools/bin/../lib/gcc/arm-none-eabi/7.3.1/../../../../arm-none-eabi/lib/thumb/v7e-m/fpv4-sp/hard\libc_nano.a(lib_a-stdio.o)
                0x00000000080066ce                __swrite
 .text.__sseek  0x0000000008006706       0x24 c:/st/stm32cubeide_1.4.0/stm32cubeide/plugins/com.st.stm32cube.ide.mcu.externaltools.gnu-tools-for-stm32.7-2018-q2-update.win32_1.5.0.202011040924/tools/bin/../lib/gcc/arm-none-eabi/7.3.1/../../../../arm-none-eabi/lib/thumb/v7e-m/fpv4-sp/hard\libc_nano.a(lib_a-stdio.o)
                0x0000000008006706                __sseek
 .text.__sclose
                0x000000000800672a        0x8 c:/st/stm32cubeide_1.4.0/stm32cubeide/plugins/com.st.stm32cube.ide.mcu.externaltools.gnu-tools-for-stm32.7-2018-q2-update.win32_1.5.0.202011040924/tools/bin/../lib/gcc/arm-none-eabi/7.3.1/../../../../arm-none-eabi/lib/thumb/v7e-m/fpv4-sp/hard\libc_nano.a(lib_a-stdio.o)
                0x000000000800672a                __sclose
 *fill*         0x0000000008006732        0x2 
 .text._write_r
                0x0000000008006734       0x24 c:/st/stm32cubeide_1.4.0/stm32cubeide/plugins/com.st.stm32cube.ide.mcu.externaltools.gnu-tools-for-stm32.7-2018-q2-update.win32_1.5.0.202011040924/tools/bin/../lib/gcc/arm-none-eabi/7.3.1/../../../../arm-none-eabi/lib/thumb/v7e-m/fpv4-sp/hard\libc_nano.a(lib_a-writer.o)
                0x0000000008006734                _write_r
 .text._close_r
                0x0000000008006758       0x20 c:/st/stm32cubeide_1.4.0/stm32cubeide/plugins/com.st.stm32cube.ide.mcu.externaltools.gnu-tools-for-stm32.7-2018-q2-update.win32_1.5.0.202011040924/tools/bin/../lib/gcc/arm-none-eabi/7.3.1/../../../../arm-none-eabi/lib/thumb/v7e-m/fpv4-sp/hard\libc_nano.a(lib_a-closer.o)
                0x0000000008006758                _close_r
 .text._fstat_r
                0x0000000008006778       0x24 c:/st/stm32cubeide_1.4.0/stm32cubeide/plugins/com.st.stm32cube.ide.mcu.externaltools.gnu-tools-for-stm32.7-2018-q2-update.win32_1.5.0.202011040924/tools/bin/../lib/gcc/arm-none-eabi/7.3.1/../../../../arm-none-eabi/lib/thumb/v7e-m/fpv4-sp/hard\libc_nano.a(lib_a-fstatr.o)
                0x0000000008006778                _fstat_r
 .text._isatty_r
                0x000000000800679c       0x20 c:/st/stm32cubeide_1.4.0/stm32cubeide/plugins/com.st.stm32cube.ide.mcu.externaltools.gnu-tools-for-stm32.7-2018-q2-update.win32_1.5.0.202011040924/tools/bin/../lib/gcc/arm-none-eabi/7.3.1/../../../../arm-none-eabi/lib/thumb/v7e-m/fpv4-sp/hard\libc_nano.a(lib_a-isattyr.o)
                0x000000000800679c                _isatty_r
 .text._lseek_r
                0x00000000080067bc       0x24 c:/st/stm32cubeide_1.4.0/stm32cubeide/plugins/com.st.stm32cube.ide.mcu.externaltools.gnu-tools-for-stm32.7-2018-q2-update.win32_1.5.0.202011040924/tools/bin/../lib/gcc/arm-none-eabi/7.3.1/../../../../arm-none-eabi/lib/thumb/v7e-m/fpv4-sp/hard\libc_nano.a(lib_a-lseekr.o)
                0x00000000080067bc                _lseek_r
 .text.__malloc_lock
                0x00000000080067e0        0x2 c:/st/stm32cubeide_1.4.0/stm32cubeide/plugins/com.st.stm32cube.ide.mcu.externaltools.gnu-tools-for-stm32.7-2018-q2-update.win32_1.5.0.202011040924/tools/bin/../lib/gcc/arm-none-eabi/7.3.1/../../../../arm-none-eabi/lib/thumb/v7e-m/fpv4-sp/hard\libc_nano.a(lib_a-mlock.o)
                0x00000000080067e0                __malloc_lock
 .text.__malloc_unlock
                0x00000000080067e2        0x2 c:/st/stm32cubeide_1.4.0/stm32cubeide/plugins/com.st.stm32cube.ide.mcu.externaltools.gnu-tools-for-stm32.7-2018-q2-update.win32_1.5.0.202011040924/tools/bin/../lib/gcc/arm-none-eabi/7.3.1/../../../../arm-none-eabi/lib/thumb/v7e-m/fpv4-sp/hard\libc_nano.a(lib_a-mlock.o)
                0x00000000080067e2                __malloc_unlock
 .text._read_r  0x00000000080067e4       0x24 c:/st/stm32cubeide_1.4.0/stm32cubeide/plugins/com.st.stm32cube.ide.mcu.externaltools.gnu-tools-for-stm32.7-2018-q2-update.win32_1.5.0.202011040924/tools/bin/../lib/gcc/arm-none-eabi/7.3.1/../../../../arm-none-eabi/lib/thumb/v7e-m/fpv4-sp/hard\libc_nano.a(lib_a-readr.o)
                0x00000000080067e4                _read_r
 *(.glue_7)
 .glue_7        0x0000000008006808        0x0 linker stubs
 *(.glue_7t)
 .glue_7t       0x0000000008006808        0x0 linker stubs
 *(.eh_frame)
 .eh_frame      0x0000000008006808        0x0 c:/st/stm32cubeide_1.4.0/stm32cubeide/plugins/com.st.stm32cube.ide.mcu.externaltools.gnu-tools-for-stm32.7-2018-q2-update.win32_1.5.0.202011040924/tools/bin/../lib/gcc/arm-none-eabi/7.3.1/thumb/v7e-m/fpv4-sp/hard/crtbegin.o
 *(.init)
 .init          0x0000000008006808        0x4 c:/st/stm32cubeide_1.4.0/stm32cubeide/plugins/com.st.stm32cube.ide.mcu.externaltools.gnu-tools-for-stm32.7-2018-q2-update.win32_1.5.0.202011040924/tools/bin/../lib/gcc/arm-none-eabi/7.3.1/thumb/v7e-m/fpv4-sp/hard/crti.o
                0x0000000008006808                _init
 .init          0x000000000800680c        0x8 c:/st/stm32cubeide_1.4.0/stm32cubeide/plugins/com.st.stm32cube.ide.mcu.externaltools.gnu-tools-for-stm32.7-2018-q2-update.win32_1.5.0.202011040924/tools/bin/../lib/gcc/arm-none-eabi/7.3.1/thumb/v7e-m/fpv4-sp/hard/crtn.o
 *(.fini)
 .fini          0x0000000008006814        0x4 c:/st/stm32cubeide_1.4.0/stm32cubeide/plugins/com.st.stm32cube.ide.mcu.externaltools.gnu-tools-for-stm32.7-2018-q2-update.win32_1.5.0.202011040924/tools/bin/../lib/gcc/arm-none-eabi/7.3.1/thumb/v7e-m/fpv4-sp/hard/crti.o
                0x0000000008006814                _fini
 .fini          0x0000000008006818        0x8 c:/st/stm32cubeide_1.4.0/stm32cubeide/plugins/com.st.stm32cube.ide.mcu.externaltools.gnu-tools-for-stm32.7-2018-q2-update.win32_1.5.0.202011040924/tools/bin/../lib/gcc/arm-none-eabi/7.3.1/thumb/v7e-m/fpv4-sp/hard/crtn.o
                0x0000000008006820                . = ALIGN (0x4)
                0x0000000008006820                _etext = .

.vfp11_veneer   0x0000000008006820        0x0
 .vfp11_veneer  0x0000000008006820        0x0 linker stubs

.v4_bx          0x0000000008006820        0x0
 .v4_bx         0x0000000008006820        0x0 linker stubs

.iplt           0x0000000008006820        0x0
 .iplt          0x0000000008006820        0x0 c:/st/stm32cubeide_1.4.0/stm32cubeide/plugins/com.st.stm32cube.ide.mcu.externaltools.gnu-tools-for-stm32.7-2018-q2-update.win32_1.5.0.202011040924/tools/bin/../lib/gcc/arm-none-eabi/7.3.1/thumb/v7e-m/fpv4-sp/hard/crtbegin.o

.rodata         0x0000000008006820      0xff0
                0x0000000008006820                . = ALIGN (0x4)
 *(.rodata)
 .rodata        0x0000000008006820       0x2d Application/User/STM32_WPAN/App/app_ble.o
 .rodata        0x000000000800684d       0x1b Application/User/app_debug.o
 .rodata        0x0000000008006868       0x20 Drivers/STM32WBxx_HAL_Driver/stm32wbxx_hal_rcc.o
 *(.rodata*)
 .rodata.APP_BLE_Init.str1.1
                0x0000000008006888       0x63 Application/User/STM32_WPAN/App/app_ble.o
 .rodata.Adv_Request.str1.1
                0x00000000080068eb      0x111 Application/User/STM32_WPAN/App/app_ble.o
 .rodata.BLE_CFG_ER_VALUE
                0x00000000080069fc       0x10 Application/User/STM32_WPAN/App/app_ble.o
 .rodata.BLE_CFG_IR_VALUE
                0x0000000008006a0c       0x10 Application/User/STM32_WPAN/App/app_ble.o
 .rodata.M_bd_addr
                0x0000000008006a1c        0x6 Application/User/STM32_WPAN/App/app_ble.o
 .rodata.SVCCTL_App_Notification.str1.1
                0x0000000008006a22      0x372 Application/User/STM32_WPAN/App/app_ble.o
 .rodata.local_name
                0x0000000008006d94        0x6 Application/User/STM32_WPAN/App/app_ble.o
 .rodata.DISAPP_Init.str1.1
                0x0000000008006d9a       0x18 Application/User/STM32_WPAN/App/dis_app.o
                                         0x20 (size before relaxing)
 .rodata.ieee_id
                0x0000000008006db2       0x20 Application/User/STM32_WPAN/App/dis_app.o
 .rodata.pnp_id
                0x0000000008006dd2        0x7 Application/User/STM32_WPAN/App/dis_app.o
 .rodata.system_id
                0x0000000008006dd9        0x8 Application/User/STM32_WPAN/App/dis_app.o
 .rodata.HTSAPP_IntermediateTemperature.str1.1
                0x0000000008006de1       0x25 Application/User/STM32_WPAN/App/hts_app.o
 .rodata.HTSAPP_Measurement.str1.1
                0x0000000008006e06       0x6e Application/User/STM32_WPAN/App/hts_app.o
 .rodata.HTS_App_Notification.str1.1
                0x0000000008006e74       0x9c Application/User/STM32_WPAN/App/hts_app.o
 .rodata.aGpioConfigList
                0x0000000008006f10      0x110 Application/User/app_debug.o
 .rodata.BUTTON_IRQn
                0x0000000008007020        0x3 Drivers/BSP/P-NUCLEO-WB55.Nucleo/stm32wbxx_nucleo.o
                0x0000000008007020                BUTTON_IRQn
 *fill*         0x0000000008007023        0x1 
 .rodata.BUTTON_PIN
                0x0000000008007024        0x6 Drivers/BSP/P-NUCLEO-WB55.Nucleo/stm32wbxx_nucleo.o
                0x0000000008007024                BUTTON_PIN
 .rodata.GPIO_PIN
                0x000000000800702a        0x6 Drivers/BSP/P-NUCLEO-WB55.Nucleo/stm32wbxx_nucleo.o
                0x000000000800702a                GPIO_PIN
 .rodata.AHBPrescTable
                0x0000000008007030       0x40 Drivers/CMSIS/system_stm32wbxx.o
                0x0000000008007030                AHBPrescTable
 .rodata.APBPrescTable
                0x0000000008007070       0x20 Drivers/CMSIS/system_stm32wbxx.o
                0x0000000008007070                APBPrescTable
 .rodata.MSIRangeTable
                0x0000000008007090       0x40 Drivers/CMSIS/system_stm32wbxx.o
                0x0000000008007090                MSIRangeTable
 .rodata.CSWTCH.63
                0x00000000080070d0        0x4 Drivers/STM32WBxx_HAL_Driver/stm32wbxx_hal_uart.o
 .rodata.UARTPrescTable
                0x00000000080070d4       0x18 Drivers/STM32WBxx_HAL_Driver/stm32wbxx_hal_uart.o
                0x00000000080070d4                UARTPrescTable
 .rodata.DIS_Init.str1.1
                0x00000000080070ec      0x4ed Middlewares/STM32_WPAN/dis.o
 .rodata.HTS_Init.str1.1
                0x00000000080075d9      0x18f Middlewares/STM32_WPAN/hts.o
 .rodata.SEQ_clz_table_4bit
                0x0000000008007768       0x10 Utilities/stm32_seq.o
 .rodata._global_impure_ptr
                0x0000000008007778        0x4 c:/st/stm32cubeide_1.4.0/stm32cubeide/plugins/com.st.stm32cube.ide.mcu.externaltools.gnu-tools-for-stm32.7-2018-q2-update.win32_1.5.0.202011040924/tools/bin/../lib/gcc/arm-none-eabi/7.3.1/../../../../arm-none-eabi/lib/thumb/v7e-m/fpv4-sp/hard\libc_nano.a(lib_a-impure.o)
                0x0000000008007778                _global_impure_ptr
 .rodata.__sf_fake_stderr
                0x000000000800777c       0x20 c:/st/stm32cubeide_1.4.0/stm32cubeide/plugins/com.st.stm32cube.ide.mcu.externaltools.gnu-tools-for-stm32.7-2018-q2-update.win32_1.5.0.202011040924/tools/bin/../lib/gcc/arm-none-eabi/7.3.1/../../../../arm-none-eabi/lib/thumb/v7e-m/fpv4-sp/hard\libc_nano.a(lib_a-findfp.o)
                0x000000000800777c                __sf_fake_stderr
 .rodata.__sf_fake_stdin
                0x000000000800779c       0x20 c:/st/stm32cubeide_1.4.0/stm32cubeide/plugins/com.st.stm32cube.ide.mcu.externaltools.gnu-tools-for-stm32.7-2018-q2-update.win32_1.5.0.202011040924/tools/bin/../lib/gcc/arm-none-eabi/7.3.1/../../../../arm-none-eabi/lib/thumb/v7e-m/fpv4-sp/hard\libc_nano.a(lib_a-findfp.o)
                0x000000000800779c                __sf_fake_stdin
 .rodata.__sf_fake_stdout
                0x00000000080077bc       0x20 c:/st/stm32cubeide_1.4.0/stm32cubeide/plugins/com.st.stm32cube.ide.mcu.externaltools.gnu-tools-for-stm32.7-2018-q2-update.win32_1.5.0.202011040924/tools/bin/../lib/gcc/arm-none-eabi/7.3.1/../../../../arm-none-eabi/lib/thumb/v7e-m/fpv4-sp/hard\libc_nano.a(lib_a-findfp.o)
                0x00000000080077bc                __sf_fake_stdout
 .rodata._vfprintf_r.str1.1
                0x00000000080077dc       0x11 c:/st/stm32cubeide_1.4.0/stm32cubeide/plugins/com.st.stm32cube.ide.mcu.externaltools.gnu-tools-for-stm32.7-2018-q2-update.win32_1.5.0.202011040924/tools/bin/../lib/gcc/arm-none-eabi/7.3.1/../../../../arm-none-eabi/lib/thumb/v7e-m/fpv4-sp/hard\libc_nano.a(lib_a-nano-vfprintf.o)
 .rodata._printf_i.str1.1
                0x00000000080077ed       0x22 c:/st/stm32cubeide_1.4.0/stm32cubeide/plugins/com.st.stm32cube.ide.mcu.externaltools.gnu-tools-for-stm32.7-2018-q2-update.win32_1.5.0.202011040924/tools/bin/../lib/gcc/arm-none-eabi/7.3.1/../../../../arm-none-eabi/lib/thumb/v7e-m/fpv4-sp/hard\libc_nano.a(lib_a-nano-vfprintf_i.o)
                0x0000000008007810                . = ALIGN (0x4)
 *fill*         0x000000000800780f        0x1 

.ARM.extab
 *(.ARM.extab* .gnu.linkonce.armextab.*)

.ARM            0x0000000008007810        0x8
                0x0000000008007810                __exidx_start = .
 *(.ARM.exidx*)
 .ARM.exidx     0x0000000008007810        0x8 c:/st/stm32cubeide_1.4.0/stm32cubeide/plugins/com.st.stm32cube.ide.mcu.externaltools.gnu-tools-for-stm32.7-2018-q2-update.win32_1.5.0.202011040924/tools/bin/../lib/gcc/arm-none-eabi/7.3.1/thumb/v7e-m/fpv4-sp/hard\libgcc.a(_udivmoddi4.o)
                0x0000000008007818                __exidx_end = .

.rel.dyn        0x0000000008007818        0x0
 .rel.iplt      0x0000000008007818        0x0 c:/st/stm32cubeide_1.4.0/stm32cubeide/plugins/com.st.stm32cube.ide.mcu.externaltools.gnu-tools-for-stm32.7-2018-q2-update.win32_1.5.0.202011040924/tools/bin/../lib/gcc/arm-none-eabi/7.3.1/thumb/v7e-m/fpv4-sp/hard/crtbegin.o

.preinit_array  0x0000000008007818        0x0
                0x0000000008007818                PROVIDE (__preinit_array_start = .)
 *(.preinit_array*)
                0x0000000008007818                PROVIDE (__preinit_array_end = .)

.init_array     0x0000000008007818        0x4
                0x0000000008007818                PROVIDE (__init_array_start = .)
 *(SORT_BY_NAME(.init_array.*))
 *(.init_array*)
 .init_array    0x0000000008007818        0x4 c:/st/stm32cubeide_1.4.0/stm32cubeide/plugins/com.st.stm32cube.ide.mcu.externaltools.gnu-tools-for-stm32.7-2018-q2-update.win32_1.5.0.202011040924/tools/bin/../lib/gcc/arm-none-eabi/7.3.1/thumb/v7e-m/fpv4-sp/hard/crtbegin.o
                0x000000000800781c                PROVIDE (__init_array_end = .)

.fini_array     0x000000000800781c        0x4
                [!provide]                        PROVIDE (__fini_array_start = .)
 *(SORT_BY_NAME(.fini_array.*))
 *(.fini_array*)
 .fini_array    0x000000000800781c        0x4 c:/st/stm32cubeide_1.4.0/stm32cubeide/plugins/com.st.stm32cube.ide.mcu.externaltools.gnu-tools-for-stm32.7-2018-q2-update.win32_1.5.0.202011040924/tools/bin/../lib/gcc/arm-none-eabi/7.3.1/thumb/v7e-m/fpv4-sp/hard/crtbegin.o
                [!provide]                        PROVIDE (__fini_array_end = .)
                0x0000000008007820                _sidata = LOADADDR (.data)

.data           0x0000000020000004       0x94 load address 0x0000000008007820
                0x0000000020000004                . = ALIGN (0x4)
                0x0000000020000004                _sdata = .
 *(.data)
 *(.data*)
 .data.BUTTON_PORT
                0x0000000020000004        0xc Drivers/BSP/P-NUCLEO-WB55.Nucleo/stm32wbxx_nucleo.o
                0x0000000020000004                BUTTON_PORT
 .data.GPIO_PORT
                0x0000000020000010        0xc Drivers/BSP/P-NUCLEO-WB55.Nucleo/stm32wbxx_nucleo.o
                0x0000000020000010                GPIO_PORT
 .data.SystemCoreClock
                0x000000002000001c        0x4 Drivers/CMSIS/system_stm32wbxx.o
                0x000000002000001c                SystemCoreClock
 .data.uwTickFreq
                0x0000000020000020        0x1 Drivers/STM32WBxx_HAL_Driver/stm32wbxx_hal.o
                0x0000000020000020                uwTickFreq
 *fill*         0x0000000020000021        0x3 
 .data.uwTickPrio
                0x0000000020000024        0x4 Drivers/STM32WBxx_HAL_Driver/stm32wbxx_hal.o
                0x0000000020000024                uwTickPrio
 .data.DbgTracePeripheralReady
                0x0000000020000028        0x1 Utilities/dbg_trace.o
                0x0000000020000028                DbgTracePeripheralReady
 *fill*         0x0000000020000029        0x3 
 .data.SuperMask
                0x000000002000002c        0x4 Utilities/stm32_seq.o
 .data.TaskMask
                0x0000000020000030        0x4 Utilities/stm32_seq.o
 .data._impure_ptr
                0x0000000020000034        0x4 c:/st/stm32cubeide_1.4.0/stm32cubeide/plugins/com.st.stm32cube.ide.mcu.externaltools.gnu-tools-for-stm32.7-2018-q2-update.win32_1.5.0.202011040924/tools/bin/../lib/gcc/arm-none-eabi/7.3.1/../../../../arm-none-eabi/lib/thumb/v7e-m/fpv4-sp/hard\libc_nano.a(lib_a-impure.o)
                0x0000000020000034                _impure_ptr
 .data.impure_data
                0x0000000020000038       0x60 c:/st/stm32cubeide_1.4.0/stm32cubeide/plugins/com.st.stm32cube.ide.mcu.externaltools.gnu-tools-for-stm32.7-2018-q2-update.win32_1.5.0.202011040924/tools/bin/../lib/gcc/arm-none-eabi/7.3.1/../../../../arm-none-eabi/lib/thumb/v7e-m/fpv4-sp/hard\libc_nano.a(lib_a-impure.o)
                0x0000000020000098                . = ALIGN (0x4)
                0x0000000020000098                _edata = .

.igot.plt       0x0000000020000098        0x0 load address 0x00000000080078b4
 .igot.plt      0x0000000020000098        0x0 c:/st/stm32cubeide_1.4.0/stm32cubeide/plugins/com.st.stm32cube.ide.mcu.externaltools.gnu-tools-for-stm32.7-2018-q2-update.win32_1.5.0.202011040924/tools/bin/../lib/gcc/arm-none-eabi/7.3.1/thumb/v7e-m/fpv4-sp/hard/crtbegin.o

BLE_APP_CONTEXT
                0x0000000020000098      0x151 load address 0x00000000080078b4
 BLE_APP_CONTEXT
                0x0000000020000098       0x88 Application/User/STM32_WPAN/App/app_ble.o
 BLE_APP_CONTEXT
                0x0000000020000120       0xc9 Application/User/STM32_WPAN/App/hts_app.o

TIMERSERVER_CONTEXT
                0x00000000200001ec       0x99 load address 0x0000000008007a05
 TIMERSERVER_CONTEXT
                0x00000000200001ec       0x99 Application/User/hw_timerserver.o

BLE_DRIVER_CONTEXT
                0x0000000020000288       0x4d load address 0x0000000008007a9e
 BLE_DRIVER_CONTEXT
                0x0000000020000288       0x16 Middlewares/STM32_WPAN/dis.o
 *fill*         0x000000002000029e        0x2 
 BLE_DRIVER_CONTEXT
                0x00000000200002a0        0xe Middlewares/STM32_WPAN/hci_tl.o
                0x00000000200002ac                UserEventFlow
 BLE_DRIVER_CONTEXT
                0x00000000200002ae        0x6 Middlewares/STM32_WPAN/hts.o
 BLE_DRIVER_CONTEXT
                0x00000000200002b4       0x21 Middlewares/STM32_WPAN/svc_ctl.o
                0x00000000200002b4                SVCCTL_EvtHandler
                0x00000000200002d4                SVCCTL_CltHandler

SYSTEM_DRIVER_CONTEXT
                0x00000000200002d8       0x11 load address 0x0000000008007aeb
 SYSTEM_DRIVER_CONTEXT
                0x00000000200002d8       0x11 Middlewares/STM32_WPAN/shci_tl.o
                0x00000000200002e8                SHCI_TL_UserEventFlow
                0x00000000200002ec                . = ALIGN (0x4)

.bss            0x00000000200002ec     0x1380 load address 0x0000000008007afc
                0x00000000200002ec                _sbss = .
                0x00000000200002ec                __bss_start__ = _sbss
 *(.bss)
 .bss           0x00000000200002ec       0x1c c:/st/stm32cubeide_1.4.0/stm32cubeide/plugins/com.st.stm32cube.ide.mcu.externaltools.gnu-tools-for-stm32.7-2018-q2-update.win32_1.5.0.202011040924/tools/bin/../lib/gcc/arm-none-eabi/7.3.1/thumb/v7e-m/fpv4-sp/hard/crtbegin.o
 *(.bss*)
 .bss.bd_addr_udn
                0x0000000020000308        0x6 Application/User/STM32_WPAN/App/app_ble.o
 *fill*         0x000000002000030e        0x2 
 .bss.FreeBufCb
                0x0000000020000310        0x4 Application/User/STM32_WPAN/Target/hw_ipcc.o
 .bss.AsynchPrescalerUserConfig
                0x0000000020000314        0x1 Application/User/hw_timerserver.o
 *fill*         0x0000000020000315        0x1 
 .bss.MaxWakeupTimerSetup
                0x0000000020000316        0x2 Application/User/hw_timerserver.o
 .bss.SynchPrescalerUserConfig
                0x0000000020000318        0x2 Application/User/hw_timerserver.o
 .bss.WakeupTimerDivider
                0x000000002000031a        0x1 Application/User/hw_timerserver.o
 *fill*         0x000000002000031b        0x1 
 .bss.phrtc     0x000000002000031c        0x4 Application/User/hw_timerserver.o
 .bss.heap_end.6424
                0x0000000020000320        0x4 Application/User/sysmem.o
 .bss.HciCmdEventQueue
                0x0000000020000324        0x8 Middlewares/STM32_WPAN/hci_tl.o
 .bss.StatusNotCallBackFunction
                0x000000002000032c        0x4 Middlewares/STM32_WPAN/hci_tl.o
 .bss.hciContext
                0x0000000020000330       0x20 Middlewares/STM32_WPAN/hci_tl.o
 .bss.StatusNotCallBackFunction
                0x0000000020000350        0x4 Middlewares/STM32_WPAN/shci_tl.o
 .bss.shciContext
                0x0000000020000354       0x20 Middlewares/STM32_WPAN/shci_tl.o
 .bss.BLE_IoBusAclDataTxAck
                0x0000000020000374        0x4 Middlewares/STM32_WPAN/tl_mbox.o
 .bss.BLE_IoBusEvtCallBackFunction
                0x0000000020000378        0x4 Middlewares/STM32_WPAN/tl_mbox.o
 .bss.LocalFreeBufQueue
                0x000000002000037c        0x8 Middlewares/STM32_WPAN/tl_mbox.o
 .bss.SYS_CMD_IoBusCallBackFunction
                0x0000000020000384        0x4 Middlewares/STM32_WPAN/tl_mbox.o
 .bss.SYS_EVT_IoBusCallBackFunction
                0x0000000020000388        0x4 Middlewares/STM32_WPAN/tl_mbox.o
 .bss.MsgDbgTraceQueue
                0x000000002000038c       0x20 Utilities/dbg_trace.o
 .bss.MsgDbgTraceQueueBuff
                0x00000000200003ac     0x1000 Utilities/dbg_trace.o
 .bss.OffModeDisable
                0x00000000200013ac        0x4 Utilities/stm32_lpm.o
 .bss.StopModeDisable
                0x00000000200013b0        0x4 Utilities/stm32_lpm.o
 .bss.CurrentTaskIdx
                0x00000000200013b4        0x4 Utilities/stm32_seq.o
 .bss.EvtSet    0x00000000200013b8        0x4 Utilities/stm32_seq.o
 .bss.EvtWaited
                0x00000000200013bc        0x4 Utilities/stm32_seq.o
 .bss.TaskCb    0x00000000200013c0       0x80 Utilities/stm32_seq.o
 .bss.TaskPrio  0x0000000020001440       0x10 Utilities/stm32_seq.o
 .bss.TaskSet   0x0000000020001450        0x4 Utilities/stm32_seq.o
 .bss.__malloc_free_list
                0x0000000020001454        0x4 c:/st/stm32cubeide_1.4.0/stm32cubeide/plugins/com.st.stm32cube.ide.mcu.externaltools.gnu-tools-for-stm32.7-2018-q2-update.win32_1.5.0.202011040924/tools/bin/../lib/gcc/arm-none-eabi/7.3.1/../../../../arm-none-eabi/lib/thumb/v7e-m/fpv4-sp/hard\libc_nano.a(lib_a-nano-mallocr.o)
                0x0000000020001454                __malloc_free_list
 .bss.__malloc_sbrk_start
                0x0000000020001458        0x4 c:/st/stm32cubeide_1.4.0/stm32cubeide/plugins/com.st.stm32cube.ide.mcu.externaltools.gnu-tools-for-stm32.7-2018-q2-update.win32_1.5.0.202011040924/tools/bin/../lib/gcc/arm-none-eabi/7.3.1/../../../../arm-none-eabi/lib/thumb/v7e-m/fpv4-sp/hard\libc_nano.a(lib_a-nano-mallocr.o)
                0x0000000020001458                __malloc_sbrk_start
 *(COMMON)
 COMMON         0x000000002000145c        0x8 Application/User/hw_uart.o
                0x000000002000145c                HW_huart1RxCb
                0x0000000020001460                HW_huart1TxCb
 COMMON         0x0000000020001464      0x1fc Application/User/main.o
                0x0000000020001464                hlpuart1
                0x00000000200014f0                hdma_usart1_tx
                0x0000000020001550                huart1
                0x00000000200015dc                hrtc
                0x0000000020001600                hdma_lpuart1_tx
 COMMON         0x0000000020001660        0x4 Drivers/STM32WBxx_HAL_Driver/stm32wbxx_hal.o
                0x0000000020001660                uwTick
 COMMON         0x0000000020001664        0x4 Middlewares/STM32_WPAN/dis.o
                0x0000000020001664                CusChHdle
                0x0000000020001666                CusSvcHdle
 COMMON         0x0000000020001668        0x4 c:/st/stm32cubeide_1.4.0/stm32cubeide/plugins/com.st.stm32cube.ide.mcu.externaltools.gnu-tools-for-stm32.7-2018-q2-update.win32_1.5.0.202011040924/tools/bin/../lib/gcc/arm-none-eabi/7.3.1/../../../../arm-none-eabi/lib/thumb/v7e-m/fpv4-sp/hard\libc_nano.a(lib_a-reent.o)
                0x0000000020001668                errno
                0x000000002000166c                . = ALIGN (0x4)
                0x000000002000166c                _ebss = .
                0x000000002000166c                __bss_end__ = _ebss

._user_heap_stack
                0x000000002000166c     0x1404 load address 0x0000000008007afc
                0x0000000020001670                . = ALIGN (0x8)
 *fill*         0x000000002000166c        0x4 
                0x0000000020001670                PROVIDE (end = .)
                [!provide]                        PROVIDE (_end = .)
                0x0000000020001a70                . = (. + _Min_Heap_Size)
 *fill*         0x0000000020001670      0x400 
                0x0000000020002a70                . = (. + _Min_Stack_Size)
 *fill*         0x0000000020001a70     0x1000 
                0x0000000020002a70                . = ALIGN (0x8)

/DISCARD/
 libc.a(*)
 libm.a(*)
 libgcc.a(*)

.ARM.attributes
                0x0000000000000000       0x30
 *(.ARM.attributes)
 .ARM.attributes
                0x0000000000000000       0x22 c:/st/stm32cubeide_1.4.0/stm32cubeide/plugins/com.st.stm32cube.ide.mcu.externaltools.gnu-tools-for-stm32.7-2018-q2-update.win32_1.5.0.202011040924/tools/bin/../lib/gcc/arm-none-eabi/7.3.1/thumb/v7e-m/fpv4-sp/hard/crti.o
 .ARM.attributes
                0x0000000000000022       0x34 c:/st/stm32cubeide_1.4.0/stm32cubeide/plugins/com.st.stm32cube.ide.mcu.externaltools.gnu-tools-for-stm32.7-2018-q2-update.win32_1.5.0.202011040924/tools/bin/../lib/gcc/arm-none-eabi/7.3.1/thumb/v7e-m/fpv4-sp/hard/crtbegin.o
 .ARM.attributes
                0x0000000000000056       0x21 Application/Startup/startup_stm32wb55rgvx.o
 .ARM.attributes
                0x0000000000000077       0x39 Application/User/STM32_WPAN/App/app_ble.o
 .ARM.attributes
                0x00000000000000b0       0x39 Application/User/STM32_WPAN/App/dis_app.o
 .ARM.attributes
                0x00000000000000e9       0x39 Application/User/STM32_WPAN/App/hts_app.o
 .ARM.attributes
                0x0000000000000122       0x39 Application/User/STM32_WPAN/Target/hw_ipcc.o
 .ARM.attributes
                0x000000000000015b       0x39 Application/User/app_debug.o
 .ARM.attributes
                0x0000000000000194       0x39 Application/User/app_entry.o
 .ARM.attributes
                0x00000000000001cd       0x39 Application/User/hw_timerserver.o
 .ARM.attributes
                0x0000000000000206       0x39 Application/User/hw_uart.o
 .ARM.attributes
                0x000000000000023f       0x39 Application/User/main.o
 .ARM.attributes
                0x0000000000000278       0x39 Application/User/stm32wbxx_hal_msp.o
 .ARM.attributes
                0x00000000000002b1       0x39 Application/User/stm32wbxx_it.o
 .ARM.attributes
                0x00000000000002ea       0x39 Application/User/syscalls.o
 .ARM.attributes
                0x0000000000000323       0x39 Application/User/sysmem.o
 .ARM.attributes
                0x000000000000035c       0x39 Drivers/BSP/P-NUCLEO-WB55.Nucleo/stm32wbxx_nucleo.o
 .ARM.attributes
                0x0000000000000395       0x39 Drivers/CMSIS/system_stm32wbxx.o
 .ARM.attributes
                0x00000000000003ce       0x39 Drivers/STM32WBxx_HAL_Driver/stm32wbxx_hal.o
 .ARM.attributes
                0x0000000000000407       0x39 Drivers/STM32WBxx_HAL_Driver/stm32wbxx_hal_cortex.o
 .ARM.attributes
                0x0000000000000440       0x39 Drivers/STM32WBxx_HAL_Driver/stm32wbxx_hal_dma.o
 .ARM.attributes
                0x0000000000000479       0x39 Drivers/STM32WBxx_HAL_Driver/stm32wbxx_hal_dma_ex.o
 .ARM.attributes
                0x00000000000004b2       0x39 Drivers/STM32WBxx_HAL_Driver/stm32wbxx_hal_gpio.o
 .ARM.attributes
                0x00000000000004eb       0x39 Drivers/STM32WBxx_HAL_Driver/stm32wbxx_hal_hsem.o
 .ARM.attributes
                0x0000000000000524       0x39 Drivers/STM32WBxx_HAL_Driver/stm32wbxx_hal_pwr.o
 .ARM.attributes
                0x000000000000055d       0x39 Drivers/STM32WBxx_HAL_Driver/stm32wbxx_hal_pwr_ex.o
 .ARM.attributes
                0x0000000000000596       0x39 Drivers/STM32WBxx_HAL_Driver/stm32wbxx_hal_rcc.o
 .ARM.attributes
                0x00000000000005cf       0x39 Drivers/STM32WBxx_HAL_Driver/stm32wbxx_hal_rcc_ex.o
 .ARM.attributes
                0x0000000000000608       0x39 Drivers/STM32WBxx_HAL_Driver/stm32wbxx_hal_rtc.o
 .ARM.attributes
                0x0000000000000641       0x39 Drivers/STM32WBxx_HAL_Driver/stm32wbxx_hal_rtc_ex.o
 .ARM.attributes
                0x000000000000067a       0x39 Drivers/STM32WBxx_HAL_Driver/stm32wbxx_hal_uart.o
 .ARM.attributes
                0x00000000000006b3       0x39 Drivers/STM32WBxx_HAL_Driver/stm32wbxx_hal_uart_ex.o
 .ARM.attributes
                0x00000000000006ec       0x39 Middlewares/STM32_WPAN/ble_gap_aci.o
 .ARM.attributes
                0x0000000000000725       0x39 Middlewares/STM32_WPAN/ble_gatt_aci.o
 .ARM.attributes
                0x000000000000075e       0x39 Middlewares/STM32_WPAN/ble_hal_aci.o
 .ARM.attributes
                0x0000000000000797       0x39 Middlewares/STM32_WPAN/ble_hci_le.o
 .ARM.attributes
                0x00000000000007d0       0x39 Middlewares/STM32_WPAN/dis.o
 .ARM.attributes
                0x0000000000000809       0x39 Middlewares/STM32_WPAN/hci_tl.o
 .ARM.attributes
                0x0000000000000842       0x39 Middlewares/STM32_WPAN/hci_tl_if.o
 .ARM.attributes
                0x000000000000087b       0x39 Middlewares/STM32_WPAN/hts.o
 .ARM.attributes
                0x00000000000008b4       0x39 Middlewares/STM32_WPAN/osal.o
 .ARM.attributes
                0x00000000000008ed       0x39 Middlewares/STM32_WPAN/shci.o
 .ARM.attributes
                0x0000000000000926       0x39 Middlewares/STM32_WPAN/shci_tl.o
 .ARM.attributes
                0x000000000000095f       0x39 Middlewares/STM32_WPAN/shci_tl_if.o
 .ARM.attributes
                0x0000000000000998       0x39 Middlewares/STM32_WPAN/svc_ctl.o
 .ARM.attributes
                0x00000000000009d1       0x39 Middlewares/STM32_WPAN/tl_mbox.o
 .ARM.attributes
                0x0000000000000a0a       0x39 Utilities/dbg_trace.o
 .ARM.attributes
                0x0000000000000a43       0x39 Utilities/otp.o
 .ARM.attributes
                0x0000000000000a7c       0x39 Utilities/stm32_lpm.o
 .ARM.attributes
                0x0000000000000ab5       0x39 Utilities/stm32_seq.o
 .ARM.attributes
                0x0000000000000aee       0x39 Utilities/stm_list.o
 .ARM.attributes
                0x0000000000000b27       0x39 Utilities/stm_queue.o
 .ARM.attributes
                0x0000000000000b60       0x34 c:/st/stm32cubeide_1.4.0/stm32cubeide/plugins/com.st.stm32cube.ide.mcu.externaltools.gnu-tools-for-stm32.7-2018-q2-update.win32_1.5.0.202011040924/tools/bin/../lib/gcc/arm-none-eabi/7.3.1/../../../../arm-none-eabi/lib/thumb/v7e-m/fpv4-sp/hard\libc_nano.a(lib_a-errno.o)
 .ARM.attributes
                0x0000000000000b94       0x34 c:/st/stm32cubeide_1.4.0/stm32cubeide/plugins/com.st.stm32cube.ide.mcu.externaltools.gnu-tools-for-stm32.7-2018-q2-update.win32_1.5.0.202011040924/tools/bin/../lib/gcc/arm-none-eabi/7.3.1/../../../../arm-none-eabi/lib/thumb/v7e-m/fpv4-sp/hard\libc_nano.a(lib_a-impure.o)
 .ARM.attributes
                0x0000000000000bc8       0x34 c:/st/stm32cubeide_1.4.0/stm32cubeide/plugins/com.st.stm32cube.ide.mcu.externaltools.gnu-tools-for-stm32.7-2018-q2-update.win32_1.5.0.202011040924/tools/bin/../lib/gcc/arm-none-eabi/7.3.1/../../../../arm-none-eabi/lib/thumb/v7e-m/fpv4-sp/hard\libc_nano.a(lib_a-init.o)
 .ARM.attributes
                0x0000000000000bfc       0x34 c:/st/stm32cubeide_1.4.0/stm32cubeide/plugins/com.st.stm32cube.ide.mcu.externaltools.gnu-tools-for-stm32.7-2018-q2-update.win32_1.5.0.202011040924/tools/bin/../lib/gcc/arm-none-eabi/7.3.1/../../../../arm-none-eabi/lib/thumb/v7e-m/fpv4-sp/hard\libc_nano.a(lib_a-memcpy-stub.o)
 .ARM.attributes
                0x0000000000000c30       0x34 c:/st/stm32cubeide_1.4.0/stm32cubeide/plugins/com.st.stm32cube.ide.mcu.externaltools.gnu-tools-for-stm32.7-2018-q2-update.win32_1.5.0.202011040924/tools/bin/../lib/gcc/arm-none-eabi/7.3.1/../../../../arm-none-eabi/lib/thumb/v7e-m/fpv4-sp/hard\libc_nano.a(lib_a-memset.o)
 .ARM.attributes
                0x0000000000000c64       0x34 c:/st/stm32cubeide_1.4.0/stm32cubeide/plugins/com.st.stm32cube.ide.mcu.externaltools.gnu-tools-for-stm32.7-2018-q2-update.win32_1.5.0.202011040924/tools/bin/../lib/gcc/arm-none-eabi/7.3.1/../../../../arm-none-eabi/lib/thumb/v7e-m/fpv4-sp/hard\libc_nano.a(lib_a-printf.o)
 .ARM.attributes
                0x0000000000000c98       0x34 c:/st/stm32cubeide_1.4.0/stm32cubeide/plugins/com.st.stm32cube.ide.mcu.externaltools.gnu-tools-for-stm32.7-2018-q2-update.win32_1.5.0.202011040924/tools/bin/../lib/gcc/arm-none-eabi/7.3.1/../../../../arm-none-eabi/lib/thumb/v7e-m/fpv4-sp/hard\libc_nano.a(lib_a-puts.o)
 .ARM.attributes
                0x0000000000000ccc       0x34 c:/st/stm32cubeide_1.4.0/stm32cubeide/plugins/com.st.stm32cube.ide.mcu.externaltools.gnu-tools-for-stm32.7-2018-q2-update.win32_1.5.0.202011040924/tools/bin/../lib/gcc/arm-none-eabi/7.3.1/../../../../arm-none-eabi/lib/thumb/v7e-m/fpv4-sp/hard\libc_nano.a(lib_a-wbuf.o)
 .ARM.attributes
                0x0000000000000d00       0x34 c:/st/stm32cubeide_1.4.0/stm32cubeide/plugins/com.st.stm32cube.ide.mcu.externaltools.gnu-tools-for-stm32.7-2018-q2-update.win32_1.5.0.202011040924/tools/bin/../lib/gcc/arm-none-eabi/7.3.1/../../../../arm-none-eabi/lib/thumb/v7e-m/fpv4-sp/hard\libc_nano.a(lib_a-wsetup.o)
 .ARM.attributes
                0x0000000000000d34       0x34 c:/st/stm32cubeide_1.4.0/stm32cubeide/plugins/com.st.stm32cube.ide.mcu.externaltools.gnu-tools-for-stm32.7-2018-q2-update.win32_1.5.0.202011040924/tools/bin/../lib/gcc/arm-none-eabi/7.3.1/../../../../arm-none-eabi/lib/thumb/v7e-m/fpv4-sp/hard\libc_nano.a(lib_a-fflush.o)
 .ARM.attributes
                0x0000000000000d68       0x34 c:/st/stm32cubeide_1.4.0/stm32cubeide/plugins/com.st.stm32cube.ide.mcu.externaltools.gnu-tools-for-stm32.7-2018-q2-update.win32_1.5.0.202011040924/tools/bin/../lib/gcc/arm-none-eabi/7.3.1/../../../../arm-none-eabi/lib/thumb/v7e-m/fpv4-sp/hard\libc_nano.a(lib_a-findfp.o)
 .ARM.attributes
                0x0000000000000d9c       0x34 c:/st/stm32cubeide_1.4.0/stm32cubeide/plugins/com.st.stm32cube.ide.mcu.externaltools.gnu-tools-for-stm32.7-2018-q2-update.win32_1.5.0.202011040924/tools/bin/../lib/gcc/arm-none-eabi/7.3.1/../../../../arm-none-eabi/lib/thumb/v7e-m/fpv4-sp/hard\libc_nano.a(lib_a-fwalk.o)
 .ARM.attributes
                0x0000000000000dd0       0x34 c:/st/stm32cubeide_1.4.0/stm32cubeide/plugins/com.st.stm32cube.ide.mcu.externaltools.gnu-tools-for-stm32.7-2018-q2-update.win32_1.5.0.202011040924/tools/bin/../lib/gcc/arm-none-eabi/7.3.1/../../../../arm-none-eabi/lib/thumb/v7e-m/fpv4-sp/hard\libc_nano.a(lib_a-makebuf.o)
 .ARM.attributes
                0x0000000000000e04       0x34 c:/st/stm32cubeide_1.4.0/stm32cubeide/plugins/com.st.stm32cube.ide.mcu.externaltools.gnu-tools-for-stm32.7-2018-q2-update.win32_1.5.0.202011040924/tools/bin/../lib/gcc/arm-none-eabi/7.3.1/../../../../arm-none-eabi/lib/thumb/v7e-m/fpv4-sp/hard\libc_nano.a(lib_a-nano-freer.o)
 .ARM.attributes
                0x0000000000000e38       0x34 c:/st/stm32cubeide_1.4.0/stm32cubeide/plugins/com.st.stm32cube.ide.mcu.externaltools.gnu-tools-for-stm32.7-2018-q2-update.win32_1.5.0.202011040924/tools/bin/../lib/gcc/arm-none-eabi/7.3.1/../../../../arm-none-eabi/lib/thumb/v7e-m/fpv4-sp/hard\libc_nano.a(lib_a-nano-mallocr.o)
 .ARM.attributes
                0x0000000000000e6c       0x34 c:/st/stm32cubeide_1.4.0/stm32cubeide/plugins/com.st.stm32cube.ide.mcu.externaltools.gnu-tools-for-stm32.7-2018-q2-update.win32_1.5.0.202011040924/tools/bin/../lib/gcc/arm-none-eabi/7.3.1/../../../../arm-none-eabi/lib/thumb/v7e-m/fpv4-sp/hard\libc_nano.a(lib_a-nano-vfprintf.o)
 .ARM.attributes
                0x0000000000000ea0       0x34 c:/st/stm32cubeide_1.4.0/stm32cubeide/plugins/com.st.stm32cube.ide.mcu.externaltools.gnu-tools-for-stm32.7-2018-q2-update.win32_1.5.0.202011040924/tools/bin/../lib/gcc/arm-none-eabi/7.3.1/../../../../arm-none-eabi/lib/thumb/v7e-m/fpv4-sp/hard\libc_nano.a(lib_a-nano-vfprintf_i.o)
 .ARM.attributes
                0x0000000000000ed4       0x34 c:/st/stm32cubeide_1.4.0/stm32cubeide/plugins/com.st.stm32cube.ide.mcu.externaltools.gnu-tools-for-stm32.7-2018-q2-update.win32_1.5.0.202011040924/tools/bin/../lib/gcc/arm-none-eabi/7.3.1/../../../../arm-none-eabi/lib/thumb/v7e-m/fpv4-sp/hard\libc_nano.a(lib_a-sbrkr.o)
 .ARM.attributes
                0x0000000000000f08       0x34 c:/st/stm32cubeide_1.4.0/stm32cubeide/plugins/com.st.stm32cube.ide.mcu.externaltools.gnu-tools-for-stm32.7-2018-q2-update.win32_1.5.0.202011040924/tools/bin/../lib/gcc/arm-none-eabi/7.3.1/../../../../arm-none-eabi/lib/thumb/v7e-m/fpv4-sp/hard\libc_nano.a(lib_a-stdio.o)
 .ARM.attributes
                0x0000000000000f3c       0x34 c:/st/stm32cubeide_1.4.0/stm32cubeide/plugins/com.st.stm32cube.ide.mcu.externaltools.gnu-tools-for-stm32.7-2018-q2-update.win32_1.5.0.202011040924/tools/bin/../lib/gcc/arm-none-eabi/7.3.1/../../../../arm-none-eabi/lib/thumb/v7e-m/fpv4-sp/hard\libc_nano.a(lib_a-writer.o)
 .ARM.attributes
                0x0000000000000f70       0x34 c:/st/stm32cubeide_1.4.0/stm32cubeide/plugins/com.st.stm32cube.ide.mcu.externaltools.gnu-tools-for-stm32.7-2018-q2-update.win32_1.5.0.202011040924/tools/bin/../lib/gcc/arm-none-eabi/7.3.1/../../../../arm-none-eabi/lib/thumb/v7e-m/fpv4-sp/hard\libc_nano.a(lib_a-closer.o)
 .ARM.attributes
                0x0000000000000fa4       0x34 c:/st/stm32cubeide_1.4.0/stm32cubeide/plugins/com.st.stm32cube.ide.mcu.externaltools.gnu-tools-for-stm32.7-2018-q2-update.win32_1.5.0.202011040924/tools/bin/../lib/gcc/arm-none-eabi/7.3.1/../../../../arm-none-eabi/lib/thumb/v7e-m/fpv4-sp/hard\libc_nano.a(lib_a-fstatr.o)
 .ARM.attributes
                0x0000000000000fd8       0x34 c:/st/stm32cubeide_1.4.0/stm32cubeide/plugins/com.st.stm32cube.ide.mcu.externaltools.gnu-tools-for-stm32.7-2018-q2-update.win32_1.5.0.202011040924/tools/bin/../lib/gcc/arm-none-eabi/7.3.1/../../../../arm-none-eabi/lib/thumb/v7e-m/fpv4-sp/hard\libc_nano.a(lib_a-isattyr.o)
 .ARM.attributes
                0x000000000000100c       0x34 c:/st/stm32cubeide_1.4.0/stm32cubeide/plugins/com.st.stm32cube.ide.mcu.externaltools.gnu-tools-for-stm32.7-2018-q2-update.win32_1.5.0.202011040924/tools/bin/../lib/gcc/arm-none-eabi/7.3.1/../../../../arm-none-eabi/lib/thumb/v7e-m/fpv4-sp/hard\libc_nano.a(lib_a-lseekr.o)
 .ARM.attributes
                0x0000000000001040       0x20 c:/st/stm32cubeide_1.4.0/stm32cubeide/plugins/com.st.stm32cube.ide.mcu.externaltools.gnu-tools-for-stm32.7-2018-q2-update.win32_1.5.0.202011040924/tools/bin/../lib/gcc/arm-none-eabi/7.3.1/../../../../arm-none-eabi/lib/thumb/v7e-m/fpv4-sp/hard\libc_nano.a(lib_a-memchr.o)
 .ARM.attributes
                0x0000000000001060       0x34 c:/st/stm32cubeide_1.4.0/stm32cubeide/plugins/com.st.stm32cube.ide.mcu.externaltools.gnu-tools-for-stm32.7-2018-q2-update.win32_1.5.0.202011040924/tools/bin/../lib/gcc/arm-none-eabi/7.3.1/../../../../arm-none-eabi/lib/thumb/v7e-m/fpv4-sp/hard\libc_nano.a(lib_a-mlock.o)
 .ARM.attributes
                0x0000000000001094       0x34 c:/st/stm32cubeide_1.4.0/stm32cubeide/plugins/com.st.stm32cube.ide.mcu.externaltools.gnu-tools-for-stm32.7-2018-q2-update.win32_1.5.0.202011040924/tools/bin/../lib/gcc/arm-none-eabi/7.3.1/../../../../arm-none-eabi/lib/thumb/v7e-m/fpv4-sp/hard\libc_nano.a(lib_a-readr.o)
 .ARM.attributes
                0x00000000000010c8       0x34 c:/st/stm32cubeide_1.4.0/stm32cubeide/plugins/com.st.stm32cube.ide.mcu.externaltools.gnu-tools-for-stm32.7-2018-q2-update.win32_1.5.0.202011040924/tools/bin/../lib/gcc/arm-none-eabi/7.3.1/../../../../arm-none-eabi/lib/thumb/v7e-m/fpv4-sp/hard\libc_nano.a(lib_a-reent.o)
 .ARM.attributes
                0x00000000000010fc       0x22 c:/st/stm32cubeide_1.4.0/stm32cubeide/plugins/com.st.stm32cube.ide.mcu.externaltools.gnu-tools-for-stm32.7-2018-q2-update.win32_1.5.0.202011040924/tools/bin/../lib/gcc/arm-none-eabi/7.3.1/thumb/v7e-m/fpv4-sp/hard\libgcc.a(_aeabi_uldivmod.o)
 .ARM.attributes
                0x000000000000111e       0x34 c:/st/stm32cubeide_1.4.0/stm32cubeide/plugins/com.st.stm32cube.ide.mcu.externaltools.gnu-tools-for-stm32.7-2018-q2-update.win32_1.5.0.202011040924/tools/bin/../lib/gcc/arm-none-eabi/7.3.1/thumb/v7e-m/fpv4-sp/hard\libgcc.a(_udivmoddi4.o)
 .ARM.attributes
                0x0000000000001152       0x22 c:/st/stm32cubeide_1.4.0/stm32cubeide/plugins/com.st.stm32cube.ide.mcu.externaltools.gnu-tools-for-stm32.7-2018-q2-update.win32_1.5.0.202011040924/tools/bin/../lib/gcc/arm-none-eabi/7.3.1/thumb/v7e-m/fpv4-sp/hard\libgcc.a(_dvmd_tls.o)
 .ARM.attributes
                0x0000000000001174       0x22 c:/st/stm32cubeide_1.4.0/stm32cubeide/plugins/com.st.stm32cube.ide.mcu.externaltools.gnu-tools-for-stm32.7-2018-q2-update.win32_1.5.0.202011040924/tools/bin/../lib/gcc/arm-none-eabi/7.3.1/thumb/v7e-m/fpv4-sp/hard/crtn.o

MAPPING_TABLE   0x0000000020030000       0x28
 *(MAPPING_TABLE)
 MAPPING_TABLE  0x0000000020030000       0x28 Middlewares/STM32_WPAN/tl_mbox.o

MB_MEM1         0x0000000020030028      0x1b8
 *(MB_MEM1)
 MB_MEM1        0x0000000020030028      0x10b Application/User/STM32_WPAN/App/app_ble.o
 *fill*         0x0000000020030133        0x1 
 MB_MEM1        0x0000000020030134       0xac Middlewares/STM32_WPAN/tl_mbox.o

MB_MEM2         0x00000000200301e0      0x877
                0x00000000200301e0                _sMB_MEM2 = .
 *(MB_MEM2)
 MB_MEM2        0x00000000200301e0        0x8 Application/User/app_debug.o
 MB_MEM2        0x00000000200301e8      0x860 Application/User/app_entry.o
 MB_MEM2        0x0000000020030a48        0xf Middlewares/STM32_WPAN/tl_mbox.o
                0x0000000020030a57                _eMB_MEM2 = .
OUTPUT(BLE_HealthThermometer.elf elf32-littlearm)

.comment        0x0000000000000000       0x7b
 .comment       0x0000000000000000       0x7b Application/User/STM32_WPAN/App/app_ble.o
                                         0x7c (size before relaxing)
 .comment       0x000000000000007b       0x7c Application/User/STM32_WPAN/App/dis_app.o
 .comment       0x000000000000007b       0x7c Application/User/STM32_WPAN/App/hts_app.o
 .comment       0x000000000000007b       0x7c Application/User/STM32_WPAN/Target/hw_ipcc.o
 .comment       0x000000000000007b       0x7c Application/User/app_debug.o
 .comment       0x000000000000007b       0x7c Application/User/app_entry.o
 .comment       0x000000000000007b       0x7c Application/User/hw_timerserver.o
 .comment       0x000000000000007b       0x7c Application/User/hw_uart.o
 .comment       0x000000000000007b       0x7c Application/User/main.o
 .comment       0x000000000000007b       0x7c Application/User/stm32wbxx_hal_msp.o
 .comment       0x000000000000007b       0x7c Application/User/stm32wbxx_it.o
 .comment       0x000000000000007b       0x7c Application/User/syscalls.o
 .comment       0x000000000000007b       0x7c Application/User/sysmem.o
 .comment       0x000000000000007b       0x7c Drivers/BSP/P-NUCLEO-WB55.Nucleo/stm32wbxx_nucleo.o
 .comment       0x000000000000007b       0x7c Drivers/CMSIS/system_stm32wbxx.o
 .comment       0x000000000000007b       0x7c Drivers/STM32WBxx_HAL_Driver/stm32wbxx_hal.o
 .comment       0x000000000000007b       0x7c Drivers/STM32WBxx_HAL_Driver/stm32wbxx_hal_cortex.o
 .comment       0x000000000000007b       0x7c Drivers/STM32WBxx_HAL_Driver/stm32wbxx_hal_dma.o
 .comment       0x000000000000007b       0x7c Drivers/STM32WBxx_HAL_Driver/stm32wbxx_hal_dma_ex.o
 .comment       0x000000000000007b       0x7c Drivers/STM32WBxx_HAL_Driver/stm32wbxx_hal_gpio.o
 .comment       0x000000000000007b       0x7c Drivers/STM32WBxx_HAL_Driver/stm32wbxx_hal_hsem.o
 .comment       0x000000000000007b       0x7c Drivers/STM32WBxx_HAL_Driver/stm32wbxx_hal_pwr.o
 .comment       0x000000000000007b       0x7c Drivers/STM32WBxx_HAL_Driver/stm32wbxx_hal_pwr_ex.o
 .comment       0x000000000000007b       0x7c Drivers/STM32WBxx_HAL_Driver/stm32wbxx_hal_rcc.o
 .comment       0x000000000000007b       0x7c Drivers/STM32WBxx_HAL_Driver/stm32wbxx_hal_rcc_ex.o
 .comment       0x000000000000007b       0x7c Drivers/STM32WBxx_HAL_Driver/stm32wbxx_hal_rtc.o
 .comment       0x000000000000007b       0x7c Drivers/STM32WBxx_HAL_Driver/stm32wbxx_hal_rtc_ex.o
 .comment       0x000000000000007b       0x7c Drivers/STM32WBxx_HAL_Driver/stm32wbxx_hal_uart.o
 .comment       0x000000000000007b       0x7c Drivers/STM32WBxx_HAL_Driver/stm32wbxx_hal_uart_ex.o
 .comment       0x000000000000007b       0x7c Middlewares/STM32_WPAN/ble_gap_aci.o
 .comment       0x000000000000007b       0x7c Middlewares/STM32_WPAN/ble_gatt_aci.o
 .comment       0x000000000000007b       0x7c Middlewares/STM32_WPAN/ble_hal_aci.o
 .comment       0x000000000000007b       0x7c Middlewares/STM32_WPAN/ble_hci_le.o
 .comment       0x000000000000007b       0x7c Middlewares/STM32_WPAN/dis.o
 .comment       0x000000000000007b       0x7c Middlewares/STM32_WPAN/hci_tl.o
 .comment       0x000000000000007b       0x7c Middlewares/STM32_WPAN/hci_tl_if.o
 .comment       0x000000000000007b       0x7c Middlewares/STM32_WPAN/hts.o
 .comment       0x000000000000007b       0x7c Middlewares/STM32_WPAN/osal.o
 .comment       0x000000000000007b       0x7c Middlewares/STM32_WPAN/shci.o
 .comment       0x000000000000007b       0x7c Middlewares/STM32_WPAN/shci_tl.o
 .comment       0x000000000000007b       0x7c Middlewares/STM32_WPAN/shci_tl_if.o
 .comment       0x000000000000007b       0x7c Middlewares/STM32_WPAN/svc_ctl.o
 .comment       0x000000000000007b       0x7c Middlewares/STM32_WPAN/tl_mbox.o
 .comment       0x000000000000007b       0x7c Utilities/dbg_trace.o
 .comment       0x000000000000007b       0x7c Utilities/otp.o
 .comment       0x000000000000007b       0x7c Utilities/stm32_lpm.o
 .comment       0x000000000000007b       0x7c Utilities/stm32_seq.o
 .comment       0x000000000000007b       0x7c Utilities/stm_list.o
 .comment       0x000000000000007b       0x7c Utilities/stm_queue.o

.debug_frame    0x0000000000000000      0x7f8
 .debug_frame   0x0000000000000000       0x20 c:/st/stm32cubeide_1.4.0/stm32cubeide/plugins/com.st.stm32cube.ide.mcu.externaltools.gnu-tools-for-stm32.7-2018-q2-update.win32_1.5.0.202011040924/tools/bin/../lib/gcc/arm-none-eabi/7.3.1/../../../../arm-none-eabi/lib/thumb/v7e-m/fpv4-sp/hard\libc_nano.a(lib_a-errno.o)
 .debug_frame   0x0000000000000020       0x2c c:/st/stm32cubeide_1.4.0/stm32cubeide/plugins/com.st.stm32cube.ide.mcu.externaltools.gnu-tools-for-stm32.7-2018-q2-update.win32_1.5.0.202011040924/tools/bin/../lib/gcc/arm-none-eabi/7.3.1/../../../../arm-none-eabi/lib/thumb/v7e-m/fpv4-sp/hard\libc_nano.a(lib_a-init.o)
 .debug_frame   0x000000000000004c       0x28 c:/st/stm32cubeide_1.4.0/stm32cubeide/plugins/com.st.stm32cube.ide.mcu.externaltools.gnu-tools-for-stm32.7-2018-q2-update.win32_1.5.0.202011040924/tools/bin/../lib/gcc/arm-none-eabi/7.3.1/../../../../arm-none-eabi/lib/thumb/v7e-m/fpv4-sp/hard\libc_nano.a(lib_a-memcpy-stub.o)
 .debug_frame   0x0000000000000074       0x20 c:/st/stm32cubeide_1.4.0/stm32cubeide/plugins/com.st.stm32cube.ide.mcu.externaltools.gnu-tools-for-stm32.7-2018-q2-update.win32_1.5.0.202011040924/tools/bin/../lib/gcc/arm-none-eabi/7.3.1/../../../../arm-none-eabi/lib/thumb/v7e-m/fpv4-sp/hard\libc_nano.a(lib_a-memset.o)
 .debug_frame   0x0000000000000094       0x74 c:/st/stm32cubeide_1.4.0/stm32cubeide/plugins/com.st.stm32cube.ide.mcu.externaltools.gnu-tools-for-stm32.7-2018-q2-update.win32_1.5.0.202011040924/tools/bin/../lib/gcc/arm-none-eabi/7.3.1/../../../../arm-none-eabi/lib/thumb/v7e-m/fpv4-sp/hard\libc_nano.a(lib_a-printf.o)
 .debug_frame   0x0000000000000108       0x3c c:/st/stm32cubeide_1.4.0/stm32cubeide/plugins/com.st.stm32cube.ide.mcu.externaltools.gnu-tools-for-stm32.7-2018-q2-update.win32_1.5.0.202011040924/tools/bin/../lib/gcc/arm-none-eabi/7.3.1/../../../../arm-none-eabi/lib/thumb/v7e-m/fpv4-sp/hard\libc_nano.a(lib_a-puts.o)
 .debug_frame   0x0000000000000144       0x40 c:/st/stm32cubeide_1.4.0/stm32cubeide/plugins/com.st.stm32cube.ide.mcu.externaltools.gnu-tools-for-stm32.7-2018-q2-update.win32_1.5.0.202011040924/tools/bin/../lib/gcc/arm-none-eabi/7.3.1/../../../../arm-none-eabi/lib/thumb/v7e-m/fpv4-sp/hard\libc_nano.a(lib_a-wbuf.o)
 .debug_frame   0x0000000000000184       0x2c c:/st/stm32cubeide_1.4.0/stm32cubeide/plugins/com.st.stm32cube.ide.mcu.externaltools.gnu-tools-for-stm32.7-2018-q2-update.win32_1.5.0.202011040924/tools/bin/../lib/gcc/arm-none-eabi/7.3.1/../../../../arm-none-eabi/lib/thumb/v7e-m/fpv4-sp/hard\libc_nano.a(lib_a-wsetup.o)
 .debug_frame   0x00000000000001b0       0x68 c:/st/stm32cubeide_1.4.0/stm32cubeide/plugins/com.st.stm32cube.ide.mcu.externaltools.gnu-tools-for-stm32.7-2018-q2-update.win32_1.5.0.202011040924/tools/bin/../lib/gcc/arm-none-eabi/7.3.1/../../../../arm-none-eabi/lib/thumb/v7e-m/fpv4-sp/hard\libc_nano.a(lib_a-fflush.o)
 .debug_frame   0x0000000000000218      0x11c c:/st/stm32cubeide_1.4.0/stm32cubeide/plugins/com.st.stm32cube.ide.mcu.externaltools.gnu-tools-for-stm32.7-2018-q2-update.win32_1.5.0.202011040924/tools/bin/../lib/gcc/arm-none-eabi/7.3.1/../../../../arm-none-eabi/lib/thumb/v7e-m/fpv4-sp/hard\libc_nano.a(lib_a-findfp.o)
 .debug_frame   0x0000000000000334       0x54 c:/st/stm32cubeide_1.4.0/stm32cubeide/plugins/com.st.stm32cube.ide.mcu.externaltools.gnu-tools-for-stm32.7-2018-q2-update.win32_1.5.0.202011040924/tools/bin/../lib/gcc/arm-none-eabi/7.3.1/../../../../arm-none-eabi/lib/thumb/v7e-m/fpv4-sp/hard\libc_nano.a(lib_a-fwalk.o)
 .debug_frame   0x0000000000000388       0x58 c:/st/stm32cubeide_1.4.0/stm32cubeide/plugins/com.st.stm32cube.ide.mcu.externaltools.gnu-tools-for-stm32.7-2018-q2-update.win32_1.5.0.202011040924/tools/bin/../lib/gcc/arm-none-eabi/7.3.1/../../../../arm-none-eabi/lib/thumb/v7e-m/fpv4-sp/hard\libc_nano.a(lib_a-makebuf.o)
 .debug_frame   0x00000000000003e0       0x38 c:/st/stm32cubeide_1.4.0/stm32cubeide/plugins/com.st.stm32cube.ide.mcu.externaltools.gnu-tools-for-stm32.7-2018-q2-update.win32_1.5.0.202011040924/tools/bin/../lib/gcc/arm-none-eabi/7.3.1/../../../../arm-none-eabi/lib/thumb/v7e-m/fpv4-sp/hard\libc_nano.a(lib_a-nano-freer.o)
 .debug_frame   0x0000000000000418       0x2c c:/st/stm32cubeide_1.4.0/stm32cubeide/plugins/com.st.stm32cube.ide.mcu.externaltools.gnu-tools-for-stm32.7-2018-q2-update.win32_1.5.0.202011040924/tools/bin/../lib/gcc/arm-none-eabi/7.3.1/../../../../arm-none-eabi/lib/thumb/v7e-m/fpv4-sp/hard\libc_nano.a(lib_a-nano-mallocr.o)
 .debug_frame   0x0000000000000444       0xac c:/st/stm32cubeide_1.4.0/stm32cubeide/plugins/com.st.stm32cube.ide.mcu.externaltools.gnu-tools-for-stm32.7-2018-q2-update.win32_1.5.0.202011040924/tools/bin/../lib/gcc/arm-none-eabi/7.3.1/../../../../arm-none-eabi/lib/thumb/v7e-m/fpv4-sp/hard\libc_nano.a(lib_a-nano-vfprintf.o)
 .debug_frame   0x00000000000004f0       0x60 c:/st/stm32cubeide_1.4.0/stm32cubeide/plugins/com.st.stm32cube.ide.mcu.externaltools.gnu-tools-for-stm32.7-2018-q2-update.win32_1.5.0.202011040924/tools/bin/../lib/gcc/arm-none-eabi/7.3.1/../../../../arm-none-eabi/lib/thumb/v7e-m/fpv4-sp/hard\libc_nano.a(lib_a-nano-vfprintf_i.o)
 .debug_frame   0x0000000000000550       0x2c c:/st/stm32cubeide_1.4.0/stm32cubeide/plugins/com.st.stm32cube.ide.mcu.externaltools.gnu-tools-for-stm32.7-2018-q2-update.win32_1.5.0.202011040924/tools/bin/../lib/gcc/arm-none-eabi/7.3.1/../../../../arm-none-eabi/lib/thumb/v7e-m/fpv4-sp/hard\libc_nano.a(lib_a-sbrkr.o)
 .debug_frame   0x000000000000057c       0x88 c:/st/stm32cubeide_1.4.0/stm32cubeide/plugins/com.st.stm32cube.ide.mcu.externaltools.gnu-tools-for-stm32.7-2018-q2-update.win32_1.5.0.202011040924/tools/bin/../lib/gcc/arm-none-eabi/7.3.1/../../../../arm-none-eabi/lib/thumb/v7e-m/fpv4-sp/hard\libc_nano.a(lib_a-stdio.o)
 .debug_frame   0x0000000000000604       0x2c c:/st/stm32cubeide_1.4.0/stm32cubeide/plugins/com.st.stm32cube.ide.mcu.externaltools.gnu-tools-for-stm32.7-2018-q2-update.win32_1.5.0.202011040924/tools/bin/../lib/gcc/arm-none-eabi/7.3.1/../../../../arm-none-eabi/lib/thumb/v7e-m/fpv4-sp/hard\libc_nano.a(lib_a-writer.o)
 .debug_frame   0x0000000000000630       0x2c c:/st/stm32cubeide_1.4.0/stm32cubeide/plugins/com.st.stm32cube.ide.mcu.externaltools.gnu-tools-for-stm32.7-2018-q2-update.win32_1.5.0.202011040924/tools/bin/../lib/gcc/arm-none-eabi/7.3.1/../../../../arm-none-eabi/lib/thumb/v7e-m/fpv4-sp/hard\libc_nano.a(lib_a-closer.o)
 .debug_frame   0x000000000000065c       0x2c c:/st/stm32cubeide_1.4.0/stm32cubeide/plugins/com.st.stm32cube.ide.mcu.externaltools.gnu-tools-for-stm32.7-2018-q2-update.win32_1.5.0.202011040924/tools/bin/../lib/gcc/arm-none-eabi/7.3.1/../../../../arm-none-eabi/lib/thumb/v7e-m/fpv4-sp/hard\libc_nano.a(lib_a-fstatr.o)
 .debug_frame   0x0000000000000688       0x2c c:/st/stm32cubeide_1.4.0/stm32cubeide/plugins/com.st.stm32cube.ide.mcu.externaltools.gnu-tools-for-stm32.7-2018-q2-update.win32_1.5.0.202011040924/tools/bin/../lib/gcc/arm-none-eabi/7.3.1/../../../../arm-none-eabi/lib/thumb/v7e-m/fpv4-sp/hard\libc_nano.a(lib_a-isattyr.o)
 .debug_frame   0x00000000000006b4       0x2c c:/st/stm32cubeide_1.4.0/stm32cubeide/plugins/com.st.stm32cube.ide.mcu.externaltools.gnu-tools-for-stm32.7-2018-q2-update.win32_1.5.0.202011040924/tools/bin/../lib/gcc/arm-none-eabi/7.3.1/../../../../arm-none-eabi/lib/thumb/v7e-m/fpv4-sp/hard\libc_nano.a(lib_a-lseekr.o)
 .debug_frame   0x00000000000006e0       0x30 c:/st/stm32cubeide_1.4.0/stm32cubeide/plugins/com.st.stm32cube.ide.mcu.externaltools.gnu-tools-for-stm32.7-2018-q2-update.win32_1.5.0.202011040924/tools/bin/../lib/gcc/arm-none-eabi/7.3.1/../../../../arm-none-eabi/lib/thumb/v7e-m/fpv4-sp/hard\libc_nano.a(lib_a-mlock.o)
 .debug_frame   0x0000000000000710       0x2c c:/st/stm32cubeide_1.4.0/stm32cubeide/plugins/com.st.stm32cube.ide.mcu.externaltools.gnu-tools-for-stm32.7-2018-q2-update.win32_1.5.0.202011040924/tools/bin/../lib/gcc/arm-none-eabi/7.3.1/../../../../arm-none-eabi/lib/thumb/v7e-m/fpv4-sp/hard\libc_nano.a(lib_a-readr.o)
 .debug_frame   0x000000000000073c       0x5c c:/st/stm32cubeide_1.4.0/stm32cubeide/plugins/com.st.stm32cube.ide.mcu.externaltools.gnu-tools-for-stm32.7-2018-q2-update.win32_1.5.0.202011040924/tools/bin/../lib/gcc/arm-none-eabi/7.3.1/../../../../arm-none-eabi/lib/thumb/v7e-m/fpv4-sp/hard\libc_nano.a(lib_a-reent.o)
 .debug_frame   0x0000000000000798       0x2c c:/st/stm32cubeide_1.4.0/stm32cubeide/plugins/com.st.stm32cube.ide.mcu.externaltools.gnu-tools-for-stm32.7-2018-q2-update.win32_1.5.0.202011040924/tools/bin/../lib/gcc/arm-none-eabi/7.3.1/thumb/v7e-m/fpv4-sp/hard\libgcc.a(_aeabi_uldivmod.o)
 .debug_frame   0x00000000000007c4       0x34 c:/st/stm32cubeide_1.4.0/stm32cubeide/plugins/com.st.stm32cube.ide.mcu.externaltools.gnu-tools-for-stm32.7-2018-q2-update.win32_1.5.0.202011040924/tools/bin/../lib/gcc/arm-none-eabi/7.3.1/thumb/v7e-m/fpv4-sp/hard\libgcc.a(_udivmoddi4.o)
